:100000000C9481000C94A9000C94A9000C94A900F4
:100010000C9473030C94A9000C94CF000C94A900C9
:100020000C94A9000C94A9000C94A9000C94A900AC
:100030000C9490010C94A9000C94A9000C94A900B4
:100040000C94A9000C94890C0C94A9000C94EE0D4E
:100050000C94220E0C947A0E0C94B00E0C94A90001
:100060000C94A9000C94A9000C94A9000C94A9006C
:1000700000003A00370034003100260000003B0049
:100080003800350032002700000039003600330008
:1000900030002500040404040404040402020202E3
:1000A000020201010101020203030303030303032C
:1000B000050505010101010102040840102080012D
:1000C0000210204080010204080804010204081004
:1000D0002040800102041020408000000000000841
:1000E00003000106090000000000000000000000FD
:1000F00000000000000000000400000000006E028C
:10010000111011241FBECFEFD4E0DEBFCDBF11E030
:10011000A0E0B1E0ECE9F7E202C005900D92A03852
:10012000B107D9F714E0A0E8B1E001C01D92AF33E8
:10013000B107E1F710E0C2E0D1E004C02297FE0170
:100140000E94C813CE3FD107C9F70E94A7100C9494
:10015000CC130C940000FB01DC0101900D920020F7
:10016000E1F70895FB01DC014150504030F08D91E2
:100170000190801919F40020B9F7881B990B089594
:10018000FB01DC014150504048F001900D920020ED
:10019000C9F701C01D9241505040E0F708951F92E9
:1001A0000F920FB60F9211242F933F934F935F93AB
:1001B0008F939F93AF93BF93EF93FF9382B5E0919B
:1001C0000A01EE0FE823F0E0ED5CFD4F2081318164
:1001D00030938100209380008F5F82BD8AB59BB5EC
:1001E000019709F08CC027B180918600909187001B
:1001F0009BBD8ABD22FF69C02B7F27B980918401F6
:1002000090918501A0918601B091870120919B0179
:10021000332727FD3095432F532F280F391F4A1FAF
:100220005B1F209384013093850140938601509396
:1002300087018091A101882369F18091EF0190915C
:10024000F001A091F101B091F20182179307A40788
:10025000B50701F5A79B29C030919B0124B3311547
:1002600014F021953327432F532F280F391F4A1F8E
:100270005B1F2093EF013093F0014093F101509305
:10028000F20114BA8091E9019091EA0190938B01F7
:1002900080938A0120918600309187008091E90146
:1002A0009091EA018217930760F51092A10181E015
:1002B0008093A30180917D008F7D80937D0080914C
:1002C0008A00887F80938A001CC0246027B94091EF
:1002D0008A0150918B010090C7019C0180199109FE
:1002E000841795073CF4C901800D911D48175907E3
:1002F0000CF4CA01909387008093860002C09BBDD6
:100300008ABDFF91EF91BF91AF919F918F915F91C6
:100310004F913F912F910F900FBE0F901F90189506
:100320001F920F920FB60F9211242F933F934F936A
:100330005F938F939F93AF93BF93EF93FF9383B597
:1003400000000000E0910901EE0FE823F0E0ED501D
:10035000FE4F2081318135BD24BD8F5F83BD88B5BF
:1003600099B5019709F088C022B3809184009091DB
:10037000850099BD88BD24FF65C02F7E22BB80917A
:10038000800190918101A0918201B091830120911F
:100390009A01332727FD3095432F532F280F391FFC
:1003A0004A1F5B1F2093800130938101409382019B
:1003B000509383018091A001882369F18091EB0122
:1003C0009091EC01A091ED01B091EE012817390751
:1003D0004A075B0701F5AF9B29C030919A0125B30D
:1003E000311514F021953327432F532F280F391F30
:1003F0004A1F5B1F2093EB013093EC014093ED010A
:100400005093EE0115BA8091E7019091E801909325
:10041000890180938801209184003091850080912A
:10042000E7019091E8018217930740F51092A0012F
:1004300081E08093A20189B7877F89BF8EB5887FCD
:100440008EBD1CC0206122BB409188015091890162
:100450000090C6019C0180199109841795073CF40E
:10046000C901800D911D481759070CF4CA019093DA
:1004700085008093840002C099BD88BDFF91EF91F3
:10048000BF91AF919F918F915F914F913F912F912C
:100490000F900FBE0F901F901895EF92FF920F9341
:1004A0001F937B018C0180913704882381F487E3BB
:1004B00094E00E94B610892B51F08CED93E0B801C6
:1004C000A7010E945E0C87E394E00E94C0108CEDAF
:1004D00093E01F910F91FF90EF90089561E075E018
:1004E00080E090E00E944D02A0E8B1E0FC018BE5C5
:1004F00001900D928150E1F708951F93182F662304
:1005000001F180E891E0612F40E00E948A0980E8D3
:1005100091E0612F41E00E948409112359F08091FC
:100520007D008F7D80937D0080918A00887F8093FD
:100530008A001FC089B7877F89BF8EB5887F8EBD2F
:1005400018C0A82FB0E0FD01E058FE4F82A188231B
:1005500081F4AA0FBB1FEA5BFF4F2081FD01E95127
:10056000FE4F80819181820F911DA857BE4F8D93C0
:100570009C931F910895682F882359F080918A00D9
:10058000897F80938A0080918A00816080938A00AD
:1005900006C08EB5897F8EBD8EB581608EBD80E828
:1005A00091E041E00E94670908950F931F93CF9354
:1005B000DF93182F062FC82FD0E09E01295E3E4FF3
:1005C000FE01E058FE4FDE01AB58BD4F648D8C91AB
:1005D0006827F90180810E94A20DFE01EE0FFF1F26
:1005E000ED51FE4F80819181FE01EE0FFF1FE85714
:1005F000FE4F208131818217930758F0F2E08B384B
:100600009F0730F02B58324018F42AE832E001C03E
:100610009C01FE01EE0FFF1FE951FE4F3183208345
:10062000FE01E058FE4F42A1602F6195442361F422
:10063000112329F0209186003091870007C0209176
:100640008400309185000DC0112359F081E090E0C5
:100650009BBD8ABD309387002093860012BC64BB8B
:100660000AC081E090E099BD88BD30938500209359
:10067000840013BC65BB442359F1FE0136E0EE0F44
:10068000FF1F3A95E1F7112391F010928900109223
:10069000880080917D00806280937D00ED50FE4F48
:1006A0008081918190938100809380000BC01DBC5C
:1006B0001CBC89B7886089BFED50FE4F8081918155
:1006C00095BD84BDCD58DD4F812F68810E94BB024E
:1006D00080E891E0612F40E00E948409DF91CF9192
:1006E0001F910F9108951F920F920FB60F92112430
:1006F0002F933F934F935F936F937F938F939F932A
:10070000AF93BF93EF93FF938091A001882309F0EB
:100710004AC04091A2012091C8013091C901809145
:100720009C01882319F0442309F439C0CC9902C0F4
:1007300085E503C0CF9933C083E3220F331F220F17
:10074000331F90E0A0E0B0E02F5F3F4F289F912D36
:10075000900DA11D329F900DA11DBB1FA00DB11DBD
:1007600011249D013093890120938801442359F07D
:1007700010929C0161E060939A016093900180E087
:100780000E94D50210C08091E7019091E801821784
:10079000930748F43093E8012093E70104C03093B5
:1007A0008901209388018091A101882361F5CD9969
:1007B00003C091E08FEF04C0CE9919C090E081E0B2
:1007C00080939B0190939D018091C8019091C901F4
:1007D000880F991F880F991F90938B0180938A012E
:1007E00081E08093910161E00E94D5020CC02091CC
:1007F000C7018091E9019091EA01820F911D9093C8
:100800008B0180938A01FF91EF91BF91AF919F91EE
:100810008F917F916F915F914F913F912F910F90A9
:100820000FBE0F901F90189561E00E94D5020895A9
:10083000AF92BF92CF92DF92EF92FF920F931F93EE
:10084000CF93DF93A82E082F10E0F801EE0FFF1FC3
:10085000EE0FFF1FE058FE4F82899389A489B58966
:100860000297A105B10548F480E891E06A2D22E0E5
:1008700030E040E050E00E94C709F801EE0FFF1F92
:10088000EE0FFF1FE058FE4FC288D388E488F5883A
:10089000A70196015695479537952795D801AA0F38
:1008A000BB1FFD01E552FE4FC081D18120353105CE
:1008B0004105510518F0A0E5BA2E17C0B22EA1527D
:1008C000BE4F2D913C912430310530F4F801EA53AC
:1008D000FE4F8081C80FD11D2830310530F4F8015A
:1008E000EA53FE4F8081C80FD11DF801E058FE4F3A
:1008F000228D000F111F000F111FCB18D108E10826
:10090000F108332727FD3095432F532FC701B60138
:100910000E947113F801E058FE4F2081318142811D
:100920005381260F371F481F591F05511E4FF801CD
:10093000208331834283538380E891E06A2DAE01A6
:100940000E94BD098A2D6B2D0E94D50280E891E09E
:100950006A2D41E00E948A09DF91CF911F910F918A
:10096000FF90EF90DF90CF90BF90AF9008951F93CE
:10097000182FE9E1F1E0E80FF11D808160E00E94AD
:10098000A20D80E891E0612F40E00E9490091F9144
:1009900008952F923F924F925F926F927F928F9223
:1009A0009F92AF92BF92CF92DF92EF92FF920F93FE
:1009B0001F93DF93CF93CDB7DEB727970FB6F89489
:1009C000DEBF0FBECDBF282F30E03F832E83F9015D
:1009D000EE0FFF1FEE0FFF1FEC54FE4F6080718083
:1009E00082809380F901ED58FD4F8081F901E75F26
:1009F000FE4F882311F480E201C084E0808360E030
:100A000072E18AE790E0A40193010E94A4135901C6
:100A10006A011501260160E072E18AE790E0A40115
:100A200093010E94A4130E9416127B018C01C40141
:100A3000B3010E9416129B01AC01C801B7010E94CC
:100A40007D117B018C01EE81FF81E75FFE4F3081DC
:100A50003D83632F70E080E090E00E94161269836E
:100A60007A838B839C83C801B70129813A814B81AA
:100A70005C810E940E137B018C0120E030E040E09D
:100A800050E00E940A1388234CF0C801B70120E00F
:100A900030E040E05FE30E94061108C0C801B701E2
:100AA00020E030E040E05FE30E9405110E94E51184
:100AB0003B014C0180E0A81680E0B80681E0C80642
:100AC00080E0D80638F0EFEF2E2EEFEF3E2E412CCF
:100AD000512C0BC090E8A916B104C104D10428F42C
:100AE00070E8272E312C412C512CA201910121506C
:100AF000304040405040EE81FF8166E0EE0FFF1F26
:100B00006A95E1F7ED50FE4F80E003C021933193E9
:100B10008F5FAD818A17D0F3AA24BB2465014E8074
:100B20005F8055E0440C551C5A95E1F72BC0C60177
:100B3000B5010E94161229813A814B815C810E9485
:100B40000E137B018C01C401B3010E9416129B019C
:100B5000AC01C801B7010E947D110E946A110E9478
:100B6000EA11F201E60FF11DEE0FFF1FED50FE4FEF
:100B7000808191810196918380830894A11CB11C8E
:100B8000C11CD11CA614B704C804D90480F2EE819C
:100B9000FF81E75FFE4FFF83EE83FD81F150AE8161
:100BA000BF81FC9327960FB6F894DEBF0FBECDBF72
:100BB000CF91DF911F910F91FF90EF90DF90CF9039
:100BC000BF90AF909F908F907F906F905F904F906D
:100BD0003F902F9008951F93182FE9E1F1E0E80F5F
:100BE000F11D808160E00E94A20D80E891E0612FFC
:100BF00041E00E949009812F0E94C9041F9108952D
:100C0000CF92DF92EF92FF920F931F93DF93CF93D8
:100C1000CDB7DEB72B970FB6F894DEBF0FBECDBFB2
:100C2000D82E7B0180E891E062E00E94560BC82E2E
:100C30008CE4D81609F4A9C08D15DCF0E7E4DE16C3
:100C400009F4ABC0ED154CF0F5E4DF1609F4D7C09C
:100C500086E4D81609F0E6C0E2C0E9E4DE1609F43D
:100C6000C0C0DE160CF4B0C0FBE4DF1609F0DAC039
:100C700087C086E6D81609F46AC08D155CF0E2E6F6
:100C8000DE1659F1F5E6DF1691F081E6D81609F087
:100C9000C9C016C0EAE6DE1609F462C0F3E7DF1643
:100CA00009F44CC087E6D81609F0BCC03FC0EC2D53
:100CB000F0E0EE0FFF1FEE0FFF1FEC55FE4F08C0D8
:100CC000EC2DF0E0EE0FFF1FEE0FFF1FE455FE4F7F
:100CD0000081118122813381A9C0EC2DF0E0EE0F5B
:100CE000FF1FDF01A853BE4FED90FC90EE0CFF1CE0
:100CF0000894E11CF11CB70180E090E00894E10841
:100D0000F108EE0FFF1FEC54FE4F2081318142812C
:100D100053810E94711300E010E0A80197010E9426
:100D2000A413C901DA018C019D0180C0EC2DF0E013
:100D3000E058FE4F84AD082F10E00FC0EC2DF0E01E
:100D4000EE0FFF1FEE0FFF1FE254FE4FC1CF80E8F2
:100D500091E06C2D0E9496098C0120E030E066C085
:100D60008FB7F894EC2DF0E0EE0FFF1FEE0FFF1F92
:100D7000E058FE4F00811181228133818FBF56C020
:100D80008C2D60E00E947D024DC08C2D61E00E94A0
:100D90007D028C2D0E94B70445C0F701808180330D
:100DA00011F482E38083F7014081405380E891E0B1
:100DB0006C2D0E94D409F7014181405380E891E0F5
:100DC0006C2D0E9470092EC080E891E0B7010E944E
:100DD000E90A9B01AC0180E891E06C2D0E94C709F3
:100DE00021C080E891E0B7010E94E90A9B01AC01B3
:100DF00080E891E06C2DA9010E94BD0913C01FB7C6
:100E0000F89480E891E0B7010E94E90A9B01AC01E7
:100E100080E891E06C2D0E94B0091FBF03C08C2DAB
:100E20000E94EB0500E010E020E030E080E891E077
:100E30007E010894E11CF11CB7014D2D0E949F0B0F
:100E40008EE993E0B7010E940211FAE4DF1671F413
:100E5000EC2DF0E0E058FE4F808980FF04C08C2D1F
:100E60000E94140403C08C2D0E9418042B960FB608
:100E7000F894DEBF0FBECDBFCF91DF911F910F91D0
:100E8000FF90EF90DF90CF9008950F931F93DF9323
:100E9000CF93CDB7DEB72B970FB6F894DEBF0FBE5A
:100EA000CDBF809177028823A1F487E792E00E946A
:100EB000B610892B71F00E94D10C60938002709360
:100EC0008102809382029093830287E792E00E94DE
:100ED000C0108EE993E00E946C0F892B79F18DE0B0
:100EE00061E00E94A20D8EE993E00E949D0F482FC1
:100EF00080E891E08E010F5F1F4FB8010E94060C41
:100F0000813041F480E891E00E94510BB8010E94C9
:100F1000000607C08F3F29F48EE993E0B8010E94D4
:100F200002110E94D10C6093800270938102809321
:100F300082029093830281E080937F0280917F02FE
:100F40008823C9F00E94D10C209180023091810247
:100F500040918202509183022C5E3F4F4F4F5F4F72
:100F6000261737074807590730F410927F028DE0A3
:100F700060E00E94A20D2B960FB6F894DEBF0FBE64
:100F8000CDBFCF91DF911F910F9108950F931F93C4
:100F9000DF93CF93CDB7DEB729970FB6F894DEBFB6
:100FA0000FBECDBF8E010F5F1F4F89E0F801119278
:100FB0008A95E9F784E892E0B80148E020E00E94D1
:100FC000D70AC80160E071E048E050E00E94B2003A
:100FD0009C0180E0232B09F481E029960FB6F89458
:100FE000DEBF0FBECDBFCF91DF911F910F9108954E
:100FF00084E892E069E00E94950A8093750284E893
:1010000092E06AE00E94950A8093760284E892E07A
:101010006BE00E94950A90E0882309F491E0909398
:101020000B0190930C0184E892E06CE00E94950A19
:1010300090E09093E0018093DF012091C60130E0C1
:10104000AC01429FC001439F900D529F900D11240F
:1010500001969093DC018093DB0184E892E06DE0DF
:101060000E94950A90E09093E2018093E101409103
:10107000C70150E09C01249FC001259F900D349F23
:10108000900D112401969093DE018093DD018091F3
:10109000C60190E0880F991F880F991F2091C80101
:1010A0003091C901820F931F9093E4018093E30173
:1010B000440F551F440F551F8091CA019091CB01D9
:1010C000480F591F5093E6014093E50184E892E0F0
:1010D00068E00E94950A90E0882309F491E09093DB
:1010E000730290937402992311F480E201C084E0AA
:1010F00080930901992311F480E201C084E0809378
:101100000A010E94C607882309F4FFCF08959F9221
:10111000AF92BF92CF92DF92EF92FF920F931F9305
:10112000CF93DF930E94F80717BC16BC8DE061E0F7
:101130000E94630DA3E1AA2EA1E0BA2ECC24DD24E7
:10114000F3E09F2EF601E75EFE4F1081812F61E0F4
:101150000E94630D812F61E00E94A20DF601EF5EF7
:10116000FE4F1081812F61E00E94630D812F60E0AE
:101170000E94A20DF601E95EFE4F1081812F61E011
:101180000E94630D812F60E00E94A20D7601EE0C9B
:10119000FF1CEC0CFD1C8BE191E0E80EF91EF60142
:1011A000ED58FD4F8081899DE0011124C55FDE4F20
:1011B00000E0F70111917F01812F61E00E94630D32
:1011C000812F69910E94A20D0F5F033091F7F60104
:1011D000EF5DFE4F1081812F61E00E94630D812F32
:1011E00060E00E94A20D61E070E080E090E00E946B
:1011F000DF0C812F61E00E94A20DF501808162E089
:101200000E94630DF501818162E00E94630D0894E4
:10121000C11CD11C82E090E0A80EB91E92E0C91654
:10122000D10409F08FCF8EE993E040E855E260E009
:1012300070E00E94E60E04C08EE993E00E949D0FCC
:101240008EE993E00E946C0F892BB1F710927D001C
:1012500089B7837089BF1FBC88E18EBD10928B0057
:1012600080938A0080EF80936B008BB78F7E8BBF5B
:101270008BB788608BBFDF91CF911F910F91FF904B
:10128000EF90DF90CF90BF90AF909F900895E3E2F2
:10129000F1E020E030E08081861789F4F901EE0F5B
:1012A000FF1F442331F0E20FF31FED5DFE4F8181FC
:1012B0000895E20FF31FED5DFE4F828108952F5FC9
:1012C0003F4F33962431310531F78FEF0895FC01FC
:1012D000E60FF11D828D18160CF04195428F08958E
:1012E000DC01E62FF0E0942F917040FF04C0EA0F7C
:1012F000FB1F8FEF03C0EA0FFB1F81E0828FA60F59
:10130000B11D5C969C930895FC01E60FF11D4170A0
:1013100042A30895FC01E60FF11D417040A308951A
:10132000FC01E60FF11D4170468F0895FC01E60FA8
:10133000F11D848D382F330F20E092A180E0282BFF
:10134000392B868D90E0282B392B80A190E044E04A
:10135000880F991F4A95E1F7282B392BC901089569
:10136000E62FF0E0EE0FFF1FEE0FFF1FE80FF91F53
:1013700020833183428353830895E62FF0E034962F
:10138000EE0FFF1FE80FF91F518340830895E62FEA
:10139000F0E0EE0FFF1FEE0FFF1FE80FF91F228B8B
:1013A000338B448B558B0895FC01E60FF11D408B68
:1013B00008955F926F927F928F929F92AF92BF92A9
:1013C000CF92DF92EF92FF920F931F938C013A011D
:1013D0004B01522E34E8E32E32E0F32EC7016EE0CB
:1013E0000E94B10AF80164A775A786A797A7C7014D
:1013F00062E10E94B10AF80160AB71AB82AB93ABC2
:10140000C70166E10E94B10AF80164AB75AB86AB17
:1014100097ABC7016AE10E94B10AF80160AF71AFF2
:1014200082AF93AFC7016EE10E94B10A025C1F4F09
:10143000F80161937193819391938F01C70162E2E7
:101440000E94B10AF80160837183828393830254FE
:101450001040C70166E20E949E0A28E4A22EB12C29
:10146000A00EB11EF50191838083C70168E20E943E
:101470009E0A9C01065B1F4FF801918380830A54EA
:101480001040F801148E41E042A310A2168EC12C28
:10149000D12CB0E8EB2EF12CC082D182E282F38213
:1014A00011861086108A128A138A148A158A64A2F9
:1014B00075A286A297A254AE0A5B1F4FF5018081E8
:1014C00091816BE470E00E949013F80160830654F0
:1014D0001040F801158E43A311A2178EC482D58245
:1014E000E682F78213861286118A168A178A108E70
:1014F000118E60A671A682A693A655AE095B1F4FFA
:10150000C9016BE470E00E949013F80160831F91A1
:101510000F91FF90EF90DF90CF90BF90AF909F9092
:101520008F907F906F905F900895E199FECF862F06
:1015300090E09FBB8EBBE09A8DB30895E199FECFFA
:10154000862F90E09FBB8EBBE09A2DB3E199FECF32
:101550006F5F862F90E09FBB8EBBE09A9DB3822F7A
:101560000895E199FECF862F90E09FBB8EBBE09A55
:101570002DB3E199FECF6F5F862F90E09FBB8EBBAE
:10158000E09A7DB36F5FE199FECF862F90E09FBB1D
:101590008EBBE09A3DB3E199FECF6F5F862F90E05E
:1015A0009FBB8EBBE09A9DB3622F832F0895522F6D
:1015B000FB0120E009C0E199FECF90E09FBB8EBB0C
:1015C000E09A8DB381932F5F822F850F241798F3B4
:1015D0000895FB0185818A330CF08750B481BA33BA
:1015E0000CF0B75063816A330CF06750A281AA33C4
:1015F0000CF0A75091819A330CF0975070817A3398
:101600000CF0775020E030E040E050E08F70482F41
:10161000B295B07F4B2B6F70832F807F862BA29566
:10162000A07F8F70382F3A2B9F70622F607F692BBD
:101630007295707F6F70672B732FCA010895842F86
:101640008F70AFE5B1E0FD01E80FF11D8081FB0176
:10165000858342954F70FD01E40FF11D8081FB01F0
:101660008483832F8F70FD01E80FF11D8081FB01C2
:10167000838332953F70FD01E30FF11D8081FB01F3
:101680008283822F8F70FD01E80FF11D8081FB01A5
:10169000818322952F70A20FB11D8C9180831682B9
:1016A0000895FC01E65AFF4F80810895FC016230E5
:1016B00028F4E75AFF4F6083E955F040E75AFF4F9F
:1016C00080810895FF920F931F93CF93DF93EC01D6
:1016D000F62E8C01035B1F4FF8016081C65ADF4F65
:1016E00068832C97888181532B968883C955D04075
:1016F0008230F0F4CE0141E00E9447096F2D635023
:10170000282F332727FD3095862F90E0281739079B
:1017100079F4F80190E003C0828181939F5F96176E
:10172000D8F3C20FD31FC35BDF4F188281E001C023
:1017300080E0DF91CF911F910F91FF9008959F92CC
:10174000AF92BF92CF92DF92EF92FF920F931F93CF
:10175000CF93DF936C017B01B12EA22E932E642FC9
:1017600040E00E944709182F8F3F11F481E201C029
:101770008DE3F7018083E7012196133099F016304D
:1017800059F1123089F51A82E02FEF70F0E0E15A3A
:10179000FE4F8081898302950F70E02FF0E0E15ABF
:1017A000FE4F16C0A02F8B2D1B82E02FEF70F0E0B4
:1017B000E15AFE4F20812A83A295AF70B0E0A15A72
:1017C000BE4F2C9129838F7090E0815A9E4FFC016F
:1017D0008081F701818308C0C601BE01202F3B2D07
:1017E0004A2D592D0E941F0BFE01E10FF11D8DE0C6
:1017F00080831182DF91CF911F910F91FF90EF9025
:10180000DF90CF90BF90AF909F900895EF92FF929E
:101810000F931F93CF93DF93EC018B018CE4E82EA1
:10182000F12CEC0EFD1EF7018081882319F14A335B
:1018300091F1FE01E85AFF4F8081DE01A80FB11D32
:10184000A35BBF4F4C93682F6F5F60834D3079F47B
:10185000CE010E94620B8823F1F0C35BDF4FC80109
:10186000BE010E94AB00F701108281E020C06B3006
:10187000E9F411C04A33D1F4C85ADF4F188281E02D
:10188000F7018083CE010B9768E071E04BE050E0F8
:101890000E94C0000BC081E2F80180838DE081834B
:1018A0001282C45BDF4F18828FEF01C080E0DF91AE
:1018B000CF911F910F91FF90EF900895CF92DF92FB
:1018C000EF92FF920F931F938C016A017B01045BDF
:1018D0001F4FF8011082035F1F4FF8011082129210
:1018E0008F0108551040C801835B9F4F68E071E08D
:1018F0004BE050E00E94C000C801B701A60128E0FB
:101900000E94D9091F910F91FF90EF90DF90CF9027
:1019100008951F920F920FB60F9211242F933F93A9
:101920008F939F93AF93BF938091890290918A0286
:10193000A0918B02B0918C0230918D020196A11D75
:10194000B11D232F2D5F2D3720F02D570196A11D9E
:10195000B11D20938D028093890290938A02A093F7
:101960008B02B0938C028091850290918602A091A7
:101970008702B09188020196A11DB11D8093850256
:1019800090938602A0938702B0938802BF91AF9193
:101990009F918F913F912F910F900FBE0F901F90AD
:1019A00018958FB7F8942091890230918A0240915E
:1019B0008B0250918C028FBFB901CA0108959B011F
:1019C000AC017FB7F8948091850290918602A09136
:1019D0008702B091880262B708B601FE05C06F3F6A
:1019E00019F00196A11DB11D7FBFBA2FA92F982F05
:1019F0008827860F911DA11DB11D62E0880F991FD8
:101A0000AA1FBB1F6A95D1F7BC012EC0FFB7F8947F
:101A10008091850290918602A0918702B091880200
:101A2000E2B708B601FE05C0EF3F19F00196A11D0F
:101A3000B11DFFBFBA2FA92F982F88278E0F911D98
:101A4000A11DB11DE2E0880F991FAA1FBB1FEA95D7
:101A5000D1F7861B970B885E9340C0F2215030402F
:101A60004040504068517C4F2115310541055105DA
:101A700069F60895789483B7826083BF83B78160E5
:101A800083BF89B7826089BF1EBC8EB582608EBD60
:101A90008EB581608EBD8FB581608FBD87B5846046
:101AA00087BD87B5806487BDEAE8F0E08081826009
:101AB0008083808181608083EBE8F0E080818160B9
:101AC00080831AB80895CF93DF93482F50E0CA015E
:101AD00089549F4FFC0134914C565F4FFA01849119
:101AE000882369F190E0880F991FFC01E059FF4FAE
:101AF000A591B491FC01E458FF4FC591D4916623A0
:101B000051F42FB7F8948C91932F909589238C934F
:101B1000888189230BC0623061F42FB7F8948C91CF
:101B2000932F909589238C938881832B88832FBF53
:101B300006C09FB7F8948C91832B8C939FBFDF9145
:101B4000CF910895482F50E0CA0186529F4FFC0163
:101B50002491CA0189549F4FFC0194914C565F4FC8
:101B6000FA0134913323C1F1222311F1253099F088
:101B7000263028F4233041F02430D1F408C0283036
:101B800071F02930A9F40FC08FB58F7702C08FB5DF
:101B90008F7D8FBD0DC087B58F7D87BD09C08091BA
:101BA0008B008F7703C080918B008F7D80938B009B
:101BB000E32FF0E0EE0FFF1FE458FF4FA591B49123
:101BC0002FB7F894662321F48C919095892302C055
:101BD0008C91892B8C932FBF089508951F920F929B
:101BE0000FB60F9211242F933F934F938F939F9390
:101BF000EF93FF934CB12091CE023091CF022F5F33
:101C00003F4F2F7330708091D0029091D1022817EE
:101C1000390759F0E091CE02F091CF02E257FD4F23
:101C200040833093CF022093CE02FF91EF919F919A
:101C30008F914F913F912F910F900FBE0F901F905A
:101C4000189508951F920F920FB60F9211242F939B
:101C50003F934F938F939F93EF93FF9343B12091C3
:101C60005603309157032F5F3F4F2F733070809191
:101C70005803909159032817390759F0E0915603FA
:101C8000F0915703EA5EFC4F408330935703209353
:101C90005603FF91EF919F918F914F913F912F911B
:101CA0000F900FBE0F901F901895E091AA03F0912E
:101CB000AB03E05CFF4F8191919120813181821BC8
:101CC000930B8F739070892B11F00E94ED0DE091B2
:101CD000C903F091CA03E05CFF4F8191919120818B
:101CE0003181821B930B8F739070892B11F00E94AE
:101CF000210E08951F920F920FB60F9211242F9369
:101D00003F938F939F93EF93FF9320911203309112
:101D1000130380911403909115032817390711F4C8
:101D2000559813C0E0911403F0911503EE52FD4F46
:101D30002081809114039091150301968F73907008
:101D400090931503809314032CB9FF91EF919F9109
:101D50008F913F912F910F900FBE0F901F9018956C
:101D60001F920F920FB60F9211242F933F938F93D0
:101D70009F93EF93FF9320919A0330919B0380915F
:101D80009C0390919D032817390711F40D9813C0F7
:101D9000E0919C03F0919D03E65AFC4F20818091D5
:101DA0009C0390919D0301968F73907090939D0377
:101DB00080939C0323B9FF91EF919F918F913F9165
:101DC0002F910F900FBE0F901F901895AF92BF925A
:101DD000DF92EF92FF920F931F93CF93DF93EC016B
:101DE0007A018B01DD24403081EE580780E06807DE
:101DF00080E0780711F0DD24D39491E0A92EB12C76
:101E0000EC89FD89DD2069F0C5010E8C02C0880FC8
:101E1000991F0A94E2F7808360E079E08DE390E017
:101E200005C0108260E874E88EE190E0A801970197
:101E30000E94A41321503040404050405695479591
:101E40003795279580E12030380720F0DD2011F00C
:101E5000DD24D6CFE889F9893083EA89FB8920839C
:101E6000EE89FF89408121E030E0C9010A8C02C07F
:101E7000880F991F0A94E2F7482B4083EE89FF8967
:101E80004081C9010B8C02C0880F991F0A94E2F7A8
:101E9000482B4083EE89FF894081C9010C8C02C028
:101EA000880F991F0A94E2F7482B4083EE89FF8937
:101EB00080810D8C02C0220F331F0A94E2F7209517
:101EC00028232083DF91CF911F910F91FF90EF90F6
:101ED000DF90BF90AF900895DC011C96ED91FC91CE
:101EE0001D97E05CFF4F2191319180819181281BEA
:101EF000390B2F733070C9010895DC011C96ED91E8
:101F0000FC911D97E05CFF4F20813181E054F0404F
:101F1000DF01AE5BBF4F8D919C9111972817390758
:101F200019F42FEF3FEF07C08D919C91E80FF91F37
:101F30008081282F30E0C9010895DC011C96ED91C5
:101F4000FC911D97E05CFF4F20813181E054F0400F
:101F5000DF01AE5BBF4F8D919C9111972817390718
:101F600019F42FEF3FEF10C08D919C911197E80F5E
:101F7000F91F20818D919C91119701968F7390701C
:101F800011969C938E9330E0C9010895FC018685DB
:101F90009785DC01A05CBF4FFC01EE5BFF4F2D91EC
:101FA0003C9111978081918128173907C1F70895D5
:101FB000CF93DF93EC01EE85FF85E05CFF4F20813E
:101FC0003181E054F0402F5F3F4F2F733070DF01BD
:101FD000AE5BBF4F8D919C91119728173907D1F3B4
:101FE000E05CFF4F80819181E054F040E80FF91FE1
:101FF0006083EE85FF85E05CFF4F31832083EE89AF
:10200000FF89208181E090E00D8C02C0880F991F2C
:102010000A94E2F7282B208381E090E0DF91CF91B2
:1020200008951F931092A1031092A00328EE33E0AD
:1020300040E050E02093A2033093A3034093A40315
:102040005093A50363E771E070939F0360939E0331
:102050008EE892E09093AB038093AA0382ED92E026
:102060009093AD038093AC0380E490E09093AF0332
:102070008093AE0389E290E09093B1038093B00324
:102080008BE290E09093B3038093B2038AE290E0F6
:102090009093B5038093B4038CE290E09093B703E0
:1020A0008093B60314E01093B803B3E0B093B90380
:1020B000A7E0A093BA03F5E0F093BB03E1E0E0935F
:1020C000BC031092C0031092BF032093C10330934E
:1020D000C2034093C3035093C4037093BE03609341
:1020E000BD0386E193E09093CA038093C9038AE518
:1020F00093E09093CC038093CB038CE590E0909396
:10210000CE038093CD0380E290E09093D003809340
:10211000CF0382E290E09093D2038093D10381E2D7
:1021200090E09093D4038093D30383E290E0909364
:10213000D6038093D5031093D703B093D803A0930D
:10214000D903F093DA03E093DB031F910895CF9353
:10215000DF930E943A0D0E948708C5E5DEE00E94E9
:1021600045072097E1F30E94550EF9CFFC0120E0CE
:1021700030E08081882311F421E030E0C901089526
:10218000FC0181E080830895CF92DF92EF92FF926D
:102190000F931F93CF93DF937C016B018A01C0E003
:1021A000D0E00FC0D6016D916D01D701ED91FC918A
:1021B0000190F081E02DC7010995C80FD91F01508A
:1021C00010400115110571F7CE01DF91CF911F91DC
:1021D0000F91FF90EF90DF90CF900895CF93DF9312
:1021E000DB010D900020E9F71197A61BB70BEC015E
:1021F000E881F9810280F381E02DAD010995DF913D
:10220000CF9108950E94EE1008955058BB27AA2739
:102210000ED0AFC1A0D130F0A5D120F031F49F3F56
:1022200011F41EF495C10EF4E095E7FB60C1E92FAF
:10223000B1D180F3BA17620773078407950718F0C6
:1022400071F49EF5E0C10EF4E0950B2EBA2FA02D8F
:102250000B01B90190010C01CA01A0011124FF2753
:10226000591B99F0593F50F4503E68F11A16F0404E
:10227000A22F232F342F4427585FF3CF469537954D
:102280002795A795F0405395C9F77EF41F16BA0B12
:10229000620B730B840BBAF09150A1F0FF0FBB1FC0
:1022A000661F771F881FC2F70EC0BA0F621F731F09
:1022B000841F48F4879577956795B795F7959E3F66
:1022C00008F0B3CF9395880F08F09927EE0F9795F4
:1022D0008795089581D180F09F3740F491110EF4D5
:1022E00093C160E070E080E89FE3089526F01B163C
:1022F000611D711D811D01C11BC10CD03AC132D1BC
:1023000040F029D130F021F45F3F19F0F0C05111B5
:102310007BC11EC13FD198F39923C9F35523B1F373
:10232000951B550BBB27AA2762177307840738F044
:102330009F5F5F4F220F331F441FAA1FA9F333D0A3
:102340000E2E3AF0E0E830D091505040E695001C57
:10235000CAF729D0FE2F27D0660F771F881FBB1F13
:10236000261737074807AB07B0E809F0BB0B802DED
:10237000BF01FF2793585F4F2AF09E3F510568F039
:10238000B6C042C15F3FECF3983EDCF3869577958B
:102390006795B795F7959F5FC9F7880F911D96953B
:1023A000879597F90895E1E0660F771F881FBB1F97
:1023B000621773078407BA0720F0621B730B840B44
:1023C000BA0BEE1F88F7E095089504D06894B11118
:1023D0001BC10895E7D088F09F5790F0B92F992737
:1023E000B751A0F0D1F0660F771F881F991F1AF020
:1023F000BA95C9F712C0B13081F005D1B1E00895A6
:1024000002C1672F782F8827B85F39F0B93FCCF326
:10241000869577956795B395D9F73EF49095809515
:10242000709561957F4F8F4F9F4F0895E89409C035
:1024300097FB3EF490958095709561957F4F8F4FF7
:102440009F4F9923A9F0F92F96E9BB279395F6950D
:10245000879577956795B795F111F8CFFAF4BB0F8B
:1024600011F460FF1BC06F5F7F4F8F4F9F4F16C0EF
:10247000882311F096E911C0772321F09EE8872F79
:10248000762F05C0662371F096E8862F70E060E035
:102490002AF09A95660F771F881FDAF7880F9695AE
:1024A000879597F90895990F0008550FAA0BE0E852
:1024B000FEEF16161706E807F907C0F01216130606
:1024C000E407F50798F0621B730B840B950B39F446
:1024D0000A2661F0232B242B252B21F408950A26AC
:1024E00009F4A140A6958FEF811D811D089597F9EC
:1024F0009F6780E870E060E00895882371F4772397
:1025000021F09850872B762F07C0662311F4992766
:102510000DC09051862B70E060E02AF09A95660F0E
:10252000771F881FDAF7880F9695879597F9089592
:102530009F3F49F0915028F4869577956795B79518
:102540009F5F80389F4F880F9695879597F90895DC
:102550009FEF80EC089500240A94161617061806BB
:102560000906089500240A94121613061406050697
:102570000895092E0394000C11F4882352F0BB0F28
:1025800040F4BF2B11F460FF04C06F5F7F4F8F4F8B
:102590009F4F089557FD9058440F551F59F05F3FC6
:1025A00071F04795880F97FB991F61F09F3F79F075
:1025B00087950895121613061406551FF2CF4695F7
:1025C000F1DF08C0161617061806991FF1CF869579
:1025D0007105610508940895E5DFA0F0BEE7B9171D
:1025E00088F4BB279F3860F41616B11D672F782F2B
:1025F0008827985FF7CF869577956795B11D939556
:102600009639C8F30895E894BB2766277727CB014E
:1026100097F9089548DF08F48FEF08950BD0A9CFFC
:102620009ADF28F09FDF18F0952309F060CF90CF54
:102630001124EACFAFDFA0F3959FD1F3950F50E0BF
:10264000551F629FF001729FBB27F00DB11D639F64
:10265000AA27F00DB11DAA1F649F6627B00DA11D0A
:10266000661F829F2227B00DA11D621F739FB00DB0
:10267000A11D621F839FA00D611D221F749F332720
:10268000A00D611D231F849F600D211D822F762FB9
:102690006A2F11249F5750408AF0E1F088234AF0B6
:1026A000EE0FFF1FBB1F661F771F881F9150504002
:1026B000A9F79E3F510570F01ACFA6CF5F3FECF30C
:1026C000983EDCF3869577956795B795F795E795EE
:1026D0009F5FC1F7FE2B880F911D9695879597F9FF
:1026E0000895629FD001739FF001829FE00DF11D5C
:1026F000649FE00DF11D929FF00D839FF00D749F7C
:10270000F00D659FF00D9927729FB00DE11DF91F27
:10271000639FB00DE11DF91FBD01CF011124089584
:10272000AA1BBB1B51E107C0AA1FBB1FA617B707F7
:1027300010F0A61BB70B881F991F5A95A9F7809513
:102740009095BC01CD010895A1E21A2EAA1BBB1BD6
:10275000FD010DC0AA1FBB1FEE1FFF1FA217B3076D
:10276000E407F50720F0A21BB30BE40BF50B661F83
:10277000771F881F991F1A9469F760957095809547
:1027800090959B01AC01BD01CF010895EE0FFF1F95
:0C2790000590F491E02D0994F894FFCF1F
:10279C00417374726F45510000202001010101004A
:1027AC0000051E221F2120030704080611100A121F
:1027BC00130F0E65000661000662000667000273C7
:1027CC0000064B00004506006A000666000347023F
:1027DC00004806004D06004906004A000050010062
:1027EC004600004C00004106004206005306003033
:1027FC00313233343536373839414243444546005B
:10280C00000000D80FC4106C0F9D0F7D0FC60F0079
:00000001FF
