:1000000009C1000033C1000031C100002FC1000050
:100010002DC100002BC1000029C1000027C1000034
:1000200025C1000023C1000021C100001FC1000044
:100030001DC100001BC1000019C1000017C1000054
:100040000C943A1213C1000011C100000FC100004E
:100050000DC100000BC1000009C1000007C1000074
:1000600005C100000C94A0170C94C117FFC000003C
:10007000FDC00000FBC00000F9C000000C943C1162
:10008000F5C00000F3C00000F1C00000EFC00000A8
:10009000EDC00000EBC00000E9C00000E7C00000B8
:1000A000E5C00000E3C00000E1C00000DFC00000C8
:1000B000DDC00000DBC00000D9C00000D7C00000D8
:1000C000D5C00000D3C00000D1C00000CFC00000E8
:1000D000CDC00000CBC00000C9C00000C7C00000F8
:1000E000C5C00000AE0878088F08F608C708780871
:1000F0009E09900927082708900C810927082708DE
:100100002708270827087409270827082708270829
:100110002708270827082708270827086409EB0964
:100120002708270854092F09230927082708100939
:10013000270827082708270827082708FB09270872
:10014000AE09AE083F0A8F08F608C708110A9E09D3
:1001500090091308130813088109130813081308DA
:100160001308130874091308130813081308130855
:100170001308130813081308130864091B0A13084B
:10018000130854092F092309130813081009130829
:1001900013081308130813081308040A1308AE09F8
:1001A000740BBD0BAB0B9C0B2E082E082E082E08D3
:1001B0002E082E082E082E082E088A0B2E082E0830
:1001C000610B4E0B380B210B2E082E082E08DE0A71
:1001D000CA0A0E0B2E082E082E082E082E082E08EE
:1001E0002E082E08B20ABF0A2E082E082E082E0846
:1001F0002E082E082E082E082E08B80AC50A2E082A
:100200002E08AC0A2E082E082E082E082E08820A68
:100210002E08740A11241FBECFEFD1E2DEBFCDBF7E
:1002200000E00CBF0FB6F894A8958091600088613B
:1002300080936000109260000FBE12E0A0E0B2E078
:10024000EEECF8E300E00BBF02C007900D92A2387D
:10025000B107D9F725E0A2E8B2E001C01D92A136AE
:10026000B207E1F70E94BB0C0C94651CC9CE8091CB
:10027000090180FF12C0A0988AE000008150E9F7D0
:10028000989888EC00008150E9F78091090180FD81
:1002900008C081E0989AA09A089580E0989AA09A60
:1002A00008958FEFF7CF5F9A1092B7020895EFE6A7
:1002B000F0E080818F7D8083E1E8F0E08081887FBD
:1002C0008083E9E9F2E010A281E082A3808F10929E
:1002D0009702F0980895E1E7F0E080818F7D8083B8
:1002E000E1E9F0E08081887F8083E9E9F2E011A212
:1002F00081E083A3818F10929802F198089588304D
:1003000018F4880F880F880F613061F108F16230AE
:1003100069F06330B1F48830D9F1803209F04AC015
:100320008AE280930002809301020895883059F197
:10033000803299F58AE28093000288E2809301027C
:10034000089587E08093000281E080930102089580
:10035000883099F08032A9F782E080930002809380
:1003600001020895883049F08032F1F485E08093ED
:10037000000282E080930102089583E080930002EE
:1003800010920102089560930002109201020895F4
:100390001092000210920102089587E080930002FB
:1003A00085E080930102089584E0809300026093C9
:1003B0000102089580E18093000288E280930102A7
:1003C00008954F925F926F927F928F929F92AF9219
:1003D000BF92CF92DF92EF92FF92CF93DF93C82F1D
:1003E000D0E0FE01EE0FFF1FEE0FFF1FEF52FD4F9B
:1003F00080809180A280B38060E072E18AE790E023
:10040000A50194010E94F81B69017A010E94A01ABB
:100410002B013C01C501B4010E94A01A9B01AC0153
:10042000C301B2010E940C1A20E030E040E052E427
:100430000E946E1B20E030E040E05FE30E949519CF
:100440000E94741A4B015C01E114F10451F480E83C
:10045000C816D104E104F10408F066C020E830E0D9
:1004600002C02FEF3FEFCE010024969587950794A9
:10047000969587950794982F802DFC01E252FB4FAB
:10048000825E9A4F21933193E817F907D9F78114C7
:100490009104A104B104C9F1C501B4010E94A01ADC
:1004A0002B013C01C12CD12C7601CC0FDD1FC29554
:1004B000D295D07FDC27C07FDC27C701B6010E9420
:1004C000A01A20E030E040E052E40E946E1BA3013D
:1004D00092010E940C1A0E94F9190E94741AFE01DE
:1004E000E60FF11DEE0FFF1FE252FB4F808191815D
:1004F0000196918380838FEFC81AD80AE80AF80A18
:100500008C149D04AE04BF04C1F6DF91CF91FF901F
:10051000EF90DF90CF90BF90AF909F908F907F90A3
:100520006F905F904F90089596019DCF0F931F930A
:10053000CF9308E010E0C0E0C8010E947E159C2F18
:10054000982788E027E0990F08F492278A95D9F731
:10055000C92F0F5F1F4F043E81E0180769F7911103
:1005600001C0C1E08C2FCF911F910F910895CF93BF
:1005700087E090E00E947E15C82FD8DF91E0C81375
:1005800090E0892FCF9108951F93CF93DF9300D0F0
:100590001F92CDB7DEB7182F40E050E063E0CE01E8
:1005A00001960E94A41543E050E068E072E0CE019D
:1005B00001960E94411C892B49F080E00F900F901A
:1005C0000F900F90DF91CF911F91089583E090E0FD
:1005D0000E948E15683373408105910571F71123D0
:1005E00091F180915E05843040F7882339F1809144
:1005F000DD04813210F78091EF029091F002C297F2
:100600008F379440D0F68091F1029091F202C29718
:100610008F37944090F68091FB029091FC02892BD9
:1006200061F28091FD029091FE02892B31F290914E
:10063000E302915081E0933108F2BFCF8091DD0455
:100640008131C8F2BACF93DF8111CBCFB6CF89E029
:1006500090E00E947E1591E0811101C090E090939E
:10066000DB048AE090E00E947E1591E0811101C0D8
:1006700090E09093DC048BE090E00E947E158093E4
:100680005E0588E090E00E947E158093DD048BE299
:1006900090E00E947E1591E0811190E09093860297
:1006A0008FE290E00E947E1591E0811101C090E000
:1006B00090938A0281E09091DD04983008F080E008
:1006C000809388028AE290E00E947E1591E0811179
:1006D00090E0909387029091DD04983010F08111A2
:1006E00006C11092890241E068E373E080E090E087
:1006F0000E94E51760915E058091DD0400DE80E0D8
:1007000043DF8111FBC081E080938E0280938D02D4
:10071000279A80918E02813009F435C12F98259A4D
:1007200080918E02813009F435C12D9853985B9ADF
:1007300080910A018E7F80930A0180910B01816074
:1007400080930B01989AA09A23982B9A2098289A24
:1007500022982A9A2198299A3A9A4298389A409847
:10076000579A5F9A829A8A9A809A8898869A8E98DF
:10077000819A8998879A8F98E0918802F0E0E050FA
:10078000FE4F8081282F217080FF71C0139A982F0F
:10079000987083FD71C00B9A222309F470C02091D8
:1007A0000201226020930201911171C09091010118
:1007B000926090930101282F227081FF71C0159AD9
:1007C000982F907184FD71C00D9A222309F470C096
:1007D00020910201216020930201911171C090913A
:1007E0000101916090930101282F247082FF71C054
:1007F000179A982F907285FD71C00F9A222309F4E1
:1008000070C0119A911171C0099A8FE99FE0019708
:10081000F1F700C00000429A409A80918A0281114B
:100820006BC03C9A449880910101806480930101DF
:10083000809102018F7B809302011092B60010928A
:10084000B3001092B0001092B1008091B0008168A6
:100850008093B0008091B10084608093B1000E94C9
:10086000EB1660E875E280E090E00C945216139865
:10087000982F987083FF8FCF0B98211190CF2091E4
:1008800002012D7F20930201992309F48FCF9091CB
:1008900001019D7F90930101282F227081FD8FCF50
:1008A0001598982F907184FF8FCF0D98211190CFBC
:1008B000209102012E7F20930201992309F48FCF0A
:1008C000909101019E7F90930101282F247082FD59
:1008D0008FCF1798982F907285FF8FCF0F98211187
:1008E00090CF1198992309F48FCF09988ECF81E08A
:1008F0008093890248E0F8CE3C9894CF80E061DD97
:1009000081E05FDD4091FB025091FC02A3E0B3E087
:10091000E3ECF3E020E030E00CC012968C911297EB
:1009200090E00196280F391F139683E0A33CB80787
:1009300031F08D919C9111974817590770F33093BE
:10094000D8042093D7044091FD025091FE0220E08C
:1009500030E00AC0828190E00196280F391F33965B
:1009600094E0E338F90729F080819181481759070D
:1009700088F33093DA042093D904279A80918E0269
:10098000813009F0CBCE2F9A259A80918E0281304A
:1009900009F0CBCE2D9ACACE40E050E063E088E06B
:1009A00092E00E94101643E050E068E373E080E0BC
:1009B00090E00C94F915CF93DF93C9E9D2E068A9D0
:1009C00079A98AA99BA94EE050E00E94F9156CA96B
:1009D0007DA98EA99FA942E150E00E94F91568AD5A
:1009E00079AD8AAD9BAD46E150E00E94F9156CAD42
:1009F0007DAD8EAD9FAD4AE150E00E94F91560914A
:100A0000D9027091DA028091DB029091DC024EE112
:100A100050E00E94F9156091DD027091DE02809134
:100A2000DF029091E00242E250E00E94F915CBED26
:100A3000D4E069E070E088810E94E6156AE070E029
:100A400089810E94E6156BE070E080915E050E944E
:100A5000E61568E070E08091DD040E94E6156CE028
:100A600070E08091FB020E94E6156DE070E08091DD
:100A7000FD020E94E61566E270E08091EF0290911F
:100A8000F0020E94EA1568E270E08091F102909114
:100A9000F2020E94EA1580918702C1E06AE270E0EA
:100AA0008C270E94E615809186026BE270E08C270D
:100AB0000E94E6156CE270E08091ED029091EE02EA
:100AC0000E94EA156EE270E08091E3020E94E61552
:100AD0006FE270E080918A020E94E61544E650E0E1
:100AE00060E483E093E00E94311644E251E060E468
:100AF00083EC93E00E94311619DD67E070E0DF912E
:100B0000CF910C94E615A0980000000000000000B2
:100B100080918602882331F08091090180FF02C014
:100B200082E00895A09A000000000000000080917B
:100B30000901809581700895811113C0B8DB5F9819
:100B400081E08093B7021092710010926F001092B2
:100B5000800088E180938100109290008093910042
:100B60000895B9DB8A9881E08093B802ECCF809138
:100B7000A1029091A20220916F002F7D20936F001F
:100B800020919A0030919B0040916F004062409309
:100B90006F004091F7025091F802782F692F841767
:100BA000950710F4742F652FE091BB02E13009F432
:100BB0004CC02417350708F048C040916F004F7DA6
:100BC00040936F009093F4028093F30230939B0064
:100BD00020939A007093FF02609300032091DB043E
:100BE00030E08091B50290E02817390789F1899AA1
:100BF000E13029F581E090E090938B0080938A00AA
:100C00008091050380938402109282021BBC109293
:100C10008500109284008091DE049091DF0490930F
:100C200087008093860080918100897F8093810076
:100C3000809181008160809381001092BB0280913D
:100C40006F00806280936F000895272F362FB5CFF5
:100C50008998CECF8091A3029091A4022091710037
:100C60002F7D209371002091980030919900409140
:100C700071004062409371004091F9025091FA0274
:100C8000782F692F8417950710F4742F652FE09142
:100C9000BC02E13009F44CC02417350708F048C005
:100CA000409171004F7D409371009093F6028093C4
:100CB000F50230939900209398007093010360939C
:100CC00002032091DC0430E08091B60290E0281706
:100CD000390789F18F9AE13029F581E090E090930E
:100CE0008900809388008091C503809385021092CB
:100CF00083021ABC109295001092940080911E05F8
:100D000090911F0590939700809396008091910099
:100D1000897F809391008091910081608093910000
:100D20001092BC02809171008062809371000895DE
:100D3000272F362FB5CF8F98CECF4F925F927F92CD
:100D40008F929F92AF92BF92CF92DF92EF92FF92DB
:100D50000F931F93CF93DF93282F30E0F901EE0F0D
:100D6000FF1FE952FB4F00811181D901A756BD4FEA
:100D700094969C919497992329F0A801440F551FAC
:100D8000040F151F5A96EC915A970E2E000CFF0B6C
:100D9000F7FDB5C09E2F5C967C90D9011496ED01AD
:100DA000CC0FDD1FCC0FDD1FC756DD4F48815981A9
:100DB0006A817B816F01CC0CDD1C0D2C000CEE08D0
:100DC000FF084C155D056E057F0508F075C0C882EB
:100DD000D982EA82FB82E09FE001E19FD00DF09F83
:100DE000D00D112446015701B694A7949794879487
:100DF000F901EE0FFF1FE550FD4F40805180B70114
:100E0000A601983009F46FC06E01E12CF12C8C140E
:100E10009D04AE04BF0410F4750164014C195D0912
:100E20006E097F09E901CC0FDD1FCC0FDD1F9E018C
:100E300027563D4FF9010081118122813381F1E074
:100E40007F1609F454C0C157DD4F400F511F621F78
:100E5000731F488359836A837B83AA0FBB1FA756DE
:100E6000BD4F4D925C929EB3811113C09B7F9EBB80
:100E7000F09ADF91CF911F910F91FF90EF90DF904B
:100E8000CF90BF90AF909F908F907F905F904F904A
:100E90006ECE977F9EBBF19ADF91CF911F910F91FC
:100EA000FF90EF90DF90CF90BF90AF909F908F908A
:100EB0007F905F904F90CECEE09FE001E19FD00DFC
:100EC000F09FD00D11244A015B01B694A79497942A
:100ED0008794F901EE0FFF1FE550FD4F40805180D0
:100EE000983009F091CF487F98EF89228DCF709587
:100EF0006095509541955F4F6F4F7F4FA4CFF1950F
:100F0000E195F10947CF811126C08091BB02813064
:100F100009F14FB7F8941092B902F0988091B1029C
:100F200080FD03C081E08093B1022091F7023091EF
:100F3000F8028091F3029091F4028217930760F017
:100F40008091FF029091000301969093F4028093A8
:100F5000F3024FBF0895ABC98091FF029091000347
:100F60002817390788F7309300032093FF02C9013F
:100F7000EBCF811126C08091BC02813009F14FB7BF
:100F8000F8941092BA02F1988091B20280FD03C0E9
:100F900081E08093B2022091F9023091FA028091AF
:100FA000F5029091F6028217930760F08091010399
:100FB0009091020301969093F6028093F5024FBF41
:100FC000089589C980910103909102032817390778
:100FD00088F73093020320930103C901EBCF8F926E
:100FE0009F92AF92BF92EF92FF920F93CF93DF93B6
:100FF000D82F7B010E949119C82F90918E029111D8
:101000001AC0DF3409F459C010928C028D2F0D2EB6
:10101000000C990BAA0BBB0BFC01E554F109EF3254
:10102000F10508F444C000918D02C1E020E030E0F9
:10103000A901D0E065C04D2F0D2E000C550B660B9D
:10104000770BFA01E554F109EF32F10550F1FA019D
:10105000E154F109EA33F10508F440C200918D0230
:1010600020E030E0A9016D2FC7010E94F317DA34A8
:10107000B1F48091E402811112C080918E0281113D
:101080000EC0D0E0FE01E756FD4F808DC956DD4F02
:1010900080FF0EC28881823011F081E08883C1E038
:1010A00033C08827EE58FF4F8F4F0C941A1C8827A7
:1010B000EF55FF4F8F4F0C941A1C882309F473C30C
:1010C00080918C02833108F4E3C1F7018081805361
:1010D00080938E0201E0811101C000E000938D0237
:1010E000811197C3C0E020E030E0A901DFE408C02F
:1010F00000918D02C1E024E030E040E050E0D0E01B
:101100006D2FC7010E94F3178C2FDF91CF910F91A4
:10111000FF90EF90BF90AF909F908F900895D70170
:101120008C91D0E0FE01E756FD4F90ED980F908F27
:1011300091E011962C91203309F432C1948FC95655
:10114000DD4F188292A1913009F43AC100918D02CD
:10115000C1E020E030E0A901D7E4D2CF0FB7F89486
:10116000C7010E944919D0E0CC0FDD1FCC0FDD1F55
:10117000C756DD4F688379838A839B830FBF0091B5
:101180008D02C1E020E030E0A901D5E4B9CFC7016C
:101190000E9449192C2F30E040ECC49FF00111242B
:1011A000E054FC4F80809180A12CB12CF901EE0F0E
:1011B000FF1FEF55FD4F462F572FBC01481559050E
:1011C0006A057B0508F4E9C051834083F901E956BB
:1011D000FD4F8081823009F4E5C0108200918D02BC
:1011E000C1E020E030E0A901D9E48ACFC7010E9424
:1011F0004919D0E0FE01EE0FFF1FEE0FFF1FE7556C
:10120000FD4F6083718382839383C956DD4F1882BB
:1012100000918D02C1E020E030E0A901D8E470CF58
:101220008FB7F894D0E0CC0FDD1FCC0FDD1FC75671
:10123000DD4F288139814A815B818FBF00918D020A
:10124000C1E0DAE65DCFD0E0C756DD4F2EA130E039
:1012500040E050E000918D02C1E0D7E651CFD0E0F0
:10126000C756DD4F8CA1813009F4A7C020E030E0E3
:101270008C8D813009F425C188A1811101C03160B4
:101280008091E402813009F41AC18AA1813009F009
:1012900020618E8D813009F410C140E050E0009152
:1012A0008D02C1E0D6E62CCFD0E0CC0FDD1FCC0FF5
:1012B000DD1FCF53DD4F288139814A815B81009149
:1012C0008D02C1E0D5E61CCFD0E0CC0FDD1FCC0FE6
:1012D000DD1FC753DD4F288139814A815B81009131
:1012E0008D02C1E0D1E60CCFC7010E943119809375
:1012F000B30000918D02C1E020E030E0A901D6E505
:10130000FFCED7014C9140536C2F83E00E940C1507
:1013100000918D02C1E020E030E0A901D0E5F0CEDF
:10132000C1112CC00E9457010E94530100918D02EF
:10133000C1E020E030E0A901DCE4E2CE80E0CC2393
:1013400051F117DED0E0C956DD4F188200918D02B1
:10135000C1E020E030E0A901DBE4D2CED0E0CC0F48
:10136000DD1FCC0FDD1FC752DD4F288139814A8137
:101370005B8100918D02C1E0D3E7C2CE0E946B0178
:101380008A9A1092B80200918D02C1E020E030E00C
:10139000A901DCE4B5CEB7DDD5CFB501A40114CFEA
:1013A00090E0CCCEC11114C2E2DB00918D02C1E00D
:1013B00020E030E0A901D9E4A3CE20E034E058CF0A
:1013C00020918902222309F4C1CE8153823008F48E
:1013D0003BC294A3BBCEEC2FF0E0EE0FFF1FEE0F4D
:1013E000FF1FEF52FD4F20813181428153810091D7
:1013F0008D02C1E085CEC13009F4F3C1209186028F
:1014000030E040E050E0F3CFD7018C91805309F0F9
:101410005AC000918D02C1E020E030E040E850E089
:101420006FCE00918D0220E030E0A9016AE4C7018F
:101430000E94F3171ECE8C2F90E0FC01EE0FFF1FD1
:10144000E151FD4F208131815901AA0CBB1C880F4D
:10145000991F880F991FFC01EF52FD4FD50111967E
:1014600020813181428153810E94311C950140E0ED
:1014700050E00E94F81B00918D02C1E041CE8C2FFC
:101480005BDB00918D02C1E020E030E0A90138CEA5
:10149000D7019C919153933008F4D2C110928C02E1
:1014A00000918D02C1E020E030E0A901D0E028CE1B
:1014B00081E0888380A3C1E027CE2160EECE206248
:1014C000E4CE3260D9CE00918D02C1E0813009F0C6
:1014D000ADCD2CE134E040E050E012CE8827E0535F
:1014E000FF4F8F4F0C941A1CEC2FF0E0EE0FFF1FF4
:1014F000E550FD4F2081318140E050E000918D02A8
:10150000C1E0FECD4C2F50E0FA01EE57FD4F608157
:10151000862F90E09C01220F331F280F391F70EC9B
:10152000749FC001759F900D1124820F931F8756E1
:101530009D4FDC01A659BF4FCC9111967C9111971C
:1015400012962C2F372F4C9150E081E0860F80347B
:1015500008F087C180834BCFC13009F48CC1209142
:10156000E3024ECFEC2FF0E0E552FB4F208148CF55
:10157000EC2FF0E0EE0FFF1FE151FD4FBBCFC1306C
:1015800009F471C120915E053BCFC1114CCD209172
:101590008A0236CFC7010E943119EC2FF0E0EE57D6
:1015A000FD4F808300918D02C1E0803408F46CCF40
:1015B00023E030E040E050E0D0E0A2CDC7010E943F
:1015C0004919AC2FB0E0FD01EE57FD4F9081292F56
:1015D00030E0A901440F551F420F531FC0ECCA9FB2
:1015E0009001CB9F300D1124240F351F27563D4FFE
:1015F000D901A659BF4F11967C936E9312968C9386
:1016000081E0890F8083803408F43BCF1082009101
:101610008D02C1E020E030E0A90172CDC7010E9437
:101620003119EC2FF0E0EE0FFF1FE550FD4F90E079
:101630009183808300918D02C1E020E030E0A90118
:101640005FCD923009F462C1933009F467C19130E3
:1016500009F017CF81E0F7019081903309F489C137
:101660000E94C402811174C100918D02C1E0A0CF1B
:10167000C7010E944919EC2FF0E0EE0FFF1FEE0F9B
:10168000FF1FE752FD4F6083718382839383009134
:101690008D02C1E020E030E0A90132CDC701C130A8
:1016A00009F4F2C00E9431199FEF980F9331E0F6D0
:1016B0008093E30200918D02C1E020E030E0A901B7
:1016C0001FCDC701C13009F402C10E94311991E058
:1016D000811101C090E09093860200918D02C1E0DB
:1016E00020E030E0A9010CCDC7010E944919EC2F80
:1016F000F0E0EE0FFF1FEE0FFF1FE753FD4F60837B
:1017000071838283938300918D02C1E020E030E0F9
:10171000A901F6CCC7010E944919EC2FF0E0EE0FA9
:10172000FF1FE151FD4F7183608300918D02C1E085
:1017300020E030E0A901E4CCC701C13009F4B4C015
:101740000E94311980935E0500918D02C1E020E076
:1017500030E0A901D5CCEC2FF0E0E552FB4F81E061
:10176000D7019C91903309F4C1C0808300918D0210
:10177000C1E020E030E0A901C3CCC7010E944919B3
:10178000EC2FF0E0EE0FFF1FEE0FFF1FEF52FD4FAB
:10179000608371838283938300918D02C1E020E096
:1017A00030E0A901ADCC80918A02882359F1449898
:1017B000D7018C91803309F452C03C9A10928C026C
:1017C00000918D02C1E020E030E0A901DFE498CC77
:1017D00041DA00918D02C1E020E030E0A901D9E4B6
:1017E0008FCC80918702282F30E040E050E090912C
:1017F000DD04983018F1C827C093890200918D024A
:10180000C1E07ECC3C9AF7018081803331F1449A6B
:10181000D5CF0E9457010E9453010E946B018A9A02
:101820001092B802109297021092980200918D02C5
:10183000C1E020E030E0A901DFE462CCC0E0DCCF11
:101840008F5F80938C02EFCB14A200918D02C1E0D8
:1018500020E030E0A901D7E453CC4498AFCF3C98C6
:10186000ADCF1082C4CD2091DD0430E040E050E0E7
:1018700000918D0245CC2091ED023091EE0240E0C6
:1018800050E000918D023CCC0E9449196115710510
:10189000F1E08F07910560F100918D0223E030E0C7
:1018A00040E050E0D0E02CCC0E9431198093DD0460
:1018B000883048F1809187028C278170809389025B
:1018C00000918D02C1E020E030E0A90119CC0E9416
:1018D000311991E0811101C090E09093870200914D
:1018E0008D02C1E020E030E0A9010ACC80E03DCFCC
:1018F0007093EE026093ED0200918D02C1E020E052
:1019000030E0A901FDCB80E090E0D7CF54D8009122
:101910008D02C1E020E030E0A901F2CB3DD8B1CD8D
:10192000C11113C0992309F43ECF81E0F7019081E2
:10193000903349F080938A0200918D02C1E020E04B
:1019400030E0A901DDCB80E0F5CF9111BECBB8CB63
:101950000E94B702811195CD0E94960267E070E067
:101960000E94E61500918D02C1E020E030E0A9015F
:10197000C7CB80E075CECF93DF93CDB7DEB760974E
:101980000FB6F894DEBF0FBECDBF78940E94270338
:1019900099249A94AA24AA94312C212C10E0B12CD9
:1019A000E12CF12CDD24D39488248A9480E2C82E83
:1019B000412C512C90E8692E712C4B99F7C0D09294
:1019C000E4028091BB02813011F00E9457018091A6
:1019D000BC02813011F00E946B018FEFE81AF80A07
:1019E00080918B028111ECC0E114F10409F004C173
:1019F00080918E02882309F440C2809102028111F5
:101A0000FFC085B1805885B985B18C2585B90E9404
:101A10003701882309F42FC20CF420C301E0809120
:101A2000E202801709F442C045E062E0802FF4D75B
:101A300080918902882319F0023009F43DC3809116
:101A400000029091B502913009F414C3D092B30210
:101A50001092BD029091B602913009F40EC3D0925B
:101A6000B4021092BE02382F317080FFAFC2139AB9
:101A7000282F227081FFAFC2159A982F947082FF91
:101A8000AFC2179A80910201332309F4AEC282607B
:101A90008093020180910201222309F4ADC281608A
:101AA00080930201992309F4ACC2119A8091E40257
:101AB000811183CF189B94C01B9BBCC20FEF80E0A9
:101AC0009FB7F89420919A0030919B009FBF90910E
:101AD000BB02913061F09091B502891741F04091BD
:101AE000F7025091F8022417350708F4DBC20F3FC4
:101AF00009F4AFC2E02FEE0FFF0BE951FD4F20813B
:101B000031813093A2022093A1028093B50290917B
:101B1000BD02992309F452C29091BF02813009F4A9
:101B200051C29093B3020F3F29F48091E2028230B8
:101B300009F453C31CD8A02E199B39C21A9B80C22A
:101B40000FEF80E09FB7F8942091980030919900B2
:101B50009FBF9091BC02913061F09091B6028917BD
:101B600041F04091F9025091FA022417350708F428
:101B700095C20F3F09F49AC22091EB023091EC021A
:101B80003093A4022093A3028093B6029091BE02E8
:101B9000992309F438C29091C002813009F437C208
:101BA0009093B40257D8902E4B9B09CF1092E40229
:101BB0008FEFE81AF80A80918B02882309F414CF7A
:101BC0008091020281111CC0E114F10409F419CFC3
:101BD0008091E4028111F1CEE110EFCE18996CCF23
:101BE00081E0A81609F4A8CF81E09091E10291303C
:101BF00009F080E001E064CF80910202882341F384
:101C00001E3F09F417C10E943317882309F185B1DB
:101C1000805885B985B18C2585B90E943E17B82EAC
:101C200040918D026B2DCE0101960E94E218182F73
:101C3000882371F00CF41AC1BE016F5F7F4FCFD9BA
:101C4000082FCE0101960E949217002309F4E3C1E8
:101C5000E114F10461F480918E02813009F4A5C190
:101C60002F9880918E02813009F49DC12D9880912A
:101C7000E40281118DC080918B02811189C0E11035
:101C800087C0189BE4C103B103FB002700F901954D
:101C90000A1551F08091B502811105C0809197021B
:101CA000823009F468C2A02E199BCFC103B102FB98
:101CB000002700F901958091BA02811169C00915C8
:101CC00009F466C081E0013009F080E09091BC0227
:101CD000913009F446C09091B602891709F441C0C9
:101CE00080E047D91092980280919702813009F0E4
:101CF00064CE8091BB02813009F05FCE9091B10239
:101D000080918902882309F4A7C08FEF890F823060
:101D100008F457C2809101022091BF023091B502B0
:101D2000313009F460C22093B302D092BD0280FF2B
:101D300004C2139A83FDFFC10B9A81FFFAC1159A61
:101D400084FDF5C10D9A82FFF0C1179A85FDEBC1A4
:101D50000F9A90FF9DC10E94B70582E08093970281
:101D60001CC00F3F09F443C22091EB023091EC02FA
:101D70003093A4022093A3028093B602013009F4A9
:101D80005DC2D092B4020E942A06902E332433946E
:101D900080919702813009F454C08091980281307B
:101DA00009F00BCE8091BC02813009F006CE209163
:101DB000B20290918902992309F452C19FEF920FC8
:101DC000923008F4F2C1909101028091C0023091EA
:101DD000B602313009F410C28093B402D092BE0230
:101DE0008091020190FFC3C18260809302018091C3
:101DF000010193FDB8C182608093010180910201CD
:101E000091FFADC18160809302018091010194FD39
:101E1000A2C181608093010192FF9BC1119A95FD3F
:101E200096C1099A20FF2EC10E942A0682E0809363
:101E30009802C3CD85B1805885B985B18C2585B907
:101E4000EFCE8091BB02813009F0A7CF9091B10213
:101E500080918902811159CF8091B502813009F4B6
:101E6000A1C1D092B3021092BD0273CFCE010196F0
:101E70000E949217EDCE00E0D2CD0E948305082F7C
:101E8000882309F4BACD0E9457010E946B018FB7D5
:101E9000F8944092990250929A0260929B0270923A
:101EA0009C0240929D0250929E0260929F0270920C
:101EB000A0028FBF5ED7D0928B02023009F4A0C17E
:101EC00010920202A09AE0918802F0E0E050FE4FEA
:101ED0008081282F217080FDD3C01398982F98708F
:101EE00083FD33C10B9A222309F429C120910201F9
:101EF00022602093020191110EC190910101926024
:101F000090930101282F227081FF03C1159A982F09
:101F1000907184FDFCC00D9A222309F4F2C0209137
:101F200002012160209302019111E5C0909101010D
:101F3000916090930101282F247082FFDAC0179AD4
:101F4000982F907285FDD3C00F9A222309F4CDC03B
:101F5000119A9111E6C0099A45E062E080E05CD5F3
:101F60001092BD021092BE0280E00E949C0581E0AA
:101F70000E949C05D092B102D092B2021092B5029A
:101F8000D092B3021092B6028091E5029091E602DF
:101F90009093A2028093A102D092970299249A94DE
:101FA000AA24AA942ACD2D9A62CE2F9A5ACE81E0E5
:101FB000981609F402CD01E081E0C4CD91E08130B2
:101FC00009F0AFCD91959093B302ADCD1398282F22
:101FD000227081FD51CD1598982F947082FD51CDBE
:101FE000179880910201311152CD8D7F80930201AB
:101FF00080910201211153CD8E7F809302019111B6
:1020000054CD119853CD91E0813009F0C9CD91950F
:102010009093B402C7CD72D79BE088E10FB6F894D5
:10202000A895809360000FBE9093600080E090E0E0
:102030000E94651CAA2009F47FCD00E080E040CD1D
:10204000992009F4BACC00E07CCD01E034CE01E067
:102050001FCE2091E5023091E60253CD02E0DFCCA5
:102060009091B602913009F49AC08093B402109214
:10207000BE02D8CE8092B302EBCC8092B402F1CCF7
:10208000139A2CCF81E00E949D061092980295CC65
:1020900080E00E949D06109297027FCE80E00E9411
:1020A000B9078BCC80E00E94830746CD80E00E9478
:1020B000B90799249A9481CC809101029091BF0232
:1020C0002091B502213009F4B0C09093B302D092B0
:1020D000BD029091C0022091B602213009F4A1C046
:1020E0009093B402D092BE02BECC119832CF0F981A
:1020F0002CCF179825CF909101019E7F90930101DD
:102100001ACF209102012E7F209302010DCF0D984E
:1021100003CF1598FCCE909101019D7F9093010112
:10212000F1CE099819CF0F9814CE17980FCE0D98AD
:102130000ACE159805CE0B9800CE1398FBCD2091B2
:1021400002012D7F20930201D6CE0B98CCCE0998A8
:1021500069CE119864CE8E7F809301015DCE8E7F13
:102160008093020152CE8D7F8093010147CE8D7FF7
:10217000809302013CCE0F3F09F45BC0E02FEE0FCD
:10218000FF0BE951FD4F808191819093A2028093D2
:10219000A1020E94B705A02E2224239485CD80920F
:1021A000B40265CF8092B3025ECE9091000230916E
:1021B000B602313009F445C08093B4021092BE02D9
:1021C0000FCE809100022091B502213009F43CC06D
:1021D000D092B3021092BD02AACD80E00E94830784
:1021E000AA24AA94A9CC21952093B3029ECD3110A4
:1021F0002EC099249A94CCCD81958093B402EECDD3
:10220000D0920202D0D500918D0224E030E040E06F
:1022100050E060E0CE010C96E6D6CE010C9682D658
:10222000ECCB91959093B4025DCF91959093B302CE
:102230004ECF211013C0AA24AA9436CD8092B402A6
:10224000A2CD8092B402BACF8092B302C3CF80E015
:102250000E94B90799249A94312C9ACD8091E50275
:102260009091E6029093A2028093A1020E94B7058A
:10227000AA24AA94212C18CD1F920F920FB60F9268
:1022800011240BB60F920F931F932F933F934F93ED
:102290005F936F937F938F939F93EF93FF938091BF
:1022A000880090918900019709F060C08AB5E82FF5
:1022B000EE73F0E0E25EFA4F2081318130939700B7
:1022C000209396008F5F8ABD80919800909199002D
:1022D00090938900809388007E9B5FC08E980091C8
:1022E0009D0210919E0220919F023091A002409188
:1022F000B402042E000C550B660B770B400F511FD8
:10230000621F731F40939D0250939E0260939F0231
:102310007093A002F19B10C0F3990EC0009193023C
:102320001091940220919502309196024017510726
:102330006207730709F487C02091010330910203FB
:1023400028173907B8F4F19B03C01092BA02F1982C
:1023500081E08093BC02809171008F7D8093710039
:1023600080919100887F8093910004C090938900B0
:1023700080938800FF91EF919F918F917F916F9152
:102380005F914F913F912F911F910F910F900BBE35
:102390000F900FBE0F901F9018958E9A2091850276
:1023A000211123C02091F5023091F6022817390738
:1023B00000F5809183028F3398F48F5F80938302BE
:1023C00090E0AC01440F551F840F951F87569D4F19
:1023D000FC01E65DFE4F408151812417350718F15D
:1023E0003093990020939800C5CF21502093850207
:1023F000C1CF8217930728F580918302882381F348
:1024000081508093830290E0AC01440F551F840FEC
:10241000951F87569D4FFC01E65DFE4F408151811F
:1024200042175307E8F62091BE022223D9F03296D4
:102430008081982F990F890F8E5F809385029A0172
:10244000CFCF9C01CDCFF39A2091010330910203AD
:10245000A9014F5F5F4F5093F6024093F50210922F
:1024600085026ECFFC01E45DFE4F80818093850282
:102470009A01B6CF1F920F920FB60F9211240BB68E
:102480000F920F931F932F933F934F935F936F93ED
:102490007F938F939F93EF93FF9380918A00909106
:1024A0008B00019709F060C08BB5E82FEE73F0E068
:1024B000E252FB4F208131813093870020938600C8
:1024C0008F5F8BBD80919A0090919B0090938B00C1
:1024D00080938A00789B5FC0889800919902109140
:1024E0009A0220919B0230919C024091B302042EEB
:1024F000000C550B660B770B400F511F621F731FAB
:102500004093990250939A0260939B0270939C02AD
:10251000F09B10C0F2990EC000918F0210919002B2
:102520002091910230919202401751076207730780
:1025300009F487C02091FF02309100032817390762
:10254000B8F4F09B03C01092B902F09881E0809338
:10255000BB0280916F008F7D80936F00809181001E
:10256000887F8093810004C090938B0080938A00C1
:10257000FF91EF919F918F917F916F915F914F911B
:102580003F912F911F910F910F900BBE0F900FBE97
:102590000F901F901895889A20918402211123C0D2
:1025A0002091F3023091F4022817390700F5809149
:1025B00082028F3398F48F5F8093820290E0AC01A7
:1025C000440F551F840F951F87569D4FFC01E659F8
:1025D000FF4F408151812417350718F130939B003C
:1025E00020939A00C5CF215020938402C1CF821737
:1025F000930728F580918202882381F3815080938C
:10260000820290E0AC01440F551F840F951F87563E
:102610009D4FFC01E659FF4F4081518142175307FE
:10262000E8F62091BD022223D9F032968081982FBE
:10263000990F890F8E5F809384029A01CFCF9C01FE
:10264000CDCFF29A2091FF0230910003A9014F5F94
:102650005F4F5093F4024093F302109284026ECFC6
:10266000FC01E459FF4F8081809384029A01B6CF28
:10267000EF92FF920F931F93CF93DF9300D01F929F
:102680001F92CDB7DEB7833009F44AC0E091EF0264
:10269000F091F0020091F1021091F202853009F4FC
:1026A0007AC0843009F484C0F093E602E093E50236
:1026B00044E14E9F70014F9FF00C11242091E302E2
:1026C00030E0B9016C5E7F4FC7010E94E51B70933B
:1026D000E8026093E70264E170E0621B730BC701DC
:1026E0000E94E51B7093EA026093E9021092E102F6
:1026F000409FC001419F900D1124B9010E94E51B2C
:102700007093EC026093EB020F900F900F900F907C
:102710000F90DF91CF911F910F91FF90EF9008954F
:1027200085E0E3E0F2E0DE01119601900D928A95DA
:10273000E1F7453048F7611141C02091EF02309137
:10274000F0023093E6022093E502220F331F220F9E
:10275000331F220F331FE1E0F0E0EC0FFD1FE40F09
:10276000F11DE081F0E0BF01685F7F4FC9010E9469
:10277000D11B7093E8026093E70268E070E06E1B83
:102780007F0BC9010E94D11B7093EA026093E9029A
:102790001092E102B9CFDF0123EB30E041E050E0DD
:1027A0000E943B1CFC01D8010E943B1C8C017CCF89
:1027B000DF012DE939E041E050E0F2CF613009F06E
:1027C000A3CF8091F1029091F202880F991F880F98
:1027D000991F880F991FE1E0F0E0EC0FFD1FE40F57
:1027E000F11D608170E0DDD77093EC026093EB0225
:1027F0008BCF3F924F925F926F927F928F929F9278
:10280000AF92BF92CF92DF92EF92FF920F931F93FE
:10281000CF93DF9300D01F92CDB7DEB76B017C0161
:10282000342E8EE090E07AD16093C9027093CA0290
:102830008093CB029093CC0282E190E06FD16093C1
:10284000CD027093CE028093CF029093D00286E1A6
:1028500090E064D16093D1027093D2028093D3024E
:102860009093D4028AE190E059D16093D50270939D
:10287000D6028093D7029093D8028EE190E04ED199
:102880006093D9027093DA028093DB029093DC02AA
:1028900082E290E043D16093DD027093DE02809388
:1028A000DF029093E00286E290E029D19093F0025B
:1028B0008093EF0288E290E022D19093F20280931D
:1028C000F1028CE090E01AD190E09093FC028093AA
:1028D000FB028DE090E012D190E09093FE02809395
:1028E000FD028EE290E00AD18093E3028CE290E058
:1028F00006D19093EE028093ED021092E40244E63A
:1029000050E060E483E093E040D144E251E060E4D1
:1029100083EC93E03AD1E9E9F2E06FEE72E023E074
:1029200033E047EF52E00FEF12E083EF682E82E0D2
:10293000782EFA83E983FC83EB8392E0592E4424BA
:102940004394812C912CA0E8AA2EB12C148E428E97
:1029500014A242A210A2168EAB81BC818D929D92D0
:10296000AD92BC921397DB018D919D91BD01A98120
:10297000BA8119969C938E931897408EAB81BC8137
:1029800050961D921D921D921C9253979896CD922F
:10299000DD92ED92FC929B9736A2D9018D919C918C
:1029A000DA018D939D93AD01D8018D939D938D0197
:1029B0000196D3018D939D933D01A981BA811D9606
:1029C0009C938E931C975A9431968B819C8104968C
:1029D0009C838B831296BA83A98320543F4F511056
:1029E000B5CF1092E20245E062E080E00F900F90D8
:1029F0000F900F90DF91CF911F910F91FF90EF906B
:102A0000DF90CF90BF90AF909F908F907F906F900E
:102A10005F904F903F902CCE582F8093E2028230EF
:102A200019F0813009F124CE8091EF029091F002EB
:102A30009093E6028093E5028091FB029091FC0264
:102A40009093E8028093E7029093EA028093E90270
:102A500081E08093E1028091FD029091FE029093CB
:102A6000EC028093EB020895E091EF02F091F00206
:102A7000F093E602E093E5029F01ABEABAEAE2D600
:102A8000969587959093E8028093E702F093EA0287
:102A9000E093E9025093E1028091F1029091F202F9
:102AA000969587959093EC028093EB020895EFE062
:102AB000F2E02AE690E005C09F5F9732E9F02081BE
:102AC00033968213F9CF892F90E0FC01EE0FFF1FA0
:102AD0008E0F9F1FFC01E45FFD4F611105C08281D5
:102AE000411105C08F70089581814423D9F38595E4
:102AF00085958595859508958FEF0895D0C61F9388
:102B0000CF93DF93EC01CBD6182FCE010196C7D619
:102B1000982F812FDF91CF911F910895CF92DF924F
:102B2000EF92FF92CF93DF93EC01E9DF6C01CE01CE
:102B30000296E5DF7C01C701B601DF91CF91FF90DE
:102B4000EF90DF90CF900895EF92FF920F931F9335
:102B5000CF93DF93662391F0EA018C0161507A01F3
:102B6000E60EF11C8FEFE81AF80ACE0198D6F801AC
:102B700081938F012196CE15DF05B9F7DF91CF91B3
:102B80001F910F91FF90EF900895EF92FF920F9396
:102B90001F93CF93DF93E62E8A01662381F0EC0129
:102BA000F12CC801ACDF99838883C8010296A7DFA6
:102BB0008A830D5F1F4FF3942396EF10F2CFDF91BE
:102BC000CF911F910F91FF90EF900895282FCB0187
:102BD000622F6DC61F93CF93DF93192FEB01682FE0
:102BE000CE0165D6612FCE010196DF91CF911F9165
:102BF0005EC6CF92DF92EF92FF92CF93DF936B018D
:102C00007C01EA01BA01C601E5DFBE016E5F7F4FBC
:102C1000C701DF91CF91FF90EF90DF90CF90DACF97
:102C2000EF92FF920F931F93CF93DF93662391F060
:102C3000EC016150E62EF12C8FEFE81AF80AEC0E49
:102C4000FD1E8A016991C80132D60F5F1F4FCE1554
:102C5000DF05C1F7DF91CF911F910F91FF90EF90AA
:102C60000895EF92FF920F931F93CF93DF93E62E79
:102C70008A01662381F0EC01F12CB80188819981E9
:102C8000A9DF6A81C801029612D60D5F1F4FF39427
:102C90002396EF10F2CFDF91CF911F910F91FF900C
:102CA000EF900895CF92DF92EF92FF92CF93DF9350
:102CB0006B017C0182E08093C00060E079E08DE3ED
:102CC00090E0A701960194D5DA01C9010197A10905
:102CD000B109AC01BD017695679557954795842F4D
:102CE000C52F90E0D92F9E01207F3327232BB1F0F1
:102CF0001092C00060E874E88EE190E0A7019601B0
:102D000077D5DA01C9010197A109B109AC01BD016B
:102D10007695679557954795CA01C92FCF70C0938F
:102D2000C5008093C4008FB7F8941092C604109227
:102D3000C7041092A4041092A5048FBF8091C10013
:102D400080618093C1008091C10088608093C10040
:102D50008091C10080688093C1008091C1008F7D07
:102D60008093C100DF91CF91FF90EF90DF90CF90E3
:102D70000895E1ECF0E080818F7E80838081877F01
:102D8000808380818F77808380818F7D80838FB7E0
:102D9000F894E6EAF4E010A211A2E4E8F4E010A24C
:102DA00011A28FBF0895219A299A23982B9A229ACB
:102DB0002A9A209A289AA09A8FB7F894E6EAF4E023
:102DC00010A211A2E4E8F4E010A211A28FBF81E0EA
:102DD0008093830408952198299A23982B9A229806
:102DE0002A9A2098289A109283048FB7F894E6EADA
:102DF000F4E010A211A2E4E8F4E010A211A28FBF47
:102E0000089598E008C000002A98299A880F1B9915
:102E10008F5F915029F0299887FFF5CF2A9AF5CF37
:102E200008959091A5048091A404981719F08091B9
:102E3000090180FD0895289881E8E3DF8091090168
:102E400080FFFCCF80E8DDDF87FD0BC0E091A404AC
:102E5000F0E0EC57FB4F80838091A4048F5F809358
:102E6000A404289A0895809183048111DADF809167
:102E7000A4049091A504891B8F7108959091A504D5
:102E80008091A404981751F0E92FF0E0EC57FB4F24
:102E900080819F5F9F719093A50408958FEF08959F
:102EA0009091C10093FF16C09091C6049F5F9F71DF
:102EB0002091C7049217C1F0E091C604F0E0EA55F2
:102EC000FB4F80839093C6048091C1008062809301
:102ED000C100089590918304911101C0089528982C
:102EE0008F778FDF289A08952091C1002062209368
:102EF000C1002091C7049217E1F3DECF8091C10099
:102F000083FF0FC09091C6048091C704981749F0C1
:102F10008091C10080628093C1008091C7049813A2
:102F2000FCCF0895CF93DF93EC018881882329F0AB
:102F30002196B6DF89918111FCCFDF91CF91089561
:102F40002F932FB72F939F938F93EF93FF932091FE
:102F5000C6008091A4048F5F8F719091A50489179A
:102F600041F0E091A404F0E0EC57FB4F2083809304
:102F7000A404FF91EF918F919F912F912FBF2F91DB
:102F800018958F938FB78F939F93EF93FF938091B3
:102F9000C7049091C604891306C08091C1008F7D3B
:102FA0008093C1000BC0E82FF0E0EA55FB4F908101
:102FB0008F5F8F718093C7049093C600FF91EF914C
:102FC0009F918F918FBF8F9118951092D604109278
:102FD000CA042BE0EBECF4E0DF011D922A95E9F73F
:102FE0001092C90406CCCF92DF92EF92FF920F931A
:102FF000CF93DF93EC01862F69017A0161111CC028
:1030000081E28883013009F47FC080E389838C2DBD
:103010008F708A3010F1895C8A83E2E0F0E0EC0F77
:10302000FD1F8DE081831282DF91CF910F91FF9080
:10303000EF90DF90CF900895402F60E038DD87FD5E
:10304000DFCF9DE39883823069F08330A9F086302A
:1030500059F1E82F880FFF0BE2CF805D8A83E2E011
:10306000F0E0DDCF8C2D82958F708A3018F0895C6E
:103070008983CDCF805DCACF8D2D8F708A3008F4C3
:103080004EC0895C89838C2D82958F708A3008F4BC
:1030900043C0895C8A838C2D8F708A30C0F1895C33
:1030A0008B83E3E0F0E0BBCFC701AA27BB27282F23
:1030B00022952F702A3008F441C0295C2D838F702F
:1030C0008A30C8F1895C8E83BB27AF2D9E2D8D2D54
:1030D000282F22952F702A3058F1295C2B838F706E
:1030E0008A3018F1895C8C838C2D82958F708A30A0
:1030F000C8F0895C89838C2D8F708A3010F5805DD3
:103100008A83E6E0F0E08BCFE0E0F0E088CF805DFE
:103110008B83E3E0F0E083CF805D8A83BCCF805D6A
:103120008983B1CF805D8983E6CF805D8C83DCCFDE
:10313000205D2B83D4CF805D8E83C6CF205D2D8311
:10314000BECF895C8A83E6E0F0E069CF0F931F93DE
:10315000CF932091CB042093C8049091CC04915339
:103160009093C904933028F083E0CF911F910F9181
:1031700008958B01C82F61E0822F99DC4DEF4C0F31
:10318000082E000C990B242F30E08217930729F0AA
:1031900081E0CF911F910F910895442369F0EDECE8
:1031A000F4E0D8018CEF8C0F90E082539B4F41915B
:1031B0004D93E817F907D9F7F801E20FF31F1082D2
:1031C0008FEFD3CFCF93DF93EC019091D604992367
:1031D000A1F06A33E1F0E091CA0481E08E0F8093A0
:1031E000CA04F0E0E553FB4F60836D3011F18B3082
:1031F000E9F080E0DF91CF9108956A33D1F7109222
:10320000CA0481E08093D6041092CB04F2CF93E3FA
:103210008EEF21E2288320E329839A831B829DE09D
:103220009C831092D604DF91CF91089591E38FEFA4
:10323000F0CFBE018BDF982F8F3F59F081E288835A
:1032400080E389839F709A3048F0995C9A838FEF6E
:10325000E5CF1092D6048091C804CCCF905D8FEF5B
:10326000DCCFFC0191819A3354F09753892F8F70F2
:1032700090819A334CF49F709295892B0895892FF1
:103280008F7090819A33BCF397539F709295892BDE
:103290000895FC0161816A3324F16753962F9F7072
:1032A00060816A331CF167536F706295692B73817B
:1032B0007A3314F17753972F9F7072817A330CF120
:1032C00077537F707295792B85818A3304F1875308
:1032D0008F7094819A33FCF49F709295892B90E0C3
:1032E0000895962F9F7060816A33ECF66F70629537
:1032F000692B73817A33F4F6972F9F7072817A333A
:10330000FCF67F707295792B85818A3304F78F7074
:1033100094819A330CF397539F709295892B90E088
:1033200008958091C90408955058BB27AA270ED04C
:1033300084C175D130F07AD120F031F49F3F11F47F
:103340001EF46AC10EF4E095E7FB37C1E92F86D180
:1033500080F3BA17620773078407950718F071F4B2
:103360009EF5B5C10EF4E0950B2EBA2FA02D0B01E2
:10337000B90190010C01CA01A0011124FF27591BBA
:1033800099F0593F50F4503E68F11A16F040A22FC0
:10339000232F342F4427585FF3CF46953795279531
:1033A000A795F0405395C9F77EF41F16BA0B620B30
:1033B000730B840BBAF09150A1F0FF0FBB1F661F77
:1033C000771F881FC2F70EC0BA0F621F731F841FBA
:1033D00048F4879577956795B795F7959E3F08F0E0
:1033E000B3CF9395880F08F09927EE0F979587959F
:1033F000089556D180F09F3740F491110EF468C1C2
:1034000060E070E080E89FE3089526F01B16611DE0
:10341000711D811DD8C0F2C00CD00FC107D140F082
:10342000FED030F021F45F3F19F0C7C0511150C1F8
:10343000F3C014D198F39923C9F35523B1F3951B25
:10344000550BBB27AA2762177307840738F09F5FC5
:103450005F4F220F331F441FAA1FA9F333D00E2E34
:103460003AF0E0E830D091505040E695001CCAF7A1
:1034700029D0FE2F27D0660F771F881FBB1F261766
:1034800037074807AB07B0E809F0BB0B802DBF0139
:10349000FF2793585F4F2AF09E3F510568F08DC07B
:1034A00017C15F3FECF3983EDCF3869577956795FF
:1034B000B795F7959F5FC9F7880F911D96958795EA
:1034C00097F90895E1E0660F771F881FBB1F621709
:1034D00073078407BA0720F0621B730B840BBA0BC7
:1034E000EE1F88F7E0950895C1D088F09F5790F0BF
:1034F000B92F9927B751A0F0D1F0660F771F881F19
:10350000991F1AF0BA95C9F712C0B13081F0DFD017
:10351000B1E00895DCC0672F782F8827B85F39F0B5
:10352000B93FCCF3869577956795B395D9F73EF477
:1035300090958095709561957F4F8F4F9F4F08951F
:10354000E89409C097FB3EF490958095709561953D
:103550007F4F8F4F9F4F9923A9F0F92F96E9BB27F3
:103560009395F695879577956795B795F111F8CF6F
:10357000FAF4BB0F11F460FF1BC06F5F7F4F8F4FDA
:103580009F4F16C0882311F096E911C0772321F0D0
:103590009EE8872F762F05C0662371F096E8862F68
:1035A00070E060E02AF09A95660F771F881FDAF7BF
:1035B000880F9695879597F9089597F99F6780E802
:1035C00070E060E00895882371F4772321F098502B
:1035D000872B762F07C0662311F499270DC09051D1
:1035E000862B70E060E02AF09A95660F771F881F9F
:1035F000DAF7880F9695879597F908959F3F31F0F0
:10360000915020F4879577956795B795880F911D10
:103610009695879597F908959FEF80EC089500247B
:103620000A941616170618060906089500240A9427
:1036300012161306140605060895092E0394000CAD
:1036400011F4882352F0BB0F40F4BF2B11F460FF3C
:1036500004C06F5F7F4F8F4F9F4F089557FD905865
:10366000440F551F59F05F3F71F04795880F97FB46
:10367000991F61F09F3F79F0879508951216130600
:103680001406551FF2CF4695F1DF08C0161617062F
:103690001806991FF1CF8695710561050894089564
:1036A000E5DFA0F0BEE7B91788F4BB279F3860F4C8
:1036B0001616B11D672F782F8827985FF7CF86954C
:1036C00077956795B11D93959639C8F30895E89459
:1036D000BB2766277727CB0197F908950BD0ADCF8D
:1036E0009EDF28F0A3DF18F0952309F066CF94CF72
:1036F0001124EECFB3DFA0F3959FD1F3950F50E0E7
:10370000551F629FF001729FBB27F00DB11D639F93
:10371000AA27F00DB11DAA1F649F6627B00DA11D39
:10372000661F829F2227B00DA11D621F739FB00DDF
:10373000A11D621F839FA00D611D221F749F33274F
:10374000A00D611D231F849F600D211D822F762FE8
:103750006A2F11249F5750408AF0E1F088234AF0E5
:10376000EE0FFF1FBB1F661F771F881F9150504031
:10377000A9F79E3F510570F020CFAACF5F3FECF331
:10378000983EDCF3869577956795B795F795E7951D
:103790009F5FC1F7FE2B880F911D9695879597F92E
:1037A0000895AA1BBB1B51E107C0AA1FBB1FA61788
:1037B000B70710F0A61BB70B881F991F5A95A9F7DA
:1037C00080959095BC01CD01089597FB072E16F4C6
:1037D000009406D077FD08D0E4DF07FC05D03EF466
:1037E000909581959F4F0895709561957F4F0895AD
:1037F000A1E21A2EAA1BBB1BFD010DC0AA1FBB1FF5
:10380000EE1FFF1FA217B307E407F50720F0A21B66
:10381000B30BE40BF50B661F771F881F991F1A94D3
:1038200069F760957095809590959B01AC01BD01FD
:10383000CF010895EE0FFF1F881F8BBF0790F691F1
:10384000E02D1994A29FB001B39FC001A39F700DFA
:10385000811D1124911DB29F700D811D1124911D98
:103860000895F0DFA59F900DB49F900DA49F800D4B
:10387000911D11240895B7FFF4CFF3DF821B930B42
:103880000895FB01DC014150504030F08D910190D2
:10389000801919F40020B9F7881B990B0895F9993C
:1038A000FECF92BD81BDF89A992780B50895262F45
:1038B000F999FECF1FBA92BD81BD20BD0FB6F89415
:0E38C000FA9AF99A0FBE01960895F894FFCF78
:1038CE000300010806040201414551006A006666C4
:1038DE0000334966004722004A00004B000048664C
:1038EE00004D660065006661006662006667002234
:1038FE007300664566005011004600004C000056ED
:10390E0022007106264F1100416600426600536682
:10391E00006E00664E6600442200640022431100D1
:10392E006300225A22007A0022526600720066510B
:10393E0024006F002258640078006659220054114A
:02394E00000077
:00000001FF
