:100000000C9404010C942F010C942F010C942F01DB
:100010000C942F010C942F010C942F010C942F01A0
:100020000C942F010C940F040C942F010C942F01AD
:100030000C942F010C942F010C942F010C942F0180
:100040000C9421020C942F010C942F010C942F017D
:100050000C942F010C942F010C942F010C94510D32
:100060000C942F010C94490F0C9475100C942F01D3
:100070000C942F010C942F010C942F010C9455011A
:100080000C942F010C942F010C942F010C942F0130
:100090000C94820F0C94B4100C942F010C942F012B
:1000A0000C942F010C942F010C942F010C942F0110
:1000B0000C942F010C942F010C942F010C942F0100
:1000C0000C942F010C942F010C942F010C94BB0F56
:1000D0000C94F3100C942F010C94F40F0C94321127
:1000E0000C942F0100002100240027002A002D007D
:1000F0003000330001010000040107010A01000083
:100100002200250028002B002E00310034000201BF
:100110000000050108010B0100002000230026005B
:1001200029002C002F00320000010000030106010D
:10013000090105050505070508080808020202026D
:100140000A0A080804040404010101010101010173
:100150000303030303030303040707070C0C0C0C3E
:100160000C0C0C0C02020202060606060606060627
:100170000B0B0B0B0B0B0B0B0102102020080810B4
:100180002040102040800201020108040201010207
:1001900004081020408080402010080402018004E0
:1001A000020180402010080402010804020101023B
:1001B0000408102040800102040810204080000044
:1001C000090A02080B0C0D070603040100000000D9
:1001D000000000000000000000000000000000001F
:1001E0000000000000000000000011100F000000DF
:1001F00000000000000000000000000000000000FF
:10020000000000000E039C1211241FBECFEFD1E2AC
:10021000DEBFCDBF12E0A0E0B2E0E2ECFDE200E024
:100220000BBF02C007900D92AE37B107D9F71BBEC6
:1002300016E0AEE7B2E001C01D92AB38B107E1F7BE
:1002400012E0C8E0D2E004C02297FE010E94DB1653
:10025000C430D107C9F70E94BA130C94DF160C946E
:100260000000FB01DC0101900D920020E1F70895F0
:10027000FB01DC014150504030F08D91019080191C
:1002800019F40020B9F7881B990B0895FB01DC01D4
:100290004150504048F001900D920020C9F701C034
:1002A0001D9241505040E0F708951F920F920FB6F3
:1002B0000F920BB60F9211242F933F934F935F939E
:1002C0008F939F93AF93BF93EF93FF938AB5E09182
:1002D0000A02EE0FE823F0E0EF5CFC4F2081318151
:1002E00030939700209396008F5F8ABD809188009D
:1002F00090918900019709F08FC025B180919800F5
:1003000090919900909389008093880026FF6AC09D
:100310002F7B25B98091820290918302A091840263
:10032000B091850220919902332727FD3095432F04
:10033000532F280F391F4A1F5B1F209382023093CF
:100340008302409384025093850280919F02882308
:1003500069F18091ED029091EE02A091EF02B091CF
:10036000F00282179307A407B50701F53F9B2AC047
:100370003091990227B1311514F021953327432F7D
:10038000532F280F391F4A1F5B1F2093ED02309314
:10039000EE024093EF025093F00217B88091E7020B
:1003A0009091E802909389028093880220919800AE
:1003B000309199008091E7029091E80282179307AB
:1003C00008F02EC010929F0281E08093A1028091DC
:1003D00071008F7D8093710080919100887F809360
:1003E00091001EC0206425B9409188025091890275
:1003F0000090C5029C0180199109841795073CF46F
:10040000C901800D911D481759070CF4CA0190933A
:1004100099008093980004C090938900809388008D
:10042000FF91EF91BF91AF919F918F915F914F910C
:100430003F912F910F900BBE0F900FBE0F901F900A
:1004400018951F920F920FB60F920BB60F921124B0
:100450002F933F934F935F938F939F93AF93BF934C
:10046000EF93FF938EB3E0910902EE0FE823F0E0E3
:10047000EF50FD4F2081318130938700209386001B
:100480008F5F8EBB80918A0090918B00019709F05D
:100490008FC02EB180919A0090919B0090938B0019
:1004A00080938A0023FF6AC0277F2EB980917E0245
:1004B00090917F02A0918002B091810220919802D8
:1004C000332727FD3095432F532F280F391F4A1FFD
:1004D0005B1F20937E0230937F02409380025093F3
:1004E000810280919E02882369F18091E9029091B6
:1004F000EA02A091EB02B091EC02281739074A07F3
:100500005B0701F5479B2AC03091980228B131154D
:1005100014F021953327432F532F280F391F4A1FDB
:100520005B1F2093E9023093EA024093EB02509361
:10053000EC0218B88091E5029091E6029093870250
:100540008093860220919A0030919B008091E50271
:100550009091E6028217930708F02EC010929E0237
:1005600081E08093A00280916F008F7D80936F0067
:1005700080918100887F809381001EC028602EB901
:1005800040918602509187020090C4029C0180191C
:100590009109841795073CF4C901800D911D4817F6
:1005A00059070CF4CA0190939B0080939A0004C0F1
:1005B00090938B0080938A00FF91EF91BF91AF9150
:1005C0009F918F915F914F913F912F910F900BBE13
:1005D0000F900FBE0F901F901895EF92FF920F9300
:1005E0001F937B018C0180918306882381F483E82B
:1005F00096E00E94C913892B51F088E296E0B80179
:10060000A7010E94260D83E896E00E94D31388E29A
:1006100096E01F910F91FF90EF90089561E075E0D3
:1006200080E090E00E94ED02AEE7B2E0FC018BE5D5
:1006300001900D928150E1F708951F93182F6623C2
:1006400021F18EE792E0612F40E00E94520A8EE78E
:1006500092E0612F41E00E944C0A112359F08091F1
:1006600071008F7D8093710080919100887F8093CD
:10067000910023C080916F008F7D80936F008091E7
:100680008100887F8093810018C0A82FB0E0FD0111
:10069000E258FD4F82A1882381F4AA0FBB1FEA5BB9
:1006A000FF4F2081FD01EB51FD4F80819181820F31
:1006B000911DAA57BD4F8D939C931F910895682F4C
:1006C000882359F080919100897F809391008091D7
:1006D00091008160809391000AC080918100897FA0
:1006E00080938100809181008160809381008EE7FA
:1006F00092E041E00E942F0A08950F931F93CF9339
:10070000DF93182F062FC82FD0E09E012B5E3D4FA0
:10071000FE01E258FD4FDE01AD58BC4F648D8C9157
:100720006827F90180810E94150F8EE792E0612F02
:1007300040E00E944C0AFE01EE0FFF1FEF51FD4FFB
:1007400020813181FE01EE0FFF1FEA57FD4F01901E
:10075000F081E02D2E173F0710F49F0109C082E0C1
:100760002B38380728F0EB58F24010F42AE832E032
:10077000FE01EE0FFF1FEB51FD4F31832083602FF1
:100780006195FE0146E0EE0FFF1F4A95E1F7112348
:10079000F1F081E090E0909389008093880030939D
:1007A0009900209398001ABC67B910929500109296
:1007B000940080917100806280937100EF50FD4F32
:1007C0008081918190939700809396001DC081E075
:1007D00090E090938B0080938A0030939B0020934D
:1007E0009A001EBA68B91092850010928400809118
:1007F0006F00806280936F00EF50FD4F8081918188
:100800009093870080938600CF58DC4F812F6881BA
:100810000E945F03DF91CF911F910F9108951F9266
:100820000F920FB60F920BB60F9211242F933F9396
:100830004F935F936F937F938F939F93AF93BF93E8
:10084000EF93FF9380919E02882309F04AC0409164
:10085000A0022091C6023091C70280919A0288239B
:1008600019F0442309F439C0189902C085E503C082
:100870001B9933C083E3220F331F220F331F90E0F5
:10088000A0E0B0E02F5F3F4F289F912D900DA11D5C
:10089000329F900DA11DBB1FA00DB11D11249D0104
:1008A0003093870220938602442359F010929A02D3
:1008B00061E06093980260938E0280E00E947D0365
:1008C00010C08091E5029091E6028217930748F4E8
:1008D0003093E6022093E50204C030938702209310
:1008E000860280919F02882361F5199903C091E0E7
:1008F0008FEF04C01A9919C090E081E080939902AB
:1009000090939B028091C6029091C702880F991F15
:10091000880F991F909389028093880281E08093C9
:100920008F0261E00E947D030CC02091C50280917E
:10093000E7029091E802820F911D909389028093C3
:100940008802FF91EF91BF91AF919F918F917F911D
:100950006F915F914F913F912F910F900BBE0F9030
:100960000FBE0F901F90189561E00E947D030895BF
:10097000AF92BF92CF92DF92EF92FF920F931F93AD
:10098000CF93DF93A82E082F10E0F801EE0FFF1F82
:10099000EE0FFF1FE258FD4F82899389A489B58924
:1009A0000297A105B10548F48EE792E06A2D22E096
:1009B00030E040E050E00E948F0AF801EE0FFF1F88
:1009C000EE0FFF1FE258FD4FC288D388E488F588F8
:1009D000A70196015695479537952795D801AA0FF7
:1009E000BB1FFD01E752FD4FC081D181203531058C
:1009F0004105510518F0B0E5BB2E17C0B22EA35229
:100A0000BD4F2D913C912430310530F4F801EC5369
:100A1000FD4F8081C80FD11D2830310530F4F80119
:100A2000EC53FD4F8081C80FD11DF801E258FD4FF6
:100A3000228D000F111F000F111FCB18D108E108E4
:100A4000F108332727FD3095432F532FC701B601F7
:100A50000E948416F801E258FD4F208131814281C5
:100A60005381260F371F481F591F07511D4FF8018B
:100A700020833183428353838EE792E06A2DAE0157
:100A80000E94850A8A2D6B2D0E947D038EE792E0DD
:100A90006A2D41E00E94520ADF91CF911F910F9180
:100AA000FF90EF90DF90CF90BF90AF9008951F938D
:100AB000182FE7E1F2E0E80FF11D808160E00E946D
:100AC000150F8EE792E0612F40E00E94580A1F91B7
:100AD00008952F923F924F925F926F927F928F92E2
:100AE0009F92AF92BF92CF92DF92EF92FF920F93BD
:100AF0001F93DF93CF93CDB7DEB727970FB6F89448
:100B0000DEBF0FBECDBF282F30E03F832E83F9011B
:100B1000EE0FFF1FEE0FFF1FEE54FD4F6080718040
:100B200082809380F901EF58FC4F8081F901E75FE3
:100B3000FD4F882311F480E201C084E0808360E0EF
:100B400072E18AE790E0A40193010E94B71659016F
:100B50006A011501260160E072E18AE790E0A401D4
:100B600093010E94B7160E9429157B018C01C401D4
:100B7000B3010E9429159B01AC01C801B7010E9475
:100B800090147B018C01EE81FF81E75FFD4F308186
:100B90003D83632F70E080E090E00E942915698317
:100BA0007A838B839C83C801B70129813A814B8169
:100BB0005C810E9421167B018C0120E030E040E046
:100BC00050E00E941D1688234CF0C801B70120E0B8
:100BD00030E040E05FE30E94191408C0C801B7018B
:100BE00020E030E040E05FE30E9418140E94F81417
:100BF0003B014C0180E0A81680E0B80681E0C80601
:100C000080E0D80638F0EFEF2E2EEFEF3E2E412C8D
:100C1000512C0BC090E8A916B104C104D10428F4EA
:100C200070E8272E312C412C512CEE81FF8166E09B
:100C3000EE0FFF1F6A95E1F7EF50FD4F80E003C014
:100C4000219231928F5FAD818A17D0F3AA24BB2401
:100C500065014E805F8055E0440C551C5A95E1F7C4
:100C60002BC0C601B5010E94291529813A814B810B
:100C70005C810E9421167B018C01C401B3010E949A
:100C800029159B01AC01C801B7010E9490140E9474
:100C90007D140E94FD14F201E60FF11DEE0FFF1FFF
:100CA000EF50FD4F8081918101969183808308945C
:100CB000A11CB11CC11CD11CA614B704C804D904C2
:100CC00080F2EE81FF81E75FFD4FFF83EE83FD81C0
:100CD000F150AE81BF81FC9327960FB6F894DEBF2A
:100CE0000FBECDBFCF91DF911F910F91FF90EF907D
:100CF000DF90CF90BF90AF909F908F907F906F903C
:100D00005F904F903F902F9008951F93182FE7E129
:100D1000F2E0E80FF11D808160E00E94150F8EE780
:100D200092E0612F41E00E94580A812F0E946905DC
:100D30001F910895CF92DF92EF92FF920F931F932E
:100D4000DF93CF93CDB7DEB72B970FB6F894DEBF06
:100D50000FBECDBFC82E7B018EE792E062E00E94FD
:100D60001E0CD82E8CE4C81609F4A9C08C15DCF032
:100D7000E7E4CE1609F4ABC0EC154CF0F5E4CF1661
:100D800009F4ECC086E4C81609F0FBC0F7C0E9E43A
:100D9000CE1609F4C0C0CE160CF4B0C0FBE4CF16DA
:100DA00009F0EFC087C086E6C81609F46AC08C1542
:100DB0005CF0E2E6CE1659F1F5E6CF1691F081E649
:100DC000C81609F0DEC016C0EAE6CE1609F462C005
:100DD000F3E7CF1609F44CC087E6C81609F0D1C076
:100DE0003FC0ED2DF0E0EE0FFF1FEE0FFF1FEE55A1
:100DF000FD4F08C0ED2DF0E0EE0FFF1FEE0FFF1FBF
:100E0000E655FD4F0081118122813381BEC0ED2D59
:100E1000F0E0EE0FFF1FDF01AA53BD4FED90FC90F5
:100E2000EE0CFF1C0894E11CF11CB70180E090E07F
:100E30000894E108F108EE0FFF1FEE54FD4F2081EA
:100E40003181428153810E94841600E010E0A801A4
:100E500097010E94B716C901DA018C019D0195C066
:100E6000ED2DF0E0E258FD4F84AD082F10E00FC0EB
:100E7000ED2DF0E0EE0FFF1FEE0FFF1FE454FD4FCE
:100E8000C1CF8EE792E06D2D0E945E0A8C0120E0BA
:100E900030E07BC08FB7F894ED2DF0E0EE0FFF1F30
:100EA000EE0FFF1FE258FD4F008111812281338137
:100EB0008FBF6BC08D2D60E00E941D0362C08D2D21
:100EC00061E00E941D038D2D0E9457055AC0F70155
:100ED0008081803311F482E38083F70140814053A5
:100EE0008EE792E06D2D0E949C0AF70141814053EC
:100EF0008EE792E06D2D0E94380A43C08EE792E0A3
:100F0000B7010E94B10B9B01AC018EE792E06D2D01
:100F10000E948F0A36C08EE792E0B7010E94B10BA3
:100F2000ED2DF0E0EE0FFF1FEF51FD4F20813181DD
:100F3000790100E010E0AC01CB01DA019C01AD01C8
:100F4000E216F3060407150710F4A80197018EE7CF
:100F500092E06D2DA9010E94850A13C01FB7F89475
:100F60008EE792E0B7010E94B10B9B01AC018EE7C6
:100F700092E06D2D0E94780A1FBF03C08D2D0E9444
:100F8000850600E010E020E030E08EE792E07E0190
:100F90000894E11CF11CB7014C2D0E94670C8CEAEF
:100FA00095E0B7010E941514FAE4CF1671F4ED2D07
:100FB000F0E0E258FD4F808980FF04C08D2D0E9433
:100FC000B40403C08D2D0E94B8042B960FB6F8947C
:100FD000DEBF0FBECDBFCF91DF911F910F91FF906C
:100FE000EF90DF90CF9008950F931F93DF93CF93EF
:100FF000CDB7DEB72B970FB6F894DEBF0FBECDBFCF
:10100000809175038823A1F485E793E00E94C913BA
:10101000892B71F00E94990D60937E0370937F037A
:10102000809380039093810385E793E00E94D3131C
:101030008CEA95E00E94F711892B79F18DE061E04F
:101040000E94150F8CEA95E00E942812482F8EE727
:1010500092E08E010F5F1F4FB8010E94CE0C8130CD
:1010600041F48EE792E00E94190CB8010E949A06A2
:1010700007C08F3F29F48CEA95E0B8010E9415144F
:101080000E94990D60937E0370937F038093800389
:101090009093810381E080937D0380917D03882379
:1010A000C9F00E94990D20917E0330917F034091F9
:1010B0008003509181032C5E3F4F4F4F5F4F2617A7
:1010C00037074807590730F410927D038DE060E040
:1010D0000E94150F2B960FB6F894DEBF0FBECDBF42
:1010E000CF91DF911F910F9108950F931F93DF937D
:1010F000CF93CDB7DEB729970FB6F894DEBF0FBEFA
:10110000CDBF8E010F5F1F4F89E0F80111928A95C4
:10111000E9F782E893E0B80148E020E00E949F0BE5
:10112000C80160E072E048E050E00E9438019C0194
:1011300080E0232B09F481E029960FB6F894DEBFF6
:101140000FBECDBFCF91DF911F910F91089582E81F
:1011500093E069E00E945D0B8093730382E893E063
:101160006AE00E945D0B8093740382E893E06BE079
:101170000E945D0B90E0882309F491E090930B02AC
:1011800010920D02992319F481E080930D0282E8F8
:1011900093E06CE00E945D0B90E09093DE02809300
:1011A000DD022091C40230E0AC01429FC001439FA8
:1011B000900D529F900D112401969093DA02809326
:1011C000D90282E893E06DE00E945D0B90E090937D
:1011D000E0028093DF024091C50250E09C01249F11
:1011E000C001259F900D349F900D1124019690937E
:1011F000DC028093DB028091C40290E0880F991F8B
:10120000880F991F2091C6023091C702820F931F49
:101210009093E2028093E102440F551F440F551F43
:101220008091C8029091C902480F591F5093E4025F
:101230004093E30282E893E068E00E945D0B90E057
:10124000882309F491E0909371039093720399239A
:1012500011F480E201C084E080930902992311F423
:1012600080E201C084E080930A020E94750888230E
:1012700009F4FFCF0895AF92BF92CF92DF92EF9221
:10128000FF921F93CF93DF930E94A7088DE061E048
:101290000E94620E9BE1E92E92E0F92E81E7A82ED2
:1012A00083E0B82E11E1C12E12E0D12EC0E0D0E0D3
:1012B000FE01E75EFD4F808160E00E94620EFE014C
:1012C000E95EFD4F1081812F61E00E94620E812F47
:1012D00061E00E94150FFE01E15FFD4F1081812F3B
:1012E00061E00E94620E812F60E00E94150FFE01F6
:1012F000EB5EFD4F1081812F61E00E94620E812F15
:1013000060E00E94150FD7018C9161E00E94620E8F
:10131000F701818161E00E94620ED501EC91F0E05D
:10132000EE0FFF1FE55FFD4FD7018C9160810E949A
:10133000150FD501ED915D01F0E0EE0FFF1FE45FA9
:10134000FD4FD70111968C9160810E94150FFE010F
:10135000E15EFD4F1081812F61E00E94620E812FBE
:1013600060E00E94150F61E070E080E090E00E9474
:10137000A70D812F61E00E94150FF601808162E0C8
:101380000E94620ED60111968C9162E00E94620E5C
:101390002196E2E0F0E0EE0EFF1ECE0EDF1EC23020
:1013A000D10509F085CF8CEA95E040E855E260E090
:1013B00070E00E94711104C08CEA95E00E9428122E
:1013C0008CEA95E00E94F711892BB1F71092710019
:1013D00010926F001092800088E18093810010923B
:1013E0009000809391008FE080936B008091680063
:1013F0008B7F80936800809168008D7F8093680068
:1014000080916800816080936800DF91CF911F9187
:10141000FF90EF90DF90CF90BF90AF900895E1E202
:10142000F2E020E030E08081861789F4F901EE0FC8
:10143000FF1F442331F0E20FF31FEF5DFD4F818169
:101440000895E20FF31FEF5DFD4F828108952F5F36
:101450003F4F33962431310531F78FEF0895FC016A
:10146000E60FF11D828D18160CF04195428F0895FC
:10147000DC01E62FF0E0942F917040FF04C0EA0FEA
:10148000FB1F8FEF03C0EA0FFB1F81E0828FA60FC7
:10149000B11D5C969C930895FC01E60FF11D41700F
:1014A00042A30895FC01E60FF11D417040A3089589
:1014B000FC01E60FF11D4170468F0895FC01E60F17
:1014C000F11D848D382F330F20E092A180E0282B6E
:1014D000392B868D90E0282B392B80A190E044E0B9
:1014E000880F991F4A95E1F7282B392BC9010895D8
:1014F000E62FF0E0EE0FFF1FEE0FFF1FE80FF91FC2
:1015000020833183428353830895E62FF0E034969D
:10151000EE0FFF1FE80FF91F518340830895E62F58
:10152000F0E0EE0FFF1FEE0FFF1FE80FF91F228BF9
:10153000338B448B558B0895FC01E60FF11D408BD6
:1015400008955F926F927F928F929F92AF92BF9217
:10155000CF92DF92EF92FF920F931F938C013A018B
:101560004B01522E32E8E32E33E0F32EC7016EE03A
:101570000E94790BF80164A775A786A797A7C701F2
:1015800062E10E94790BF80160AB71AB82AB93AB67
:10159000C70166E10E94790BF80164AB75AB86ABBD
:1015A00097ABC7016AE10E94790BF80160AF71AF98
:1015B00082AF93AFC7016EE10E94790B025C1F4FAF
:1015C000F80161937193819391938F01C70162E256
:1015D0000E94790BF80160837183828393830254A4
:1015E0001040C70166E20E94660B28E4A22EB12CCF
:1015F000A00EB11EF50191838083C70168E20E94AD
:10160000660B9C01065B1F4FF801918380830A548F
:101610001040F801148E41E042A310A2168EC12C96
:10162000D12CB0E8EB2EF12CC082D182E282F38281
:1016300011861086108A128A138A148A158A64A267
:1016400075A286A297A254AE0A5B1F4FF501808156
:1016500091816BE470E00E94A316F8016083065448
:101660001040F801158E43A311A2178EC482D582B3
:10167000E682F78213861286118A168A178A108EDE
:10168000118E60A671A682A693A655AE095B1F4F68
:10169000C9016BE470E00E94A316F80160831F91FA
:1016A0000F91FF90EF90DF90CF90BF90AF909F9001
:1016B0008F907F906F905F900895F999FECF862F5D
:1016C00090E092BD81BDF89A80B50895F999FECF5A
:1016D000862F90E092BD81BDF89A20B5F999FECF92
:1016E0006F5F862F90E092BD81BDF89A90B5822FF2
:1016F0000895F999FECF862F90E092BD81BDF89AAA
:1017000020B5F999FECF6F5F862F90E092BD81BD25
:10171000F89A70B56F5FF999FECF862F90E092BD71
:1017200081BDF89A30B5F999FECF6F5F862F90E0B2
:1017300092BD81BDF89A90B5622F832F0895522FE4
:10174000FB0120E009C0F999FECF90E092BD81BD78
:10175000F89A80B581932F5F822F850F241798F315
:101760000895FB0185818A330CF08750B481BA3328
:101770000CF0B75063816A330CF06750A281AA3332
:101780000CF0A75091819A330CF0975070817A3306
:101790000CF0775020E030E040E050E08F70482FB0
:1017A000B295B07F4B2B6F70832F807F862BA295D5
:1017B000A07F8F70382F3A2B9F70622F607F692B2C
:1017C0007295707F6F70672B732FCA010895842FF5
:1017D0008F70ADE5B2E0FD01E80FF11D8081FB01E6
:1017E000858342954F70FD01E40FF11D8081FB015F
:1017F0008483832F8F70FD01E80FF11D8081FB0131
:10180000838332953F70FD01E30FF11D8081FB0161
:101810008283822F8F70FD01E80FF11D8081FB0113
:10182000818322952F70A20FB11D8C918083168227
:101830000895FC01E65AFF4F80810895FC01623053
:1018400028F4E75AFF4F6083E955F040E75AFF4F0D
:1018500080810895FF920F931F93CF93DF93EC0144
:10186000F62E8C01035B1F4FF8016081C65ADF4FD3
:1018700068832C97888181532B968883C955D040E3
:101880008230F0F4CE0141E00E940F0A6F2D6350C8
:10189000282F332727FD3095862F90E0281739070A
:1018A00079F4F80190E003C0828181939F5F9617DD
:1018B000D8F3C20FD31FC35BDF4F188281E001C092
:1018C00080E0DF91CF911F910F91FF9008959F923B
:1018D000AF92BF92CF92DF92EF92FF920F931F933E
:1018E000CF93DF936C017B01B12EA22E932E642F38
:1018F00040E00E940F0A182F8F3F11F481E201C0CF
:101900008DE3F7018083E7012196133099F01630BB
:1019100059F1123089F51A82E02FEF70F0E0E35AA6
:10192000FD4F8081898302950F70E02FF0E0E35A2C
:10193000FD4F16C0A02F8B2D1B82E02FEF70F0E023
:10194000E35AFD4F20812A83A295AF70B0E0A35ADD
:10195000BD4F2C9129838F7090E0835A9D4FFC01DD
:101960008081F701818308C0C601BE01202F3B2D75
:101970004A2D592D0E94E70BFE01E10FF11D8DE06C
:1019800080831182DF91CF911F910F91FF90EF9093
:10199000DF90CF90BF90AF909F900895EF92FF920D
:1019A0000F931F93CF93DF93EC018B018CE4E82E10
:1019B000F12CEC0EFD1EF7018081882319F14A33CA
:1019C00091F1FE01E85AFF4F8081DE01A80FB11DA1
:1019D000A35BBF4F4C93682F6F5F60834D3079F4EA
:1019E000CE010E942A0C8823F1F0C35BDF4FC801AF
:1019F000BE010E943101F701108281E020C06B30EE
:101A0000E9F411C04A33D1F4C85ADF4F188281E09B
:101A1000F7018083CE010B9768E072E04BE050E065
:101A20000E9446010BC081E2F80180838DE0818332
:101A30001282C45BDF4F18828FEF01C080E0DF911C
:101A4000CF911F910F91FF90EF900895CF92DF9269
:101A5000EF92FF920F931F938C016A017B01045B4D
:101A60001F4FF8011082035F1F4FF801108212927E
:101A70008F0108551040C801835B9F4F68E072E0FA
:101A80004BE050E00E944601C801B701A60128E0E2
:101A90000E94A10A1F910F91FF90EF90DF90CF90CD
:101AA00008951F920F920FB60F9211242F933F9318
:101AB0008F939F93AF93BF938091870390918803F7
:101AC000A0918903B0918A0330918B030196A11DE7
:101AD000B11D232F2D5F2D3720F02D570196A11D0D
:101AE000B11D20938B038093870390938803A09369
:101AF0008903B0938A038091830390918403A0911A
:101B00008503B09186030196A11DB11D80938303C7
:101B100090938403A0938503B0938603BF91AF9104
:101B20009F918F913F912F910F900FBE0F901F901B
:101B300018958FB7F89420918703309188034091CE
:101B4000890350918A038FBFB901CA0108959B018F
:101B5000AC017FB7F8948091830390918403A091A6
:101B60008503B091860366B5A89B05C06F3F19F049
:101B70000196A11DB11D7FBFBA2FA92F982F8827CD
:101B8000860F911DA11DB11D62E0880F991FAA1F2C
:101B9000BB1F6A95D1F7BC012DC0FFB7F8948091A7
:101BA000830390918403A0918503B0918603E6B5E9
:101BB000A89B05C0EF3F19F00196A11DB11DFFBF05
:101BC000BA2FA92F982F88278E0F911DA11DB11D07
:101BD000E2E0880F991FAA1FBB1FEA95D1F7861B69
:101BE000970B885E9340C8F22150304040405040EF
:101BF00068517C4F211531054105510571F6089555
:101C0000789484B5826084BD84B5816084BD85B5D7
:101C1000826085BD85B5816085BDEEE6F0E080819E
:101C200081608083E1E8F0E01082808182608083BF
:101C3000808181608083E0E8F0E080818160808342
:101C4000E1EBF0E0808184608083E0EBF0E0808174
:101C500081608083E1E9F0E080818260808380811F
:101C600081608083E0E9F0E0808181608083E1EA47
:101C7000F0E0808182608083808181608083E0EAFF
:101C8000F0E0808181608083E1E2F1E08081826028
:101C90008083808181608083E0E2F1E080818160E7
:101CA0008083EAE7F0E080818460808380818260C5
:101CB00080838081816080838081806880831092AE
:101CC000C1000895CF93DF93482F50E0CA01885890
:101CD0009E4FFC0134914E5C5E4FFA018491882343
:101CE00069F190E0880F991FFC01EC51FF4FA5911D
:101CF000B491FC01E250FF4FC591D491662351F499
:101D00002FB7F8948C91932F909589238C93888189
:101D100089230BC0623061F42FB7F8948C91932F14
:101D2000909589238C938881832B88832FBF06C04D
:101D30009FB7F8948C91832B8C939FBFDF91CF91A9
:101D40000895893009F449C08A30A0F4843051F1F3
:101D5000853040F4823079F1833000F5813009F02C
:101D600063C026C0873079F1883098F5863009F055
:101D70005BC025C08D3009F442C08E3028F48B3012
:101D8000B1F18C30C0F52DC0803109F442C08131F1
:101D900009F445C08F3009F047C037C080918000FA
:101DA0008F7703C0809180008F7D8093800008959D
:101DB00084B58F7702C084B58F7D84BD08958091EE
:101DC000B0008F7703C08091B0008F7D8093B0000A
:101DD0000895809190008F7707C0809190008F7D4B
:101DE00003C080919000877F809390000895809138
:101DF000A0008F7707C08091A0008F7D03C08091E5
:101E0000A000877F8093A0000895809120018F77A4
:101E100003C0809120018F7D8093200108958091DF
:101E20002001877F809320010895FF920F931F93D5
:101E3000F62E482F50E0CA0182549E4FFC01249197
:101E4000CA0188589E4FFC0114914E5C5E4FFA0106
:101E500004910023C9F0222319F0822F0E94A10EC1
:101E6000E02FF0E0EE0FFF1FE250FF4FA591B4917D
:101E70009FB7F894FF2021F48C911095812302C024
:101E80008C91812B8C939FBF1F910F91FF90089590
:101E900008951F920F920FB60F920BB60F92112456
:101EA0002F933F934F938F939F93EF93FF93409183
:101EB000C6002091CC033091CD032F5F3F4F2F738D
:101EC00030708091CE039091CF032817390759F0D5
:101ED000E091CC03F091CD03E457FC4F4083309365
:101EE000CD032093CC03FF91EF919F918F914F9160
:101EF0003F912F910F900BBE0F900FBE0F901F9030
:101F0000189508951F920F920FB60F920BB60F926D
:101F100011242F933F934F938F939F93EF93FF93AE
:101F20004091CE0020915404309155042F5F3F4FD3
:101F30002F733070809156049091570428173907F9
:101F400059F0E0915404F0915504EC5EFB4F40834E
:101F50003093550420935404FF91EF919F918F91FA
:101F60004F913F912F910F900BBE0F900FBE0F908E
:101F70001F90189508951F920F920FB60F920BB6EF
:101F80000F9211242F933F934F938F939F93EF932F
:101F9000FF934091D6002091DC043091DD042F5F47
:101FA0003F4F2F7330708091DE049091DF0428172B
:101FB000390759F0E091DC04F091DD04E456FB4F61
:101FC00040833093DD042093DC04FF91EF919F91D7
:101FD0008F914F913F912F910F900BBE0F900FBE9D
:101FE0000F901F90189508951F920F920FB60F92A1
:101FF0000BB60F9211242F933F934F938F939F9380
:10200000EF93FF934091360120916405309165056F
:102010002F5F3F4F2F733070809166059091670559
:102020002817390759F0E0916405F0916505EC5DDA
:10203000FA4F40833093650520936405FF91EF913B
:102040009F918F914F913F912F910F900BBE0F90C9
:102050000FBE0F901F901895E091B805F091B9054B
:10206000E05CFF4F8191919120813181821B930B24
:102070008F739070892B11F00E94480FE091D70563
:10208000F091D805E05CFF4F8191919120813181E1
:10209000821B930B8F739070892B11F00E94810F1C
:1020A000E091F605F091F705E05CFF4F8191919189
:1020B00020813181821B930B8F739070892B11F0DB
:1020C0000E94BA0FE0911506F0911606E05CFF4FF2
:1020D0008191919120813181821B930B8F7390703C
:1020E000892B11F00E94F30F08951F920F920FB6E3
:1020F0000F920BB60F9211242F933F938F939F93C0
:10210000EF93FF93209110043091110480911204F9
:10211000909113042817390731F48091C1008F7D05
:102120008093C10014C0E0911204F0911304E053B5
:10213000FC4F2081809112049091130401968F73BB
:10214000907090931304809312042093C600FF9123
:10215000EF919F918F913F912F910F900BBE0F9018
:102160000FBE0F901F9018951F920F920FB60F92EF
:102170000BB60F9211242F933F938F939F93EF935E
:10218000FF93209198043091990480919A04909142
:102190009B042817390731F48091C9008F7D809303
:1021A000C90014C0E0919A04F0919B04E85AFB4FD7
:1021B000208180919A0490919B0401968F73907076
:1021C00090939B0480939A042093CE00FF91EF910B
:1021D0009F918F913F912F910F900BBE0F900FBE4B
:1021E0000F901F9018951F920F920FB60F920BB67B
:1021F0000F9211242F933F938F939F93EF93FF930D
:102200002091200530912105809122059091230590
:102210002817390731F48091D1008F7D8093D10048
:1022200014C0E0912205F0912305E052FB4F20817C
:10223000809122059091230501968F739070909361
:102240002305809322052093D600FF91EF919F9163
:102250008F913F912F910F900BBE0F900FBE0F905B
:102260001F9018951F920F920FB60F920BB60F92F8
:1022700011242F933F938F939F93EF93FF9320917C
:10228000A8053091A9058091AA059091AB05281762
:10229000390731F4809131018F7D8093310114C071
:1022A000E091AA05F091AB05E859FA4F20818091A1
:1022B000AA059091AB0501968F7390709093AB0532
:1022C0008093AA0520933601FF91EF919F918F9102
:1022D0003F912F910F900BBE0F900FBE0F901F904C
:1022E0001895AF92BF92DF92EF92FF920F931F93D8
:1022F000CF93DF93EC017A018B01DD24403081EE36
:10230000580780E0680780E0780711F0DD24D39457
:1023100091E0A92EB12CEC89FD89DD2069F0C50181
:102320000E8C02C0880F991F0A94E2F7808360E048
:1023300079E08DE390E005C0108260E874E88EE1FA
:1023400090E0A80197010E94B7162150304040400C
:102350005040569547953795279580E120303807AE
:1023600020F0DD2011F0DD24D6CFE889F989308313
:10237000EA89FB892083EE89FF89408121E030E0F2
:10238000C9010A8C02C0880F991F0A94E2F7482BF2
:102390004083EE89FF894081C9010B8C02C0880F00
:1023A000991F0A94E2F7482B4083EE89FF89408108
:1023B000C9010C8C02C0880F991F0A94E2F7482BC0
:1023C0004083EE89FF8980810D8C02C0220F331F6C
:1023D0000A94E2F7209528232083DF91CF911F9163
:1023E0000F91FF90EF90DF90BF90AF900895DC01C8
:1023F0001C96ED91FC911D97E05CFF4F219131916E
:1024000080819181281B390B2F733070C901089589
:10241000DC011C96ED91FC911D97E05CFF4F208143
:102420003181E054F040DF01AE5BBF4F8D919C9154
:1024300011972817390719F42FEF3FEF07C08D9137
:102440009C91E80FF91F8081282F30E0C901089581
:10245000DC011C96ED91FC911D97E05CFF4F208103
:102460003181E054F040DF01AE5BBF4F8D919C9114
:1024700011972817390719F42FEF3FEF10C08D91EE
:102480009C911197E80FF91F20818D919C911197D4
:1024900001968F73907011969C938E9330E0C901D2
:1024A0000895FC0186859785DC01A05CBF4FFC0187
:1024B000EE5BFF4F2D913C91119780819181281700
:1024C0003907C1F70895CF93DF93EC01EE85FF85BF
:1024D000E05CFF4F20813181E054F0402F5F3F4F9F
:1024E0002F733070DF01AE5BBF4F8D919C911197C0
:1024F00028173907D1F3E05CFF4F80819181E054C8
:10250000F040E80FF91F6083EE85FF85E05CFF4F28
:1025100031832083EE89FF89208181E090E00D8C5A
:1025200002C0880F991F0A94E2F7282B208381E0CC
:1025300090E0DF91CF9108951F931092AF05109214
:10254000AE0528EE33E040E050E02093B005309334
:10255000B1054093B2055093B30561E772E0709303
:10256000AD056093AC058CE893E09093B90580933A
:10257000B80580ED93E09093BB058093BA0585EC98
:1025800090E09093BD058093BC0584EC90E090931F
:10259000BF058093BE0580EC90E09093C1058093C9
:1025A000C00581EC90E09093C3058093C20586EC52
:1025B00090E09093C5058093C40514E01093C60580
:1025C000B3E0B093C705A7E0A093C805F5E0F0938A
:1025D000C905E1E0E093CA051092CE051092CD0541
:1025E0002093CF053093D0054093D1055093D20569
:1025F0007093CC056093CB0584E194E09093D8056B
:102600008093D70588E594E09093DA058093D90507
:102610008DEC90E09093DC058093DB058CEC90E0F2
:102620009093DE058093DD0588EC90E09093E005C3
:102630008093DF0589EC90E09093E2058093E105BB
:102640008EEC90E09093E4058093E3051093E5050C
:10265000B093E605A093E705F093E805E093E9055C
:102660001092ED051092EC052093EE053093EF05E6
:102670004093F0055093F1057093EB056093EA05E4
:102680008CE994E09093F7058093F60580EE94E052
:102690009093F9058093F80585ED90E09093FB0504
:1026A0008093FA0584ED90E09093FD058093FC05FE
:1026B00080ED90E09093FF058093FE0581ED90E022
:1026C000909301068093000686ED90E090930306B8
:1026D0008093020610930406B0930506A0930606A5
:1026E000F0930706E093080610920C0610920B0672
:1026F00020930D0630930E0640930F06509310065C
:1027000070930A066093090684E295E0909316069A
:102710008093150688E695E0909318068093170637
:1027200085E391E090931A068093190684E391E083
:1027300090931C0680931B0680E391E090931E0605
:1027400080931D0681E391E09093200680931F06FD
:1027500086E391E09093220680932106109323064E
:10276000B0932406A0932506F0932606E09327064F
:102770001F910895CF93DF930E94000E0E943B09A2
:10278000CCE2D0E10E94F4072097E1F30E942C10E4
:10279000F9CFFC0120E030E08081882311F421E0B2
:1027A00030E0C9010895FC0181E080830895CF9253
:1027B000DF92EF92FF920F931F93CF93DF937C01F1
:1027C0006B018A01C0E0D0E00FC0D6016D916D01B0
:1027D000D701ED91FC910190F081E02DC7010995A1
:1027E000C80FD91F015010400115110571F7CE0116
:1027F000DF91CF911F910F91FF90EF90DF90CF90DD
:102800000895CF93DF93DB010D900020E9F7119736
:10281000A61BB70BEC01E881F9810280F381E02D62
:10282000AD010995DF91CF9108950E94011408959B
:102830005058BB27AA270ED0AFC1A0D130F0A5D1E8
:1028400020F031F49F3F11F41EF495C10EF4E09591
:10285000E7FB60C1E92FB1D180F3BA1762077307B4
:102860008407950718F071F49EF5E0C10EF4E09529
:102870000B2EBA2FA02D0B01B90190010C01CA013A
:10288000A0011124FF27591B99F0593F50F4503EE5
:1028900068F11A16F040A22F232F342F4427585FD7
:1028A000F3CF469537952795A795F0405395C9F7EF
:1028B0007EF41F16BA0B620B730B840BBAF09150A7
:1028C000A1F0FF0FBB1F661F771F881FC2F70EC046
:1028D000BA0F621F731F841F48F487957795679519
:1028E000B795F7959E3F08F0B3CF9395880F08F002
:1028F0009927EE0F97958795089581D180F09F379E
:1029000040F491110EF493C160E070E080E89FE321
:10291000089526F01B16611D711D811D01C11BC18B
:102920000CD03AC132D140F029D130F021F45F3FD0
:1029300019F0F0C051117BC11EC13FD198F399230A
:10294000C9F35523B1F3951B550BBB27AA27621773
:102950007307840738F09F5F5F4F220F331F441FB8
:10296000AA1FA9F333D00E2E3AF0E0E830D09150F0
:102970005040E695001CCAF729D0FE2F27D0660FDD
:10298000771F881FBB1F261737074807AB07B0E81C
:1029900009F0BB0B802DBF01FF2793585F4F2AF032
:1029A0009E3F510568F0B6C042C15F3FECF3983ED0
:1029B000DCF3869577956795B795F7959F5FC9F78F
:1029C000880F911D9695879597F90895E1E0660F18
:1029D000771F881FBB1F621773078407BA0720F091
:1029E000621B730B840BBA0BEE1F88F7E0950895FA
:1029F00004D06894B1111BC10895E7D088F09F57A7
:102A000090F0B92F9927B751A0F0D1F0660F771F3A
:102A1000881F991F1AF0BA95C9F712C0B13081F01A
:102A200005D1B1E0089502C1672F782F8827B85FDC
:102A300039F0B93FCCF3869577956795B395D9F77B
:102A40003EF490958095709561957F4F8F4F9F4F85
:102A50000895E89409C097FB3EF490958095709591
:102A600061957F4F8F4F9F4F9923A9F0F92F96E9DA
:102A7000BB279395F695879577956795B795F1114F
:102A8000F8CFFAF4BB0F11F460FF1BC06F5F7F4FEC
:102A90008F4F9F4F16C0882311F096E911C07723FE
:102AA00021F09EE8872F762F05C0662371F096E807
:102AB000862F70E060E02AF09A95660F771F881FD6
:102AC000DAF7880F9695879597F90895990F00087A
:102AD000550FAA0BE0E8FEEF16161706E807F907F0
:102AE000C0F012161306E407F50798F0621B730B8B
:102AF000840B950B39F40A2661F0232B242B252B0C
:102B000021F408950A2609F4A140A6958FEF811DAE
:102B1000811D089597F99F6780E870E060E008954F
:102B2000882371F4772321F09850872B762F07C0E4
:102B3000662311F499270DC09051862B70E060E058
:102B40002AF09A95660F771F881FDAF7880F9695F7
:102B5000879597F908959F3F49F0915028F48695FD
:102B600077956795B7959F5F80389F4F880F9695AB
:102B7000879597F908959FEF80EC089500240A94B3
:102B80001616170618060906089500240A94121648
:102B90001306140605060895092E0394000C11F47B
:102BA000882352F0BB0F40F4BF2B11F460FF04C028
:102BB0006F5F7F4F8F4F9F4F089557FD9058440F81
:102BC000551F59F05F3F71F04795880F97FB991F8C
:102BD00061F09F3F79F08795089512161306140649
:102BE000551FF2CF4695F1DF08C0161617061806D6
:102BF000991FF1CF86957105610508940895E5DF69
:102C0000A0F0BEE7B91788F4BB279F3860F416160A
:102C1000B11D672F782F8827985FF7CF8695779516
:102C20006795B11D93959639C8F30895E894BB272D
:102C300066277727CB0197F9089548DF08F48FEFCF
:102C400008950BD0A9CF9ADF28F09FDF18F09523C5
:102C500009F060CF90CF1124EACFAFDFA0F3959FAA
:102C6000D1F3950F50E0551F629FF001729FBB2773
:102C7000F00DB11D639FAA27F00DB11DAA1F649F1F
:102C80006627B00DA11D661F829F2227B00DA11DD2
:102C9000621F739FB00DA11D621F839FA00D611D58
:102CA000221F749F3327A00D611D231F849F600D79
:102CB000211D822F762F6A2F11249F5750408AF0B2
:102CC000E1F088234AF0EE0FFF1FBB1F661F771F3E
:102CD000881F91505040A9F79E3F510570F01ACFC0
:102CE000A6CF5F3FECF3983EDCF38695779567952A
:102CF000B795F795E7959F5FC1F7FE2B880F911D5C
:102D00009695879597F90895629FD001739FF0017A
:102D1000829FE00DF11D649FE00DF11D929FF00D6B
:102D2000839FF00D749FF00D659FF00D9927729FA2
:102D3000B00DE11DF91F639FB00DE11DF91FBD012D
:102D4000CF0111240895AA1BBB1B51E107C0AA1F84
:102D5000BB1FA617B70710F0A61BB70B881F991F3C
:102D60005A95A9F780959095BC01CD010895A1E2EF
:102D70001A2EAA1BBB1BFD010DC0AA1FBB1FEE1FF5
:102D8000FF1FA217B307E407F50720F0A21BB30B40
:102D9000E40BF50B661F771F881F991F1A9469F7BC
:102DA00060957095809590959B01AC01BD01CF0118
:102DB0000895EE0FFF1F0590F491E02D0994F8940B
:022DC000FFCF43
:102DC200417374726F45510000202001010000051B
:102DD2000C3235333403070408020610111312377C
:102DE200366500066100066200066700027300068F
:102DF2004B00004506006A000666000347020048D1
:102E020006004D06004906004A0000500100460037
:102E1200004C0000410600420600530600303132E9
:102E22003334353637383941424344454600000091
:0E2E3200006312D713F7112812081251120074
:00000001FF
