:1000000036C1000061C100005FC100005DC1000099
:100010005BC1000059C1000057C1000055C100007C
:1000200053C1000051C100004FC100004DC100008C
:100030004BC1000049C1000047C1000045C100009C
:10004000C5C5000041C100003FC100003DC1000026
:100050003BC1000039C1000037C100000C943D10C5
:1000600033C100000C9434120C945C132DC10000B9
:100070002BC1000029C1000027C100000CC50000F1
:1000800023C1000021C100001FC100001DC10000EC
:100090000C946D120C949B1317C1000015C1000045
:1000A00013C1000011C100000FC100000DC100000C
:1000B0000BC1000009C1000007C1000005C100001C
:1000C00003C1000001C10000FFC000000C94A61293
:1000D0000C94DA13F9C000000C94DF120C9419147C
:1000E000F3C00000350A400A6A0A580ACA0AAE0A72
:1000F0007D0ACA0A8B0ACA0A730A770ACA0A5E0A02
:10010000CA0AB10ACA0ACA0A4C0ACA0ACA0ACA0AE6
:10011000CA0ACA0ACA0ACA0ACA0ACA0ACA0ACA0A3F
:10012000CA0ACA0AFF09080A2D0A1E0ACA0ACA0A06
:10013000CA0ACA0ACA0ACA0ACA0ACA0ACA0A210AC8
:10014000CA0ACA0ACA0ACA0A110A000021002400FF
:1001500027002A002D0030003300010100000401B7
:1001600007010A0100002200250028002B002E00B4
:100170003100340002010000050108010B010000FC
:1001800020002300260029002C002F00320000014F
:10019000000003010601090105050505070508081A
:1001A0000808020202020A0A080804040404010101
:1001B0000101010101010303030303030303040716
:1001C00007070C0C0C0C0C0C0C0C020202020606AD
:1001D0000606060606060B0B0B0B0B0B0B0B0102A0
:1001E0001020200808102040102040800201020149
:1001F0000804020101020408102040808040201001
:100200000804020180040201804020100804020159
:1002100008040201010204081020408001020408C1
:10022000102040800000090A02080B0C0D0706038D
:1002300004010000000000000000000000000000B9
:1002400000000000000000000000000000000000AE
:1002500011100F000000000000000000000000006E
:1002600000000000000000000000A206821511241A
:100270001FBECFEFD1E2DEBFCDBF00E00CBF12E06A
:10028000A0E0B2E0E8EAF4E300E00BBF02C00790B0
:100290000D92A639B107D9F71BBE16E0A6E9B2E068
:1002A00001C01D92A639B107E1F712E0CEE6D2E017
:1002B00004C02297FE010E94431ACA36D107C9F72B
:1002C0000E94A0160C94521A9BCE2F923F925F92DE
:1002D0006F927F928F929F92AF92BF92CF92DF9256
:1002E000EF92FF920F931F93CF93DF938C011B012B
:1002F000EA016115710519F0FB0191838083209754
:1003000049F0CE010297839728F020E030E040E0EA
:1003100050E0F6C0F801A1908F018A2D90E00E9474
:10032000471A892BB9F7FDE2AF1631F4F801A19015
:100330008F015524539407C0FBE2AF1619F4F8015E
:10034000A1908F015524209719F0C031D105C1F437
:10035000F0E3AF1679F4F8018081883711F0883521
:1003600049F4F801A1800E5F1F4FF2E05F2AC0E15F
:10037000D0E006C0209721F480E3A816E9F427C056
:10038000C830D10531F1C930D10524F4C230D105CE
:1003900031F50CC0CA30D10589F0C031D105F9F46E
:1003A000C12CD12CE12CB8E0FB2E28C0C12CD12CC3
:1003B000E12CA0E4FA2E22C0CAE0D0E0FCECCF2E63
:1003C000FCECDF2EFCECEF2EFCE0FF2E17C0C8E0AB
:1003D000D0E0C12CD12CE12CE0E1FE2E0FC09E011B
:1003E000442737FD4095542F60E070E080E090E8AE
:1003F0000E94CD19C901DA016C017D0120E030E0D5
:1004000040E050E060E03E01882477FC8094982C26
:1004100070EDB72EBA0CE9E0EB1570F48A2D81541B
:100420008A3118F499ECB92E06C08A2D81568A318A
:1004300050F589EAB82EBA0C8B2D90E08C179D07E9
:1004400014F56F3FE1F0C216D306E406F506B0F0EE
:10045000CA01B901A40193010E94AE199B01AC012C
:100460002B0D311D411D511D2130F0E03F07F0E003
:100470004F07F0E85F0710F461E001C06FEFF8018B
:10048000A1908F01C5CF2114310481F0662331F092
:1004900001501040F1011183008308C051FE1AC0C1
:1004A00002501040F1011183008314C067FF12C095
:1004B00050FC05C02FEF3FEF4FEF5FE704C020E097
:1004C00030E040E050E882E290E09093950680931F
:1004D000940616C050FE08C0509540953095219561
:1004E0003F4F4F4F5F4F0CC057FF0AC082E290E072
:1004F00090939506809394062FEF3FEF4FEF5FE7C1
:10050000B901CA01DF91CF911F910F91FF90EF9038
:10051000DF90CF90BF90AF909F908F907F906F9023
:100520005F903F902F900895FB01DC0101900D92A8
:100530000020E1F70895FB01DC014150504030F00C
:100540008D910190801919F40020B9F7881B990B3F
:100550000895FB01DC014150504048F001900D929C
:100560000020C9F701C01D9241505040E0F70895A6
:10057000AEE0B0E0EEEBF2E00C94181A0E891F89A1
:1005800086E08C831A8309838FEF9FE79E838D8398
:100590009E01265E3F4FCE010196688D798DA9019F
:1005A0000AD02F813885020F131FF80110822E9672
:1005B000E4E00C94341AABE0B0E0E1EEF2E00C942D
:1005C0000A1A3C012B015A01FC0117821682838111
:1005D00081FD03C06FEF7FEFB9C19AE0892E1E0144
:1005E0000894211C311CF3012381F20123FD859124
:1005F00023FF81912F01882309F4A5C1853239F4A5
:1006000023FD859123FF81912F01853221F490E014
:10061000B301B7D1E8CF982FFF24EE249924FFE14E
:10062000FF15D0F09B3269F09C3228F4903259F0DB
:10063000933291F40EC09D3249F0903369F441E059
:1006400024C052E0F52A84E0F82A28C098E0F92A6C
:1006500025C0E0E1FE2A22C0F7FC29C0892F805383
:100660008A3070F4F6FE05C0989C902C1124980EE8
:1006700015C0E89CE02C1124E80EF0E2FF2A0EC021
:100680009E3229F4F6FC5FC140E4F42A07C09C3690
:1006900019F450E8F52A02C0983649F4F20123FD16
:1006A000959123FF91912F01992309F0B8CF892FBC
:1006B0008554833018F08052833038F444E050E0A1
:1006C000A40EB51E5FE359830FC0933631F0933704
:1006D00079F0933509F052C01FC0F50180818983FC
:1006E00042E050E0A40EB51E610101E010E011C02F
:1006F000F501C080D180F6FC03C06FEF7FEF02C030
:10070000692D70E042E050E0A40EB51EC6012ED166
:100710008C015FE7F52213C0F501C080D180F6FCA3
:1007200003C06FEF7FEF02C0692D70E042E050E040
:10073000A40EB51EC6010FD18C0150E8F52AF3FEB8
:1007400006C018C080E290E0B3011BD1EA948E2D60
:1007500090E008171907B0F30DC0F601F7FC85917A
:10076000F7FE81916F0190E0B3010BD1E110EA94A3
:10077000015010400115110581F7E2C0943611F0C7
:10078000993661F5F7FE08C0F5012081318142817B
:10079000538184E090E00AC0F501808191819C0141
:1007A000442737FD4095542F82E090E0A80EB91EF3
:1007B0009FE6F92257FF09C0509540953095219545
:1007C0003F4F4F4F5F4FE0E8FE2ACA01B901A10138
:1007D0002AE030E002D1D82ED2183FC0953729F454
:1007E0001F2D1F7E2AE030E01DC01F2D197F9F3670
:1007F00061F0903720F4983509F0A5C00FC090370C
:1008000039F0983709F09FC004C028E030E00AC0F2
:10081000106114FD146020E130E004C014FD166086
:1008200020E132E017FF08C0F5016081718182810B
:10083000938144E050E008C0F50180819181BC01C2
:1008400080E090E042E050E0A40EB51EA101C5D0CA
:10085000D82ED2188FE7F82EF122F6FE0BC05EEFED
:10086000F522D91438F4F4FE07C0F2FC05C08FEE6F
:10087000F82202C01D2D01C0192DF4FE0DC0FE018D
:10088000ED0DF11D8081803319F499EEF92208C035
:100890001F5FF2FE05C003C08F2D867809F01F5F31
:1008A0000F2DF3FC13C0F0FE0EC01E1510F09D2C92
:1008B0000AC09D2C9E0C911A1E2D05C080E290E06E
:1008C000B3015FD01F5F1E15C8F304C01E1510F4DE
:1008D000E11A01C0EE2404FF0EC080E390E0B301F2
:1008E00050D002FF1BC001FD03C088E790E00EC09E
:1008F00088E590E00BC0802F867881F001FF02C070
:100900008BE201C080E2F7FC8DE290E0B30139D0C8
:1009100005C080E390E0B30134D09A94D914C8F3B1
:10092000DA94F101ED0DF11D808190E0B30129D041
:10093000DD20B1F705C080E290E0B30122D0EA9457
:10094000EE20C9F750CEF30166817781CB012B965B
:10095000E2E10C94261AFC010590615070400110F0
:10096000D8F7809590958E0F9F1F0895FC016150D8
:10097000704001900110D8F7809590958E0F9F1FC1
:1009800008950F931F93CF93DF938C01EB018B811D
:1009900081FF1BC082FF0DC02E813F818C819D8114
:1009A0002817390764F4E881F9810193F983E88312
:1009B00006C0E885F985802F1995892B31F48E8141
:1009C0009F8101969F838E8302C00FEF1FEFC801A6
:1009D000DF91CF911F910F910895FA01AA27283036
:1009E00051F1203181F1E8946F936E7F6E5F7F4FFC
:1009F0008F4F9F4FAF4FB1E03ED0B4E03CD0670F78
:100A0000781F891F9A1FA11D680F791F8A1F911DCA
:100A1000A11D6A0F711D811D911DA11D20D009F41A
:100A200068943F912AE0269F11243019305D31935C
:100A3000DEF6CF010895462F4770405D4193B3E045
:100A40000FD0C9F7F6CF462F4F70405D4A3318F0EC
:100A5000495D31FD4052419302D0A9F7EACFB4E09D
:100A6000A6959795879577956795BA95C9F7009755
:100A70006105710508959B01AC010A2E06945795F6
:100A8000479537952795BA95C9F7620F731F841F4D
:100A9000951FA01D08951F920F920FB60F920BB6CF
:100AA0000F9211242F933F934F935F938F939F93B4
:100AB000AF93BF93EF93FF938AB5E0912302EE0FBC
:100AC000E823F0E0E75CFC4F208131813093970010
:100AD000209396008F5F8ABD809188009091890055
:100AE000019709F05EC025B180919800909199001E
:100AF000909389008093880026FF39C02F7B25B909
:100B000020919A0230919B0240919C0250919D024B
:100B10008091B102992787FD9095A92FB92F820F57
:100B2000931FA41FB51F80939A0290939B02A093DA
:100B30009C02B0939D022091980030919900809181
:100B4000F7029091F8028217930708F02EC01092D6
:100B5000B70281E08093B902809171008F7D80930C
:100B6000710080919100887F809391001EC0206465
:100B700025B94091A0025091A1020090DD029C0194
:100B8000801991098417950738F4C901800D911DCA
:100B90004817590708F4CA01909399008093980068
:100BA00004C09093890080938800FF91EF91BF91DA
:100BB000AF919F918F915F914F913F912F910F90A6
:100BC0000BBE0F900FBE0F901F9018951F920F92A3
:100BD0000FB60F920BB60F9211242F933F934F93A2
:100BE0005F938F939F93AF93BF93EF93FF938EB3D6
:100BF000E0912202EE0FE823F0E0E750FD4F208164
:100C0000318130938700209386008F5F8EBB809167
:100C10008A0090918B00019709F05EC02EB18091FF
:100C20009A0090919B0090938B0080938A0023FF01
:100C300039C0277F2EB920919602309197024091BA
:100C40009802509199028091B002992787FD909562
:100C5000A92FB92F820F931FA41FB51F809396024F
:100C600090939702A0939802B093990220919A00D2
:100C700030919B008091F5029091F60282179307C4
:100C800008F02EC01092B60281E08093B8028091E5
:100C90006F008F7D80936F0080918100887F8093AB
:100CA00081001EC028602EB940919E0250919F0283
:100CB0000090DC029C01801991098417950738F493
:100CC000C901800D911D4817590708F4CA01909376
:100CD0009B0080939A0004C090938B0080938A00BD
:100CE000FF91EF91BF91AF919F918F915F914F9144
:100CF0003F912F910F900BBE0F900FBE0F901F9042
:100D00001895EF92FF920F931F937B018C018091B6
:100D10008C06882381F48CE896E00E94AD16892B1E
:100D200051F081E396E0B801A7010E9413108CE80E
:100D300096E00E94B71681E396E01F910F91FF9015
:100D4000EF90089561E075E080E090E0DADFA6E9D9
:100D5000B2E0FC018BE501900D928150E1F708951E
:100D60001F93182F662311F186E992E0612F40E06E
:100D70009FD586E992E0612F41E094D5112359F087
:100D8000809171008F7D8093710080919100887FA8
:100D90008093910023C080916F008F7D80936F00BE
:100DA00080918100887F8093810018C0A82FB0E0D7
:100DB000FD01EA56FD4F82A1882381F4AA0FBB1FD3
:100DC000EA5BFF4F2081FD01EB50FD4F8081918157
:100DD000820F911DA256BD4F8D939C931F91089534
:100DE0000F931F93082F882359F080919100897FDA
:100DF00080939100809191008160809391000AC05E
:100E000080918100897F8093810080918100816041
:100E10008093810086E992E0602F41E026D510E0C2
:100E2000000F111FF801E25DFD4F808160912402E7
:100E30000E940112015D1D4FF80180816091250221
:100E40000E9401121F910F910895EF92FF920F934C
:100E50001F93E82EF62E082F10E09801245D3D4FD9
:100E6000F801EA56FD4FD801A558BC4F648D8C910E
:100E70006827F90180810E94011286E992E06E2DB7
:100E800040E010D5F801EE0FFF1FF194D80136E0D5
:100E9000AA0FBB1F3A95E1F7EE2011F181E090E037
:100EA0009093890080938800EB50FD4F8081918161
:100EB00090939900809398001ABCF7B8109295000F
:100EC0001092940080917100806280937100A7500D
:100ED000BD4F8D919C91909397008093960021C077
:100EE00081E090E090938B0080938A00EB50FD4F5F
:100EF0008081918190939B0080939A001EBAF8B8EC
:100F0000109285001092840080916F00806280931F
:100F10006F00A750BD4F8D919C9190938700809357
:100F200086008E2D60E05CDF1F910F91FF90EF90A7
:100F300008951F93182FE2E3F2E0E80FF11D80817E
:100F400060E00E94011286E992E0612F40E0B6D491
:100F50001F9108951F93182FE2E3F2E0E80FF11DAF
:100F6000808160E00E94011286E992E0612F41E0F9
:100F7000A5D41F9108952F923F924F925F926F9246
:100F80007F928F929F92AF92BF92CF92DF92EF9219
:100F9000FF920F931F93CF93DF93C82FD0E0FE01F2
:100FA000EE0FFF1FEE0FFF1FE653FD4FA080B18035
:100FB000C280D380FE01E758FC4F108260E072E1EE
:100FC0008AE790E0A60195010E94CD1939014A01F6
:100FD0001301240160E072E18AE790E0A601950127
:100FE0000E94CD190E9453187B018C01C601B501E6
:100FF0000E9453189B01AC01C801B7010E94BA17A7
:1010000020E030E040E052E40E944B197B018C016B
:1010100020E030E040E050E00E94471988234CF087
:10102000C801B70120E030E040E05FE30E944317D1
:1010300008C0C801B70120E030E040E05FE30E9453
:1010400042170E9422185B016C0180E0681680E064
:10105000780681E0880680E0980638F0FFEF2F2EB2
:10106000FFEF3F2E412C512C0BC080E86816710415
:101070008104910428F4E0E82E2E312C412C512CCF
:10108000FE0176E0EE0FFF1F7A95E1F7E750FD4F86
:1010900080E0219231928F5F8032D9F766247724E5
:1010A00043012E0165E0440C551C6A95E1F72BC005
:1010B000C401B3010E94531820E030E040E052E444
:1010C0000E944B197B018C01C601B5010E94531887
:1010D0009B01AC01C801B7010E94BA170E94A71773
:1010E0000E942718F201E60FF11DEE0FFF1FE750D7
:1010F000FD4F808191810196918380830894611CCA
:10110000711C811C911C6A147B048C049D0480F268
:10111000CE5DDD4F8FE18883DF91CF911F910F91DD
:10112000FF90EF90DF90CF90BF90AF909F908F9007
:101130007F906F905F904F903F902F900895FF9217
:101140000F931F938BE893E069E000D5F82E8BE8AE
:1011500093E06AE0FBD4082F21E02F1508F47AC051
:10116000823008F077C08BE893E06BE0EFD4182F63
:10117000823008F06FC08091DE029091DF028C52C5
:1011800091408558934008F065C08091E0029091AD
:10119000E1028C5291408558934008F05BC08BE887
:1011A00093E06CE0DCD4BC0101978B34910508F02E
:1011B00051C000937C03F0927B0310937D0380E089
:1011C000112309F481E080932402109226028823DF
:1011D00019F481E08093260270932102609320022B
:1011E0008091DC0290E0689F9001699F300D789FAC
:1011F000300D11243093F2022093F1022091DD0290
:1012000030E0629FA001639F500D729F500D11242A
:101210005093F4024093F302880F991F880F991F8F
:101220004091DE025091DF02840F951F9093F602E9
:101230008093F502220F331F220F331F8091E002AB
:101240009091E102280F391F3093F8022093F702A2
:1012500081E001C080E01F910F91FF9008950F93EE
:101260001F93DF93CF93CDB7DEB729970FB6F894CE
:10127000DEBF0FBECDBF8E010F5F1F4F89E0F801AB
:1012800011928A95E9F78BE893E0B80148E020E0F5
:101290009FD4C80160E072E048E050E04CD99C0166
:1012A00080E0232B09F481E029960FB6F894DEBF85
:1012B0000FBECDBFCF91DF911F910F9108950F9376
:1012C0001F930BE813E04091C2025091C30260915A
:1012D000C4027091C502C8012EE0B9D44091C60283
:1012E0005091C7026091C8027091C902C80122E101
:1012F000AED44091CA025091CB026091CC02709161
:10130000CD02C80126E1A3D44091CE025091CF0274
:101310006091D0027091D102C8012AE198D4409125
:10132000D4025091D5026091D6027091D702C801C3
:101330002EE18DD44091D8025091D9026091DA0209
:101340007091DB02C80122E282D4C80160917B0364
:1013500049E050D4C80160917C034AE04BD4C801F5
:1013600060917D034BE046D4609120027091210290
:10137000C8014CE04DD46091DE027091DF02C801DB
:1013800046E246D46091E0027091E102C80148E271
:101390003FD41F910F9108958BE893E060E072E0D5
:1013A00048E020E06CC4CF92DF92EF92FF920F935F
:1013B0001F93DF93CF93CDB7DEB72B970FB6F8947B
:1013C000DEBF0FBECDBFC82E8B0186E992E062E082
:1013D00073D4D82E8C2D992787FD9095A92FB92FDE
:1013E000FC01E154F040E333F10508F0D3C0EE58BE
:1013F000FF4FEE0FFF1F0590F491E02D1994ED2D96
:10140000F0E0EE0FFF1FEE0FFF1FEE53FD4F11C078
:10141000ED2DF0E0EE0FFF1FEE0FFF1FE653FD4F27
:1014200008C0ED2DF0E0EE0FFF1FEE0FFF1FEC5296
:10143000FD4F0081118122813381B0C080917D03F5
:1014400011C0ED2DF0E0EE0FFF1FE252FD4F808145
:1014500091818C0120E030E0A1C0ED2DF0E0E55855
:10146000FC4F8081082F10E0F5CF86E992E0B801AB
:101470005CD49B01AC0186E992E06D2D2FD28AC02D
:1014800086E992E0B80151D49B01AC0186E992E073
:101490006D2DA9013BD27EC086E992E0B80145D40A
:1014A0009B01AC0186E992E06D2DA9013FD272C08B
:1014B000D8018C91805380937D036CC086E992E0C3
:1014C000B80133D49B01AC0186E992E06D2DA901EE
:1014D00013D260C0ED2DF0E0E558FC4FD8018C919F
:1014E0008053808357C08D2D60E03ADC53C08D2D32
:1014F00061E036DC8D2D1DDD4DC088E292E0B80143
:1015000042E050E026D8F8014181405386E992E05C
:101510006D2DB4D13FC086E992E0B80106D4ED2D1F
:10152000F0E0EE0FFF1FEB50FD4F2081318179017C
:1015300000E010E0AC01CB01DA019C01AD01E21644
:10154000F3060407150710F4A801970186E992E055
:101550006D2DA901B9D18D2D0EDD1CC08D2DFADCAC
:1015600019C0D8018C918033A9F080912802803372
:1015700041F480912902813311F40EDF0BC09FDE0C
:1015800009C0813339F46BDE882319F0D8DD882354
:1015900009F4CC2400E010E020E030E086E992E09D
:1015A0007E010894E11CF11CB7014C2DA9D485EBF8
:1015B00095E0B7010E94F916BAE4CB1639F4809190
:1015C0002802813319F48D2D61E03FDC2B960FB694
:1015D000F894DEBF0FBECDBFCF91DF911F910F9169
:1015E000FF90EF90DF90CF9008950F931F93DF93BC
:1015F000CF93CDB7DEB72B970FB6F894DEBF0FBEF3
:10160000CDBF80917E03882399F48EE793E00E94FA
:10161000AD16892B69F079D56093870370938803A1
:101620008093890390938A038EE793E00E94B71614
:1016300085EB95E00E94DD14892B51F18DE061E08E
:10164000E0D685EB95E00E940E15482F86E992E0E2
:101650008E010F5F1F4FB801FCD3813031F486E952
:1016600092E025D3B8019FDE07C08F3F29F485EBB8
:1016700095E0B8010E94F91648D5609387037093EE
:1016800088038093890390938A0381E08093860383
:10169000809186038823B9F038D520918703309153
:1016A00088034091890350918A032C5E3F4F4F4F2E
:1016B0005F4F261737074807590728F4109286030B
:1016C0008DE060E09ED62B960FB6F894DEBF0FBE7D
:1016D000CDBFCF91DF911F910F910895EF92FF92AF
:1016E0001F93CF93DF938091DC0290E0880F991FC6
:1016F000880F991F2091DE023091DF02820F931F25
:101700009093F6028093F5028091DD0290E0880FBD
:10171000991F880F991F2091E0023091E102820FFA
:10172000931F9093F8028093F7028DE061E0B6D5A5
:101730004EE2E42E42E0F42EC0E0D0E0FE01EC5C8C
:10174000FD4F808160E0AAD5FE01EE5CFD4F108167
:10175000812F61E0A3D5812F61E053D6FE01E65DC4
:10176000FD4F1081812F61E099D5812F60E049D62E
:10177000FE01E45DFD4F1081812F61E08FD5812F47
:1017800060E03FD6F701808161E088D5F701818173
:1017900061E084D5F70180816091240232D6F7019F
:1017A0008181609125022DD6FE01EA5CFD4F1081FA
:1017B000812F61E073D5812F60E023D661E070E076
:1017C00080E090E0B0D4812F61E01BD6219682E0CA
:1017D00090E0E80EF91EC230D10509F0AFCF85EBDD
:1017E00095E040E855E260E070E00E94581404C0C3
:1017F00085EB95E00E940E1585EB95E00E94DD14C7
:10180000892BB1F71092710010926F001092800036
:1018100088E1809381001092900080939100DF9185
:10182000CF911F91FF90EF900895E8E3F2E020E060
:1018300030E08081861789F4F901EE0FFF1F442301
:1018400031F0E20FF31FE85CFD4F81810895E20F54
:10185000F31FE85CFD4F828108952F5F3F4F339661
:101860002A31310531F78FEF0895FC01E60FF11DA4
:10187000828D18160CF04195428F0895DC01E62FF9
:10188000F0E0942F917040FF04C0EA0FFB1F8FEF30
:1018900003C0EA0FFB1F81E0828FA60FB11D5C968B
:1018A0009C930895FC01E60FF11D417042A3089539
:1018B000FC01E60FF11D417040A30895FC01E60F05
:1018C000F11D4170468F0895E62FF0E03496EE0F3B
:1018D000FF1FE80FF91F518340830895E62FF0E0C2
:1018E0003B96EE0FFF1FEE0FFF1FE80FF91F20833F
:1018F0003183428353830895E62FF0E0B496EE0FD0
:10190000FF1FE80FF91F518340830895E62FF0E091
:101910003D96EE0FFF1FEE0FFF1FE80FF91F60E06F
:1019200070E040835183628373830895E62FF0E073
:10193000EE0FFF1FEE0FFF1FE80FF91FFE9660E08E
:1019400070E0408351836283738308953F924F9286
:101950005F926F927F928F929F92AF92BF92CF923F
:10196000DF92EF92FF920F931F93DF93CF9300D0FC
:1019700000D0CDB7DEB78C0149835A836B837C835B
:10198000322E8BE893E06EE0FDD0D8019C966D93EB
:101990007D938D939C939F978BE893E062E1F2D0C7
:1019A000F80160AB71AB82AB93AB8BE893E066E17F
:1019B000E9D0D801D4966D937D938D939C93D7975E
:1019C0008BE893E06AE1DED0F80160AF71AF82AFDF
:1019D00093AF8BE893E06EE1D5D0025C1F4FD80146
:1019E0006D937D938D939D938D018BE893E062E2DF
:1019F000C9D0F80160837183828393838BE893E07D
:101A000066E2ADD00A5F1F4FD8018D939D938D0183
:101A10008BE893E068E2A3D0F801918380830A54B5
:101A200010409801245E3F4F3E832D8338014801CA
:101A3000552444244394AD81BE811C9216964C9249
:101A4000169714961C92149712961C9220E030E080
:101A500040E850E0D3012D933D934D935C93139751
:101A6000F401118610862D813E812C503040D90121
:101A70001C921C96BE83AD83F301128A138A148ACA
:101A8000158A29813A814B815C81D30194962D93EB
:101A90003D934D935C939797ED81FE8130A200D0EA
:101AA0000F9228E430E0820E931ED4016D917C9158
:101AB00080E090E020E130E040E050E0ADB7BEB71C
:101AC00011962D933D934D935C9314972CE231E046
:101AD00040E050E0F0EBEF2EF4E0FF2E012D112D51
:101AE000E4E0AE2EB12CC12CD12C0E94FB16ED816E
:101AF000FE8162A753943196FE83ED832AEB3FEF7C
:101B0000820E931E44E050E0640E751E0F900F90FD
:101B10000F900F9052E0551609F08DCF26960FB614
:101B2000F894DEBF0FBECDBFCF91DF911F910F9113
:101B3000FF90EF90DF90CF90BF90AF909F908F90ED
:101B40007F906F905F904F903F900895F999FECFEE
:101B5000862F90E092BD81BDF89A80B50895F999DD
:101B6000FECF862F90E092BD81BDF89A20B5F999FD
:101B7000FECF6F5F862F90E092BD81BDF89A90B541
:101B8000822F0895F999FECF862F90E092BD81BDF6
:101B9000F89A20B5F999FECF6F5F862F90E092BD3D
:101BA00081BDF89A70B56F5FF999FECF862F90E0EE
:101BB00092BD81BDF89A30B5F999FECF6F5F862F3F
:101BC00090E092BD81BDF89A90B5622F832F089561
:101BD000522FFB0120E009C0F999FECF90E092BDA1
:101BE00081BDF89A80B581932F5F822F850F2417CE
:101BF00098F30895F999FECF1FBA842F90E092BD13
:101C000081BD60BD0FB6F894FA9AF99A0FBE089597
:101C1000372F262FF999FECF1FBA842F90E092BD5F
:101C200081BD20BD0FB6F894FA9AF99A0FBE732FB2
:101C3000F999FECF1FBA4F5F842F90E092BD81BD0E
:101C400070BD0FB6F894FA9AF99A0FBE0895DF9214
:101C5000EF92FF920F931F937C01122F062FD72E26
:101C6000BA01412FD5DF1E5FC701602F7D2D412FA7
:101C7000CFDF1F910F91FF90EF90DF900895522FCB
:101C8000FB0120E011C03081F999FECF1FBA822FED
:101C9000850F90E092BD81BD30BD0FB6F894FA9AE1
:101CA000F99A0FBE2F5F3196241768F30895FC014F
:101CB000E65AFF4F80810895FC01623028F4E75A0C
:101CC000FF4F6083E955F040E75AFF4F8081089548
:101CD0008DB79EB70A970FB6F8949EBF0FBE8DBF03
:101CE000EDB7FEB73196ADB7BEB712967C936E9343
:101CF000119782E192E09383828324831582BB272C
:101D0000A52F942F832F868317829A014427552766
:101D1000208711860E94B8028DB79EB70A960FB62B
:101D2000F8949EBF0FBE8DBF0895EF92FF920F9360
:101D30001F93DF93CF93CDB7DEB729970FB6F894F3
:101D4000DEBF0FBECDBF8B0123E0E22EF12CEC0EE7
:101D5000FD1E6C5F7F4FC70142E050E00E94A90268
:101D6000B8016E5F7F4FCE01059642E050E00E94C1
:101D7000A902CE010796B80142E050E00E94A902F4
:101D80001986C701BE016F5F7F4F40E150E00E949E
:101D9000650129960FB6F894DEBF0FBECDBFCF9177
:101DA000DF911F910F91FF90EF900895FF920F9395
:101DB0001F938B01F22ECB010196BA010E9494026F
:101DC0008DE3F80180830F0D111D8DE0F8018083F4
:101DD00011821F910F91FF900895FF920F931F930F
:101DE000CF93DF93EC01F62E8C01035B1F4FF801BC
:101DF0006081C65ADF4F68832C97888181532B9668
:101E00008883C955D0408230E8F4CE0141E00DDD31
:101E10006F2D6350282F332727FD3095862F90E0B4
:101E20002817390779F4F80190E003C08281819383
:101E30009F5F9617D8F3C20FD31FC35BDF4F188283
:101E400081E001C080E0DF91CF911F910F91FF9061
:101E50000895EF92FF920F931F93CF93DF93EC01BE
:101E60008B013CE4E32EF12CE80EF91EF701808192
:101E7000882311F14A3389F1FE01E85AFF4F80812E
:101E8000DE01A80FB11DA35BBF4F4C93682F6F5F9E
:101E900060834D3071F4CE01A0DF8823F1F0C35B85
:101EA000DF4FC801BE010E949402F701108281E059
:101EB00020C06B30E9F411C04A33D1F4C85ADF4F67
:101EC000188281E0F7018083CE010B976FE172E009
:101ED0004BE050E00E94A9020BC081E2F801808330
:101EE0008DE081831282C45BDF4F18828FEF01C0C7
:101EF00080E0DF91CF911F910F91FF90EF900895B7
:101F00008F929F92AF92BF92DF92EF92FF920F93C8
:101F10001F93DF93CF93CDB7DEB72B970FB6F8940F
:101F2000DEBF0FBECDBF4C015B0178018901642F7C
:101F300040E07BDCD82E82E0D81601F18D1534F01C
:101F40009FEFD91659F0DD2081F053C0A3E0DA16D7
:101F500049F1B6E0DB1609F04CC044C081E2F5015E
:101F600080838DE0818312824CC0CE0101966FE1A7
:101F700072E04BE050E00E94A9023BC000D000D0CC
:101F8000EDB7FEB73196CE010196ADB7BEB712964A
:101F90009C938E93119788E092E093838283E482EE
:101FA000158215C000D000D0EDB7FEB73196CE0136
:101FB0000196ADB7BEB712969C938E9311978DE0A4
:101FC00092E093838283C7019F70958384830E94EC
:101FD000B802EDB7FEB736960FB6F894FEBF0FBE47
:101FE000EDBF07C0C401BE016F5F7F4FA80197011D
:101FF0006FDED394C401B501AE014F5F5F4F2D2D4D
:10200000D5DE2B960FB6F894DEBF0FBECDBFCF91B5
:10201000DF911F910F91FF90EF90DF90BF90AF90F5
:102020009F908F900895CF92DF92EF92FF920F933F
:102030001F938C016A017B01045B1F4FF801108222
:10204000035F1F4FF801108212928F010855104054
:10205000C801835B9F4F6FE172E04BE050E00E944C
:10206000A902C801B701A60120E170DC1F910F9100
:10207000FF90EF90DF90CF9008951F920F920FB6D0
:102080000F9211242F933F938F939F93AF93BF93FE
:102090008091900390919103A0919203B09193034A
:1020A000309194030196A11DB11D232F2D5F2D3773
:1020B00020F02D570196A11DB11D2093940380930C
:1020C000900390939103A0939203B0939303809114
:1020D0008C0390918D03A0918E03B0918F03019694
:1020E000A11DB11D80938C0390938D03A0938E034B
:1020F000B0938F03BF91AF919F918F913F912F919B
:102100000F900FBE0F901F9018958FB7F8942091E5
:1021100090033091910340919203509193038FBFAC
:10212000B901CA0108959B01AC017FB7F894809171
:102130008C0390918D03A0918E03B0918F0366B5AF
:10214000A89B05C06F3F19F00196A11DB11D7FBF6F
:10215000BA2FA92F982F8827860F911DA11DB11D79
:1021600062E0880F991FAA1FBB1F6A95D1F7BC01B7
:102170002DC0FFB7F89480918C0390918D03A091AE
:102180008E03B0918F03E6B5A89B05C0EF3F19F011
:102190000196A11DB11DFFBFBA2FA92F982F882727
:1021A0008E0F911DA11DB11DE2E0880F991FAA1F7E
:1021B000BB1FEA95D1F7861B970B885E9340C8F248
:1021C000215030404040504068517C4F211531052E
:1021D0004105510571F60895789484B5826084BDF7
:1021E00084B5816084BD85B5826085BD85B581601B
:1021F00085BDEEE6F0E0808181608083E1E8F0E07B
:102200001082808182608083808181608083E0E8A9
:10221000F0E0808181608083E1EBF0E08081846088
:102220008083E0EBF0E0808181608083E1E9F0E091
:10223000808182608083808181608083E0E9F0E03A
:10224000808181608083E1EAF0E080818260808328
:10225000808181608083E0EAF0E08081816080831A
:10226000E1E2F1E08081826080838081816080830F
:10227000E0E2F1E0808181608083EAE7F0E0808144
:10228000846080838081826080838081816080839C
:102290008081806880831092C1000895CF93DF937E
:1022A000482F50E0CA0182529E4FFC01349148569B
:1022B0005E4FFA018491882369F190E0880F991F9D
:1022C000FC01E65BFE4FA591B491FC01EC59FE4F79
:1022D000C591D491662351F42FB7F8948C91932F24
:1022E000909589238C93888189230BC0623061F497
:1022F0002FB7F8948C91932F909589238C93888194
:10230000832B88832FBF06C09FB7F8948C91832BB3
:102310008C939FBFDF91CF910895893009F449C014
:102320008A30A0F4843051F1853040F4823079F164
:10233000833000F5813009F063C026C0873079F121
:10234000883098F5863009F05BC025C08D3009F4DF
:1023500042C08E3028F48B30B1F18C30C0F52DC0E6
:10236000803109F442C0813109F445C08F3009F051
:1023700047C037C0809180008F7703C08091800074
:102380008F7D80938000089584B58F7702C084B5D7
:102390008F7D84BD08958091B0008F7703C08091B8
:1023A000B0008F7D8093B0000895809190008F776A
:1023B00007C0809190008F7D03C080919000877F3F
:1023C0008093900008958091A0008F7707C080913E
:1023D000A0008F7D03C08091A000877F8093A00024
:1023E0000895809120018F7703C0809120018F7D17
:1023F00080932001089580912001877F80932001A0
:102400000895FF920F931F93F62E482F50E0CA01B4
:102410008C5D9D4FFC012491CA0182529E4FFC01AC
:10242000149148565E4FFA0104910023C1F0222313
:1024300011F0822F72DFE02FF0E0EE0FFF1FEC595A
:10244000FE4FA591B4919FB7F894FF2021F48C9191
:102450001095812302C08C91812B8C939FBF1F917B
:102460000F91FF90089508951F920F920FB60F924B
:102470000BB60F9211242F933F934F938F939F93FB
:10248000EF93FF934091C6002091D5033091D6037E
:102490002F5F3F4F2F7330708091D7039091D803F7
:1024A0002817390759F0E091D503F091D603EB5680
:1024B000FC4F40833093D6032093D503FF91EF91D7
:1024C0009F918F914F913F912F910F900BBE0F9045
:1024D0000FBE0F901F90189508951F920F920FB680
:1024E0000F920BB60F9211242F933F934F938F931C
:1024F0009F93EF93FF934091CE0020915D04309124
:102500005E042F5F3F4F2F73307080915F04909176
:1025100060042817390759F0E0915D04F0915E04DA
:10252000E35EFB4F408330935E0420935D04FF9194
:10253000EF919F918F914F913F912F910F900BBEF3
:102540000F900FBE0F901F90189508951F920F9235
:102550000FB60F920BB60F9211242F933F934F9308
:102560008F939F93EF93FF934091D6002091E504C2
:102570003091E6042F5F3F4F2F7330708091E70456
:102580009091E8042817390759F0E091E504F0919B
:10259000E604EB55FB4F40833093E6042093E504BB
:1025A000FF91EF919F918F914F913F912F910F90BC
:1025B0000BBE0F900FBE0F901F90189508951F929D
:1025C0000F920FB60F920BB60F9211242F933F93D9
:1025D0004F938F939F93EF93FF93409136012091F8
:1025E0006D0530916E052F5F3F4F2F7330708091D6
:1025F0006F05909170052817390759F0E0916D0526
:10260000F0916E05E35DFA4F408330936E052093A1
:102610006D05FF91EF919F918F914F913F912F9178
:102620000F900BBE0F900FBE0F901F901895E0916A
:10263000C105F091C205E05CFF4F8191919120812D
:102640003181821B930B8F739070892B09F00BDF04
:10265000E091E005F091E105E05CFF4F81919191FF
:1026600020813181821B930B8F739070892B09F02D
:1026700033DFE091FF05F0910006E05CFF4F8191B0
:10268000919120813181821B930B8F739070892BE4
:1026900009F05BDFE0911E06F0911F06E05CFF4F42
:1026A0008191919120813181821B930B8F73907066
:1026B000892B09F083CF08951F920F920FB60F92C6
:1026C0000BB60F9211242F933F938F939F93EF9309
:1026D000FF932091190430911A0480911B0490916A
:1026E0001C042817390731F48091C1008F7D809335
:1026F000C10014C0E0911B04F0911C04E752FC4F90
:10270000208180911B0490911C0401968F7390701E
:1027100090931C0480931B042093C600FF91EF91BB
:102720009F918F913F912F910F900BBE0F900FBEF5
:102730000F901F9018951F920F920FB60F920BB625
:102740000F9211242F933F938F939F93EF93FF93B7
:102750002091A1043091A2048091A3049091A4043B
:102760002817390731F48091C9008F7D8093C90003
:1027700014C0E091A304F091A404EF59FB4F208111
:102780008091A3049091A40401968F73907090930C
:10279000A4048093A3042093CE00FF91EF919F9116
:1027A0008F913F912F910F900BBE0F900FBE0F9006
:1027B0001F9018951F920F920FB60F920BB60F92A3
:1027C00011242F933F938F939F93EF93FF93209127
:1027D000290530912A0580912B0590912C05281709
:1027E000390731F48091D1008F7D8093D10014C0DE
:1027F000E0912B05F0912C05E751FB4F2081809152
:102800002B0590912C0501968F73907090932C0559
:1028100080932B052093D600FF91EF919F918F918C
:102820003F912F910F900BBE0F900FBE0F901F90F6
:1028300018951F920F920FB60F920BB60F9211249C
:102840002F933F938F939F93EF93FF932091B10525
:102850003091B2058091B3059091B40528173907DE
:1028600031F4809131018F7D8093310114C0E0916A
:10287000B305F091B405EF58FA4F20818091B3056C
:102880009091B40501968F7390709093B4058093E6
:10289000B30520933601FF91EF919F918F913F9166
:1028A0002F910F900BBE0F900FBE0F901F90189599
:1028B000AF92BF92DF92EF92FF920F931F93CF934D
:1028C000DF93EC017A018B01DD24403081EE580763
:1028D00080E0680780E0780711F0DD24D39491E070
:1028E000A92EB12CEC89FD89DD2069F0C5010E8C83
:1028F00002C0880F991F0A94E2F7808360E079E0B4
:102900008DE390E005C0108260E874E88EE190E00D
:10291000A801970142D52150304040405040569583
:1029200047953795279580E12030380720F0DD2046
:1029300011F0DD24D7CFE889F9893083EA89FB8952
:102940002083EE89FF89408121E030E0C9010A8CB3
:1029500002C0880F991F0A94E2F7482B4083EE8942
:10296000FF894081C9010B8C02C0880F991F0A940E
:10297000E2F7482B4083EE89FF894081C9010C8C26
:1029800002C0880F991F0A94E2F7482B4083EE8912
:10299000FF8980810D8C02C0220F331F0A94E2F759
:1029A000209528232083DF91CF911F910F91FF90D5
:1029B000EF90DF90BF90AF900895DC011C96ED91F1
:1029C000FC911D97E05CFF4F2191319180819181B5
:1029D000281B390B2F733070C9010895DC011C9638
:1029E000ED91FC911D97E05CFF4F20813181E05417
:1029F000F040DF01AE5BBF4F8D919C91119728177E
:102A0000390719F42FEF3FEF07C08D919C91E80F24
:102A1000F91F8081282F30E0C9010895DC011C9640
:102A2000ED91FC911D97E05CFF4F20813181E054D6
:102A3000F040DF01AE5BBF4F8D919C91119728173D
:102A4000390719F42FEF3FEF10C08D919C9111972A
:102A5000E80FF91F20818D919C91119701968F733A
:102A6000907011969C938E9330E0C9010895FC01FB
:102A700086859785DC01A05CBF4FFC01EE5BFF4FB4
:102A80002D913C9111978081918128173907C1F7C9
:102A90000895CF93DF93EC01EE85FF85E05CFF4F57
:102AA00020813181E054F0402F5F3F4F2F73307011
:102AB000DF01AE5BBF4F8D919C91119728173907AD
:102AC000D1F3E05CFF4F80819181E054F040E80F4A
:102AD000F91F6083EE85FF85E05CFF4F3183208323
:102AE000EE89FF89208181E090E00D8C02C0880F83
:102AF000991F0A94E2F7282B208381E090E0DF9170
:102B0000CF9108951F931092B8051092B70528EE43
:102B100033E040E050E02093B9053093BA0540938C
:102B2000BB055093BC056AE872E07093B6056093EC
:102B3000B50585E993E09093C2058093C10589EDC1
:102B400093E09093C4058093C30585EC90E0909347
:102B5000C6058093C50584EC90E09093C8058093EA
:102B6000C70580EC90E09093CA058093C90581EC7D
:102B700090E09093CC058093CB0586EC90E0909309
:102B8000CE058093CD0514E01093CF05B3E0B0934C
:102B9000D005A7E0A093D105F5E0F093D205E1E0E0
:102BA000E093D3051092D7051092D6052093D8054F
:102BB0003093D9054093DA055093DB057093D50522
:102BC0006093D4058DE194E09093E1058093E00556
:102BD00081E694E09093E3058093E2058DEC90E02C
:102BE0009093E5058093E4058CEC90E09093E705E5
:102BF0008093E60588EC90E09093E9058093E805E2
:102C000089EC90E09093EB058093EA058EEC90E0E0
:102C10009093ED058093EC051093EE05B093EF05CE
:102C2000A093F005F093F105E093F2051092F605FC
:102C30001092F5052093F7053093F8054093F905B8
:102C40005093FA057093F4056093F30585EA94E0D8
:102C5000909300068093FF0589EE94E0909302061E
:102C60008093010685ED90E090930406809303061F
:102C700084ED90E0909306068093050680ED90E049
:102C8000909308068093070681ED90E090930A06E2
:102C90008093090686ED90E090930C0680930B06D6
:102CA00010930D06B0930E06A0930F06F093100636
:102CB000E093110610921506109214062093160642
:102CC0003093170640931806509319067093130615
:102CD000609312068DE295E090931F0680931E0686
:102CE00081E795E0909321068093200685E391E0AB
:102CF000909323068093220684E391E09093250627
:102D00008093240680E391E0909327068093260623
:102D100081E391E0909329068093280686E391E071
:102D200090932B0680932A0610932C06B0932D06C1
:102D3000A0932E06F0932F06E09330061F9108957E
:102D4000CF93DF9349DA0E946E0BC7E1D3E10E9473
:102D5000F50A2097E1F36BDCFACFFC0120E030E0CC
:102D60008081882311F421E030E0C9010895FC013D
:102D700081E080830895CF92DF92EF92FF920F93CC
:102D80001F93CF93DF937C016B018A01C0E0D0E0F9
:102D90000FC0D6016D916D01D701ED91FC910190AD
:102DA000F081E02DC7011995C80FD91F01501040BF
:102DB0000115110571F7CE01DF91CF911F910F9190
:102DC000FF90EF90DF90CF900895CF93DF93DB01DA
:102DD0000D900020E9F71197A61BB70BEC01E881D5
:102DE000F9810280F381E02DAD011995DF91CF913A
:102DF0000895EBCF08952F923F924F925F926F927A
:102E00007F928F929F92AF92BF92CF92DF92EF927A
:102E1000FF920F931F93DF93CF93CDB7DEB73B01A4
:102E20004C0119012A016E897F89888D998D6A1953
:102E30007B098C099D09621A730A840A950AA40108
:102E400093018CD2E218F30804091509A80197012F
:102E5000C6D22A0D3B1D4C1D5D1DB901CA01CF9183
:102E6000DF911F910F91FF90EF90DF90CF90BF9077
:102E7000AF909F908F907F906F905F904F903F901A
:102E80002F9008955058BB27AA270ED0AFC1A0D1CC
:102E900030F0A5D120F031F49F3F11F41EF495C11C
:102EA0000EF4E095E7FB60C1E92FB1D180F3BA17CA
:102EB000620773078407950718F071F49EF5E0C167
:102EC0000EF4E0950B2EBA2FA02D0B01B901900145
:102ED0000C01CA01A0011124FF27591B99F0593F89
:102EE00050F4503E68F11A16F040A22F232F342FD1
:102EF0004427585FF3CF469537952795A795F0401F
:102F00005395C9F77EF41F16BA0B620B730B840B33
:102F1000BAF09150A1F0FF0FBB1F661F771F881FEB
:102F2000C2F70EC0BA0F621F731F841F48F4879543
:102F300077956795B795F7959E3F08F0B3CF939532
:102F4000880F08F09927EE0F97958795089581D1FE
:102F500080F09F3740F491110EF493C160E070E06F
:102F600080E89FE3089526F01B16611D711D811DE9
:102F700001C11BC10CD03AC132D140F029D130F08F
:102F800021F45F3F19F0F0C051117BC11EC13FD148
:102F900098F39923C9F35523B1F3951B550BBB2720
:102FA000AA2762177307840738F09F5F5F4F220FCD
:102FB000331F441FAA1FA9F333D00E2E3AF0E0E8C6
:102FC00030D091505040E695001CCAF729D0FE2F12
:102FD00027D0660F771F881FBB1F261737074807A4
:102FE000AB07B0E809F0BB0B802DBF01FF2793585A
:102FF0005F4F2AF09E3F510568F0B6C042C15F3F67
:10300000ECF3983EDCF3869577956795B795F79541
:103010009F5FC9F7880F911D9695879597F9089539
:10302000E1E0660F771F881FBB1F621773078407D5
:10303000BA0720F0621B730B840BBA0BEE1F88F7E4
:10304000E095089504D06894B1111BC10895E7D0AC
:1030500088F09F5790F0B92F9927B751A0F0D1F081
:10306000660F771F881F991F1AF0BA95C9F712C00B
:10307000B13081F005D1B1E0089502C1672F782FFA
:103080008827B85F39F0B93FCCF386957795679577
:10309000B395D9F73EF490958095709561957F4FE3
:1030A0008F4F9F4F0895E89409C097FB3EF4909589
:1030B0008095709561957F4F8F4F9F4F9923A9F011
:1030C000F92F96E9BB279395F695879577956795A0
:1030D000B795F111F8CFFAF4BB0F11F460FF1BC0E4
:1030E0006F5F7F4F8F4F9F4F16C0882311F096E977
:1030F00011C0772321F09EE8872F762F05C0662325
:1031000071F096E8862F70E060E02AF09A95660FDD
:10311000771F881FDAF7880F9695879597F9089596
:10312000990F0008550FAA0BE0E8FEEF16161706D8
:10313000E807F907C0F012161306E407F50798F040
:10314000621B730B840B950B39F40A2661F0232B59
:10315000242B252B21F408950A2609F4A140A695D5
:103160008FEF811D811D089597F99F6780E870E0BA
:1031700060E00895882371F4772321F09850872B1D
:10318000762F07C0662311F499270DC09051862B26
:1031900070E060E02AF09A95660F771F881FDAF7D3
:1031A000880F9695879597F908959F3F49F091501C
:1031B00028F4869577956795B7959F5F80389F4FE0
:1031C000880F9695879597F908959FEF80EC08955D
:1031D00000240A94161617061806090608950024F6
:1031E0000A9412161306140605060895092E039470
:1031F000000C11F4882352F0BB0F40F4BF2B11F4E4
:1032000060FF04C06F5F7F4F8F4F9F4F089557FD42
:103210009058440F551F59F05F3F71F04795880F44
:1032200097FB991F61F09F3F79F0879508951216DB
:1032300013061406551FF2CF4695F1DF08C0161687
:1032400017061806991FF1CF869571056105089438
:103250000895E5DFA0F0BEE7B91788F4BB279F38D3
:1032600060F41616B11D672F782F8827985FF7CF67
:10327000869577956795B11D93959639C8F308950E
:10328000E894BB2766277727CB0197F9089548DF95
:1032900008F48FEF08950BD0A9CF9ADF28F09FDFB5
:1032A00018F0952309F060CF90CF1124EACFAFDF5B
:1032B000A0F3959FD1F3950F50E0551F629FF00149
:1032C000729FBB27F00DB11D639FAA27F00DB11DA2
:1032D000AA1F649F6627B00DA11D661F829F22272B
:1032E000B00DA11D621F739FB00DA11D621F839FB2
:1032F000A00D611D221F749F3327A00D611D231F88
:10330000849F600D211D822F762F6A2F11249F57D5
:1033100050408AF0E1F088234AF0EE0FFF1FBB1FF8
:10332000661F771F881F91505040A9F79E3F510597
:1033300070F01ACFA6CF5F3FECF3983EDCF3869592
:1033400077956795B795F795E7959F5FC1F7FE2B42
:10335000880F911D9695879597F90895629FD001E2
:10336000739FF001829FE00DF11D649FE00DF11D40
:10337000929FF00D839FF00D749FF00D659FF00DEF
:103380009927729FB00DE11DF91F639FB00DE11DDC
:10339000F91FBD01CF0111240895A1E21A2EAA1B25
:1033A000BB1BFD010DC0AA1FBB1FEE1FFF1FA217F5
:1033B000B307E407F50720F0A21BB30BE40BF50BF2
:1033C000661F771F881F991F1A9469F7609570957B
:1033D000809590959B01AC01BD01CF01089597FBAD
:1033E000092E05260ED057FD04D0D7DF0AD0001CC9
:1033F00038F450954095309521953F4F4F4F5F4F92
:103400000895F6F790958095709561957F4F8F4F51
:103410009F4F08952F923F924F925F926F927F92AB
:103420008F929F92AF92BF92CF92DF92EF92FF92D4
:103430000F931F93CF93DF93CDB7DEB7CA1BDB0B80
:103440000FB6F894DEBF0FBECDBF19942A88398815
:1034500048885F846E847D848C849B84AA84B9842C
:10346000C884DF80EE80FD800C811B81AA81B98138
:10347000CE0FD11D0FB6F894DEBF0FBECDBFED014C
:103480000895EE0FFF1F0590F491E02D199491110E
:1034900006C0803219F089508550D0F708959927D9
:0834A00088270895F894FFCF7E
:1034A800417374726F45510025303258002530330E
:1034B800580025303258253032582530325800000F
:1034C80007002020010100003130050C030710110E
:1034D800131204080206373665000661000662000A
:1034E800066700027300064B00004506006A0006E6
:1034F8006600034702004806004D06004906004AD8
:1035080000005001004600004C0000410600420641
:10351800005306006E00064E0600440100640002D7
:10352800430100630002000000004915BB16DD14CA
:063538000E15EE1437151C
:00000001FF
