:100000000C943E010C9469010C9469010C946901F3
:100010000C9469010C9469010C9469010C946901B8
:100020000C9469010C9469010C9469010C946901A8
:100030000C9469010C9469010C9469010C94690198
:100040000C942A020C9469010C9469010C946901C6
:100050000C9469010C9469010C9469010C94AF0C27
:100060000C9469010C94A70E0C94D30F0C946901A5
:100070000C9469010C9469010C9469010C948F0132
:100080000C9469010C9469010C9469010C94690148
:100090000C94E00E0C9412100C9469010C946901FC
:1000A0000C9469010C9469010C9469010C94690128
:1000B0000C9469010C9469010C9469010C94690118
:1000C0000C9469010C9469010C9469010C94190F4A
:1000D0000C9451100C9469010C94520F0C949010D4
:1000E0000C946901DA06E7062F0703079C077B07D4
:1000F00045079C0755079C0738073D079C071307D2
:100100009C077F079C079C07F5069C079C079C079C
:100110009C079C079C0721079C079C079C079C0742
:100120009C079C079806A106D206B7069C079C0769
:100130009C079C079C079C079C079C079C07BF0685
:100140009C079C079C079C07AA069C079C079C078A
:100150009C079C079C07CB06000021002400270079
:100160002A002D00300033000101000004010701C6
:100170000A0100002200250028002B002E0031007B
:10018000340002010000050108010B0100002000FD
:100190002300260029002C002F003200000100005F
:1001A00003010601090105050505070508080808FA
:1001B000020202020A0A08080404040401010101FF
:1001C00001010101030303030303030304070707FA
:1001D0000C0C0C0C0C0C0C0C02020202060606069F
:1001E000060606060B0B0B0B0B0B0B0B010210206C
:1001F000200808102040102040800201020108045D
:1002000002010102040810204080804020100804F0
:100210000201800402018040201008040201080449
:10022000020101020408102040800102040810208D
:1002300040800000090A02080B0C0D0706030401A8
:1002400000000000000000000000000000000000AE
:10025000000000000000000000000000000011107D
:100260000F0000000000000000000000000000007F
:100270000000000000000000E602FA1111241FBE79
:10028000CFEFD1E2DEBFCDBF12E0A0E0B2E0E0E40C
:10029000FCE200E00BBF02C007900D92A839B10745
:1002A000D9F71BBE16E0A8E9B2E001C01D92A6393D
:1002B000B107E1F712E0CCE7D2E004C02297FE01DB
:1002C0000E941A16C837D107C9F70E9418130C9458
:1002D0001E160C940000FB01DC0101900D92002021
:1002E000E1F70895FB01DC014150504030F08D9161
:1002F0000190801919F40020B9F7881B990B089513
:10030000FB01DC014150504048F001900D9200206B
:10031000C9F701C01D9241505040E0F708951F9267
:100320000F920FB60F920BB60F9211242F933F939B
:100330004F935F938F939F93AF93BF93EF93FF93ED
:100340008AB5E0910E02EE0FE823F0E0E55CFC4F89
:100350002081318130939700209396008F5F8ABD72
:100360008091880090918900019709F05EC025B1C5
:1003700080919800909199009093890080938800D3
:1003800026FF39C02F7B25B920919C0230919D0218
:1003900040919E0250919F028091B302992787FD60
:1003A0009095A92FB92F820F931FA41FB51F80937B
:1003B0009C0290939D02A0939E02B0939F02209175
:1003C0009800309199008091F9029091FA02821779
:1003D000930708F02EC01092B90281E08093BB020F
:1003E000809171008F7D8093710080919100887F52
:1003F000809391001EC0206425B94091A2025091C3
:10040000A3020090DF029C018019910984179507CF
:1004100038F4C901800D911D4817590708F4CA0125
:10042000909399008093980004C0909389008093E2
:100430008800FF91EF91BF91AF919F918F915F9154
:100440004F913F912F910F900BBE0F900FBE0F90C9
:100450001F9018951F920F920FB60F920BB60F9226
:1004600011242F933F934F935F938F939F93AF9359
:10047000BF93EF93FF938EB3E0910D02EE0FE8234D
:10048000F0E0E550FD4F20813181309387002093CB
:1004900086008F5F8EBB80918A0090918B000197C0
:1004A00009F05EC02EB180919A0090919B009093CC
:1004B0008B0080938A0023FF39C0277F2EB92091BB
:1004C00098023091990240919A0250919B0280913A
:1004D000B202992787FD9095A92FB92F820F931FFC
:1004E000A41FB51F8093980290939902A0939A023B
:1004F000B0939B0220919A0030919B008091F7026B
:100500009091F8028217930708F02EC01092B8025B
:1005100081E08093BA0280916F008F7D80936F009D
:1005200080918100887F809381001EC028602EB951
:100530004091A0025091A1020090DE029C0180191E
:1005400091098417950738F4C901800D911D48174A
:10055000590708F4CA0190939B0080939A0004C045
:1005600090938B0080938A00FF91EF91BF91AF91A0
:100570009F918F915F914F913F912F910F900BBE63
:100580000F900FBE0F901F901895EF92FF920F9350
:100590001F937B018C0180918E06882381F48EE865
:1005A00096E00E942713892B51F083E396E0B8016F
:1005B000A7010E94840C8EE896E00E94311383E329
:1005C00096E01F910F91FF90EF90089561E075E024
:1005D00080E090E00E94C502A8E9B2E0FC018BE552
:1005E00001900D928150E1F708951F93182F662313
:1005F00021F188E992E0612F40E00E94440988E9F6
:1006000092E0612F41E00E943E09112359F0809150
:1006100071008F7D8093710080919100887F80931D
:10062000910023C080916F008F7D80936F00809137
:100630008100887F8093810018C0A82FB0E0FD0161
:10064000E856FD4F82A1882381F4AA0FBB1FEA5B05
:10065000FF4F2081FD01E950FD4F80819181820F84
:10066000911DA056BD4F8D939C931F9108950F939C
:100670001F93082F882359F080919100897F8093E0
:100680009100809191008160809391000AC08091D7
:100690008100897F809381008091810081608093B7
:1006A000810088E992E0602F41E00E94210910E07A
:1006B000000F111FF801E75EFD4F808160910F026E
:1006C0000E94730E065E1D4FF8018081609110023A
:1006D0000E94730E1F910F910895EF92FF920F9356
:1006E0001F93E82EF62E082F10E09801295E3D4F4B
:1006F000F801E856FD4FD801A358BC4F648D8C918A
:100700006827F90180810E94730E88E992E06E2DBE
:1007100040E00E943E09F801EE0FFF1FF194D8015E
:1007200036E0AA0FBB1F3A95E1F7EE2011F181E008
:1007300090E09093890080938800E950FD4F80817C
:10074000918190939900809398001ABCF7B8109209
:1007500095001092940080917100806280937100E6
:10076000A550BD4F8D919C919093970080939600DA
:1007700021C081E090E090938B0080938A00E95043
:10078000FD4F8081918190939B0080939A001EBAC7
:10079000F8B8109285001092840080916F008062FA
:1007A00080936F00A550BD4F8D919C9190938700D1
:1007B000809386008E2D60E00E9437031F910F9179
:1007C000FF90EF9008951F93182FEDE1F2E0E80FEE
:1007D000F11D808160E00E94730E88E992E0612F34
:1007E00040E00E944A091F9108951F93182FEDE1E0
:1007F000F2E0E80FF11D808160E00E94730E88E94D
:1008000092E0612F41E00E944A091F9108952F92C2
:100810003F924F925F926F927F928F929F92AF9290
:10082000BF92CF92DF92EF92FF920F931F93CF93DD
:10083000DF93C82FD0E0FE01EE0FFF1FEE0FFF1F6A
:10084000E453FD4FA080B180C280D380FE01E55803
:10085000FC4F108260E072E18AE790E0A60195010A
:100860000E94F61539014A011301240160E072E18A
:100870008AE790E0A60195010E94F6150E94871470
:100880007B018C01C601B5010E9487149B01AC015C
:10089000C801B7010E94EE1320E030E040E052E4CE
:1008A0000E947F157B018C0120E030E040E050E0A9
:1008B0000E947B1588234CF0C801B70120E030E08E
:1008C00040E05FE30E94771308C0C801B70120E051
:1008D00030E040E05FE30E9476130E9456145B0113
:1008E0006C0180E0681680E0780681E0880680E090
:1008F000980638F0FFEF2F2EFFEF3F2E412C512CA2
:100900000BC080E8681671048104910428F4E0E8C3
:100910002E2E312C412C512CFE0176E0EE0FFF1FC4
:100920007A95E1F7E550FD4F80E0219231928F5F9B
:100930008032D9F76624772443012E0165E0440C08
:10094000551C6A95E1F72BC0C401B3010E948714BE
:1009500020E030E040E052E40E947F157B018C01F2
:10096000C601B5010E9487149B01AC01C801B70103
:100970000E94EE130E94DB130E945B14F201E60F4B
:10098000F11DEE0FFF1FE550FD4F80819181019613
:10099000918380830894611C711C811C911C6A14D2
:1009A0007B048C049D0480F2C35FDD4F8FE188835C
:1009B000DF91CF911F910F91FF90EF90DF90CF903B
:1009C000BF90AF909F908F907F906F905F904F906F
:1009D0003F902F900895DF92EF92FF920F931F9315
:1009E0008DE893E069E00E944E0AD82E8DE893E0EE
:1009F0006AE00E944E0AE82E21E02D1508F49AC004
:100A0000281708F497C08DE893E06BE00E944E0A27
:100A1000182F823008F08EC08DE893E068E00E94C5
:100A20004E0AF82E8091E0029091E1028C529140A2
:100A30008558934008F07EC08091E2029091E302D5
:100A40008C5291408558934008F074C08DE893E033
:100A50006CE00E944E0A082F8B3408F06BC08DE8C2
:100A600093E06DE00E944E0A482F8B3408F062C07C
:100A700060E0FF2009F461E0E0927E03D0927D0304
:100A800010937F0380E0112309F481E080930F022B
:100A900010921102882319F481E080931102202F13
:100AA00030E030930A022093090250E050930C0288
:100AB00040930B028091DE0290E0F901E89F9001E3
:100AC000E99F300DF89F300D11243093F4022093EC
:100AD000F3022091DF0230E0FA01E29FA001E39FE0
:100AE000500DF29F500D11245093F6024093F502E1
:100AF00060937B0360937C03880F991F880F991F75
:100B00004091E0025091E102840F951F9093F8020A
:100B10008093F702220F331F220F331F8091E202CE
:100B20009091E302280F391F3093FA022093F902C3
:100B300081E001C080E01F910F91FF90EF90DF9066
:100B400008950F931F93DF93CF93CDB7DEB7299707
:100B50000FB6F894DEBF0FBECDBF8E010F5F1F4FE3
:100B600089E0F80111928A95E9F78DE893E0B801E0
:100B700048E020E00E94900AC80160E072E048E08E
:100B800050E00E9472019C0180E0232B09F481E077
:100B900029960FB6F894DEBF0FBECDBFCF91DF917F
:100BA0001F910F9108954091C4025091C502609128
:100BB000C6027091C7028DE893E02EE00E94CF0A32
:100BC0004091C8025091C9026091CA027091CB0253
:100BD0008DE893E022E10E94CF0A4091CC0250912F
:100BE000CD026091CE027091CF028DE893E026E1B4
:100BF0000E94CF0A4091D0025091D1026091D2025E
:100C00007091D3028DE893E02AE10E94CF0A4091CF
:100C1000D6025091D7026091D8027091D9028DE826
:100C200093E02EE10E94CF0A4091DA025091DB025C
:100C30006091DC027091DD028DE893E022E20E9477
:100C4000CF0A8DE893E060917D0349E00E94A20AFB
:100C50008DE893E060917E034AE00E94A20A8DE84D
:100C600093E060917F034BE00E94A20A60E08091D4
:100C70007B03882309F461E08DE893E048E00E945B
:100C8000A20A8DE893E0609109024CE00E94A20A5A
:100C90008DE893E060910B024DE00E94A20A609102
:100CA000E0027091E1028DE893E046E20E94B00A12
:100CB0006091E2027091E3028DE893E048E20E94C5
:100CC000B00A08958DE893E060E072E048E020E02B
:100CD0000E94E90A0895CF92DF92EF92FF920F935C
:100CE0001F93DF93CF93CDB7DEB72B970FB6F89452
:100CF000DEBF0FBECDBFC82E8B0188E992E062E057
:100D00000E947C0BD82E8C2D992787FD9095A92FBA
:100D1000B92FFC01E154F040EA33F10508F00CC1B1
:100D2000EE58FF4FEE0FFF1F0590F491E02D099450
:100D3000ED2DF0E0EE0FFF1FEE0FFF1FEC53FD4F08
:100D400011C0ED2DF0E0EE0FFF1FEE0FFF1FE4537B
:100D5000FD4F08C0ED2DF0E0EE0FFF1FEE0FFF1F5F
:100D6000EA52FD4F0081118122813381E9C0DD20EB
:100D700019F080917B031BC080917F0318C0ED2D7B
:100D8000F0E0EE0FFF1FE052FD4F808191818C015A
:100D900020E030E0D5C0ED2DF0E0EE0FFF1FE75F63
:100DA000FD4FF3CFED2DF0E0E358FC4F8081082F8D
:100DB00010E0EECF88E992E0B8010E94010B9B01A0
:100DC000AC0188E992E06D2D0E945A09B5C088E90E
:100DD00092E0B8010E94010B9B01AC0188E992E00E
:100DE0006D2DA9010E947209A7C088E992E0B8019F
:100DF0000E94010B9B01AC0188E992E06D2DA901D5
:100E00000E94820999C0D8018C91DD2041F0805365
:100E100080937B038C91805380937C038DC080539F
:100E200080937F0389C088E992E0B8010E94010B9A
:100E30009B01AC0188E992E06D2DA9010E9468092F
:100E40007BC088E992E0B8010E94370BED2DF0E0FD
:100E5000EE0FFF1FE75FFD4F808311826DC0ED2D08
:100E6000F0E0E358FC4FD8018C918053808364C03C
:100E70008D2D60E00E94F5025FC08D2D61E00E9423
:100E8000F5028D2D0E94E30357C083E192E0B80183
:100E900042E050E00E948001F8014181405388E91E
:100EA00092E06D2D0E942A0947C088E992E0B801BE
:100EB0000E94010BED2DF0E0EE0FFF1FE950FD4FFA
:100EC00020813181790100E010E0AC01CB01DA0131
:100ED0009C01AD01E216F3060407150710F4A80102
:100EE000970188E992E06D2DA9010E9450098D2D8E
:100EF0000E94070421C08D2D0E94F5031DC0D8015A
:100F00008C918033C9F080911302803351F4809129
:100F10001402813319F40E9462060EC00E94D305A8
:100F20000BC0813349F40E94A105882321F00E945F
:100F3000EB04882309F4CC2400E010E020E030E04A
:100F400088E992E07E010894E11CF11CB7014C2D68
:100F50000E94C50B87EB95E0B7010E947313BAE4BA
:100F6000CB1641F480911302813321F48D2D61E081
:100F70000E946D032B960FB6F894DEBF0FBECDBF57
:100F8000CF91DF911F910F91FF90EF90DF90CF9065
:100F900008950F931F93DF93CF93CDB7DEB72B97B1
:100FA0000FB6F894DEBF0FBECDBF809180038823BB
:100FB000A1F480E893E00E942713892B71F00E942E
:100FC000F70C6093890370938A0380938B0390934B
:100FD0008C0380E893E00E94311387EB95E00E9438
:100FE0005511892B79F18DE061E00E94730E87EB3A
:100FF00095E00E948611482F88E992E08E010F5FEC
:101000001F4FB8010E942C0C813041F488E992E016
:101010000E94770BB8010E946B0607C08F3F29F42E
:1010200087EB95E0B8010E9473130E94F70C609360
:10103000890370938A0380938B0390938C0381E0E0
:1010400080938803809188038823C9F00E94F70C5D
:101050002091890330918A0340918B0350918C0336
:101060002C5E3F4F4F4F5F4F2617370748075907F2
:1010700030F4109288038DE060E00E94730E2B968E
:101080000FB6F894DEBF0FBECDBFCF91DF911F9199
:101090000F910895EF92FF921F93CF93DF9380916A
:1010A000DE0290E0880F991F880F991F2091E002BF
:1010B0003091E102820F931F9093F8028093F70220
:1010C0008091DF0290E0880F991F880F991F20916F
:1010D000E2023091E302820F931F9093FA02809311
:1010E000F9028DE061E00E94C00D79E1E72E72E027
:1010F000F72EC0E0D0E0FE01E15EFD4F808160E0B0
:101100000E94C00DFE01E35EFD4F1081812F61E062
:101110000E94C00D812F61E00E94730EFE01EB5E04
:10112000FD4F1081812F61E00E94C00D812F60E092
:101130000E94730EFE01E95EFD4F1081812F61E078
:101140000E94C00D812F60E00E94730EF701808124
:1011500061E00E94C00DF701818161E00E94C00D35
:10116000F701808160910F020E94730EF701818167
:10117000609110020E94730EFE01EF5DFD4F108121
:10118000812F61E00E94C00D812F60E00E94730EEC
:1011900061E070E080E090E00E94050D812F61E049
:1011A0000E94730E219682E090E0E80EF91EC23094
:1011B000D10509F0A0CF87EB95E040E855E260E06B
:1011C00070E00E94CF1004C087EB95E00E9486116A
:1011D00087EB95E00E945511892BB1F710927100B1
:1011E00010926F001092800088E18093810010922D
:1011F000900080939100DF91CF911F91FF90EF902D
:101200000895E3E2F2E020E030E08081861789F47F
:10121000F901EE0FFF1F442331F0E20FF31FED5DE4
:10122000FD4F81810895E20FF31FED5DFD4F828137
:1012300008952F5F3F4F33962C31310531F78FEFF3
:101240000895FC01E60FF11D828D18160CF04195F2
:10125000428F0895DC01E62FF0E0942F917040FF5B
:1012600004C0EA0FFB1F8FEF03C0EA0FFB1F81E0F2
:10127000828FA60FB11D5C969C930895FC01E60F2A
:10128000F11D417042A30895FC01E60FF11D41706C
:1012900040A30895FC01E60FF11D4170468F0895AB
:1012A000E62FF0E03496EE0FFF1FE80FF91F518391
:1012B00040830895E62FF0E03B96EE0FFF1FEE0F00
:1012C000FF1FE80FF91F2083318342835383089562
:1012D000E62FF0E0B496EE0FFF1FE80FF91F5183E1
:1012E00040830895E62FF0E03D96EE0FFF1FEE0FCE
:1012F000FF1FE80FF91F60E070E0408351836283B5
:1013000073830895E62FF0E0EE0FFF1FEE0FFF1F2F
:10131000E80FF91FFE9660E070E04083518362831E
:10132000738308955F926F927F928F929F92AF9294
:10133000BF92CF92DF92EF92FF920F931F938C0197
:101340003A014B01522EFDE8EF2EF3E0FF2EC701CC
:101350006EE00E946A0AF80164A775A786A797A79E
:10136000C70162E10E946A0AF80160AB71AB82AB0F
:1013700093ABC70166E10E946A0AF80164AB75ABE2
:1013800086AB97ABC7016AE10E946A0AF80160AFB9
:1013900071AF82AF93AFC7016EE10E946A0A025C2F
:1013A0001F4FF80161937193819391938F01C7014E
:1013B00062E20E946A0AF8016083718382839383E8
:1013C00002541040C70166E20E94570AE8E4AE2EBC
:1013D000B12CA00EB11EF50191838083C70168E294
:1013E0000E94570A9C01065B1F4FF801918380837E
:1013F0000A541040F801148E41E042A310A2168E48
:10140000C12CD12C70E8E72EF12CC082D182E2826F
:10141000F38211861086108A128A138A148A158A1A
:1014200064A275A286A297A254AE0A5B1F4FF50173
:10143000808191816BE470E00E94E215F801608385
:1014400006541040F801158E43A311A2178EC482D2
:10145000D582E682F78213861286118A168A178A47
:10146000108E118E60A671A682A693A655AE095B5A
:101470001F4FC9016BE470E00E94E215F801608320
:101480001F910F91FF90EF90DF90CF90BF90AF90A2
:101490009F908F907F906F905F900895F999FECF05
:1014A000862F90E092BD81BDF89A80B50895F99994
:1014B000FECF862F90E092BD81BDF89A20B5F999B4
:1014C000FECF6F5F862F90E092BD81BDF89A90B5F8
:1014D000822F0895F999FECF862F90E092BD81BDAD
:1014E000F89A20B5F999FECF6F5F862F90E092BDF4
:1014F00081BDF89A70B56F5FF999FECF862F90E0A5
:1015000092BD81BDF89A30B5F999FECF6F5F862FF5
:1015100090E092BD81BDF89A90B5622F832F089517
:10152000522FFB0120E009C0F999FECF90E092BD57
:1015300081BDF89A80B581932F5F822F850F241784
:1015400098F30895F999FECF1FBA842F90E092BDC9
:1015500081BD60BD0FB6F894FA9AF99A0FBE08954E
:10156000372F262FF999FECF1FBA842F90E092BD16
:1015700081BD20BD0FB6F894FA9AF99A0FBE732F69
:10158000F999FECF1FBA4F5F842F90E092BD81BDC5
:1015900070BD0FB6F894FA9AF99A0FBE0895DF92CB
:1015A000EF92FF920F931F937C01122F062FD72EDD
:1015B000BA01412F0E94B00A1E5FC701602F7D2D26
:1015C000412F0E94B00A1F910F91FF90EF90DF9082
:1015D0000895522FFB0120E011C03081F999FECF10
:1015E0001FBA822F850F90E092BD81BD30BD0FB62E
:1015F000F894FA9AF99A0FBE2F5F3196241768F380
:101600000895FB0185818A330CF08750B481BA3389
:101610000CF0B75063816A330CF06750A281AA3393
:101620000CF0A75091819A330CF0975070817A3367
:101630000CF0775020E030E040E050E08F70482F11
:10164000B295B07F4B2B6F70832F807F862BA29536
:10165000A07F8F70382F3A2B9F70622F607F692B8D
:101660007295707F6F70672B732FCA010895FB010D
:1016700081818A330CF0875060816A330CF06750A7
:101680006295607F8F70862B0895842F8F70A7E7F7
:10169000B2E0FD01E80FF11D8081FB0185834295D9
:1016A0004F70FD01E40FF11D8081FB018483832FC6
:1016B0008F70FD01E80FF11D8081FB01838332955E
:1016C0003F70FD01E30FF11D8081FB018283822FBA
:1016D0008F70FD01E80FF11D8081FB018183229550
:1016E0002F70A20FB11D8C91808316820895FC018A
:1016F000E65AFF4F80810895FC01623028F4E75AD2
:10170000FF4F6083E955F040E75AFF4F808108950D
:10171000FF920F931F93CF93DF93EC01F62E8C0172
:10172000035B1F4FF8016081C65ADF4F68832C9717
:10173000888181532B968883C955D0408230F0F43C
:10174000CE0141E00E9401096F2D6350282F3327FD
:1017500027FD3095862F90E02817390779F4F80196
:1017600090E003C0828181939F5F9617D8F3C20FE8
:10177000D31FC35BDF4F188281E001C080E0DF919F
:10178000CF911F910F91FF9008959F92AF92BF92BA
:10179000CF92DF92EF92FF920F931F93CF93DF933D
:1017A0006C017B01B12EA22E932E642F40E00E948B
:1017B0000109182F8F3F11F481E201C08DE3F70179
:1017C0008083E7012196133099F0163059F11230D9
:1017D00089F51A82E02FEF70F0E0E958FD4F808123
:1017E000898302950F70E02FF0E0E958FD4F16C095
:1017F000A02F8B2D1B82E02FEF70F0E0E958FD4FFA
:1018000020812A83A295AF70B0E0A958BD4F2C91DA
:1018100029838F7090E089589D4FFC018081F701EA
:10182000818308C0C601BE01202F3B2D4A2D592DB2
:101830000E94450BFE01E10FF11D8DE080831182B6
:10184000DF91CF911F910F91FF90EF90DF90CF909C
:10185000BF90AF909F900895EF92FF920F931F93C8
:10186000CF93DF93EC018B018CE4E82EF12CEC0E8E
:10187000FD1EF7018081882319F14A3391F1FE01A1
:10188000E85AFF4F8081DE01A80FB11DA35BBF4F57
:101890004C93682F6F5F60834D3079F4CE010E94C6
:1018A000880B8823F1F0C35BDF4FC801BE010E94A3
:1018B0006B01F701108281E020C06B30E9F411C0A8
:1018C0004A33D1F4C85ADF4F188281E0F701808390
:1018D000CE010B9768E072E04BE050E00E9480017F
:1018E0000BC081E2F80180838DE081831282C45BAA
:1018F000DF4F18828FEF01C080E0DF91CF911F9101
:101900000F91FF90EF900895CF92DF92EF92FF92A8
:101910000F931F938C016A017B01045B1F4FF80139
:101920001082035F1F4FF801108212928F01085539
:101930001040C801835B9F4F68E072E04BE050E0CD
:101940000E948001C801B701A60120E10E9492090E
:101950001F910F91FF90EF90DF90CF9008951F920D
:101960000F920FB60F9211242F933F938F939F9353
:10197000AF93BF938091920390919303A0919403AE
:10198000B0919503309196030196A11DB11D232FAF
:101990002D5F2D3720F02D570196A11DB11D2093ED
:1019A00096038093920390939303A0939403B09330
:1019B000950380918E0390918F03A0919003B09135
:1019C00091030196A11DB11D80938E0390938F0307
:1019D000A0939003B0939103BF91AF919F918F918A
:1019E0003F912F910F900FBE0F901F9018958FB7BA
:1019F000F894209192033091930340919403509175
:101A000095038FBFB901CA0108959B01AC017FB74F
:101A1000F89480918E0390918F03A0919003B091E0
:101A2000910366B5A89B05C06F3F19F00196A11DF3
:101A3000B11D7FBFBA2FA92F982F8827860F911D20
:101A4000A11DB11D62E0880F991FAA1FBB1F6A95D7
:101A5000D1F7BC012DC0FFB7F89480918E0390910F
:101A60008F03A0919003B0919103E6B5A89B05C0A8
:101A7000EF3F19F00196A11DB11DFFBFBA2FA92F8D
:101A8000982F88278E0F911DA11DB11DE2E0880FB0
:101A9000991FAA1FBB1FEA95D1F7861B970B885E7B
:101AA0009340C8F2215030404040504068517C4F34
:101AB000211531054105510571F60895789484B5D5
:101AC000826084BD84B5816084BD85B5826085BD3A
:101AD00085B5816085BDEEE6F0E080818160808320
:101AE000E1E8F0E010828081826080838081816003
:101AF0008083E0E8F0E0808181608083E1EBF0E0CA
:101B0000808184608083E0EBF0E08081816080836D
:101B1000E1E9F0E080818260808380818160808360
:101B2000E0E9F0E0808181608083E1EAF0E080819B
:101B300082608083808181608083E0EAF0E0808140
:101B400081608083E1E2F1E0808182608083808136
:101B500081608083E0E2F1E0808181608083EAE758
:101B6000F0E08081846080838081826080838081D6
:101B7000816080838081806880831092C100089595
:101B8000CF93DF93482F50E0CA0184519E4FFC0150
:101B900034914A555E4FFA018491882369F190E0AF
:101BA000880F991FFC01E85AFE4FA591B491FC01E2
:101BB000EE58FE4FC591D491662351F42FB7F89497
:101BC0008C91932F909589238C93888189230BC0C6
:101BD000623061F42FB7F8948C91932F90958923FC
:101BE0008C938881832B88832FBF06C09FB7F8947E
:101BF0008C91832B8C939FBFDF91CF910895893077
:101C000009F449C08A30A0F4843051F1853040F4A1
:101C1000823079F1833000F5813009F063C026C04D
:101C2000873079F1883098F5863009F05BC025C09F
:101C30008D3009F442C08E3028F48B30B1F18C30F5
:101C4000C0F52DC0803109F442C0813109F445C08E
:101C50008F3009F047C037C0809180008F7703C074
:101C6000809180008F7D80938000089584B58F7768
:101C700002C084B58F7D84BD08958091B0008F77B8
:101C800003C08091B0008F7D8093B0000895809153
:101C900090008F7707C0809190008F7D03C0809166
:101CA0009000877F8093900008958091A0008F77A7
:101CB00007C08091A0008F7D03C08091A000877F26
:101CC0008093A0000895809120018F7703C08091B8
:101CD00020018F7D80932001089580912001877FCE
:101CE000809320010895FF920F931F93F62E482FA3
:101CF00050E0CA018E5C9D4FFC012491CA018451C1
:101D00009E4FFC0114914A555E4FFA010491002345
:101D1000C9F0222319F0822F0E94FF0DE02FF0E07E
:101D2000EE0FFF1FEE58FE4FA591B4919FB7F894A8
:101D3000FF2021F48C911095812302C08C91812B7E
:101D40008C939FBF1F910F91FF90089508951F924C
:101D50000F920FB60F920BB60F9211242F933F9351
:101D60004F938F939F93EF93FF934091C6002091E1
:101D7000D7033091D8032F5F3F4F2F73307080917E
:101D8000D9039091DA032817390759F0E091D70366
:101D9000F091D803E956FC4F40833093D803209349
:101DA000D703FF91EF919F918F914F913F912F9189
:101DB0000F900BBE0F900FBE0F901F9018950895B7
:101DC0001F920F920FB60F920BB60F9211242F9302
:101DD0003F934F938F939F93EF93FF934091CE0048
:101DE00020915F04309160042F5F3F4F2F7330705C
:101DF00080916104909162042817390759F0E091AD
:101E00005F04F0916004E15EFB4F40833093600417
:101E100020935F04FF91EF919F918F914F913F919C
:101E20002F910F900BBE0F900FBE0F901F90189523
:101E300008951F920F920FB60F920BB60F921124B6
:101E40002F933F934F938F939F93EF93FF934091E3
:101E5000D6002091E7043091E8042F5F3F4F2F73A5
:101E600030708091E9049091EA042817390759F0FD
:101E7000E091E704F091E804E955FB4F408330938B
:101E8000E8042093E704FF91EF919F918F914F9188
:101E90003F912F910F900BBE0F900FBE0F901F9090
:101EA000189508951F920F920FB60F920BB60F92CE
:101EB00011242F933F934F938F939F93EF93FF930F
:101EC0004091360120916F05309170052F5F3F4F93
:101ED0002F73307080917105909172052817390722
:101EE00059F0E0916F05F0917005E15DFA4F408384
:101EF0003093700520936F05FF91EF919F918F9123
:101F00004F913F912F910F900BBE0F900FBE0F90EE
:101F10001F901895E091C305F091C405E05CFF4F58
:101F20008191919120813181821B930B8F739070ED
:101F3000892B11F00E94A60EE091E205F091E305D5
:101F4000E05CFF4F8191919120813181821B930B45
:101F50008F739070892B11F00E94DF0EE0910106C3
:101F6000F0910206E05CFF4F8191919120813181D7
:101F7000821B930B8F739070892B11F00E94180FA6
:101F8000E0912006F0912106E05CFF4F8191919154
:101F900020813181821B930B8F739070892B11F0FC
:101FA0000E94510F08951F920F920FB60F920BB619
:101FB0000F9211242F933F938F939F93EF93FF934F
:101FC00020911B0430911C0480911D0490911E04EB
:101FD0002817390731F48091C1008F7D8093C100AB
:101FE00014C0E0911D04F0911E04E552FC4F2081C5
:101FF00080911D0490911E0401968F7390709093B0
:102000001E0480931D042093C600FF91EF919F91C1
:102010008F913F912F910F900BBE0F900FBE0F909D
:102020001F9018951F920F920FB60F920BB60F923A
:1020300011242F933F938F939F93EF93FF932091BE
:10204000A3043091A4048091A5049091A6042817BC
:10205000390731F48091C9008F7D8093C90014C085
:10206000E091A504F091A604ED59FB4F20818091E9
:10207000A5049091A60401968F7390709093A60486
:102080008093A5042093CE00FF91EF919F918F91B3
:102090003F912F910F900BBE0F900FBE0F901F908E
:1020A00018951F920F920FB60F920BB60F92112434
:1020B0002F933F938F939F93EF93FF9320912B0543
:1020C00030912C0580912D0590912E052817390708
:1020D00031F48091D1008F7D8093D10014C0E091C4
:1020E0002D05F0912E05E551FB4F208180912D05A6
:1020F00090912E0501968F73907090932E0580938A
:102100002D052093D600FF91EF919F918F913F91E4
:102110002F910F900BBE0F900FBE0F901F90189530
:102120001F920F920FB60F920BB60F9211242F939E
:102130003F938F939F93EF93FF932091B30530913B
:10214000B4058091B5059091B6052817390731F48B
:10215000809131018F7D8093310114C0E091B505EC
:10216000F091B605ED58FA4F20818091B505909118
:10217000B60501968F7390709093B6058093B50560
:1021800020933601FF91EF919F918F913F912F9175
:102190000F900BBE0F900FBE0F901F901895AF922F
:1021A000BF92DF92EF92FF920F931F93CF93DF9333
:1021B000EC017A018B01DD24403081EE580780E08C
:1021C000680780E0780711F0DD24D39491E0A92E10
:1021D000B12CEC89FD89DD2069F0C5010E8C02C0AF
:1021E000880F991F0A94E2F7808360E079E08DE31D
:1021F00090E005C0108260E874E88EE190E0A801EC
:1022000097010E94F61521503040404050405695AD
:1022100047953795279580E12030380720F0DD205D
:1022200011F0DD24D6CFE889F9893083EA89FB896A
:102230002083EE89FF89408121E030E0C9010A8CCA
:1022400002C0880F991F0A94E2F7482B4083EE8959
:10225000FF894081C9010B8C02C0880F991F0A9425
:10226000E2F7482B4083EE89FF894081C9010C8C3D
:1022700002C0880F991F0A94E2F7482B4083EE8929
:10228000FF8980810D8C02C0220F331F0A94E2F770
:10229000209528232083DF91CF911F910F91FF90EC
:1022A000EF90DF90BF90AF900895DC011C96ED9108
:1022B000FC911D97E05CFF4F2191319180819181CC
:1022C000281B390B2F733070C9010895DC011C964F
:1022D000ED91FC911D97E05CFF4F20813181E0542E
:1022E000F040DF01AE5BBF4F8D919C911197281795
:1022F000390719F42FEF3FEF07C08D919C91E80F3C
:10230000F91F8081282F30E0C9010895DC011C9657
:10231000ED91FC911D97E05CFF4F20813181E054ED
:10232000F040DF01AE5BBF4F8D919C911197281754
:10233000390719F42FEF3FEF10C08D919C91119741
:10234000E80FF91F20818D919C91119701968F7351
:10235000907011969C938E9330E0C9010895FC0112
:1023600086859785DC01A05CBF4FFC01EE5BFF4FCB
:102370002D913C9111978081918128173907C1F7E0
:102380000895CF93DF93EC01EE85FF85E05CFF4F6E
:1023900020813181E054F0402F5F3F4F2F73307028
:1023A000DF01AE5BBF4F8D919C91119728173907C4
:1023B000D1F3E05CFF4F80819181E054F040E80F61
:1023C000F91F6083EE85FF85E05CFF4F318320833A
:1023D000EE89FF89208181E090E00D8C02C0880F9A
:1023E000991F0A94E2F7282B208381E090E0DF9187
:1023F000CF9108951F931092BA051092B90528EE57
:1024000033E040E050E02093BB053093BC0540939F
:10241000BD055093BE056BE872E07093B8056093FC
:10242000B70587E993E09093C4058093C3058BEDCE
:1024300093E09093C6058093C50585EC90E090935A
:10244000C8058093C70584EC90E09093CA058093FB
:10245000C90580EC90E09093CC058093CB0581EC8E
:1024600090E09093CE058093CD0586EC90E090931C
:10247000D0058093CF0514E01093D105B3E0B0935D
:10248000D205A7E0A093D305F5E0F093D405E1E0F1
:10249000E093D5051092D9051092D8052093DA055E
:1024A0003093DB054093DC055093DD057093D70531
:1024B0006093D6058FE194E09093E3058093E20565
:1024C00083E694E09093E5058093E4058DEC90E03D
:1024D0009093E7058093E6058CEC90E09093E905F6
:1024E0008093E80588EC90E09093EB058093EA05F3
:1024F00089EC90E09093ED058093EC058EEC90E0F4
:102500009093EF058093EE051093F005B093F105DD
:10251000A093F205F093F305E093F4051092F8050B
:102520001092F7052093F9053093FA054093FB05C7
:102530005093FC057093F6056093F50587EA94E0E7
:1025400090930206809301068BEE94E0909304062C
:102550008093030685ED90E0909306068093050630
:1025600084ED90E0909308068093070680ED90E05C
:1025700090930A068093090681ED90E090930C06F3
:1025800080930B0686ED90E090930E0680930D06E7
:1025900010930F06B0931006A0931106F093120645
:1025A000E093130610921706109216062093180651
:1025B0003093190640931A0650931B067093150624
:1025C000609314068FE295E0909321068093200695
:1025D00083E795E0909323068093220685E391E0BC
:1025E000909325068093240684E391E09093270638
:1025F0008093260680E391E0909329068093280635
:1026000081E391E090932B0680932A0686E391E084
:1026100090932D0680932C0610932E06B0932F06D0
:10262000A0933006F0933106E09332061F9108958F
:10263000CF93DF930E945E0D0E944A08CAE8DFE054
:102640000E94C9072097E1F30E948A0FF9CFFC018D
:1026500020E030E08081882311F421E030E0C901DE
:102660000895FC0181E080830895CF92DF92EF927C
:10267000FF920F931F93CF93DF937C016B018A012D
:10268000C0E0D0E00FC0D6016D916D01D701ED9192
:10269000FC910190F081E02DC7010995C80FD91F69
:1026A000015010400115110571F7CE01DF91CF9156
:1026B0001F910F91FF90EF90DF90CF900895CF93EF
:1026C000DF93DB010D900020E9F71197A61BB70BF4
:1026D000EC01E881F9810280F381E02DAD010995DB
:1026E000DF91CF9108950E945F1308955058BB2742
:1026F000AA270ED0AFC1A0D130F0A5D120F031F47F
:102700009F3F11F41EF495C10EF4E095E7FB60C104
:10271000E92FB1D180F3BA176207730784079507D1
:1027200018F071F49EF5E0C10EF4E0950B2EBA2F6F
:10273000A02D0B01B90190010C01CA01A0011124C7
:10274000FF27591B99F0593F50F4503E68F11A1673
:10275000F040A22F232F342F4427585FF3CF469504
:1027600037952795A795F0405395C9F77EF41F1626
:10277000BA0B620B730B840BBAF09150A1F0FF0FF0
:10278000BB1F661F771F881FC2F70EC0BA0F621FDC
:10279000731F841F48F4879577956795B795F795CC
:1027A0009E3F08F0B3CF9395880F08F09927EE0F5E
:1027B00097958795089581D180F09F3740F49111C6
:1027C0000EF493C160E070E080E89FE3089526F086
:1027D0001B16611D711D811D01C11BC10CD03AC1A9
:1027E00032D140F029D130F021F45F3F19F0F0C030
:1027F00051117BC11EC13FD198F39923C9F35523D1
:10280000B1F3951B550BBB27AA27621773078407E3
:1028100038F09F5F5F4F220F331F441FAA1FA9F399
:1028200033D00E2E3AF0E0E830D091505040E6958B
:10283000001CCAF729D0FE2F27D0660F771F881FEC
:10284000BB1F261737074807AB07B0E809F0BB0BDB
:10285000802DBF01FF2793585F4F2AF09E3F5105FF
:1028600068F0B6C042C15F3FECF3983EDCF386955A
:1028700077956795B795F7959F5FC9F7880F911D75
:102880009695879597F90895E1E0660F771F881F61
:10289000BB1F621773078407BA0720F0621B730B14
:1028A000840BBA0BEE1F88F7E095089504D0689466
:1028B000B1111BC10895E7D088F09F5790F0B92F50
:1028C0009927B751A0F0D1F0660F771F881F991F85
:1028D0001AF0BA95C9F712C0B13081F005D1B1E054
:1028E000089502C1672F782F8827B85F39F0B93F64
:1028F000CCF3869577956795B395D9F73EF4909587
:102900008095709561957F4F8F4F9F4F0895E89404
:1029100009C097FB3EF490958095709561957F4F27
:102920008F4F9F4F9923A9F0F92F96E9BB279395D5
:10293000F695879577956795B795F111F8CFFAF4E5
:10294000BB0F11F460FF1BC06F5F7F4F8F4F9F4F16
:1029500016C0882311F096E911C0772321F09EE874
:10296000872F762F05C0662371F096E8862F70E0DA
:1029700060E02AF09A95660F771F881FDAF7880FB4
:102980009695879597F90895990F0008550FAA0B0A
:10299000E0E8FEEF16161706E807F907C0F0121672
:1029A0001306E407F50798F0621B730B840B950B75
:1029B00039F40A2661F0232B242B252B21F40895CA
:1029C0000A2609F4A140A6958FEF811D811D089567
:1029D00097F99F6780E870E060E00895882371F4BC
:1029E000772321F09850872B762F07C0662311F4A8
:1029F00099270DC09051862B70E060E02AF09A95DF
:102A0000660F771F881FDAF7880F9695879597F9D5
:102A100008959F3F49F0915028F4869577956795E2
:102A2000B7959F5F80389F4F880F9695879597F948
:102A300008959FEF80EC089500240A941616170657
:102A400018060906089500240A941216130614069F
:102A500005060895092E0394000C11F4882352F002
:102A6000BB0F40F4BF2B11F460FF04C06F5F7F4FBA
:102A70008F4F9F4F089557FD9058440F551F59F0A1
:102A80005F3F71F04795880F97FB991F61F09F3F5B
:102A900079F087950895121613061406551FF2CF84
:102AA0004695F1DF08C0161617061806991FF1CFD4
:102AB00086957105610508940895E5DFA0F0BEE7ED
:102AC000B91788F4BB279F3860F41616B11D672F1D
:102AD000782F8827985FF7CF869577956795B11DF2
:102AE00093959639C8F30895E894BB27662777270E
:102AF000CB0197F9089548DF08F48FEF08950BD0C4
:102B0000A9CF9ADF28F09FDF18F0952309F060CF56
:102B100090CF1124EACFAFDFA0F3959FD1F3950FAB
:102B200050E0551F629FF001729FBB27F00DB11D51
:102B3000639FAA27F00DB11DAA1F649F6627B00DE1
:102B4000A11D661F829F2227B00DA11D621F739FCA
:102B5000B00DA11D621F839FA00D611D221F749FD8
:102B60003327A00D611D231F849F600D211D822F1F
:102B7000762F6A2F11249F5750408AF0E1F0882366
:102B80004AF0EE0FFF1FBB1F661F771F881F915073
:102B90005040A9F79E3F510570F01ACFA6CF5F3F76
:102BA000ECF3983EDCF3869577956795B795F795A6
:102BB000E7959F5FC1F7FE2B880F911D969587952E
:102BC00097F90895AA1BBB1B51E107C0AA1FBB1FA1
:102BD000A617B70710F0A61BB70B881F991F5A95A9
:102BE000A9F780959095BC01CD010895A1E21A2E18
:102BF000AA1BBB1BFD010DC0AA1FBB1FEE1FFF1FA1
:102C0000A217B307E407F50720F0A21BB30BE40BF0
:102C1000F50B661F771F881F991F1A9469F7609537
:102C20007095809590959B01AC01BD01CF010895F1
:102C3000EE0FFF1F0590F491E02D0994F894FFCF5B
:102C4000417374726F45510000050005002020019A
:102C50000100003130050C030710111312040802A3
:102C600006373665000661000662000667000273DB
:102C700000064B00004506006A0006660003470296
:102C8000004806004D06004906004A0000500100B9
:102C90004600004C00004106004206005306006E4C
:102CA00000064E0600440100640002430100630078
:102CB000025A02007A000230313233343536373866
:102CC0003941424344454600000000C111351355C7
:082CD0001186116611AF11001D
:00000001FF
