:1000000009C1000031C100002FC100002DC1000056
:100010002BC1000029C1000027C1000025C100003C
:1000200023C1000021C100001FC100001DC100004C
:100030001BC1000019C1000017C1000015C100005C
:100040000C94411111C100000FC100000DC100004E
:100050000BC1000009C1000007C1000005C100007C
:1000600003C100000C94FD150C941E16FDC0000089
:10007000FBC00000F9C00000F7C000000C94431062
:10008000F3C00000F1C00000EFC00000EDC00000B0
:10009000EBC00000E9C00000E7C00000E5C00000C0
:1000A000E3C00000E1C00000DFC00000DDC00000D0
:1000B000DBC00000D9C00000D7C00000D5C00000E0
:1000C000D3C00000D1C00000CFC00000CDC00000F0
:1000D000CBC00000C9C00000C7C00000C5C0000000
:1000E000C3C00000F50A640A530A3C0ABD07BD07F5
:1000F000BD07BD07BD07BD07BD07BD07BD07E50AB5
:10010000BD07BD07D40A150A010AC60ABD07BD0707
:10011000BD07990A5F092B0ABD07BD07BD07BD07CB
:10012000BD07BD07BD07BD07820A780ABD07BD0729
:10013000BD07BD07BD07BD07BD07BD07BD078D0ACC
:10014000BD07BD07EC09E109BD07BD07BD07BD0738
:10015000BD07B609BD07AA0907086A0995087B0803
:100160004D08E5070A09FF08E507E507F707E50772
:10017000E507E507E507E507E507F408E507E5070F
:10018000E507E507E507E507E507E507E507E5070F
:10019000E5085109E507E507D608BA08AF08E507FD
:1001A000E5073B08E507E507E507E507E507E50798
:1001B000E507E5072C080708920995087B084D0814
:1001C000BD070A09FF08BD07BD07BD07BD07BD077D
:1001D000BD07BD07BD07BD07F408BD07BD07BD07C7
:1001E000BD07BD07BD07BD07BD07BD07BD07E508C6
:1001F0007009BD07BD07D608BA08AF08BD07BD071F
:100200003B08BD07BD07BD07BD07BD07BD07BD074F
:10021000BD072C0811241FBECFEFD1E2DEBFCDBF3A
:100220000FB6F894A8958091600088618093600073
:10023000109260000FBE12E0A0E0B2E0ECEAF4E33E
:1002400000E00BBF02C007900D92AE37B107D9F79F
:1002500025E0AEE7B2E001C01D92A835B207E1F794
:100260000E94B00B0C94541ACBCEA59A1092B102F6
:1002700008954FB7F8941092B302F0981092A30229
:100280002091EE023091EF028091EA029091EB0210
:100290008217930758F08091F6029091F702019629
:1002A0009093EB028093EA024FBF08958091F6028B
:1002B0009091F7022817390790F73093F7022093AF
:1002C000F602C90101969093EB028093EA024FBFB8
:1002D00008954FB7F8941092B4021092A402F198C6
:1002E0002091F0023091F1028091EC029091ED02A8
:1002F0008217930758F08091F8029091F9020196C5
:100300009093ED028093EC024FBF08958091F80224
:100310009091F9022817390790F73093F90220934A
:10032000F802C90101969093ED028093EC024FBF51
:100330000895883018F4880F880F880F613061F1B4
:1003400008F1623069F06330B1F48830D9F180325D
:1003500009F04AC08AE28093000280930102089566
:10036000883059F1803299F58AE28093000288E260
:1003700080930102089587E08093000281E08093DA
:1003800001020895883099F08032A9F782E08093C5
:100390000002809301020895883049F08032F1F420
:1003A00087E08093000282E080930102089583E059
:1003B000809300021092010208956093000210924F
:1003C000010208951092000210920102089587E040
:1003D0008093000285E080930102089584E0809379
:1003E000000260930102089580E18093000288E298
:1003F0008093010208954F925F926F927F928F9245
:100400009F92AF92BF92CF92DF92EF92FF92CF93E3
:10041000DF93C82FD0E0FE01EE0FFF1FEE0FFF1F8E
:10042000ED56FD4F86A897A8A0ACB1AC60E072E194
:100430008AE790E0A50194010E94EC1969017A0114
:100440000E94A7182B013C01C501B4010E94A71806
:100450009B01AC01C301B2010E94131820E030E0FF
:1004600040E052E40E94751920E030E040E05FE394
:100470000E949C170E947B184B015C01E114F1045F
:1004800051F480E8C816D104E104F10408F066C014
:1004900020E830E002C02FEF3FEFCE010024969518
:1004A00087950794969587950794982F802DFC0142
:1004B000EA53FB4F8A5F9A4F21933193E817F9076C
:1004C000D9F781149104A104B104C9F1C501B401A3
:1004D0000E94A7182B013C01C12CD12C7601CC0F16
:1004E000DD1FC295D295D07FDC27C07FDC27C701F6
:1004F000B6010E94A71820E030E040E052E40E94DC
:100500007519A30192010E9413180E9400180E94FD
:100510007B18FE01E60FF11DEE0FFF1FEA53FB4FA4
:10052000808191810196918380838FEFC81AD80AC8
:10053000E80AF80A8C149D04AE04BF04C1F6DF91EA
:10054000CF91FF90EF90DF90CF90BF90AF909F90B2
:100550008F907F906F905F904F90089596019DCF00
:100560000F931F93CF9308E010E0C0E0C8010E94F2
:10057000E7139C2F982788E027E0990F08F492272B
:100580008A95D9F7C92F0F5F1F4F043E81E01807E6
:1005900069F7911101C0C1E08C2FCF911F910F918C
:1005A0000895CF9387E090E00E94E713C82FD8DF2B
:1005B00091E0C81390E0892FCF9108951F93CF93B6
:1005C000DF9300D000D0CDB7DEB7182F40E050E069
:1005D00063E0CE0101960E940D1443E050E063E019
:1005E00072E0CE0101960E94301A892B49F080E01A
:1005F0000F900F900F900F90DF91CF911F91089562
:1006000043E050E064E0CE0101960E940D1444E006
:1006100050E067E072E0CE0101960E94301A892B0B
:1006200031F7112379F180914605843000F7882352
:1006300069F18091C5048132D0F68091E6029091F3
:10064000E702C2978F37944090F68091E80290912C
:10065000E902C2978F37944050F68091F202909150
:10066000F302892B21F28091F4029091F502892BFB
:1006700009F4BDCF9091DC02915081E0933108F4F0
:10068000B7CFB5CF8EDF8111CECFB1CF8091C5046A
:10069000813198F2ACCF89E090E00E94E71391E0BD
:1006A000811101C090E09093C3048AE090E00E9421
:1006B000E71391E0811101C090E09093C4048BE0B6
:1006C00090E00E94E7138093460588E090E00E9446
:1006D000E7138093C5048BE290E00E94E71391E05A
:1006E000811190E09093820281E09091C50498304E
:1006F00008F080E0809384028AE290E00E94E71391
:1007000091E0811190E0909383029091C50498301C
:1007100010F0811105C11092850241E06CE273E096
:1007200080E090E00E944216609146058091C504E9
:1007300000DE80E043DF8111F8C081E08093880211
:10074000279A80918802813009F434C12F985098FB
:10075000589A099A119A23982B9A2098289A2298A5
:100760002A9A2198299A819A8998809A88989D9A9C
:10077000A59A80910101806280930101809102011C
:100780008062809302016B9A7398269A2E986D9AD4
:10079000759880910101806180930101809102012F
:1007A0008F7E80930201E0918402F0E0E050FE4FE2
:1007B0008081282F21709091050180FF6CC091608D
:1007C00090930501982F98703091040183FD6CC0BF
:1007D000316030930401222309F46BC0599A9111BE
:1007E0006CC0519A282F22709091020181FF6CC039
:1007F000926090930201982F90713091010184FDD5
:100800006CC0326030930101222309F46BC05A9A04
:1008100091116CC0529A282F24709091020182FF8E
:100820006CC0916090930201982F907285FD6CC00E
:1008300080910101816080930101222309F46BC042
:100840005B9A992309F46AC053988FE99FE0019756
:10085000F1F700C00000899A889A089A1098249AA3
:100860002C981092B6001092B3001092B000109223
:10087000B1008091B00081688093B0008091B10098
:1008800084608093B1000E944C1560E875E280E0BE
:1008900090E00C94BB149E7F90930501982F987064
:1008A0003091040183FF94CF3E7F309304012111E6
:1008B00095CF5998992309F494CF5198282F2270F5
:1008C0009091020181FD94CF9D7F90930201982F1A
:1008D00090713091010184FF94CF3D7F30930101ED
:1008E000211195CF5A98992309F494CF5298282F23
:1008F00024709091020182FD94CF9E7F909302011B
:10090000982F907285FF94CF809101018E7F809304
:100910000101211195CF5B98911196CF539A95CFF4
:1009200081E08093850248E0F9CE80E064DD81E0DB
:1009300062DD4091F2025091F302AAEFB2E0EAEBDD
:10094000F3E020E030E00CC012968C91129790E01A
:100950000196280F391F139683E0AA3BB80731F0A0
:100960008D919C9111974817590770F33093C004EB
:100970002093BF044091F4025091F50220E030E052
:100980000AC0828190E00196280F391F339694E0C7
:10099000EA37F90729F0808191814817590788F3D0
:1009A0003093C2042093C104279A80918802813039
:1009B00009F0CCCE2F9ACBCE40E050E063E083E04C
:1009C00092E00E94791443E050E064E087E092E016
:1009D0000C947914CF93DF93C3E9D2E06EA57FA581
:1009E00088A999A94EE050E00E9462146AA97BA9E7
:1009F0008CA99DA942E150E00E9462146EA97FA9D2
:100A000088AD99AD46E150E00E9462146AAD7BADBD
:100A10008CAD9DAD4AE150E00E9462146091D3021A
:100A20007091D4028091D5029091D6024EE150E0AF
:100A30000E9462146091D7027091D8028091D9020D
:100A40009091DA0242E250E00E946214C3ECD4E0DA
:100A500069E070E088810E944F146AE070E089814B
:100A60000E944F146BE070E0809146050E944F1485
:100A700068E070E08091C5040E944F146CE070E063
:100A80008091F2020E944F146DE070E08091F402B8
:100A90000E944F1466E270E08091E6029091E702B6
:100AA0000E94531468E270E08091E8029091E9029C
:100AB0000E94531480918302C1E06AE270E08C27A7
:100AC0000E944F14809182026BE270E08C270E949A
:100AD0004F146CE270E08091E4029091E5020E9474
:100AE00053146EE270E08091DC020E944F1444E6E1
:100AF00050E060E48AEF92E00E949A1444E251E0F0
:100B000060E48AEB93E00E949A142ADD67E070E0CB
:100B1000DF91CF910C944F14119800000000000059
:100B2000000080918202882321F0489B02C082E06D
:100B30000895119A000000000000000089B180951E
:100B400081700895489B14C011988AE0000081507C
:100B5000E9F7099888EC00008150E9F7489B04C048
:100B600082E0099A119A089581E0099A119A0895EC
:100B700080E0099A119A089580919B0290919C02BD
:100B800020916F002F7D20936F0020919A0030916B
:100B90009B0040916F00406240936F004091EE02D5
:100BA0005091EF02782F692F8417950710F4742F56
:100BB000652FE091B502E11149C02417350708F00F
:100BC00045C040916F004F7D40936F009093EB02C2
:100BD0008093EA0230939B0020939A007093F60270
:100BE0006093F7029091C3048091AF02981789F146
:100BF000759AEE2329F181E090E090938B00809329
:100C00008A008091FC028093800210927E021BBCBD
:100C100010928500109284008091C6049091C704C0
:100C2000909387008093860080918100897F8093D4
:100C30008100809181008160809381001092B502D3
:100C400080916F00806280936F000895272F362F68
:100C5000B8CF7598CECF80919D0290919E02209141
:100C600071002F7D209371002091980030919900A0
:100C7000409171004062409371004091F0025091A8
:100C8000F102782F692F8417950710F4742F652FC0
:100C9000E091B602E1114DC02417350708F049C0B4
:100CA000409171004F7D409371009093ED028093CD
:100CB000EC0230939900209398007093F8026093AF
:100CC000F9029091C4048091B0029817A9F1809123
:100CD0000201806180930201EE2329F181E090E01E
:100CE00090938900809388008091BC038093810257
:100CF00010927F021ABC109295001092940080917D
:100D00000605909107059093970080939600809137
:100D10009100897F80939100809191008160809300
:100D200091001092B60280917100806280937100F0
:100D30000895272F362FB4CF809102018F7E8093A4
:100D40000201CACF3F924F925F926F927F928F9231
:100D50009F92AF92BF92CF92DF92EF92FF92CF938A
:100D6000DF93E82FF0E0DF01AA0FBB1FED01C154B4
:100D7000DB4FE880F980EF01CD56DD4F9CA1992330
:100D800029F0A701440F551FE40EF51E9A8D191680
:100D90000CF093C03A8C9C8D9F01220F331F220FC1
:100DA000331FE901CD56DD4F4A895B896C897D8906
:100DB000A32CB12C2501440C551C052C000C6608F5
:100DC0007708441555056605770530F44A8A5B8A2D
:100DD0006C8A7D8AB301A201AE9C6001AF9CD00CED
:100DE000BE9CD00C11244A015B01B694A794979441
:100DF0008794AE50BD4F0D90BC91A02DC8E03C161D
:100E000009F457C0E12CF12C8C149D04AE04BF04EE
:100E100010F4750164014C195D096E097F09E9013F
:100E2000CD56DD4FC880D980EA80FB80992339F008
:100E300070956095509541955F4F6F4F7F4FE901D9
:100E4000C757DD4F4C0D5D1D6E1D7F1D48835983B7
:100E50006A837B83EE0FFF1FE556FD4FB183A083AE
:100E60009EB3811113C09B7F9EBBF09ADF91CF91FF
:100E7000FF90EF90DF90CF90BF90AF909F908F90BA
:100E80007F906F905F904F903F9076CE977F9EBB04
:100E9000F19ADF91CF91FF90EF90DF90CF90BF90CC
:100EA000AF909F908F907F906F905F904F903F900A
:100EB000D2CE487FC8EF8C22A5CF9A8D392E31949F
:100EC0006ACF811106C08091B502811101C0D1C9DC
:100ED000089580916F008F7D80936F0080918100D5
:100EE000887F809381001092B30281E08093B502E5
:100EF0001092A30210929102F0980895811106C0F9
:100F00008091B602811101C0E4C9089580917100F9
:100F10008F7D8093710080919100887F80939100F4
:100F20001092B40281E08093B6021092A402109253
:100F30009202F1980895CF92DF92EF92FF920F9371
:100F40001F93CF93DF93C82F8B010E949817D82F40
:100F50008091880281112DC0CF3409F448C01092CD
:100F600087028C2F0C2E000C990BAA0BBB0BFC01DB
:100F7000E554F109EF32F105B0F120E030E0A901CC
:100F80006C2FC8010E945016CA3489F480918802DF
:100F900081110DC08D2F90E0FC01EF56FD4F21E037
:100FA0002083FC01ED56FD4F808980FF20A3D1E016
:100FB00049C04C2F0C2E000C550B660B770BFA0119
:100FC000E554F109EF32F10550F0FA01E154F1096D
:100FD000EA33F10590F6EE58FF4F0C940E1AE455E3
:100FE000FF4F0C940E1AE552FF4F0C940E1AD111BC
:100FF00036C1D8018C91803309F41FC3109A109226
:101000008702D1E020E030E0A901CFE417C0CFB7DC
:10101000F894C8010E946E17ED2FF0E0EE0FFF1F4D
:10102000EE0FFF1FED56FD4F608371838283938324
:10103000CFBFD1E020E030E0A901C5E46C2FC801AA
:101040000E9450168D2FDF91CF911F910F91FF902D
:10105000EF90DF90CF900895ED2FF0E0EE0FFF1F9F
:10106000EE0FFF1FED52FD4F2081318142815381F0
:10107000D1E0C3E7E3CF8FB7F894ED2FF0E0EE0FA8
:10108000FF1FEE0FFF1FED56FD4F20813181428182
:1010900053818FBFD1E0CAE6D1CFC8010E946E173D
:1010A000B62F2D2F30E040ECD49FF0011124E954ED
:1010B000FC4FC080D180E12CF12CF901EE0FFF1F15
:1010C000E556FD4F4B2F572FBC014C155D056E05A6
:1010D0007F0508F4C1C051834083F901EF56FD4FED
:1010E0008081823009F4D4C01082D1E020E030E069
:1010F000A901C9E4A3CFC8010E946E172D2F30E0CB
:10110000F901EE0FFF1FEE0FFF1FED56FD4F628B33
:10111000738B848B958BF901EF56FD4F1082D1E0D4
:1011200020E030E0A901C8E489CF8D2F90E0FC01D8
:10113000ED56FD4FD8012C912053208B21E01196C4
:101140003C91303309F4A2C0248FFC01EF56FD4FCF
:101150001082D1E020E030E0A901C7E46FCFED2F8D
:10116000F0E0ED56FD4F26AD30E040E050E0D1E03C
:10117000C7E664CFED2FF0E0ED56FD4F84A181115D
:1011800068C020E030E0848D8111326080A181113F
:1011900001C0316082A1811101C02061868D811161
:1011A000216040E050E0D1E0C6E648CFED2FF0E00E
:1011B000EE0FFF1FEE0FFF1FED56FD4F26A137A1CB
:1011C00040A551A5D1E0C5E639CFED2FF0E0EE0FF7
:1011D000FF1FEE0FFF1FED56FD4F26A537A540A9B7
:1011E00051A9D1E0C1E62ACFC8010E945F178093C0
:1011F000B300D1E020E030E0A901C6E51FCF81E0D7
:10120000D11117C05EDE31D8D1E020E030E0A90175
:10121000CCE414CF80E0D1111AC053DEED2FF0E002
:10122000EF56FD4F1082D1E020E030E0A901CBE481
:1012300005CF64DE809102018062809302011092EA
:10124000B202D1E020E030E0A901CCE4F7CE56DED6
:10125000E5CF20E034E097CFB701A6013CCFF801FD
:10126000808120ED280F209388029091870293318E
:1012700008F0CFC18153833008F4E8C1109287028F
:10128000D1E020E030E0A901C0E0D8CE20E05CCF82
:10129000D111D5C171DCD1E020E030E0A901C9E471
:1012A000CDCEED2FF0E0EE0FFF1FEE0FFF1FED563E
:1012B000FD4F26A937A940AD51ADD1E0BFCEC80141
:1012C0000E945F17ED2FF0E0E258FD4F80838034DD
:1012D00008F465C1D1E020E030E0A901C0E0AECE65
:1012E0008D2F90E0FC01EE0FFF1FEA51FD4F208192
:1012F00031817901EE0CFF1C880F991F880F991F0F
:10130000FC01ED56FD4FD701119626A937A940AD36
:1013100051AD0E94261A970140E050E00E94EC195E
:10132000D1E08CCED11180C1A59881E08093B1022B
:101330001092710010926F001092800088E18093EB
:1013400081001092900080939100D1E020E030E085
:10135000A90174CEED2FF0E0EE0FFF1FEE50FD4F10
:101360002081318140E050E0D1E068CE4D2F50E047
:10137000FA01E258FD4F6081262F30E0C901880F45
:10138000991F820F931F70EC749F9001759F300D11
:101390001124820F931F8D569D4FDC01A959BF4F19
:1013A000DC9111967C91119712962D2F372F4C912D
:1013B00050E081E0860F803408F468C11082D1E0EB
:1013C0003DCEDD2309F48EC12091E4023091E50287
:1013D00040E050E0D1E032CEDD2309F475C19091B8
:1013E0008302292F30E040E050E08091C50488302E
:1013F00008F488C181E08927817080938502D1E05B
:101400001DCEC8010E946E17ED2FF0E0EE0FFF1FFA
:10141000EE0FFF1FED52FD4F608371838283938334
:10142000D1E020E030E0A90109CEC801DD2309F4B4
:1014300030C10E946E1761157105F1E08F079105AB
:1014400008F048CF7093E5026093E402D1E020E019
:1014500030E0A901F3CDC8010E945F17ED2FF0E045
:10146000EE0FFF1FEE50FD4F90E091838083D1E09F
:1014700020E030E0A901E2CDC801DD2309F439C143
:101480000E945F178093C504883008F43EC1909194
:10149000830281E08927817080938502D1E020E07A
:1014A00030E0A901CBCD8D2F90E0FC01ED53FB4F37
:1014B00081E0D8019C91903309F42AC18083D1E066
:1014C00020E030E0A901BACDC8010E946E17ED2FCF
:1014D000F0E0EE0FFF1FEE0FFF1FED56FD4F66AB66
:1014E00077AB80AF91AFD1E020E030E0A901A6CD8D
:1014F000DD2309F4F0C02091C50430E040E050E065
:10150000D1E09CCD8D2F90E0FC01ED53FB4F20816D
:1015100030E040E050E0D1E091CDED2FF0E0EE0F73
:10152000FF1FEA51FD4F2081318140E050E0D1E0C2
:1015300085CDC8010E946E17AD2FB0E0FD01E258C5
:10154000FD4F9081292F30E0A901440F551F420F14
:10155000531FD0ECDA9F9001DB9F300D1124240F34
:10156000351F2D563D4FD901A959BF4F11967C9378
:101570006E9312968C9381E0890F803408F49ECF8D
:101580001082D1E020E030E0A90158CD823009F48A
:10159000E1C0833009F4D8C0813009F4BBC0D1E088
:1015A00020E030E0A9014ACDC801DD2309F47FC065
:1015B0000E945F1791E0811101C090E09093830237
:1015C000D1E020E030E0A90139CDC8010E946E17BA
:1015D000ED2FF0E0EE0FFF1FEA51FD4F71836083A6
:1015E000D1E020E030E0A90129CDC8010E946E17AA
:1015F000ED2FF0E0EE0FFF1FEE0FFF1FED56FD4F3A
:1016000066A777A780AB91ABD1E020E030E0A901DD
:1016100015CD84E180938702211121C0D0E020E024
:1016200030E0A901CFE40ACD809102018F7D809343
:10163000020181E08093B2027BCE1098E0CC0BDBFC
:10164000D1E020E030E0A901C9E4F8CC9F5F90939D
:101650008702D1E020E030E0A901C0E0EFCC81E0DA
:1016600030DC0E94350181E049DC8091020180621A
:10167000809302011092B202109291021092920293
:10168000D1E020E030E0A901CFE4D8CC8083D1E0E4
:10169000D5CC0E945F179FEF980F933108F01ACEB8
:1016A0008093DC02D1E020E030E0A901C7CC0E94A9
:1016B0005F1791E0811101C090E090938202D1E028
:1016C00020E030E0A901BACC2091820230E040E075
:1016D00050E0D1E0B3CC2091460530E040E050E04E
:1016E000D1E0ACCC2091DC0230E040E050E0D1E031
:1016F000A5CC0E945F1780934605D1E020E030E042
:10170000A9019CCC80E090E077CE80E090E0C3CE51
:1017100080E0D4CE81E0F8019081903309F480E03C
:101720000E94DE02882309F4D5CD0E94D1028111E6
:1017300036CF0E94B00267E070E00E944F14D1E003
:1017400020E030E0A9017ACC37D9D1E020E030E0C8
:10175000A90174CC3FD9D1E020E030E0A9016ECCE2
:10176000CF93DF93CDB7DEB72F970FB6F894DEBFD8
:101770000FBECDBF78940E944B0380918602BB249C
:10178000BA94DD24DA94612C1F86F12CC12C00E080
:1017900010E0AA24A39499249A9492E0792E212C03
:1017A000312C20E8422E512C38E1832E0F5F1F4F41
:1017B000811141C10115110509F0A5C08091880270
:1017C000882309F437C2809102028111A1C085B13A
:1017D000805885B9B7D9E82E8091DB02E81609F464
:1017E00045C08E2D4CD680918502882321F092E051
:1017F000E91609F4B2C3809100029091AF029923D7
:1018000009F445C39092AD021092B7029091B002D4
:10181000992309F439C39092AE021092B802382F7E
:1018200031709091050180FFF7C29160909305019E
:10183000282F22709091020181FFEAC2926090935A
:101840000201982F947082FFDDC2809102018160B5
:1018500080930201332309F4D3C2599A222309F455
:10186000CDC25A9A992309F4C7C25B9A189BEFC05C
:101870001B9BACC2EE24EA9480E09FB7F894609181
:101880009A0070919B009FBF2091B50221113EC12B
:101890004091AF0250E0E82FF0E04E175F0709F4E7
:1018A00035C14091EE025091EF026417750708F0C0
:1018B0002DC10E943901199B55C11A9B82C2EE2489
:1018C000EA9480E09FB7F894409198005091990075
:1018D0009FBF9091B60291117DC12091B00230E07E
:1018E000682F70E02617370709F461C22091F002D3
:1018F0003091F1024217530708F059C20E94690162
:101900008091860253CF90910202992309F49BC0E3
:101910008EEFF81609F4A4C00E9490158823E1F018
:1019200085B1805885B90E949B15C82E6C2DCE01BB
:1019300001960E941E17F82E882371F00CF46AC1DC
:10194000BE016F5F7F4FF7DAE82ECE0101960E944D
:10195000EF15EE2009F464C20115110509F084C0E9
:1019600080918802813009F420C22F9880918602EC
:10197000811151C0189B38C2E3B0E3FAEE24E0F8BD
:10198000E194ED1449F08091AF02811105C080917E
:101990009102823009F4CDC2199B23C2D3B0D2FA8E
:1019A000DD24D0F8D1948091B402811141C1DB14BF
:1019B00009F43EC181E0D81280E09091B602911105
:1019C00011C02091B002281769F00E94690110929D
:1019D000920280919102813009F439C3809186028C
:1019E000DE2CE4CE2FEFD21609F41EC12091E202C4
:1019F0003091E30230939E0220939D028093B002C7
:101A000081E0D81609F45AC2A092AE0224D9BD2CA6
:101A1000DE2C6624639480919102813081F1809163
:101A20009202813009F4A6C0809186020F5F1F4F99
:101A3000882309F4BFCE90910202911169CF01155C
:101A4000110509F4C4CE0111B1CE189911CF81E06E
:101A5000D81609F430CF8091E102EE24E3940DCF43
:101A600085B1805885B962CF809186028111D3CF2C
:101A7000002309F47FCF80919102813081F680911B
:101A8000B502882361F29091A30280918502882398
:101A900009F4E6C18FEF890F823008F4A4C2809167
:101AA00001022091D1023091AF023111FFC1209388
:101AB000AD02A092B7022091050180FF36C22160DD
:101AC000209305012091040183FD2BC22160209306
:101AD00004012091020181FF20C2226020930201B3
:101AE0002091010184FD15C2226020930101209103
:101AF000020182FFFEC121602093020185FDF3C136
:101B000080910101816080930101B2C19FEFE916CC
:101B100009F46DC1EE2DEE0FFF0BE352FD4F408136
:101B2000518150939C0240939B02982F9170909307
:101B3000AF029091B702992309F470C09091D1023D
:101B4000882309F46EC091959093AD028FEFE8124F
:101B500005C08091DB02823009F49CC10DD8DE2CD7
:101B60001999ABCE91E0B91609F45ECFEE24E39457
:101B700081E0A8CE9091B602992309F455CF209127
:101B8000A40290918502992309F459C19FEF920F05
:101B9000923008F41DC2909101028091D2023091DE
:101BA000B002311187C18093AE02A092B80290FFBB
:101BB000AEC1599A93FDA9C1519A91FFA4C15A9AF5
:101BC00094FD9FC1529A92FF9AC15B9A95FD95C16F
:101BD000539A3DC12FEFE21609F451C12091E20260
:101BE0003091E30230939E0220939D028093B002D5
:101BF0009091B802992309F4F2C09091D2028823FF
:101C000009F4EAC091959093AE0225D8809186029E
:101C1000BE2CCCCDCE010196E2D79ECE91E08111B3
:101C200092CF9093AD0292CF611007C2BB24BA94B9
:101C3000DE2CF1CE0E948C05E82E882309F4C3CD5A
:101C400081E03FD981E05AD98FB7F894209293026E
:101C500030929402409295025092960220929702FE
:101C6000309298024092990250929A028FBFE2D627
:101C7000A092860222E0E21609F4F0C1109202025C
:101C8000119AE0918402F0E0E050FE4F8081282F0D
:101C900021709091050180FD14C19E7F90930501F4
:101CA000982F98703091040183FD8EC1316030937C
:101CB0000401222309F486C1599A911181C1519AD4
:101CC000282F22709091020181FF76C1926090933B
:101CD0000201982F90713091010184FD69C1326039
:101CE00030930101222309F461C15A9A91115CC118
:101CF000529A282F24709091020182FF51C1916065
:101D000090930201982F907285FD44C1809101014A
:101D1000816080930101222309F43AC15B9A9111F9
:101D200035C1539A80E0ABD31092B7021092B8023B
:101D3000A598A092B1021092710010926F001092BB
:101D4000800080928100109290008092910080919A
:101D500002018F7D80930201A092B2021092710065
:101D600010926F001092800080928100109290007B
:101D700080929100A092A302A092A4021092AF02BE
:101D8000A092AD021092B002A092AD028091E60244
:101D90009091E70290939C0280939B02A092910203
:101DA000BB24BA94DD24DA940ECD2F9ADFCD9FEFB9
:101DB000E91214CF0E94690180918602BB24BA9473
:101DC000F5CCBB2009F430CEE12C7BCDDD2009F42D
:101DD00072CDE12C80E051CD9093AE0216CF91E010
:101DE0000ECFDD24D394DFCDEE24E394CACD409111
:101DF000E6025091E70295CE5B9838CD5A9832CDE5
:101E000059982CCD809102018E7F8093020122CDC2
:101E10009D7F9093020115CD9E7F9093050108CD83
:101E2000CAD69BE088E10FB6F894A895809360002D
:101E30000FBE9093600080E090E00E94541A909151
:101E4000B002911130C08093AE021092B80220FF10
:101E500042C00E942B067092920280918602A6CC0C
:101E60008091AF0281111CC0A092AD021092B70206
:101E700090FF2BC00E94BC0570929102D0CD809142
:101E80008602BB24BA9492CCA092AE02C6CCA09299
:101E9000AD02BACC222309F4B1C0DD24DA940BCD13
:101EA0009092AD02E3CF9092AE02CFCF21952093D6
:101EB000AD02FFCD81958093AE0277CE9092AE02B7
:101EC000A5CD916090930501EBCE80E00E94A20623
:101ED00010929102A4CD81E00E94A206109292027B
:101EE0008091860263CC809101018E7F80930101F5
:101EF000BFCF2E7F2093020101CE5398A8CF5B98CD
:101F000065CE529860CE5A985BCE519856CE59986D
:101F100051CE2D7F20930101EACD2D7F2093020128
:101F2000DFCD2E7F20930401D4CD2E7F2093050199
:101F3000C9CD9FEFE91609F466C0EE2DEE0FFF0B39
:101F4000E352FD4F8081918190939C0280939B028C
:101F50000E94BC0521E02F871FCD80910102909146
:101F6000D1022091AF0221115EC09093AD02A092E8
:101F7000B7029091D2022091B002222309F464C0EA
:101F800091959093AE02A092B80249CC5398CACED4
:101F90005B98C5CE809101018E7F80930101BBCEFD
:101FA0009E7F90930201AECE5298A3CE5A989ECEB9
:101FB0003D7F3093010196CE9D7F9093020189CEA3
:101FC00051987ECE599879CE3E7F3093040171CEE0
:101FD000909100023091B00231112CC08093AE027A
:101FE0001092B802E4CD809100022091AF0221113D
:101FF0001EC0A092AD021092B7025DCD0E943901C1
:10200000DD24DA9458CC8F85882309F4C5CC8091DF
:10201000E6029091E70290939C0280939B020E94BB
:10202000BC051F86B9CC91959093AD02A0CF90923C
:10203000AD02E1CF9092AE02D3CF9923E9F0BB2459
:10204000BA94DE2C612CE7CC9093AE029CCF8091A9
:10205000B502DE2C882309F4E7CC15CDA09202024C
:1020600003D520E030E0A90160E0CE010C9618D63F
:10207000CE010C96B4D5A7CB0E946901BB24BA94BB
:10208000DE2C612CC8CC1F920F920FB60F92112438
:102090000BB60F920F931F932F933F934F935F9322
:1020A0006F937F938F939F93EF93FF93809188001B
:1020B00090918900019709F060C08AB5E82FEE730E
:1020C000F0E0EA5FFA4F208131813093970020934E
:1020D00096008F5F8ABD80919800909199009093AF
:1020E0008900809388001E9B5FC02E980091970204
:1020F000109198022091990230919A024091AE027B
:10210000042E000C550B660B770B400F511F621FFE
:10211000731F4093970250939802609399027093B3
:102120009A02F19B10C0F3990EC000918D0210919C
:102130008E0220918F023091900240175107620762
:10214000730709F487C02091F8023091F90228172B
:102150003907B8F4F19B03C01092B402F19881E002
:102160008093B602809171008F7D80937100809181
:102170009100887F8093910004C0909389008093A0
:102180008800FF91EF919F918F917F916F915F9167
:102190004F913F912F911F910F910F900BBE0F9078
:1021A0000FBE0F901F9018952E9A20918102211139
:1021B00023C02091EC023091ED022817390700F579
:1021C00080917F028F3398F48F5F80937F0290E03D
:1021D000AC01440F551F840F951F8D569D4FFC0178
:1021E000E95DFE4F408151812417350718F1309386
:1021F000990020939800C5CF215020938102C1CF30
:102200008217930728F580917F02882381F38150FC
:1022100080937F0290E0AC01440F551F840F951FFF
:102220008D569D4FFC01E95DFE4F40815181421763
:102230005307E8F62091B8022223D9F03296808124
:10224000982F990F890F8E5F809381029A01CFCFCB
:102250009C01CDCFF39A2091F8023091F902A901A7
:102260004F5F5F4F5093ED024093EC02109281025A
:102270006ECFFC01E75DFE4F8081809381029A0161
:10228000B6CF1F920F920FB60F9211240BB60F927A
:102290000F931F932F933F934F935F936F937F936E
:1022A0008F939F93EF93FF9380918A0090918B007F
:1022B000019709F060C08BB5E82FEE73F0E0EA53A8
:1022C000FB4F2081318130938700209386008F5F00
:1022D0008BBD80919A0090919B0090938B0080938E
:1022E0008A00639B5FC073980091930210919402DF
:1022F00020919502309196024091AD02042E000C7F
:10230000550B660B770B400F511F621F731F4093D5
:102310009302509394026093950270939602F09BFF
:1023200010C0F2990EC00091890210918A0220918A
:102330008B0230918C02401751076207730709F432
:1023400087C02091F6023091F70228173907B8F4B8
:10235000F09B03C01092B302F09881E08093B50225
:1023600080916F008F7D80936F0080918100887FC6
:102370008093810004C090938B0080938A00FF912A
:10238000EF919F918F917F916F915F914F913F91CD
:102390002F911F910F910F900BBE0F900FBE0F90BA
:1023A0001F901895739A20918002211123C02091CB
:1023B000EA023091EB022817390700F580917E027E
:1023C0008F3398F48F5F80937E0290E0AC01440FCE
:1023D000551F840F951F8D569D4FFC01E959FF4FE6
:1023E000408151812417350718F130939B002093C9
:1023F0009A00C5CF215020938002C1CF8217930746
:1024000028F580917E02882381F3815080937E029B
:1024100090E0AC01440F551F840F951F8D569D4FC2
:10242000FC01E959FF4F4081518142175307E8F6FB
:102430002091B7022223D9F032968081982F990FEC
:10244000890F8E5F809380029A01CFCF9C01CDCF00
:10245000F29A2091F6023091F702A9014F5F5F4F87
:102460005093EB024093EA02109280026ECFFC017F
:10247000E759FF4F8081809380029A01B6CF482FA1
:102480008093DB028230A9F1813009F44AC0809147
:10249000E6029091E70244E1489FF001499FF00D68
:1024A00011242091DC0230E0B9016C5E7F4FCF0136
:1024B0007FD77093DE026093DD0264E170E0621BFF
:1024C000730BCF0175D77093E0026093DF02109217
:1024D000E1026091E8027091E902469FC001479FC6
:1024E000900D1124B90164D77093E3026093E20266
:1024F00008958091F2029091F3029093DE0280930E
:10250000DD029093E0028093DF0281E08093E1029C
:102510008091F4029091F5029093E3028093E2029D
:102520000895E091E602F091E7029F01ABEABAEA72
:102530007ED7969587959093DE028093DD02F09387
:10254000E002E093DF024093E1028091E802909183
:10255000E902969587959093E3028093E2020895AD
:102560002F923F924F925F926F927F928F929F92A3
:10257000AF92BF92CF92DF92EF92FF920F931F9391
:10258000CF93DF9300D000D0CDB7DEB76B017C01D5
:10259000342E8EE090E02BD16093C1027093C20282
:1025A0008093C3029093C40282E190E020D16093B3
:1025B000C5027093C6028093C7029093C80286E159
:1025C00090E015D16093C9027093CA028093CB0248
:1025D0009093CC028AE190E00AD16093CD0270938F
:1025E000CE028093CF029093D0028EE190E0FFD094
:1025F0006093D3027093D4028093D5029093D60255
:1026000082E290E0F4D06093D7027093D802809376
:10261000D9029093DA0286E290E0DAD09093E70252
:102620008093E60288E290E0D3D09093E902809311
:10263000E8028CE090E0CBD090E09093F30280939E
:10264000F2028DE090E0C3D090E09093F502809389
:10265000F4028EE290E0BBD08093DC028CE290E04A
:10266000B7D09093E5028093E40244E650E060E442
:102670008AEF92E0F3D044E251E060E48AEB93E029
:10268000EDD0E3E9F2E066EE72E04AEF52E00EEEE2
:1026900012E086EF682E82E0782E9AEE492E92E0C4
:1026A000592EFA83E983FC83EB8320E030E0222477
:1026B0002394812C912CA0E8AA2EB12C148EC90150
:1026C0008D569D4FDC015A962C9214A222A210A284
:1026D000168EAB81BC818D929D92AD92BC92139768
:1026E000DB018D919D91BD01A981BA8119969C93C1
:1026F0008E931897108AAB81BC8152961D921D92C1
:102700001D921C9255979696CD92DD92ED92FC9279
:10271000999736AEDA018D919C91D8018D939D9356
:102720008D01D3018D939D933D010196D2018D932F
:102730009D932D01A981BA811D969C938E931C9720
:102740002F5F3F4F31968B819C8104969C838B83B6
:102750001296BA83A98340545F4F2230310509F0A5
:10276000ADCF80E00F900F900F900F90DF91CF9141
:102770001F910F91FF90EF90DF90CF90BF90AF909F
:102780009F908F907F906F905F904F903F902F9091
:1027900076CEEFE0F2E02AE690E005C09F5F963249
:1027A000A1F0208133968213F9CF892F90E0FC01AC
:1027B000EE0FFF1F8E0F9F1FFC01E45FFD4F66238E
:1027C00011F081810895828108958FEF089556C692
:1027D0001F93CF93DF93EC0151D6182FCE010196B2
:1027E0004DD6982F812FDF91CF911F910895CF92D1
:1027F000DF92EF92FF92CF93DF93EC01E9DF6C0160
:10280000CE010296E5DF7C01C701B601DF91CF91D1
:10281000FF90EF90DF90CF900895EF92FF920F938B
:102820001F93CF93DF93662391F0EA018C016150EF
:102830007A01E60EF11C8FEFE81AF80ACE011ED6D7
:10284000F80181938F012196CE15DF05B9F7DF914D
:10285000CF911F910F91FF90EF900895EF92FF920B
:102860000F931F93CF93DF93E62E8A01662381F0A7
:10287000EC01F12CC801ACDF99838883C801029672
:10288000A7DF8A830D5F1F4FF3942396EF10F2CFDB
:10289000DF91CF911F910F91FF90EF900895282F16
:1028A000CB01622FF3C51F93CF93DF93192FEB0159
:1028B000682FCE01EBD5612FCE010196DF91CF912C
:1028C0001F91E4C5CF92DF92EF92FF92CF93DF93F7
:1028D0006B017C01EA01BA01C601E5DFBE016E5F52
:1028E0007F4FC701DF91CF91FF90EF90DF90CF90A6
:1028F000DACFEF92FF920F931F93CF93DF9366236C
:1029000091F0EC016150E62EF12C8FEFE81AF80AF5
:10291000EC0EFD1E8A016991C801B8D50F5F1F4FEB
:10292000CE15DF05C1F7DF91CF911F910F91FF9079
:10293000EF900895EF92FF920F931F93CF93DF9341
:10294000E62E8A01662381F0EC01F12CB801888122
:102950009981A9DF6A81C801029698D50D5F1F4F42
:10296000F3942396EF10F2CFDF91CF911F910F9147
:10297000FF90EF900895CF92DF92EF92FF926B015C
:102980007C0182E08093C00060E079E08DE390E01C
:10299000A701960121D5DA01C9010197A109B10961
:1029A000AC01BD017695679557954795942F852F76
:1029B000252F207FB1F01092C00060E874E88EE10E
:1029C00090E0A701960108D5DA01C9010197A10994
:1029D000B109AC01BD017695679557954795942F40
:1029E000852F8F708093C5009093C4008FB7F894A3
:1029F0001092BD041092BE0410929B0410929C048D
:102A00008FBF8091C10080618093C1008091C1001F
:102A100088608093C1008091C10080688093C1006C
:102A20008091C1008F7D8093C100FF90EF90DF9077
:102A3000CF900895E1ECF0E080818F7E80838081EB
:102A4000877F808380818F77808380818F7D808363
:102A50008FB7F894EDE9F4E010A211A2EBE7F4E0EF
:102A600010A211A28FBF0895219A299A23982B9A18
:102A7000229A2A9A209A289A119A8FB7F894EDE907
:102A8000F4E010A211A2EBE7F4E010A211A28FBFB4
:102A900081E080937A0408952198299A23982B9AAB
:102AA00022982A9A2098289A10927A048FB7F8943C
:102AB000EDE9F4E010A211A2EBE7F4E010A211A2FC
:102AC0008FBF089598E008C000002A98299A880FBF
:102AD0001B998F5F915029F0299887FFF5CF2A9A8B
:102AE000F5CF089590919C0480919B04981709F06C
:102AF00048990895289881E8E5DF489BFECF80E853
:102B0000E1DF87FD0BC0E0919B04F0E0E558FB4F4F
:102B1000808380919B048F5F80939B04289A089503
:102B200080917A048111DEDF80919B0490919C0456
:102B3000891B8F71089590919C0480919B04981734
:102B400051F0E92FF0E0E558FB4F80819F5F9F71C6
:102B500090939C0408958FEF08959091C10093FF86
:102B600016C09091BD049F5F9F712091BE04921783
:102B7000C1F0E091BD04F0E0E356FB4F80839093F9
:102B8000BD048091C10080628093C100089590913E
:102B90007A04911101C0089528988F7793DF289ABD
:102BA00008952091C10020622093C1002091BE04AD
:102BB0009217E1F3DECF8091C10083FF0FC09091A7
:102BC000BD048091BE04981749F08091C1008062D5
:102BD0008093C1008091BE049813FCCF0895CF93D9
:102BE000DF93EC018881882329F02196B6DF899153
:102BF0008111FCCFDF91CF9108952F932FB72F93A1
:102C00009F938F93EF93FF932091C60080919B0435
:102C10008F5F8F7190919C04891741F0E0919B0424
:102C2000F0E0E558FB4F208380939B04FF91EF91E8
:102C30008F919F912F912FBF2F9118958F938FB7C1
:102C40008F939F93EF93FF938091BE049091BD0467
:102C5000891306C08091C1008F7D8093C1000BC095
:102C6000E82FF0E0E356FB4F90818F5F8F718093E8
:102C7000BE049093C600FF91EF919F918F918FBFFB
:102C80008F91189510924A0510924C052BE0EDE4B7
:102C9000F5E0DF011D922A95E9F71092490560CC15
:102CA000FF920F931F93CF93DF93EC01862F122F88
:102CB000032FF42E611115C081E2888382E090E039
:102CC00021E030E0FE01E20FF31F4DE04083FE0102
:102CD000E80FF91F1082DF91CF911F910F91FF90A4
:102CE000089560E056DD87FDE7CF9DE3988382304D
:102CF00061F08330E9F08630B1F1082E000C990BB9
:102D00009C012F5F3F4F0296DDCF812F82958F7000
:102D10001F701A3008F0195F105D1A838A3008F0AE
:102D2000895F805D898384E090E023E030E0CACF52
:102D3000812F912F8F708A3008F0895F805D8B839F
:102D4000892F82958F708A3008F0895F805D8A8331
:102D50000F700A3008F0095F005D098385E090E09C
:102D600024E030E0AFCF9F2D92959F708F2D8F7014
:102D70008A3008F0895F805D8E83892F9A3008F051
:102D8000895F805D8D83802F82958F700F700A30F0
:102D900008F0095F005D0C838A3008F0895F805D70
:102DA0008B83812F82958F701F701A3008F0195F06
:102DB000105D1A838A3008F0895F805D898388E01E
:102DC00090E027E030E07ECF0F931F93CF932091C8
:102DD0004D0520934B0590914E05915390934905D5
:102DE000923028F080E0CF911F910F9108958B01D0
:102DF000C82F61E0822FCDDC2DEF2C0F082E000CA8
:102E0000990B622F70E08617970761F7222399F0DC
:102E1000EFE4F5E0D8018CEF8C0F90E0805B9A4FE7
:102E200021912D93E817F907D9F7F801E60FF71F5D
:102E3000108281E0D8CF60E070E0F7CFCF93DF93CE
:102E400020914A052223A9F06A3331F1EC01E09187
:102E50004C0581E08E0F80934C05F0E0E35BFA4F68
:102E600060836D3081F08B3009F180E0DF91CF918C
:102E700008956A33D1F710924C0581E080934A059A
:102E800010924D05F2CFBE019FDF882379F010929A
:102E90004A0580914B05EACF21E2FC0120832DE019
:102EA0002183128210924A058EEFE0CF81E288835F
:102EB0008DE089831A8210924A058FEFD7CFFC01EB
:102EC00091819A330CF09750905380818A330CF0A3
:102ED00087508295807F9F70892B0895FC016181C6
:102EE0006A330CF06750605380818A330CF087504E
:102EF0008295807F6F70682B73817A330CF07750E6
:102F0000705382818A330CF087508295807F7F7066
:102F1000782B95819A330CF09750905384818A33A3
:102F20000CF087508295807F9F70892B90E00895E8
:102F30008091490508955058BB27AA270ED084C117
:102F400075D130F07AD120F031F49F3F11F41EF4A6
:102F50006AC10EF4E095E7FB37C1E92F86D180F313
:102F6000BA17620773078407950718F071F49EF586
:102F7000B5C10EF4E0950B2EBA2FA02D0B01B901AF
:102F800090010C01CA01A0011124FF27591B99F0DF
:102F9000593F50F4503E68F11A16F040A22F232FEB
:102FA000342F4427585FF3CF469537952795A7953B
:102FB000F0405395C9F77EF41F16BA0B620B730BE2
:102FC000840BBAF09150A1F0FF0FBB1F661F771F53
:102FD000881FC2F70EC0BA0F621F731F841F48F408
:102FE000879577956795B795F7959E3F08F0B3CF8E
:102FF0009395880F08F09927EE0F97958795089578
:1030000056D180F09F3740F491110EF468C160E012
:1030100070E080E89FE3089526F01B16611D711D86
:10302000811DD8C0F2C00CD00FC107D140F0FED036
:1030300030F021F45F3F19F0C7C0511150C1F3C007
:1030400014D198F39923C9F35523B1F3951B550B6C
:10305000BB27AA2762177307840738F09F5F5F4F6B
:10306000220F331F441FAA1FA9F333D00E2E3AF0AC
:10307000E0E830D091505040E695001CCAF729D0C6
:10308000FE2F27D0660F771F881FBB1F2617370715
:103090004807AB07B0E809F0BB0B802DBF01FF2745
:1030A00093585F4F2AF09E3F510568F08DC017C1BD
:1030B0005F3FECF3983EDCF3869577956795B7957F
:1030C000F7959F5FC9F7880F911D9695879597F99A
:1030D0000895E1E0660F771F881FBB1F6217730713
:1030E0008407BA0720F0621B730B840BBA0BEE1F28
:1030F00088F7E0950895C1D088F09F5790F0B92FD8
:103100009927B751A0F0D1F0660F771F881F991F3C
:103110001AF0BA95C9F712C0B13081F0DFD0B1E032
:103120000895DCC0672F782F8827B85F39F0B93F42
:10313000CCF3869577956795B395D9F73EF490953E
:103140008095709561957F4F8F4F9F4F0895E894BC
:1031500009C097FB3EF490958095709561957F4FDF
:103160008F4F9F4F9923A9F0F92F96E9BB2793958D
:10317000F695879577956795B795F111F8CFFAF49D
:10318000BB0F11F460FF1BC06F5F7F4F8F4F9F4FCE
:1031900016C0882311F096E911C0772321F09EE82C
:1031A000872F762F05C0662371F096E8862F70E092
:1031B00060E02AF09A95660F771F881FDAF7880F6C
:1031C0009695879597F9089597F99F6780E870E03D
:1031D00060E00895882371F4772321F09850872BBD
:1031E000762F07C0662311F499270DC09051862BC6
:1031F00070E060E02AF09A95660F771F881FDAF773
:10320000880F9695879597F908959F3F31F09150D3
:1032100020F4879577956795B795880F911D9695BA
:10322000879597F908959FEF80EC089500240A94FC
:103230001616170618060906089500240A94121691
:103240001306140605060895092E0394000C11F4C4
:10325000882352F0BB0F40F4BF2B11F460FF04C071
:103260006F5F7F4F8F4F9F4F089557FD9058440FCA
:10327000551F59F05F3F71F04795880F97FB991FD5
:1032800061F09F3F79F08795089512161306140692
:10329000551FF2CF4695F1DF08C01616170618061F
:1032A000991FF1CF86957105610508940895E5DFB2
:1032B000A0F0BEE7B91788F4BB279F3860F4161654
:1032C000B11D672F782F8827985FF7CF8695779560
:1032D0006795B11D93959639C8F30895E894BB2777
:1032E00066277727CB0197F908950BD0ADCF9EDFE6
:1032F00028F0A3DF18F0952309F066CF94CF1124AE
:10330000EECFB3DFA0F3959FD1F3950F50E0551F9B
:10331000629FF001729FBB27F00DB11D639FAA272A
:10332000F00DB11DAA1F649F6627B00DA11D661F79
:10333000829F2227B00DA11D621F739FB00DA11D9A
:10334000621F839FA00D611D221F749F3327A00D54
:10335000611D231F849F600D211D822F762F6A2FF0
:1033600011249F5750408AF0E1F088234AF0EE0F75
:10337000FF1FBB1F661F771F881F91505040A9F782
:103380009E3F510570F020CFAACF5F3FECF3983EEF
:10339000DCF3869577956795B795F795E7959F5FE9
:1033A000C1F7FE2B880F911D9695879597F9089583
:1033B000AA1BBB1B51E107C0AA1FBB1FA617B7075B
:1033C00010F0A61BB70B881F991F5A95A9F7809577
:1033D0009095BC01CD010895A1E21A2EAA1BBB1B3A
:1033E000FD010DC0AA1FBB1FEE1FFF1FA217B307D1
:1033F000E407F50720F0A21BB30BE40BF50B661FE7
:10340000771F881F991F1A9469F7609570958095AA
:1034100090959B01AC01BD01CF010895EE0FFF1FF8
:103420000024001C0BBE0790F691E02D0994A29F8A
:10343000B001B39FC001A39F700D811D1124911D88
:10344000B29F700D811D1124911D0895F0DFA59F7D
:10345000900DB49F900DA49F800D911D112408958F
:10346000FB01DC014150504030F08D9101908019FA
:1034700019F40020B9F7881B990B0895F999FECF2C
:1034800092BD81BDF89A992780B50895262FF999A4
:10349000FECF1FBA92BD81BD20BD0FB6F894FA9A37
:0C34A000F99A0FBE01960895F894FFCF32
:1034AC0003000141455100382E3132006A00066696
:1034BC0000034906004702004A00004B0000480682
:1034CC00004D0600650006610006620006670002FA
:1034DC007300064506005001004600004C000056E3
:1034EC0002004F01004106004206005306006E0028
:1034FC00064E060044020064000243010063000211
:10350C005A02007A00025206007200065102007143
:0E351C00000258060078000659020054010013
:00000001FF
