:100000000C94A1000C94C6000C94C6000C94C6007D
:100010000C94C6000C94C6000C94790D0C94C60088
:100020000C94C6000C94C6000C94C6000C94C60038
:100030000C946D0E0C94C6000C94C6000C94C60073
:100040000C94C6000C94C6000C94C6000C941D13AE
:100050000C94C6000C943D130C94C6000C94C6007E
:100060000C94C6000C94C6000C94C6000C94C600F8
:100070007A0691069C06B706D1063B06FC060C07DD
:100080003B063B0618073B063B063B063B063B068A
:100090003B063B063B063B063B063B063B063B0658
:1000A0003B063B063B063B06240732073B063B0666
:1000B0005907820767073B063B0671073B063B066D
:1000C0003B063B063B063B063B063B065F0632090A
:1000D000940884086D083F063F063F063F063F062A
:1000E0003F063F063F063F0622093F063F0611092D
:1000F00046083208F1083F063F063F06C5080109D9
:100100005C083F063F063F063F063F063F063F06A8
:100110003F06B208A8083F063F063F063F063F06D7
:100120003F063F063F063F06BC083F063F061D0848
:1001300012083F063F063F063F063F06E9073F0617
:10014000DD0711241FBECFEFD4E0DEBFCDBF0FB659
:10015000F894A89581B5886181BD11BC0FBE11E0EE
:10016000A0E0B1E0EAE2FFE202C005900D92AA37FA
:10017000B107D9F724E0AAE7B1E001C01D92A33589
:10018000B207E1F70E94A5090C9493170C940000A4
:10019000969A1092AC0108954FB7F8941092AE0160
:1001A000A89810929E012091E9013091EA01809176
:1001B000E5019091E6018217930758F08091F101D3
:1001C0009091F20101969093E6018093E5014FBF73
:1001D00008958091F1019091F2012817390790F765
:1001E0003093F2012093F101C90101969093E60149
:1001F0008093E5014FBF08954FB7F8941092AF0177
:1002000010929F01A9982091EB013091EC0180910F
:10021000E7019091E8018217930758F08091F3016C
:100220009091F40101969093E8018093E7014FBF0C
:1002300008958091F3019091F4012817390790F700
:100240003093F4012093F301C90101969093E801E2
:100250008093E7014FBF0895883018F4880F880F06
:10026000880F8830A1F0803249F06130B1F087E02A
:100270008093000181E0809301010895623089F04C
:1002800087E08093000182E080930101089583E07C
:10029000809300011092010108956093000184E0B1
:1002A000EACF82E28093000180E2E5CF4F925F9235
:1002B0006F927F928F929F92AF92BF92CF92DF9276
:1002C000EF92FF92CF93DF93C82FD0E0FE01EE0FA5
:1002D000FF1FEE0FFF1FE257FE4F86A897A8A0ACA6
:1002E000B1AC60E072E18AE790E0A50194010E9460
:1002F0002E1769017A010E94DE152B013C01C50110
:10030000B4010E94DE159B01AC01C301B2010E9441
:100310003D1520E030E040E052E40E94AD1620E0C0
:1003200030E040E05FE30E94BA140E94AF154B0139
:100330005C01E114F10451F480E8C816D104E10431
:10034000F10408F066C02FE730E002C02EEF3FEF67
:10035000CE010024969587950794969587950794E6
:10036000982F802DFC01EF53FC4F8F5F9B4F219303
:100370003193E817F907D9F781149104A104B10466
:10038000C9F1C501B4010E94DE152B013C01C12C4D
:10039000D12C7601CC0FDD1FC295D295D07FDC2702
:1003A000C07FDC27C701B6010E94DE1520E030E0E7
:1003B00040E052E40E94AD16A30192010E943D1557
:1003C0000E9426150E94AF15FE01E60FF11DEE0FEB
:1003D000FF1FEF53FC4F80819181019691838083B1
:1003E0008FEFC81AD80AE80AF80A8C149D04AE04E4
:1003F000BF04C1F6DF91CF91FF90EF90DF90CF90D7
:10040000BF90AF909F908F907F906F905F904F9034
:10041000089581E0C81AD108E108F108960198CF43
:100420000F931F93CF93DF93CDB7DEB729970FB606
:10043000F894DEBF0FBECDBF8E010F5F1F4F89E066
:10044000F80111928A95E9F740E050E068E0C801B0
:100450000E94411148E050E063E071E0C8010E9451
:100460007017892B61F580914104833040F5882312
:1004700091F18091C003813210F58091E10190915A
:10048000E201C2978F379440D0F48091E3019091BC
:10049000E401C2978F37944090F48091ED019091E0
:1004A000EE01892B61F08091EF019091F001892B91
:1004B00031F09091D701915081E0933108F080E0C4
:1004C00029960FB6F894DEBF0FBECDBFDF91CF9156
:1004D0001F910F9108958091C003813170F2EFCF89
:1004E00089E090E00E94161191E0811101C090E036
:1004F0009093BE038AE090E00E94161191E0811172
:1005000001C090E09093BF038BE090E00E94161131
:100510008093410488E090E00E9416118093C0030C
:100520008BE290E00E94161191E0811190E090938F
:100530007E0181E09091C003983008F080E08093C4
:1005400080018AE290E00E94161191E0811190E012
:1005500090937F019091C003983010F08111C5C035
:100560001092810141E064E273E080E090E00E943B
:100570005C13609141048091C0030E942C010E9491
:100580001002811103C081E08093830180E00E940A
:10059000560181E00E9456014091ED015091EE011B
:1005A000A5EFB1E0E5EBF2E020E030E00BC0129601
:1005B0008C91129790E00196280F391F1396EA1735
:1005C000FB0731F08D919C9111974817590778F3EB
:1005D0003093BB032093BA034091EF015091F00197
:1005E00020E030E00AC0828190E00196280F391F98
:1005F000339683E0E537F80729F080819181481729
:10060000590788F33093BD032093BC03BF9AC79862
:100610008A98929A309A389AD798DF9AD498DC9A26
:10062000D698DE9AD598DD9AD19AD998D09AD8984A
:100630008E9A969AB89AC09A8C9A9498329A3A98C6
:100640008B9A93988F9A9798E0918001F0E0E05010
:10065000FF4F808180FF2EC0959A8D9AC49ABC9AD4
:1006600081FF2EC0DB9AD39AC39ABB9A282F24709D
:1006700082FF2EC0DA9A982F907285FD2EC0D29AF2
:10068000222371F1C29A992371F1BA988FE99FE000
:100690000197F1F700C00000D99AD89A89B78C7FEA
:1006A00089BF13BE0E946F1260E875E280E090E09F
:1006B0000C94FA1195988D9AC498BC9A81FDD2CF6A
:1006C000DB98D39AC398BB9A282F247082FDD2CF8F
:1006D000DA98982F907285FFD2CFD2982111D2CF7D
:1006E000C2989111D2CFBA9AD1CF81E08093810183
:1006F00048E039CFCF93DF93CEE8D1E06EA57FA558
:1007000088A999A94EE050E00E949C116AA97BA992
:100710008CA99DA942E150E00E949C116EA97FA97D
:1007200088AD99AD46E150E00E949C116AAD7BAD69
:100730008CAD9DAD4AE150E00E949C116091CE01CC
:100740007091CF018091D0019091D1014EE150E0A4
:100750000E949C116091D2017091D3018091D401CB
:100760009091D50142E250E00E949C11CEEBD3E083
:1007700069E070E088810E9486116AE070E08981FA
:100780000E9486116BE070E0809141040E94861106
:1007900068E070E08091C0030E9486116CE070E018
:1007A0008091ED010E9486116DE070E08091EF0173
:1007B0000E94861166E270E08091E1019091E20171
:1007C0000E948B1168E270E08091E3019091E40156
:1007D0000E948B1180917F01C1E06AE270E08C275A
:1007E0000E94861180917E016BE270E08C270E944E
:1007F00086116CE270E08091DF019091E0010E942F
:100800008B116EE270E08091D7010E94861144E660
:1008100050E060E485EF91E00E94D71144E251E09E
:1008200060E485EB92E0DF91CF910C94D71138987A
:10083000000000000000000080917E01882321F06C
:10084000829B02C082E00895389A000000000000F8
:10085000000080B382FB992790F981E089270895F1
:10086000829B14C038988AE000008150E9F73098E4
:1008700088EC00008150E9F7829B04C082E0309A46
:10088000389A089581E0309A389A089580E0309A35
:10089000389A0895882389F0C09881E08093AD014B
:1008A00010927D0089B7837089BF1FBC88E18EBD1F
:1008B00010928B0080938A000895969881E080932F
:1008C000AC01EECF809196019091970129B7277FD7
:1008D00029BF209184003091850049B7486049BF05
:1008E0004091E9015091EA01782F692F841795070B
:1008F00010F4742F652FE091B001E1113AC0241774
:100900003507B8F549B7477F49BF9093E601809313
:10091000E50130938500209384007093F10160938A
:10092000F2019091BE038091AA01981729F1939A40
:10093000EE23D9F081E090E099BD88BD8091F70168
:1009400080937C0110927A0112BE1DBC1CBC809168
:10095000C1039091C20395BD84BD8EB5897F8EBDC4
:100960008EB581608EBD1092B00189B7886089BF55
:100970000895272F362FC6CF9398DACF809198010C
:100980009091990120917D002F7D20937D002091F1
:1009900086003091870040917D00406240937D0049
:1009A0004091EB015091EC01782F692F8417950746
:1009B00010F4742F652FE091B101E11145C02417A7
:1009C000350708F041C040917D004F7D40937D0088
:1009D0009093E8018093E70130938700209386008D
:1009E0007093F3016093F4019091BF038091AB0188
:1009F000981769F1979AEE2309F181E090E09BBD89
:100A00008ABD8091B70280937D0110927B0111BE57
:100A10001092890010928800809101049091020444
:100A200090938100809380008EB5897F80938A00A7
:100A30008EB5816080938A001092B10180917D0013
:100A4000806280937D000895272F362FBCCF979822
:100A5000D2CF3F924F925F926F927F928F929F92EE
:100A6000AF92BF92CF92DF92EF92FF92CF93DF933C
:100A7000E82FF0E0DF01AA0FBB1FED01C654DC4FE9
:100A8000E880F980EF01C257DE4F9CA1992329F03D
:100A9000A701440F551FE40EF51E9A8D19160CF090
:100AA00095C03A8C9C8D9F01220F331F220F331F5C
:100AB000E901C257DE4F4A895B896C897D89A32C85
:100AC000B12C2501440C551C052C000C6608770838
:100AD000441555056605770530F44A8A5B8A6C8AA9
:100AE0007D8AB301A201AE9C6001AF9CD00CBE9C7C
:100AF000D00C11244A015B01B694A7949794879473
:100B0000A351BE4F0D90BC91A02DC8E03C1609F436
:100B100059C0E12CF12C8C149D04AE04BF0410F4D8
:100B2000750164014C195D096E097F09E901C2571D
:100B3000DE4FC880D980EA80FB80992339F0709518
:100B40006095509541955F4F6F4F7F4FE901CC57AE
:100B5000DE4F4C0D5D1D6E1D7F1D488359836A83DA
:100B60007B83EE0FFF1FEA56FE4FB183A08395B340
:100B7000811114C09B7F95BBA89ADF91CF91FF9004
:100B8000EF90DF90CF90BF90AF909F908F907F902D
:100B90006F905F904F903F900C946204977F95BB4D
:100BA000A99ADF91CF91FF90EF90DF90CF90BF9007
:100BB000AF909F908F907F906F905F904F903F90FD
:100BC0000C94BE04487FC8EF8C22A3CF9A8D392E97
:100BD000319468CF811107C08091B001811102C0AA
:100BE0000C94CC00089589B7877F89BF8EB5887F24
:100BF0008EBD1092AE0181E08093B00110929E01F3
:100C000010928C01A8980895811107C08091B101BC
:100C1000811102C00C94FC00089580917D008F7DAD
:100C200080937D0080918A00887F80938A00109253
:100C3000AF0181E08093B10110929F0110928D016C
:100C4000A9980895CF92DF92EF92FF920F931F938E
:100C5000CF93DF93C82F8B010E94B614D82F8C2F0F
:100C60000C2E000C990BAA0BBB0BFC01E554F109EF
:100C7000EF32F10500F12091830121116CC120E0D8
:100C800030E0A9016C2FC8010E946B13CA3489F4AB
:100C90008091830181110DC08D2F90E0FC01E457FC
:100CA000FE4F21E02083FC01E257FE4F808980FF48
:100CB00020A3D1E015C0E85CFF4F0C945017ED2F36
:100CC000F0E0EE0FFF1FEE0FFF1FE253FE4F2081FB
:100CD000318142815381D1E06C2FC8010E946B1396
:100CE0008D2FDF91CF911F910F91FF90EF90DF90AB
:100CF000CF900895FFB6F894C8010E948C14ED2F90
:100D0000F0E0EE0FFF1FEE0FFF1FE257FE4F608374
:100D1000718382839383FFBED1E020E030E0A9019C
:100D2000DBCF80918301882309F422C1D1E020E048
:100D300030E0A901C0E0D0CF2D2F30E0D901A2577B
:100D4000BE4FF8018081805350968C93509781E07C
:100D50009181903309F40AC15C968C93F901E457B0
:100D6000FE4F1082D1E020E030E0A901B5CFC801EC
:100D70000E948C14ED2FF0E0DF01AA0FBB1FAA0F19
:100D8000BB1FA257BE4F52966D937D938D939C933C
:100D90005597E457FE4F1082D1E020E030E0A901E2
:100DA0009BCFC8010E948C14ED2FF0E040ECD49F43
:100DB000D0011124AE54BD4FCD90DC90E12CF12C2C
:100DC000DF01AA0FBB1FAA56BE4F462F572FBC01EB
:100DD0004C155D056E057F0508F4B4C04D935C931A
:100DE000E457FE4F8081823009F4DEC01082D1E0EA
:100DF00020E030E0A90170CF80E0DD2309F4A8C035
:100E00000E940406ED2FF0E0E457FE4F1082D1E07F
:100E100020E030E0A90160CF81E0D11189C00E94BB
:100E2000EA050E94C800D1E020E030E0A90154CFDB
:100E3000D8018C918053809383018111A1C0D0E0AF
:100E400020E030E0A90148CFED2FF0E0EE0FFF1FCA
:100E5000EE0FFF1FE257FE4F26A537A540A951A967
:100E6000D1E03ACFED2FF0E0DF01AA0FBB1FAA0FB0
:100E7000BB1FA257BE4FD6962D913D914D915C91CF
:100E8000D99780918301811151C0EE0FFF1FEF515F
:100E9000FE4F0190F081E02DEE0FFF1FDF01119654
:100EA0000E9465179F0140E050E00E942E17D1E09C
:100EB00013CFED2FF0E0EE0FFF1FEE0FFF1FE257F5
:100EC000FE4F26A137A140A551A5D1E005CFED2FBA
:100ED000F0E0E257FE4F26AD30E040E050E0D1E0D8
:100EE000FBCE8FB7F894ED2FF0E0EE0FFF1FEE0F63
:100EF000FF1FE257FE4F20813181428153818FBF16
:100F0000D1E0EACEED2FF0E0E257FE4F848D811163
:100F10001CC020E030E082A18111316080A18111EC
:100F20002061868D8111216040E050E0D1E0D4CE77
:100F30000E940406C09A1092AD01D1E020E030E09A
:100F4000A901CACEB701A60149CF20E032E0E3CF24
:100F50000E94EA0557CFFC01E154F109EA33F1059B
:100F600008F08DCEE959FF4F0C94501780E0F4CE75
:100F70008D2F0E944A04D1E020E030E0A901ACCEE0
:100F800081E00E94EA050E94C80081E00E940406F8
:100F9000C09A1092AD0110928C0110928D01D1E097
:100FA00020E030E0A90198CED11170C10E94620406
:100FB000D1E020E030E0A9018FCEED2FF0E0EE0F80
:100FC000FF1FE351FE4F2081318140E050E0D1E02E
:100FD00083CEED2FF0E0DF01A658BE4F6C91262F97
:100FE00030E0C901880F991F820F931F40EC4E9F7C
:100FF00090014F9F300D1124820F931F82579E4FF7
:10100000FC01E959FF4FD081718132962D2F372F86
:10101000408150E081E0860F803408F03EC18C931F
:10102000D1E05ACEDD2309F471C12091DF01309166
:10103000E00140E050E0D1E04FCEDD2309F430C1C3
:1010400090917F01292F30E040E050E08091C00373
:10105000883008F46DC181E0892781708093810117
:10106000D1E03ACEC8010E948C14ED2FF0E0EE0FD3
:10107000FF1FEE0FFF1FE253FE4F608371838283D9
:101080009383D1E020E030E0A90126CEC801DD2322
:1010900009F420C10E948C1461157105B1E08B0721
:1010A000910508F043CE7093E0016093DF01D1E039
:1010B00020E030E0A90110CEC8010E947D14ED2F80
:1010C000F0E0EE0FFF1FE351FE4F90E0918380832D
:1010D000D1E020E030E0A901FFCDC801DD2309F413
:1010E0001CC10E947D148093C003883008F42AC17B
:1010F00090917F0181E08927817080938101D1E007
:1011000020E030E0A901E8CDED2FF0E0E254FC4F03
:1011100081E0D8019C91903309F408C18083D1E02B
:1011200020E030E0A901D8CDC8010E948C14ED2F39
:10113000F0E0EE0FFF1FEE0FFF1FE257FE4F66AB12
:1011400077AB80AF91AFD1E020E030E0A901C4CD12
:10115000DD2309F4D4C02091C00330E040E050E02A
:10116000D1E0BACDED2FF0E0E254FC4F208130E029
:1011700040E050E0D1E0B0CDED2FF0E0EE0FFF1FEA
:10118000EF51FE4F20813181CFCEC8010E948C14D7
:10119000ED2FF0E0DF01A658BE4F9C91292F30E0E3
:1011A000A901440F551F420F531FD0ECDE9F900141
:1011B000DF9F300D1124240F351F22573E4FF901B8
:1011C000E959FF4F718360833296808381E0890FF4
:1011D000803408F079C08C93D1E020E030E0A901A0
:1011E0007BCD21FF85C020FFA6C040E050E068E035
:1011F00083E091E00E94B511D1E020E030E0A90148
:101200006BCDC8010E947D14ED2FF0E0E658FE4F33
:101210008083803408F08ACDD1E020E030E0A9015D
:101220005BCDC801DD2309F442C00E947D1491E02A
:10123000811101C090E090937F01D1E020E030E087
:10124000A9014ACDC8010E948C14ED2FF0E0EE0FE9
:10125000FF1FEF51FE4F71836083D1E020E030E04B
:10126000A9013ACDC8010E948C14ED2FF0E0EE0FD9
:10127000FF1FEE0FFF1FE257FE4F66A777A780AB59
:1012800091ABD1E020E030E0A90126CD0E94BE0460
:10129000D1E020E030E0A9011FCD1C92D1E01CCDAF
:1012A00020917E0130E040E050E0D1E015CD0E9479
:1012B0007D1491E0811101C090E090937E01D1E016
:1012C00020E030E0A90108CD1C92D1E020E030E020
:1012D000A90102CD0E947D149FEF980F933108F071
:1012E00025CD8093D701D1E020E030E0A901F4CCF6
:1012F00020FF92CF0E94100281118ECF17CD209136
:10130000410430E040E050E0D1E0E6CC2091D7014C
:1013100030E040E050E0D1E0DFCC0E947D148093CB
:101320004104D1E020E030E0A901D6CC80E0F6CE47
:1013300080E090E092CE0E947A03D1E020E030E09D
:10134000A901CACC80E090E0D7CECF93DF93CDB790
:10135000DEB72F970FB6F894DEBF0FBECDBF7894DF
:101360000E94700280918201BB24BA94DD24DA9439
:10137000212C1F86F12CC12C00E010E0AA24A3949C
:1013800088248A9492E0392E412C512C20E8622E38
:10139000712C38E1932E0F5F1F4F8111EFC00115A3
:1013A000110509F453C090910201911159C0011126
:1013B000F2CFCC9B32C1CF9B0BC2EE24EA9480E0EB
:1013C0009FB7F89460918400709185009FBF209131
:1013D000B001211162C14091AA0150E0E82FF0E074
:1013E0004E175F0709F459C14091E9015091EA0194
:1013F0006417750708F051C10E94CC00CD9B7AC1DB
:10140000CE9BE1C1EE24EA9480E09FB7F89440912E
:101410008600509187009FBF9091B101911199C1B1
:101420002091AB0130E0682F70E02617370709F4F0
:10143000C0C12091EB013091EC014217530708F035
:10144000B8C10E94FC0080918201A5CF0E941704C0
:10145000E82E8111D4C180910201882309F496C03D
:101460008EEFF81609F4E2C00E94BB128823E9F05F
:1014700088B3805888BB0E94C712C82E6C2DCE013D
:1014800001960E943B14F82E882379F00CF480C159
:10149000BE016F5F7F4F0E942206E82ECE010196AB
:1014A0000E940E13EE2009F42BC20115110509F05C
:1014B000C1C0C7988091820181114FC0CC9996C15B
:1014C000EE24E394ED1449F08091AA01811105C046
:1014D00080918C01823009F486C2CD9B84C1D9B23F
:1014E000D6FADD24D0F8D1948091AF0181115FC18B
:1014F000DB1409F45CC181E0D81280E09091B10165
:10150000911111C02091AB01281769F00E94FC00D5
:1015100010928D0180918C01813009F4E1C280919B
:101520008201DE2C38CF2FEFD21609F43CC1209176
:10153000DD013091DE013093990120939801809371
:10154000AB0181E0D81609F431C2A092A9010E9432
:10155000BE04BD2CDE2C2224239480918C0181308A
:1015600009F474C080918D01813009F4CBC0809161
:1015700082010F5F1F4F882309F411CF9091020160
:1015800091116ECF0115110509F011CF88B3805864
:1015900088BB0E943004E82E8091D601E81609F439
:1015A00008CF8E2D0E945B0F80918101882321F04E
:1015B00092E0E91609F42BC2809100019091AA01F2
:1015C000992309F4D3C18092A8011092B20190919D
:1015D000AB01992309F4C7C18092A9011092B3010C
:1015E000382F317080FF8AC1959A282F227081FF91
:1015F00083C1DB9A982F947082FF7CC1DA9A3323DF
:1016000009F473C1C49A222309F472C1C39A9923BD
:1016100009F469C1C29ACC99CECE81E0D81609F4FA
:10162000EDCE8091DC01EE24E394CACE88B38058DD
:1016300088BB24CF8091820181118FCF002309F4D0
:101640003DCF80918C01813009F08CCF8091B00129
:10165000882309F487CF80919E019091810199237D
:1016600009F45CC19FEF980F923008F4E9C19091A2
:1016700001012091CC013091AA0131118FC1209339
:10168000A801A092B20190FFACC1959A91FFA7C1A9
:10169000DB9A92FFA2C1DA9A49C19FEFE91609F4D9
:1016A000A9C0EE2DEE0FFF0BE852FE4F4081518195
:1016B0005093970140939601982F91709093AA01AF
:1016C0009091B201992309F468C09091CC018823CC
:1016D00009F466C091959093A8018FEFE81205C0B8
:1016E0008091D601823009F444C10E946204DE2C4C
:1016F000CD9986CE91E0B91609F439CFEE24E39462
:1017000081E083CE9091B101992309F430CF90917B
:101710009F0120918101222309F40FC12FEF290F8E
:10172000223008F498C1209101018091CD013091BF
:10173000AB01311137C18093A901A092B30120FF01
:101740004AC1C49A21FF45C1C39A22FF40C1C29A2F
:10175000FCC09FEFE91609F401C12091DD01309131
:10176000DE0130939901209398018093AB01909111
:10177000B3019923B1F19091CD01882379F191952D
:101780009093A9010E94BE0480918201BE2C03CED9
:10179000CE0101960E940E1388CE91E081119ACF5E
:1017A0009093A8019ACF211080C1BB24BA94DE2C5B
:1017B000D4CE2FEFE212D1CF0E94FC0080918201A3
:1017C000BB24BA94E8CDBB2009F4D1CEE12C1CCEC9
:1017D000DD2009F413CEE12C80E0F2CD9093A90135
:1017E000D1CF91E0CACFDD24D3947ECEE9B2EE0C06
:1017F000EE0868CE4091E1015091E20159CF81E0BD
:101800000E94EA0581E00E9404068FB7F894409296
:101810008E0150928F0160929001709291014092DE
:1018200092015092930160929401709295018FBF42
:101830000E944712A092820122E0E21609F43CC104
:1018400010920201389AE0918001F0E0E050FF4FE1
:10185000808180FF9AC0959AC49A81FF93C0DB9AD9
:10186000C39A82FF8CC0DA9AC29A80E00E945B0F12
:101870001092B2011092B3019698A092AC0110920E
:101880007D0089B7837089BF1FBC9EBC10928B00FE
:1018900090928A00C098A092AD0110927D0089B705
:1018A000837089BF1FBC9EBC10928B0090928A00EF
:1018B000A0929E01A0929F011092AA01A092A8015D
:1018C0001092AB01A092A8018091E1019091E201F8
:1018D0009093970180939601A0928C01BB24BA94B7
:1018E000DD24DA94B8CDC29864CDC49821118ECE8F
:1018F000C3988DCEDA9883CEDB987CCE959875CE42
:101900000E94FE129BE088E10FB6F894A89581BD75
:101910000FBE91BD80E090E00E9493179091AA01C4
:10192000911139C0A092A8011092B20180FF49C064
:101930000E94620430928C0115CE2091AB012111DE
:1019400027C08093A9011092B30190FF32C00E947A
:10195000BE0430928D01809182011DCD8091820163
:10196000BB24BA9418CDA092A90138CEA092A801A8
:101970002CCE222309F47AC0DD24DA943FCDDA9804
:10198000C29873CFDB98C3986CCF9598C49865CFF5
:101990008092A901D8CF8092A801C6CF219520932B
:1019A000A8016FCE81958093A901C7CE8092A9012D
:1019B000CECD81E00E94290510928D018091820197
:1019C000EACC80E00E94290510928C01CBCDC29810
:1019D000BCCFC398BACEC498B5CEDA98A7CFDB985F
:1019E00058CE959853CE9FEFE91609F444C0EE2DDA
:1019F000EE0FFF0BE852FE4F80819181909397018B
:101A0000809396010E94620421E02F8766CD809129
:101A100001019091CC012091AA0121113CC0909329
:101A2000A801A092B2019091CD012091AB01222397
:101A300009F453C091959093A901A092B301D0CD20
:101A4000909100012091AA0121112CC0A092A8011F
:101A50001092B20118CE209100013091AB013111EA
:101A60001EC08093A9011092B30169CE0E94CC00E0
:101A7000DD24DA94C3CC8F85882309F42ECD8091A0
:101A8000E1019091E20190939701809396010E9469
:101A900062041F8622CD91959093A801C2CF8092B7
:101AA000A901E1CF8092A801D3CF9923D9F0BB241B
:101AB000BA94DE2C212C51CDA09202010E94571223
:101AC00020E030E0A90160E0CE010C960E946B138B
:101AD000CE010C960E940E13BECC9093A901ADCFFF
:101AE000DE2CB4CD0E94FC00BB24BA94DE2C212C49
:101AF00034CD1F920F920FB60F9211240F931F93A4
:101B00002F933F934F935F936F937F938F939F9305
:101B1000EF93FF938AB59BB5019709F05EC081B73B
:101B2000E82FEE73F0E0EF5FFB4F208131813093BF
:101B30008100209380008F5F81BF8091860090910B
:101B400087009BBD8ABD2A9B5BC03A980091920199
:101B50001091930120919401309195014091A90138
:101B6000042E000C550B660B770B400F511F621FA4
:101B7000731F40939201509393016093940170936B
:101B80009501A99B10C0AB990EC0009188011091DE
:101B9000890120918A0130918B014017510762071A
:101BA000730709F483C02091F3013091F4012817E1
:101BB0003907A8F4A99B03C01092AF01A99881E04E
:101BC0008093B10180917D008F7D80937D00809115
:101BD0008A00887F80938A0002C09BBD8ABDFF91E6
:101BE000EF919F918F917F916F915F914F913F9175
:101BF0002F911F910F910F900FBE0F901F9018956E
:101C00003A9A20917D01211123C02091E701309162
:101C1000E8012817390700F580917B018F3398F48C
:101C20008F5F80937B0190E0AC01440F551F840FC0
:101C3000951F82579E4FFC01E95DFE4F4081518107
:101C40002417350718F13093870020938600C7CFFB
:101C5000215020937D01C3CF8217930728F58091EF
:101C60007B01882381F3815080937B0190E0AC015C
:101C7000440F551F840F951F82579E4FFC01E95D4D
:101C8000FE4F4081518142175307E8F62091B3017E
:101C90002223D9F032968081982F990F890F8E5F79
:101CA00080937D019A01CFCF9C01CDCFAB9A20913B
:101CB000F3013091F401A9014F5F5F4F5093E801A8
:101CC0004093E70110927D0172CFFC01E75DFE4F6A
:101CD000808180937D019A01B6CF1F920F920FB63B
:101CE0000F9211240F931F932F933F934F935F9362
:101CF0006F937F938F939F93EF93FF9388B599B5DD
:101D0000019709F058C082B7E82FEE73F0E0EF5367
:101D1000FC4F2081318135BD24BD8F5F82BF809112
:101D200084009091850099BD88BD849B57C094988C
:101D300000918E0110918F012091900130919101BD
:101D40004091A801042E000C550B660B770B400F39
:101D5000511F621F731F40938E0150938F01609338
:101D6000900170939101A89B10C0AA990EC0009198
:101D700084011091850120918601309187014017DF
:101D800051076207730709F47FC02091F101309178
:101D9000F2012817390788F4A89B03C01092AE01FE
:101DA000A89881E08093B00189B7877F89BF8EB5FD
:101DB000887F8EBD02C099BD88BDFF91EF919F9134
:101DC0008F917F916F915F914F913F912F911F91D3
:101DD0000F910F900FBE0F901F901895949A20911D
:101DE0007C01211123C02091E5013091E6012817E3
:101DF000390700F580917A018F3398F48F5F8093D3
:101E00007A0190E0AC01440F551F840F951F825753
:101E10009E4FFC01E959FF4F40815181241735073E
:101E200018F13093850020938400C7CF2150209370
:101E30007C01C3CF8217930728F580917A0188230C
:101E400081F3815080937A0190E0AC01440F551FDB
:101E5000840F951F82579E4FFC01E959FF4F408127
:101E6000518142175307E8F62091B2012223D9F09D
:101E700032968081982F990F890F8E5F80937C0115
:101E80009A01CFCF9C01CDCFAA9A2091F101309138
:101E9000F201A9014F5F5F4F5093E6014093E501C6
:101EA00010927C0176CFFC01E759FF4F808180932F
:101EB0007C019A01B6CF482F8093D6018230C1F1C0
:101EC000813009F44DC08091E1019091E20144E13B
:101ED000489FF001499FF00D11242091D70130E077
:101EE000B9016C5E7F4FCF010E941A177093D90120
:101EF0006093D80164E170E0621B730BCF010E9414
:101F00001A177093DB016093DA011092DC01609183
:101F1000E3017091E401469FC001479F900D112499
:101F2000B9010E941A177093DE016093DD010895D4
:101F30008091ED019091EE019093D9018093D801A9
:101F40009093DB018093DA0181E08093DC01809142
:101F5000EF019091F0019093DE018093DD010895EF
:101F6000E091E101F091E2019F01ABEABAEA0E943F
:101F70005617969587959093D9018093D801F09341
:101F8000DB01E093DA014093DC018091E301909161
:101F9000E401969587959093DE018093DD01089585
:101FA0002F923F924F925F926F927F928F929F9269
:101FB000AF92BF92CF92DF92EF92FF920F931F9357
:101FC000CF93DF9300D000D0CDB7DEB76B017C019B
:101FD000342E8EE090E00E9429116093BC01709332
:101FE000BD018093BE019093BF0182E190E00E9409
:101FF00029116093C0017093C1018093C201909335
:10200000C30186E190E00E9429116093C40170939E
:10201000C5018093C6019093C7018AE190E00E94B8
:1020200029116093C8017093C9018093CA019093EC
:10203000CB018EE190E00E9429116093CE01709354
:10204000CF018093D0019093D10182E290E00E9471
:1020500029116093D2017093D3018093D40190939E
:10206000D50186E290E00E9418119093E2018093DE
:10207000E10188E290E00E9418119093E4018093BE
:10208000E3018CE090E00E94161190E09093EE0145
:102090008093ED018DE090E00E94161190E0909306
:1020A000F0018093EF018EE290E00E941611809380
:1020B000D7018CE290E00E9418119093E001809388
:1020C000DF0144E650E060E485EF91E00E94631197
:1020D00044E251E060E485EB92E00E946311EEE897
:1020E000F1E061EE71E045EF51E009EE11E081EFC2
:1020F000682E81E0782E95EE492E91E0592EFA83D4
:10210000E983FC83EB8320E030E022242394812CBC
:10211000912CA0E8AA2EB12C148EC90182579E4F93
:10212000DC015A962C9214A222A210A2168EAB8128
:10213000BC818D929D92AD92BC921397DB018D91E3
:102140009D91BD01A981BA8119969C938E93189790
:10215000108AAB81BC8152961D921D921D921C92D9
:1021600055979696CD92DD92ED92FC92999736AE68
:10217000DA018D919C91D8018D939D938D01D301AE
:102180008D939D933D010196D2018D939D932D01D9
:10219000A981BA811D969C938E931C972F5F3F4F08
:1021A00031968B819C8104969C838B831296BA8393
:1021B000A98340545F4F2230310509F0ADCF80E054
:1021C0000F900F900F900F90DF91CF911F910F9173
:1021D000FF90EF90DF90CF90BF90AF909F908F9047
:1021E0007F906F905F904F903F902F900C945B0F7B
:1021F000EEE0F1E02AE690E005C09F5F9532A1F0A5
:10220000208133968213F9CF892F90E0FC01EE0FE5
:10221000FF1F8E0F9F1FFC01E55FFE4F662311F02D
:1022200081810895828108958FEF08950C947E171F
:102230001F93CF93DF93EC010E947E17182FCE01DE
:1022400001960E947E17982F812FDF91CF911F91C9
:102250000895CF92DF92EF92FF92CF93DF93EC013C
:102260000E9418116C01CE0102960E9418117C0187
:10227000C701B601DF91CF91FF90EF90DF90CF9033
:102280000895EF92FF920F931F93CF93DF936623EE
:1022900099F0EA018C0161507A01E60EF11C8FEF92
:1022A000E81AF80ACE010E947E17F80181938F0187
:1022B0002196CE15DF05B1F7DF91CF911F910F91D8
:1022C000FF90EF900895EF92FF920F931F93CF939B
:1022D000DF93E62E8A01662391F0EC01F12CC80110
:1022E0000E94181199838883C80102960E941811D0
:1022F0008A830D5F1F4FF3942396EF10F0CFDF9189
:10230000CF911F910F91FF90EF900895282FCB014F
:10231000622F0C9486171F93CF93DF93192FEB0135
:10232000682FCE010E948617612FCE010196DF91A2
:10233000CF911F910C948617CF92DF92EF92FF926C
:10234000CF93DF936B017C01EA01BA01C6010E94C1
:102350008B11BE016E5F7F4FC701DF91CF91FF9060
:10236000EF90DF90CF900C948B11EF92FF920F9330
:102370001F93CF93DF93662399F0EC016150E62E13
:10238000F12C8FEFE81AF80AEC0EFD1E8A01699114
:10239000C8010E9486170F5F1F4FCE15DF05B9F7E2
:1023A000DF91CF911F910F91FF90EF900895EF92E1
:1023B000FF920F931F93CF93DF93E62E8A0166233C
:1023C00091F0EC01F12CB801888199810E948B1168
:1023D0006A81C80102960E9486170D5F1F4FF39411
:1023E0002396EF10F0CFDF91CF911F910F91FF90C7
:1023F000EF900895CF92DF92EF92FF926B017C01F4
:1024000082E08BB960E079E08DE390E0A70196016E
:102410000E942E17DA01C9010197A109B109AC0187
:10242000BD017695679557954795942F852F252F54
:10243000207FB1F01BB860E874E88EE190E0A7015E
:1024400096010E942E17DA01C9010197A109B1096D
:10245000AC01BD017695679557954795942F852FCB
:102460008F7080BD99B98FB7F8941092B80310920D
:10247000B90310929603109297038FBF549A539A00
:10248000579A5598FF90EF90DF90CF900895549809
:102490005398579855988FB7F894E8E9F3E010A24D
:1024A00011A2E6E7F3E010A211A28FBF0895D59A1A
:1024B000DD9AD798DF9AD69ADE9AD49ADC9A389A1F
:1024C0008FB7F894E8E9F3E010A211A2E6E7F3E091
:1024D00010A211A28FBF81E0809375030895D59853
:1024E000DD9AD798DF9AD698DE9AD498DC9A109223
:1024F00075038FB7F894E8E9F3E010A211A2E6E7BC
:10250000F3E010A211A28FBF089598E008C0000068
:10251000DE98DD9A880FCF990AC0915059F0DD9866
:1025200087FFF5CFDE9ADD9A880FCF9BF6CF8F5FBE
:102530009150A9F708959091970380919603981769
:1025400009F082990895DC9881E80E948512829BA7
:10255000FECF80E80E94851287FD0BC0E0919603B4
:10256000F0E0EA58FC4F8083809196038F5F809360
:102570009603DC9A08958091750381110E949B1245
:102580008091960390919703891B8F710895909184
:10259000970380919603981751F0E92FF0E0EA58DD
:1025A000FC4F80819F5F9F719093970308958FEFF9
:1025B0000895539B12C09091B8039F5F9F71209123
:1025C000B9039217A9F0E091B803F0E0E856FC4F88
:1025D00080839093B803559A089590917503911153
:1025E00001C00895DC988F770E948512DC9A0895C7
:1025F000559A2091B9039217E1F3E5CF539B07C099
:102600008091B8038F5F8F719091B90389130895FA
:10261000559A9091B9038917E1F30895CF93DF9309
:10262000EC018881882331F021960E94D91289918A
:102630008111FBCFDF91CF9108952F932FB72F9367
:102640009F938F93EF93FF932CB1809196038F5FAD
:102650008F7190919703891741F0E0919603F0E014
:10266000EA58FC4F208380939603FF91EF918F915E
:102670009F912F912FBF2F9118958F938FB78F9385
:102680009F93EF93FF938091B9039091B8038913BF
:1026900002C055980AC0E82FF0E0E856FC4F908140
:1026A0008F5F8F718093B9039CB9FF91EF919F91D8
:1026B0008F918FBF8F911895109245041092470407
:1026C0002BE0E8E4F4E0DF011D922A95E9F710928F
:1026D00044040C94D00FFF920F931F93CF93DF937A
:1026E000EC01862F122F032FF42E611115C081E209
:1026F000888382E090E021E030E0FE01E20FF31FEA
:102700004DE04083FE01E80FF91F1082DF91CF9169
:102710001F910F91FF90089560E00E94F81087FDCF
:10272000E6CF9DE39883823061F08330E9F0863014
:10273000B1F1082E000C990B9C012F5F3F4F0296C0
:10274000DCCF812F82958F701F701A3008F0195FCF
:10275000105D1A838A3008F0895F805D898384E088
:1027600090E023E030E0C9CF812F912F8F708A3025
:1027700008F0895F805D8B83892F82958F708A3006
:1027800008F0895F805D8A830F700A3008F0095F66
:10279000005D098385E090E024E030E0AECF9F2D1E
:1027A00092959F708F2D8F708A3008F0895F805DC1
:1027B0008E83892F9A3008F0895F805D8D83802F0A
:1027C00082958F700F700A3008F0095F005D0C83EE
:1027D0008A3008F0895F805D8B83812F82958F70AE
:1027E0001F701A3008F0195F105D1A838A3008F0E4
:1027F000895F805D898388E090E027E030E07DCFCD
:102800000F931F93CF9320914804209346049091F7
:102810004904915390934404923028F080E0CF9182
:102820001F910F9108958B01C82F61E0822F0E94A4
:10283000F8102DEF2C0F082E000C990B622F70E072
:102840008617970759F7222399F0EAE4F4E0D801B4
:102850008CEF8C0F90E0855B9B4F21912D93E817B7
:10286000F907D9F7F801E60FF71F108281E0D7CFFB
:1028700060E070E0F7CFCF93DF93209145042223EF
:10288000A9F06A3339F1EC01E091470481E08E0F41
:1028900080934704F0E0E85BFB4F60836D3081F08C
:1028A0008B3011F180E0DF91CF9108956A33D1F739
:1028B0001092470481E08093450410924804F2CFBF
:1028C000BE010E940014882379F010924504809183
:1028D0004604E9CF21E2FC0120832DE0218312820E
:1028E000109245048EEFDFCF81E288838DE08983EB
:1028F0001A82109245048FEFD6CFFC0191819A3352
:102900000CF09750905380818A330CF08750829559
:10291000807F9F70892B0895FC0161816A330CF0E0
:102920006750605380818A330CF087508295807F96
:102930006F70682B73817A330CF0775070538281FB
:102940008A330CF087508295807F7F70782B958139
:102950009A330CF09750905384818A330CF087504F
:102960008295807F9F70892B90E008958091440428
:1029700008955058BB27AA270E94D1140C945B16C7
:102980000E944D1638F00E94541620F039F49F3FF3
:1029900019F426F40C944A160EF4E095E7FB0C9417
:1029A0001B16E92F0E946C1658F3BA1762077307BB
:1029B0008407950720F079F4A6F50C94A6160EF47A
:1029C000E0950B2EBA2FA02D0B01B90190010C013F
:1029D000CA01A0011124FF27591B99F0593F50F457
:1029E000503E68F11A16F040A22F232F342F4427AF
:1029F000585FF3CF469537952795A795F0405395A7
:102A0000C9F77EF41F16BA0B620B730B840BBAF076
:102A10009150A1F0FF0FBB1F661F771F881FC2F7E1
:102A20000EC0BA0F621F731F841F48F487957795F5
:102A30006795B795F7959E3F08F0B0CF9395880FAF
:102A400008F09927EE0F9795879508950E948E16A6
:102A500090F09F3748F4911116F40C94A71660E09B
:102A600070E080E89FE3089526F01B16611D711D3C
:102A7000811D0C9421160C943C160E9451150C9447
:102A80005B160E94541658F00E944D1640F029F42F
:102A90005F3F29F00C941B1651110C94A7160C944F
:102AA0004A160E946C1668F39923B1F3552391F3EB
:102AB000951B550BBB27AA2762177307840738F0AD
:102AC0009F5F5F4F220F331F441FAA1FA9F335D00A
:102AD0000E2E3AF0E0E832D091505040E695001CBE
:102AE000CAF72BD0FE2F29D0660F771F881FBB1F78
:102AF000261737074807AB07B0E809F0BB0B802D56
:102B0000BF01FF2793585F4F3AF09E3F510578F081
:102B10000C941B160C94A7165F3FE4F3983ED4F375
:102B2000869577956795B795F7959F5FC9F7880F55
:102B3000911D9695879597F90895E1E0660F771FA7
:102B4000881FBB1F621773078407BA0720F0621B38
:102B5000730B840BBA0BEE1F88F7E09508950E9463
:102B6000741688F09F5798F0B92F9927B751B0F095
:102B7000E1F0660F771F881F991F1AF0BA95C9F701
:102B800014C0B13091F00E94A616B1E008950C94E3
:102B9000A616672F782F8827B85F39F0B93FCCF396
:102BA000869577956795B395D9F73EF4909580957E
:102BB000709561957F4F8F4F9F4F0895E89409C09E
:102BC00097FB3EF490958095709561957F4F8F4F60
:102BD0009F4F9923A9F0F92F96E9BB279395F69576
:102BE000879577956795B795F111F8CFFAF4BB0FF4
:102BF00011F460FF1BC06F5F7F4F8F4F9F4F16C058
:102C0000882311F096E911C0772321F09EE8872FE1
:102C1000762F05C0662371F096E8862F70E060E09D
:102C20002AF09A95660F771F881FDAF7880F969516
:102C3000879597F9089597F99F6780E870E060E0BD
:102C40000895882371F4772321F09850872B762FED
:102C500007C0662311F499270DC09051862B70E0B0
:102C600060E02AF09A95660F771F881FDAF7880FC1
:102C70009695879597F908959F3F31F0915020F4EC
:102C8000879577956795B795880F911D9695879548
:102C900097F908959FEF80EC089500240A94161682
:102CA000170618060906089500240A94121613063A
:102CB000140605060895092E0394000C11F48823C8
:102CC00052F0BB0F40F4BF2B11F460FF04C06F5FE4
:102CD0007F4F8F4F9F4F089557FD9058440F551FBA
:102CE00059F05F3F71F04795880F97FB991F61F08E
:102CF0009F3F79F087950895121613061406551F05
:102D0000F2CF4695F1DF08C0161617061806991F70
:102D1000F1CF869571056105089408950E94741697
:102D2000A0F0BEE7B91788F4BB279F3860F41616E9
:102D3000B11D672F782F8827985FF7CF86957795F5
:102D40006795B11D93959639C8F30895E894BB270C
:102D500066277727CB0197F908950E94C0160C9437
:102D60005B160E944D1638F00E94541620F09523F1
:102D700011F00C941B160C944A1611240C94A716EF
:102D80000E946C1670F3959FC1F3950F50E0551F8C
:102D9000629FF001729FBB27F00DB11D639FAA27B0
:102DA000F00DB11DAA1F649F6627B00DA11D661FFF
:102DB000829F2227B00DA11D621F739FB00DA11D20
:102DC000621F839FA00D611D221F749F3327A00DDA
:102DD000611D231F849F600D211D822F762F6A2F76
:102DE00011249F5750409AF0F1F088234AF0EE0FDB
:102DF000FF1FBB1F661F771F881F91505040A9F708
:102E00009E3F510580F00C941B160C94A7165F3F53
:102E1000E4F3983ED4F3869577956795B795F79543
:102E2000E7959F5FC1F7FE2B880F911D96958795BB
:102E300097F90895AA1BBB1B51E107C0AA1FBB1F2E
:102E4000A617B70710F0A61BB70B881F991F5A9536
:102E5000A9F780959095BC01CD010895A1E21A2EA5
:102E6000AA1BBB1BFD010DC0AA1FBB1FEE1FFF1F2E
:102E7000A217B307E407F50720F0A21BB30BE40B7E
:102E8000F50B661F771F881F991F1A9469F76095C5
:102E90007095809590959B01AC01BD01CF0108957F
:102EA000EE0FFF1F0590F491E02D0994A29FB00151
:102EB000B39FC001A39F700D811D1124911DB29F6E
:102EC000700D811D1124911D08950E945617A59F14
:102ED000900DB49F900DA49F800D911D1124089515
:102EE000FB01DC014150504030F08D910190801980
:102EF00019F40020B9F7881B990B0895E199FECFCA
:102F00009FBB8EBBE09A99278DB30895262FE19938
:102F1000FECF9FBB8EBB2DBB0FB6F894E29AE19A11
:0A2F20000FBE01960895F894FFCF4C
:102F2A00030001417374726F4551006A000666001E
:102F3A00034906004702004A00004B000048060009
:102F4A004D0600650006610006620006670002730E
:102F5A0000064506005001004600004C00004106EC
:102F6A00004206005306006E00064E0600440200A8
:102F7A006400024301006300025A02007A0002520E
:102F8A0006007200064F0100510200710002580645
:0A2F9A000078000659020054000000
:00000001FF
