:10000000CFC00000F2C00000F0C00000EEC0000051
:10001000ECC00000EAC000000C943110E6C0000003
:10002000E4C00000E2C00000E0C00000DEC000004C
:100030000C942511DAC00000D8C00000D6C0000022
:10004000D4C00000D2C00000D0C000000C944D16F7
:10005000CCC000000C946D16C8C00000C6C00000E3
:10006000C4C00000C2C00000C0C00000BEC000008C
:10007000040BEE0ADC0ACD0A4B094B094B094B096C
:100080004B094B094B094B094B093A0A4B094B09E0
:10009000270A130AFD09A30A4B094B094B09730AE6
:1000A0005F0A4C0A4B094B094B094B094B094B0999
:1000B0004B094B09C00ABA0A4B094B094B094B09BA
:1000C0004B094B094B094B094B09C60AF8094B0967
:1000D0004B09F2094B094B094B094B094B09C8095C
:1000E0004B09BA09F907C307DA0741081208C30721
:1000F000E608DA08C3079507F00BCB0895079507C4
:10010000950795079507BF089507950795079507E4
:10011000950795079507950795079507AF08320945
:10012000950795079F087A086E08950795075B085D
:100130009507950795079507950795074209950730
:10014000F608F907A109DA07410812084B09E60881
:10015000DA084B0981078107CB08810781078107EE
:1001600081078107BF088107810781078107810710
:1001700081078107810781078107AF087D09810712
:1001800081079F087A086E08810781075B0881074D
:100190008107810781078107810770098107F608B8
:1001A00011241FBECFEFD4E0DEBFCDBF0FB6F89451
:1001B000A89581B5886181BD11BC0FBE11E0A0E09A
:1001C000B1E0E6E1F6E302C005900D92A238B10776
:1001D000D9F724E0A2E8B1E001C01D92A136B20730
:1001E000E1F70E941B0C0C94091B0ACF969A1092FF
:1001F000B701089589B7877F89BF8EB5887F8EBD87
:10020000E9E9F1E010A281E082A3808F10929701CA
:10021000A8980895EDE7F0E080818F7D8083EAE87B
:10022000F0E08081887F8083E9E9F1E011A281E03C
:1002300083A3818F10929801A9980895883018F4AB
:10024000880F880F880F613061F108F1623069F022
:100250006330B1F48830D9F1803209F04AC08AE2C3
:1002600080930001809301010895883059F1803214
:1002700099F58AE28093000188E280930101089554
:1002800087E08093000181E0809301010895883028
:1002900099F08032A9F782E08093000180930101F8
:1002A0000895883049F08032F1F485E080930001B0
:1002B00082E080930101089583E080930001109211
:1002C00001010895609300011092010108951092B8
:1002D000000110920101089587E08093000185E0FC
:1002E00080930101089584E08093000160930101EF
:1002F000089580E18093000188E2809301010895D0
:100300004F925F926F927F928F929F92AF92BF9225
:10031000CF92DF92EF92FF92CF93DF93C82FD0E07E
:10032000FE01EE0FFF1FEE0FFF1FEF52FE4F80800A
:100330009180A280B38060E072E18AE790E0A5013D
:1003400094010E949F1A69017A010E9447192B01AA
:100350003C01C501B4010E9447199B01AC01C301D6
:10036000B2010E94B31820E030E040E052E40E9465
:10037000151A20E030E040E05FE30E943C180E9444
:100380001B194B015C01E114F10451F480E8C8161B
:10039000D104E104F10408F066C02FE730E002C0A8
:1003A0002EEF3FEFCE010024969587950794969502
:1003B00087950794982F802DFC01E252FC4F825EB6
:1003C0009B4F21933193E817F907D9F781149104D2
:1003D000A104B104C9F1C501B4010E9447192B0160
:1003E0003C01C12CD12C7601CC0FDD1FC295D295DA
:1003F000D07FDC27C07FDC27C701B6010E944719E8
:1004000020E030E040E052E40E94151AA30192017E
:100410000E94B3180E94A0180E941B19FE01E60F4B
:10042000F11DEE0FFF1FE252FC4F8081918101967A
:10043000918380838FEFC81AD80AE80AF80A8C14CF
:100440009D04AE04BF04C1F6DF91CF91FF90EF9001
:10045000DF90CF90BF90AF909F908F907F906F90E4
:100460005F904F90089581E0C81AD108E108F10823
:10047000960198CF0F931F93CF9308E010E0C0E050
:10048000C8010E9457149C2F982788E027E0990FF5
:1004900008F492278A95D9F7C92F0F5F1F4F043EA2
:1004A00081E0180769F7911101C0C1E08C2FCF914D
:1004B0001F910F910895CF9387E090E00E94571409
:1004C000C82FD8DF91E0C81390E0892FCF9108950D
:1004D0001F93CF93DF9300D000D0CDB7DEB7182F96
:1004E00040E050E063E0CE0101960E947D1443E0BD
:1004F00050E068E071E0CE0101960E94E61A892B77
:1005000049F080E00F900F900F900F90DF91CF9106
:100510001F91089583E090E00E946714693373404F
:100520008105910571F7112391F180915E0484306A
:1005300040F7882339F18091DD03813210F78091F3
:10054000EF019091F001C2978F379440D0F68091DF
:10055000F1019091F201C2978F37944090F680910B
:10056000FB019091FC01892B61F28091FD0190913A
:10057000FE01892B31F29091E301915081E093319A
:1005800008F2BFCF8091DD038131C8F2BACF93DF8B
:100590008111CBCFB6CF89E090E00E94571491E053
:1005A000811101C090E09093DB038AE090E00E940B
:1005B000571491E0811101C090E09093DC038BE02F
:1005C00090E00E94571480935E0488E090E00E94BF
:1005D00057148093DD038BE290E00E94571491E062
:1005E000811190E0909386018FE290E00E94571471
:1005F00091E0811101C090E090938A0181E0909197
:10060000DD03983008F080E0809388018AE290E072
:100610000E94571491E0811190E09093870190918E
:10062000DD03983010F08111CDC01092890141E0B6
:1006300069E373E080E090E00E948C1660915E04B4
:100640008091DD03FBDD80E043DF8111C2C081E0EA
:1006500080938E0180938D01BF9A80918E018130AD
:1006600009F4FCC0C798BD98C59A8A98929ABE981A
:10067000C69A309A389AD798DF9AD498DC9AD69846
:10068000DE9AD598DD9AD19AD998D09AD8988E9A30
:10069000969AB89AC09A8C9A9498329A3A988B9A69
:1006A00093988F9A9798E0918801F0E0E050FF4F7F
:1006B0008081282F217080FF55C0959A982F9870BF
:1006C00083FD55C08D9A222309F454C0C49A911118
:1006D00055C0BC9A282F227081FF55C0DB9A982FF5
:1006E000907184FD55C0D39A222309F454C0C39A53
:1006F000911155C0BB9A282F247082FF55C0DA9AF9
:10070000982F907285FD55C0D29A222309F454C0C7
:10071000C29A911155C0BA9A8FE99FE00197F1F7FB
:1007200000C00000D99AD89A89B78C7F89BF13BEC0
:1007300080918A0181114BC0319A3998B99AC19838
:1007400016BC12BC17BC17BC87B5806687BD87B5C1
:10075000846087BD0E94A61560E875E280E090E0A5
:100760000C942B159598982F987083FFABCF8D988C
:100770002111ACCFC498992309F4ABCFBC98282F92
:10078000227081FDABCFDB98982F907184FFABCFA7
:10079000D3982111ACCFC398992309F4ABCFBB9860
:1007A000282F247082FDABCFDA98982F907285FFA6
:1007B000ABCFD2982111ACCFC298992309F4ABCF1B
:1007C000BA98AACF81E08093890148E031CF31986F
:1007D000B4CF80E095DD81E093DD4091FB01509145
:1007E000FC01A3E0B2E0E3ECF2E020E030E00CC07A
:1007F00012968C91129790E00196280F391F13964C
:1008000082E0A33CB80731F08D919C911197481775
:10081000590770F33093D8032093D7034091FD011B
:100820005091FE0120E030E00AC0828190E0019604
:10083000280F391F339693E0E338F90729F08081B8
:1008400091814817590788F33093DA032093D9032D
:10085000BF9A80918E01813009F004CFC79A03CFEF
:1008600040E050E063E088E091E00E94E91443E05A
:1008700050E069E373E080E090E00C94D214CF93F1
:10088000DF93C9E9D1E068A979A98AA99BA94EE0BB
:1008900050E00E94D2146CA97DA98EA99FA942E1C3
:1008A00050E00E94D21468AD79AD8AAD9BAD46E1AF
:1008B00050E00E94D2146CAD7DAD8EAD9FAD4AE18B
:1008C00050E00E94D2146091D9017091DA018091B8
:1008D000DB019091DC014EE150E00E94D214609166
:1008E000DD017091DE018091DF019091E00142E233
:1008F00050E00E94D214CBEDD3E069E070E0888133
:100900000E94BF146AE070E089810E94BF146BE00E
:1009100070E080915E040E94BF1468E070E08091F6
:10092000DD030E94BF146CE070E08091FB010E9427
:10093000BF146DE070E08091FD010E94BF1466E27B
:1009400070E08091EF019091F0010E94C31468E281
:1009500070E08091F1019091F2010E94C3148091A6
:100960008701C1E06AE270E08C270E94BF14809189
:1009700086016BE270E08C270E94BF146CE270E08D
:100980008091ED019091EE010E94C3146EE270E03F
:100990008091E3010E94BF146FE270E080918A01B0
:1009A0000E94BF1444E650E060E483E092E00E94BD
:1009B0000A1544E251E060E483EC92E00E940A15DB
:1009C00059DD67E070E0DF91CF910C94BF14389847
:1009D000000000000000000080918601882321F0C3
:1009E000829B02C082E00895389A00000000000057
:1009F000000080B382FB992790F981E08927089550
:100A0000829B14C038988AE000008150E9F7309842
:100A100088EC00008150E9F782990DC0309A389A2D
:100A2000B69B02C081E0089585E00895309A389A17
:100A300086B380E00895309A389AB69902C084E06F
:100A4000089582E00895811112C0D4DB969881E068
:100A50008093B70110927D0089B7837089BF1FBC56
:100A600088E18EBD10928B0080938A000895D2DBBE
:100A7000C09881E08093B801EDCF8091A101909161
:100A8000A20129B7277F29BF2091840030918500DA
:100A900049B7486049BF4091F7015091F801782F5C
:100AA000692F8417950710F4742F652FE091BB010F
:100AB000E130E9F124173507D0F549B7477F49BF41
:100AC0009093F4018093F301309385002093840088
:100AD0007093FF01609300022091DB0330E080916E
:100AE000B50190E02817390729F1939AE130D9F43C
:100AF00081E090E099BD88BD8091050280938401DA
:100B00001092820112BE1DBC1CBC8091DE0390912C
:100B1000DF0395BD84BD8EB5897F8EBD8EB58160A6
:100B20008EBD1092BB0189B7886089BF0895272FB9
:100B3000362FC3CF9398DACF8091A3019091A4016F
:100B400020917D002F7D20937D00209186003091A3
:100B5000870040917D00406240937D004091F90103
:100B60005091FA01782F692F8417950710F4742F8C
:100B7000652FE091BC01E13009F44AC02417350724
:100B800008F046C040917D004F7D40937D009093DA
:100B9000F6018093F50130938700209386007093CF
:100BA0000102609302022091DC0330E08091B601E3
:100BB00090E02817390779F1979AE13019F581E02B
:100BC00090E09BBD8ABD8091C50280938501109203
:100BD000830111BE109289001092880080911E043A
:100BE00090911F04909381008093800080918A00EF
:100BF000897F80938A0080918A00816080938A0037
:100C00001092BC0180917D00806280937D000895E8
:100C1000272F362FB7CF9798D0CF4F925F927F92E2
:100C20008F929F92AF92BF92CF92DF92EF92FF92FC
:100C30000F931F93CF93DF93282F30E0F901EE0F2E
:100C4000FF1FE952FC4F00811181D901A756BE4F09
:100C500094969C919497992329F0A801440F551FCD
:100C6000040F151F5A96EC915A970E2E000CFF0B8D
:100C7000F7FDB5C09E2F5C967C90D9011496ED01CE
:100C8000CC0FDD1FCC0FDD1FC756DE4F48815981C9
:100C90006A817B816F01CC0CDD1C0D2C000CEE08F1
:100CA000FF084C155D056E057F0508F075C0C8820C
:100CB000D982EA82FB82E09FE001E19FD00DF09FA4
:100CC000D00D112446015701B694A79497948794A8
:100CD000F901EE0FFF1FE550FE4F40805180B70134
:100CE000A601983009F46FC06E01E12CF12C8C1430
:100CF0009D04AE04BF0410F4750164014C195D0934
:100D00006E097F09E901CC0FDD1FCC0FDD1F9E01AD
:100D100027563E4FF9010081118122813381F1E094
:100D20007F1609F454C0C157DE4F400F511F621F98
:100D3000731F488359836A837B83AA0FBB1FA756FF
:100D4000BE4F4D925C9295B3811113C09B7F95BBB2
:100D5000A89ADF91CF911F910F91FF90EF90DF90B4
:100D6000CF90BF90AF909F908F907F905F904F906B
:100D700084CE977F95BBA99ADF91CF911F910F9158
:100D8000FF90EF90DF90CF90BF90AF909F908F90AB
:100D90007F905F904F90D0CEE09FE001E19FD00D1B
:100DA000F09FD00D11244A015B01B694A79497944B
:100DB0008794F901EE0FFF1FE550FE4F40805180F0
:100DC000983009F091CF487F98EF89228DCF7095A8
:100DD0006095509541955F4F6F4F7F4FA4CFF19530
:100DE000E195F10947CF811126C08091BB01813087
:100DF00009F14FB7F8941092B901A8988091B10108
:100E000080FD03C081E08093B1012091F701309112
:100E1000F8018091F3019091F4018217930760F03B
:100E20008091FF019091000201969093F4018093CC
:100E3000F3014FBF0895DEC98091FF019091000238
:100E40002817390788F7309300022093FF01C90162
:100E5000EBCF811126C08091BC01813009F14FB7E1
:100E6000F8941092BA01A9988091B20180FD03C054
:100E700081E08093B2012091F9013091FA018091D3
:100E8000F5019091F6018217930760F080910102BD
:100E90009091020201969093F6018093F5014FBF65
:100EA0000895B8C98091010290910202281739076C
:100EB00088F73093020220930102C901EBCF8F9291
:100EC0009F92AF92BF92EF92FF920F93CF93DF93D7
:100ED000D82F7B010E943818C82F80918E01811174
:100EE00018C0DF34A9F110928C018D2F0D2E000C4B
:100EF000990BAA0BBB0BFC01E554F109EF32F1058C
:100F000018F100918D01C1E020E030E0A901D0E0AE
:100F100042C04D2F0D2E000C550B660B770BFA01BE
:100F2000E554F109EF32F10558F0FA01E154F10905
:100F3000EA33F10508F0AFC1E85CFF4F0C94C11A29
:100F4000EE58FF4F0C94C11AEF55FF4F0C94C11A85
:100F5000CC2309F47CC380918C01833108F4FAC15D
:100F6000F7018081805380938E0101E0811101C0DF
:100F700000E000938D018111ABC3C0E020E030E0C0
:100F8000A901DFE408C000918D01C1E024E030E058
:100F900040E050E0D0E06D2FC7010E949A168C2FE0
:100FA000DF91CF910F91FF90EF90BF90AF909F9006
:100FB0008F900895D7018C91D0E0FE01E756FE4F47
:100FC00090ED980F908F91E011962C91203309F4B9
:100FD0002EC1948FC956DE4F188292A1913009F428
:100FE00028C100918D01C1E020E030E0A901D7E4E3
:100FF000D2CF0FB7F894C7010E94F017D0E0CC0F02
:10100000DD1FCC0FDD1FC756DE4F688379838A83CF
:101010009B830FBF00918D01C1E020E030E0A9016A
:10102000D5E4B9CFC7010E94F0172C2F30E040EC77
:10103000C49FF0011124E054FD4F80809180A12CC9
:10104000B12CF901EE0FFF1FEF55FE4F462F572F22
:10105000BC01481559056A057B0508F4E3C05183B6
:101060004083F901E956FE4F8081823009F4EFC0D8
:10107000108200918D01C1E020E030E0A901D9E4A7
:101080008ACFC7010E94F017D0E0FE01EE0FFF1FCC
:10109000EE0FFF1FE755FE4F6083718382839383BA
:1010A000C956DE4F188200918D01C1E020E030E08A
:1010B000A901D8E470CF8FB7F894D0E0CC0FDD1F32
:1010C000CC0FDD1FC756DE4F288139814A815B81F5
:1010D0008FBF00918D01C1E0DAE65DCFD0E0C75649
:1010E000DE4F2EA130E040E050E000918D01C1E0E4
:1010F000D7E651CFD0E0C756DE4F8CA1813009F43E
:10110000A3C020E030E08C8D813009F49EC288A11C
:10111000811101C031608091E401813009F493C2F2
:101120008AA1813009F020618E8D813009F489C255
:1011300040E050E000918D01C1E0D6E62CCFD0E038
:10114000CC0FDD1FCC0FDD1FCF53DE4F288139813F
:101150004A815B8100918D01C1E0D5E61CCFD0E0D2
:10116000CC0FDD1FCC0FDD1FC753DE4F2881398127
:101170004A815B8100918D01C1E0D1E60CCFC701AE
:101180000E94D81782BD00918D01C1E020E030E0BF
:10119000A901D6E500CFD7014C9140536C2F83E0D5
:1011A0000E94E51300918D01C1E020E030E0A9012B
:1011B000D0E5F1CEC1112AC01DD818D800918D01FB
:1011C000C1E020E030E0A901DCE4E5CE80E0CC2302
:1011D00061F13FDED0E0C956DE4F188200918D01EB
:1011E000C1E020E030E0A901DBE4D5CED0E0CC0FB7
:1011F000DD1FCC0FDD1FC752DE4F288139814A81A8
:101200005B8100918D01C1E0D3E7C5CE03D8C09AC0
:101210001092B80100918D01C1E020E030E0A901F9
:10122000DCE4B9CEB501A4011ACFDDDDD3CF90E067
:10123000D0CE20918901222309F4D3CE815382306C
:1012400008F461C294A3CDCE20E034E05CCFC1119C
:101250002FC213DC00918D01C1E020E030E0A90134
:10126000D9E499CEEC2FF0E0EE0FFF1FEE0FFF1F39
:10127000EF52FE4F208131814281538100918D01D7
:10128000C1E089CEC13009F402C22091860130E06C
:1012900040E050E0F3CF00918D0120E030E0A90163
:1012A0006D2FC7010E949A16DA3409F0C3C18091EC
:1012B000E4018111BFC180918E018111BBC1D0E0D9
:1012C000FE01E756FE4F808DC956DE4F80FFB4C148
:1012D0008881823009F4AEC181E08883C1E05FCEAD
:1012E000D7018C91805309F0C7C100918D01C1E0F5
:1012F00020E030E040E850E04ECE8C2F90E0FC0142
:10130000EE0FFF1FE151FE4F208131815901AA0CE0
:10131000BB1C880F991F880F991FFC01EF52FE4FCD
:10132000D501119620813181428153810E94D61AC4
:10133000950140E050E00E949F1A00918D01C1E0AC
:101340002ACE8C2F80DB00918D01C1E020E030E0BF
:10135000A90121CED7019C919153933008F4CFC1BC
:1013600010928C0100918D01C1E020E030E0A901D4
:10137000D0E011CEEC2FF0E0EE0FFF1FE550FE4F56
:101380002081318140E050E000918D01C1E003CE29
:101390004C2F50E0FA01EE57FE4F6081862F90E00F
:1013A0009C01220F331F280F391F70EC749FC0015E
:1013B000759F900D1124820F931F87569E4FDC015D
:1013C000A659BF4FCC9111967C91119712962C2F54
:1013D000372F4C9150E081E0860F803408F0A0C197
:1013E00080834CCFC13009F4BBC12091E3014FCFC2
:1013F000C11187CD20918A014ACFC7010E94F01701
:10140000EC2FF0E0EE0FFF1FEE0FFF1FE752FE4F35
:10141000608371838283938300918D01C1E020E01A
:1014200030E0A901B8CDC701C13009F4B1C10E94B3
:10143000D8179FEF980F933108F098C08093E3017D
:1014400000918D01C1E020E030E0A901A4CDC701E9
:10145000C13009F48EC10E94D81791E0811101C0FA
:1014600090E09093860100918D01C1E020E030E092
:10147000A90191CDC7010E94F017EC2FF0E0EE0F0B
:10148000FF1FE151FE4F7183608300918D01C1E028
:1014900020E030E0A9017FCDC7010E94D817EC2FD2
:1014A000F0E0EE0FFF1FE550FE4F90E09183808348
:1014B00000918D01C1E020E030E0A9016CCDC701B1
:1014C0000E94D817EC2FF0E0EE57FE4F808300917A
:1014D0008D01C1E0803408F439CF23E030E040E0F2
:1014E00050E0D0E058CDC7010E94F017AC2FB0E01B
:1014F000FD01EE57FE4F9081292F30E0A901440FE6
:10150000551F420F531FC0ECCA9F9001CB9F300D57
:101510001124240F351F27563E4FD901A659BF4F1E
:1015200011967C936E9312968C9381E0890F808341
:10153000803408F408CF108200918D01C1E020E0D2
:1015400030E0A90128CD823009F432C1833009F49A
:1015500045C1813009F0F7CE81E0F70190819033E9
:1015600009F467C10E946802811152C100918D0186
:10157000C1E0B3CFC13009F4EBC020915E0487CE47
:10158000EC2FF0E0E552FC4F208181CEEC2FF0E013
:10159000EE0FFF1FE151FE4FF3CEC701C13009F43A
:1015A000C1C00E94D81780935E0400918D01C1E0F4
:1015B00020E030E0A901EFCCEC2FF0E0E552FC4F49
:1015C00081E0D7019C91903309F4C0C080830091E1
:1015D0008D01C1E020E030E0A901DDCCC7010E940F
:1015E000F017EC2FF0E0EE0FFF1FEE0FFF1FEF5292
:1015F000FE4F608371838283938300918D01C1E0EC
:1016000020E030E0A901C7CCC7010E94F017EC2F01
:10161000F0E0EE0FFF1FEE0FFF1FE753FE4F60835A
:1016200071838283938300918D01C1E020E030E0DB
:10163000A901B1CCC1E0B3CC81E0888380A3C1E033
:10164000AECC216075CD20626BCD326060CD8091D3
:101650008A018823B1F13998D7018C91803309F43C
:101660005DC0319A10928C0100918D01C1E020E0A3
:1016700030E0A901DFE48FCC00918D01C1E0813021
:1016800009F042CC2CE134E040E050E084CC809181
:101690008701282F30E040E050E09091DD03983042
:1016A00060F1C827C093890100918D01C1E073CC1E
:1016B00043DA00918D01C1E020E030E0A901D9E4D6
:1016C0006ACC319AF7018081803331F1399ACACFDF
:1016D0000E94FA000E94F6000E940A01C09A10922D
:1016E000B801109297011092980100918D01C1E00C
:1016F00020E030E0A901DFE44ECCC0E0D3CF8F5F23
:1017000080938C01FECB14A200918D01C1E020E0FA
:1017100030E0A901D7E43FCC3998A4CF3198A2CFCB
:101720001082ACCD0E94D8178093DD03883008F476
:1017300052C0809187018C2781708093890100912C
:101740008D01C1E020E030E0A90125CC80E03ECF52
:101750002091DD0330E040E050E000918D011BCC92
:101760002091ED013091EE0140E050E000918D01BB
:1017700012CC0E94D81791E0811101C090E09093A3
:10178000870100918D01C1E020E030E0A90103CC88
:101790000E94F01761157105F1E08F07910580F047
:1017A00000918D0123E030E040E050E0D0E0F3CB49
:1017B00066D800918D01C1E020E030E0A901EBCBBB
:1017C0007093EE016093ED0100918D01C1E020E086
:1017D00030E0A901E0CB80E090E0AECF41D8B3CDBE
:1017E000C11113C0882309F432CF81E0F701908141
:1017F000903349F080938A0100918D01C1E020E08F
:1018000030E0A901C8CB80E0F5CF8111A9CBA3CBF3
:101810000E945B02811197CD0E943A0267E070E05E
:101820000E94BF1400918D01C1E020E030E0A901C9
:10183000B2CB80E097CECF93DF93CDB7DEB7609782
:101840000FB6F894DEBF0FBECDBF78940E94CB02D6
:10185000AA24AA94BB24BA94812C312C10E0C12C68
:10186000E12CF12CDD24D39499249A94412C512C11
:1018700080E8682E712CB599E5C0D092E401809182
:10188000BB01813011F00E94FA008091BC018130CF
:1018900011F00E940A018FEFE81AF80A80918B017B
:1018A0008111DAC0E114F10409F0F2C080918E01D7
:1018B000882309F40DC2809102018111EDC088B323
:1018C000805888BB9DD8082F8091E2010817D1F17C
:1018D00045E062E0802F79D780918901882319F053
:1018E000023009F4F6C2809100019091B501913067
:1018F00009F4D0C2D092B3011092BD019091B6010B
:10190000913009F4C4C2D092B4011092BE01382FB4
:10191000317080FF74C2959A282F227081FF74C2A3
:10192000DB9A982F947082FF74C2DA9A332309F4F9
:1019300073C2C49A222309F472C2C39A992309F488
:1019400071C2C29A8091E401811195CFCC9B94C061
:10195000CF9B7FC20FEF80E09FB7F8942091840067
:10196000309185009FBF9091BB01913061F09091C3
:10197000B501891741F04091F7015091F801241702
:10198000350708F49CC20F3F09F472C2E02FEE0F36
:10199000FF0BE951FE4F208131813093A20120934A
:1019A000A1018093B5019091BD01992309F41FC253
:1019B0009091BF01813009F41EC29093B3010F3F93
:1019C00029F48091E201823009F4FCC256D8B02E8D
:1019D000CD9B06C2CE9B43C20FEF80E09FB7F89429
:1019E00020918600309187009FBF9091BC0191307B
:1019F00061F09091B601891741F04091F901509141
:101A0000FA012417350708F456C20F3F09F45BC2E8
:101A10002091EB013091EC013093A4012093A301BC
:101A20008093B6019091BE01992309F4FDC1909174
:101A3000C001813009F4FCC19093B4017DD8A02E7F
:101A4000B59B1BCF1092E4018FEFE81AF80A809142
:101A50008B01882309F426CF8091020181111CC0DB
:101A6000E114F10409F42BCF8091E401811103CF3B
:101A7000E11001CFCC996CCF81E0B81609F4A8CF62
:101A800081E09091E101913009F080E001E064CFC4
:101A900080910201882341F31E3F09F4FCC00E949B
:101AA000F0158823F1F088B3805888BB0E94FB159D
:101AB000C82E40918D016C2DCE0101960E94891790
:101AC000182F882371F00CF4FFC0BE016F5F7F4FA9
:101AD000F6D9082FCE0101960E943F16002309F483
:101AE000ABC1E114F10431F480918E01813009F42D
:101AF00075C1C7988091E40181118BC080918B01E1
:101B0000811187C0E11085C0CC9BB0C109B3000F23
:101B1000000B0B1551F08091B501811105C080912A
:101B20009701823009F41CC2B02ECD9B9DC109B330
:101B300006FB002700F901958091BA01811169C067
:101B40000A1509F466C081E0013009F080E0909147
:101B5000BC01913009F446C09091B601891709F48F
:101B600041C080E076D91092980180919701813030
:101B700009F081CE8091BB01813009F07CCE90913B
:101B8000B10180918901882309F494C08FEF890FF6
:101B9000823008F40BC2809101012091BF01309185
:101BA000B501313009F414C22093B301D092BD01C4
:101BB00080FFC4C1959A83FDBFC18D9A81FFBAC1D0
:101BC000DB9A84FDB5C1D39A82FFB0C1DA9A85FD54
:101BD000ABC1D29A90FF69C10E943D0582E080931B
:101BE00097011CC00F3F09F4F7C12091EB01309120
:101BF000EC013093A4012093A3018093B60101303E
:101C000009F411C2D092B4010E949C05A02E882430
:101C1000839480919701813009F441C080919801AB
:101C2000813009F028CE8091BC01813009F023CEAB
:101C30002091B20190918901992309F41EC19FEF6F
:101C4000920F923008F4A6C1909101018091C001D9
:101C50003091B601313009F4C4C18093B401D092FF
:101C6000BE0190FF7BC1C49A93FD76C1BC9A91FFDF
:101C700071C1C39A94FD6CC1BB9A92FF67C1C29AAD
:101C800095FD62C1BA9A20FF0AC10E949C0582E0BC
:101C900080939801F0CD88B3805888BB0ACF80919B
:101CA000BB01813009F0BACF9091B10180918901D7
:101CB00081116CCF8091B501813009F468C1D09257
:101CC000B3011092BD0186CFCE010196D8D709CFBE
:101CD0000E94E704082F882309F4EDCD0E94FA0042
:101CE0000E940A018FB7F8944092990150929A018C
:101CF00060929B0170929C0140929D0150929E01C6
:101D000060929F017092A0018FBFF8D6D0928B0194
:101D1000023009F46AC110920201389AE0918801F8
:101D2000F0E0E050FF4F8081282F217080FDB5C08A
:101D30009598982F987083FD05C18D9A222309F4F8
:101D4000FFC0C49A9111ECC0BC9A282F227081FF69
:101D5000E5C0DB9A982F907184FDDEC0D39A2223D0
:101D600009F4D8C0C39A9111D3C0BB9A282F24700C
:101D700082FFCCC0DA9A982F907285FDC5C0D29AA6
:101D8000222309F4BFC0C29A9111CCC0BA9A45E08F
:101D900062E080E01AD51092BD011092BE0180E091
:101DA0000E94230581E00E942305D092B101D092C8
:101DB000B2011092B501D092B3011092B601809198
:101DC000E5019091E6019093A2018093A101D09248
:101DD0009701AA24AA94BB24BA946DCDC79A8ACE3F
:101DE00081E0A81609F447CD01E081E0F7CD91E04C
:101DF000813009F0E2CD91959093B301E0CD9598B3
:101E0000282F227081FD8CCDDB98982F947082FD55
:101E10008CCDDA9831118DCDC49821118ECDC39817
:101E200091118FCDC2988ECD91E0813009F004CE12
:101E300091959093B40102CE14D79BE088E10FB640
:101E4000F894A89581BD0FBE91BD80E090E00E94FE
:101E5000091BBB2009F4BCCD00E080E07DCDAA20A9
:101E600009F409CD00E0B9CD01E066CE01E051CE24
:101E70002091E5013091E60190CD9091B60191302D
:101E800009F482C08093B4011092BE01FCCE9092FE
:101E9000B4013BCD9092B3012FCD959A4ACF81E00A
:101EA0000E940D0610929801E6CC80E00E940D067B
:101EB00010929701B3CE80E00E942907DCCC80E02D
:101EC0000E94F30685CD80E00E942907AA24AA94E7
:101ED000D2CC809101019091BF012091B5012130B8
:101EE00009F498C09093B301D092BD019091C001C4
:101EF0002091B601213009F489C09093B401D092A9
:101F0000BE0105CDC29840CFD2983ACFDA9833CFF0
:101F1000BB982CCFC39827CFD39821CFDB981ACF6B
:101F2000BC9813CFBA9833CFD29854CEDA984FCE0C
:101F3000D3984ACEDB9845CE8D9840CE95983BCE2F
:101F4000C49800CF8D98FACEBA989DCEC29898CEFC
:101F5000BB9893CEC3988ECEBC9889CEC49884CEBD
:101F60000F3F09F45BC0E02FEE0FFF0BE951FE4F6E
:101F7000808191819093A2018093A1010E943D05EF
:101F8000B02E33243394D1CD9092B4017DCF909272
:101F9000B30197CE909100013091B601313009F430
:101FA00045C08093B4011092BE015BCE80910001C8
:101FB0002091B501213009F43CC0D092B3011092B8
:101FC000BD01F6CD80E00E94F306BB24BA9400CD9B
:101FD00021952093B301EACD81102EC0AA24AA94A2
:101FE00018CE81958093B4013ACED092020196D555
:101FF00000918D0124E030E040E050E060E0CE014F
:102000000C9698D6CE010C963AD655CC91959093D5
:10201000B40175CF91959093B30166CF311013C081
:10202000BB24BA9482CD9092B401EECD9092B401CB
:10203000BACF9092B301C3CF80E00E942907AA24AF
:10204000AA94812CE6CD8091E5019091E6019093D0
:10205000A2018093A1010E943D05BB24BA94312CBA
:1020600064CD1F920F920FB60F9211240F931F93FE
:102070002F933F934F935F936F937F938F939F9390
:10208000EF93FF938AB59BB5019709F05EC081B7C6
:10209000E82FEE73F0E0E25EFB4F20813181309358
:1020A0008100209380008F5F81BF80918600909196
:1020B00087009BBD8ABD2A9B5BC03A9800919D0119
:1020C00010919E0120919F013091A0014091B40197
:1020D000042E000C550B660B770B400F511F621F2F
:1020E000731F40939D0150939E0160939F017093D5
:1020F000A001A99B10C0AB990EC000919301109153
:102100009401209195013091960140175107620783
:10211000730709F483C0209101023091020228174D
:102120003907A8F4A99B03C01092BA01A99881E0CD
:102130008093BC0180917D008F7D80937D00809194
:102140008A00887F80938A0002C09BBD8ABDFF9170
:10215000EF919F918F917F916F915F914F913F91FF
:102160002F911F910F910F900FBE0F901F901895F8
:102170003A9A20918501211123C02091F5013091D7
:10218000F6012817390700F5809183018F3398F401
:102190008F5F8093830190E0AC01440F551F840F43
:1021A000951F87569E4FFC01E65DFE4F4081518191
:1021B0002417350718F13093870020938600C7CF86
:1021C000215020938501C3CF8217930728F5809172
:1021D0008301882381F381508093830190E0AC01D7
:1021E000440F551F840F951F87569E4FFC01E65DD7
:1021F000FE4F4081518142175307E8F62091BE01FE
:102200002223D9F032968081982F990F890F8E5F03
:10221000809385019A01CFCF9C01CDCFAB9A2091BD
:10222000010230910202A9014F5F5F4F5093F60106
:102230004093F5011092850172CFFC01E45DFE4FE1
:102240008081809385019A01B6CF1F920F920FB6BD
:102250000F9211240F931F932F933F934F935F93EC
:102260006F937F938F939F93EF93FF9388B599B567
:10227000019709F058C082B7E82FEE73F0E0E25200
:10228000FC4F2081318135BD24BD8F5F82BF80919D
:1022900084009091850099BD88BD849B57C0949817
:1022A0000091990110919A0120919B0130919C011C
:1022B0004091B301042E000C550B660B770B400FB9
:1022C000511F621F731F4093990150939A016093AD
:1022D0009B0170939C01A89B10C0AA990EC000910D
:1022E0008F0110919001209191013091920140173E
:1022F00051076207730709F47FC02091FF013091F5
:1023000000022817390788F4A89B03C01092B9016E
:10231000A89881E08093BB0189B7877F89BF8EB57C
:10232000887F8EBD02C099BD88BDFF91EF919F91BE
:102330008F917F916F915F914F913F912F911F915D
:102340000F910F900FBE0F901F901895949A2091A7
:102350008401211123C02091F3013091F401281749
:10236000390700F5809182018F3398F48F5F809355
:10237000820190E0AC01440F551F840F951F8756D2
:102380009E4FFC01E659FF4F4081518124173507CC
:1023900018F13093850020938400C7CF21502093FB
:1023A0008401C3CF8217930728F580918201882387
:1023B00081F381508093820190E0AC01440F551F5E
:1023C000840F951F87569E4FFC01E659FF4F4081B1
:1023D000518142175307E8F62091BD012223D9F01D
:1023E00032968081982F990F890F8E5F8093840198
:1023F0009A01CFCF9C01CDCFAA9A2091FF013091B5
:102400000002A9014F5F5F4F5093F4014093F30125
:102410001092840176CFFC01E459FF4F80818093B4
:1024200084019A01B6CFEF92FF920F931F93CF933F
:10243000DF9300D000D01F92CDB7DEB7833009F410
:102440004AC0E091EF01F091F0010091F10110918B
:10245000F201853009F478C0843009F482C0F09329
:10246000E601E093E50144E14E9F70014F9FF00CBF
:1024700011242091E30130E0B9016C5E7F4FC70168
:102480000E948C1A7093E8016093E70164E170E0A8
:10249000621B730BC7010E948C1A7093EA01609350
:1024A000E9011092E101409FC001419F900D11246C
:1024B000B9010E948C1A7093EC016093EB010F90AC
:1024C0000F900F900F900F90DF91CF911F910F9170
:1024D000FF90EF90089585E0E3E0F1E0DE011196D2
:1024E00001900D928A95E1F7453048F761113FC0A0
:1024F0002091EF013091F0013093E6012093E50146
:10250000220F331F220F331F220F331FE1E0F0E0B1
:10251000EC0FFD1FE40FF11DE081F0E0BF01685FEB
:102520007F4FC901E5D77093E8016093E70168E048
:1025300070E06E1B7F0BC901DBD77093EA016093DB
:10254000E9011092E101BBCFDF0123EB30E041E074
:1025500050E00E94E01AFC01D8010E94E01A8C01B0
:102560007ECFDF012DE939E041E050E0F2CF61306C
:1025700009F0A5CF8091F1019091F201880F991F88
:10258000880F991F880F991FE1E0F0E0EC0FFD1F05
:10259000E40FF11D608170E0ABD77093EC016093A4
:1025A000EB018DCF3F924F925F926F927F928F920D
:1025B0009F92AF92BF92CF92DF92EF92FF920F93D2
:1025C0001F93CF93DF9300D000D0CDB7DEB76B0160
:1025D0007C01342E8EE090E07AD16093C901709333
:1025E000CA018093CB019093CC0182E190E06FD13E
:1025F0006093CD017093CE018093CF019093D00171
:1026000086E190E064D16093D1017093D201809310
:10261000D3019093D4018AE190E059D16093D50120
:102620007093D6018093D7019093D8018EE190E00A
:102630004ED16093D9017093DA018093DB019093BE
:10264000DC0182E290E043D16093DD017093DE0112
:102650008093DF019093E00186E290E029D190938E
:10266000F0018093EF0188E290E022D19093F20193
:102670008093F1018CE090E01AD190E09093FC01FE
:102680008093FB018DE090E012D190E09093FE01E9
:102690008093FD018EE290E00AD18093E3018CE209
:1026A00090E006D19093EE018093ED011092E40149
:1026B00044E650E060E483E092E040D144E251E03F
:1026C00060E483EC92E03AD1E9E9F1E06FEE71E089
:1026D00023E032E047EF51E00FEF11E083EF682E87
:1026E00081E0782EFA83E983FC83EB8392E0592E14
:1026F00044244394812C912CA0E8AA2EB12C148E52
:10270000428E14A242A210A2168EAB81BC818D9281
:102710009D92AD92BC921397DB018D919D91BD016D
:10272000A981BA8119969C938E931897408EAB819C
:10273000BC8150961D921D921D921C9253979896A3
:10274000CD92DD92ED92FC929B9736A2D9018D91AC
:102750009C91DA018D939D93AD01D8018D939D934A
:102760008D010196D3018D939D933D01A981BA817D
:102770001D969C938E931C975A9431968B819C81C5
:1027800004969C838B831296BA83A98320543F4F6F
:102790005110B5CF1092E20145E062E080E00F9069
:1027A0000F900F900F90DF91CF911F910F91FF909D
:1027B000EF90DF90CF90BF90AF909F908F907F90E1
:1027C0006F905F904F903F902ECE582F8093E201F4
:1027D000823019F0813009F126CE8091EF0190917D
:1027E000F0019093E6018093E5018091FB019091C7
:1027F000FC019093E8018093E7019093EA018093B4
:10280000E90181E08093E1018091FD019091FE0159
:102810009093EC018093EB010895E091EF01F0912A
:10282000F001F093E601E093E5019F01ABEABAEA1B
:10283000AED6969587959093E8018093E701F09343
:10284000EA01E093E9015093E1018091F101909157
:10285000F201969587959093EC018093EB01089592
:10286000EFE0F1E02AE690E005C09F5F9732E9F0E3
:10287000208133968213F9CF892F90E0FC01EE0F6F
:10288000FF1F8E0F9F1FFC01E45FFE4F611105C00B
:102890008281411105C08F70089581814423D9F34D
:1028A000859585958595859508958FEF08959CC6A6
:1028B0001F93CF93DF93EC0197D6182FCE0101968B
:1028C00093D6982F812FDF91CF911F910895CF92AA
:1028D000DF92EF92FF92CF93DF93EC01E9DF6C017F
:1028E000CE010296E5DF7C01C701B601DF91CF91F1
:1028F000FF90EF90DF90CF900895EF92FF920F93AB
:102900001F93CF93DF93662391F0EA018C0161500E
:102910007A01E60EF11C8FEFE81AF80ACE0164D6B0
:10292000F80181938F012196CE15DF05B9F7DF916C
:10293000CF911F910F91FF90EF900895EF92FF922A
:102940000F931F93CF93DF93E62E8A01662381F0C6
:10295000EC01F12CC801ACDF99838883C801029691
:10296000A7DF8A830D5F1F4FF3942396EF10F2CFFA
:10297000DF91CF911F910F91FF90EF900895282F35
:10298000CB01622F39C61F93CF93DF93192FEB0131
:10299000682FCE0131D6612FCE010196DF91CF9104
:1029A0001F912AC6CF92DF92EF92FF92CF93DF93CF
:1029B0006B017C01EA01BA01C601E5DFBE016E5F71
:1029C0007F4FC701DF91CF91FF90EF90DF90CF90C5
:1029D000DACFEF92FF920F931F93CF93DF9366238B
:1029E00091F0EC016150E62EF12C8FEFE81AF80A15
:1029F000EC0EFD1E8A016991C801FED50F5F1F4FC5
:102A0000CE15DF05C1F7DF91CF911F910F91FF9098
:102A1000EF900895EF92FF920F931F93CF93DF9360
:102A2000E62E8A01662381F0EC01F12CB801888141
:102A30009981A9DF6A81C8010296DED50D5F1F4F1B
:102A4000F3942396EF10F2CFDF91CF911F910F9166
:102A5000FF90EF900895CF92DF92EF92FF92CF9385
:102A6000DF936B017C0182E08BB960E079E08DE35C
:102A700090E0A701960163D5DA01C9010197A10988
:102A8000B109AC01BD017695679557954795842F9F
:102A9000C52F90E0D92F9E01207F3327232BA9F04B
:102AA0001BB860E874E88EE190E0A701960147D575
:102AB000DA01C9010197A109B109AC01BD017695FF
:102AC000679557954795CA01C92FCF70C0BD89B981
:102AD0008FB7F8941092C6031092C7031092A40304
:102AE0001092A5038FBF549A539A579A5598DF9125
:102AF000CF91FF90EF90DF90CF9008955498539826
:102B0000579855988FB7F894E6EAF3E010A211A20F
:102B1000E4E8F3E010A211A28FBF0895D59ADD9AE0
:102B2000D798DF9AD69ADE9AD49ADC9A389A8FB7D9
:102B3000F894E6EAF3E010A211A2E4E8F3E010A2B0
:102B400011A28FBF81E0809383030895D598DD9A09
:102B5000D798DF9AD698DE9AD498DC9A109283039D
:102B60008FB7F894E6EAF3E010A211A2E4E8F3E0EC
:102B700010A211A28FBF089598E008C00000DE984F
:102B8000DD9A880FCF990AC0915059F0DD9887FFE0
:102B9000F5CFDE9ADD9A880FCF9BF6CF8F5F9150ED
:102BA000A9F708959091A5038091A403981709F0BF
:102BB00082990895DC9881E8DFDF829BFECF80E870
:102BC000DBDF87FD0BC0E091A403F0E0EC57FC4F86
:102BD00080838091A4038F5F8093A403DC9A08957F
:102BE000809183038111DEDF8091A4039091A5037E
:102BF000891B8F7108959091A5038091A403981764
:102C000051F0E92FF0E0EC57FC4F80819F5F9F71FE
:102C10009093A50308958FEF0895539B12C0909150
:102C2000C6039F5F9F712091C7039217A1F0E091A7
:102C3000C603F0E0EA55FC4F80839093C603559A93
:102C4000089590918303911101C00895DC988F77C6
:102C500093DFDC9A0895559A2091C7039217E1F308
:102C6000E6CF539B0BC09091C6038091C703981782
:102C700029F0559A8091C7039813FCCF0895CF93FC
:102C8000DF93EC018881882329F02196C6DF8991A2
:102C90008111FCCFDF91CF9108952F932FB72F9300
:102CA0009F938F93EF93FF932CB18091A4038F5F39
:102CB0008F719091A503891741F0E091A403F0E092
:102CC000EC57FC4F20838093A403FF91EF918F91E9
:102CD0009F912F912FBF2F9118958F938FB78F931F
:102CE0009F93EF93FF938091C7039091C60389133D
:102CF00002C055980AC0E82FF0E0EA55FC4F9081D9
:102D00008F5F8F718093C7039CB9FF91EF919F9163
:102D10008F918FBF8F9118951092D6031092CA038E
:102D20002BE0EBECF3E0DF011D922A95E9F710921E
:102D3000C90338CCCF92DF92EF92FF920F93CF93DB
:102D4000DF93EC01862F69017A0161111CC081E2D9
:102D50008883013009F47FC080E389838C2D8F70D4
:102D60008A3010F1895C8A83E2E0F0E0EC0FFD1F0D
:102D70008DE081831282DF91CF910F91FF90EF90D0
:102D8000DF90CF900895402F60E06ADD87FDDFCFB0
:102D90009DE39883823069F08330A9F0863059F141
:102DA000E82F880FFF0BE2CF805D8A83E2E0F0E03E
:102DB000DDCF8C2D82958F708A3018F0895C8983E5
:102DC000CDCF805DCACF8D2D8F708A3008F44EC074
:102DD000895C89838C2D82958F708A3008F443C07A
:102DE000895C8A838C2D8F708A30C0F1895C8B83DB
:102DF000E3E0F0E0BBCFC701AA27BB27282F22952D
:102E00002F702A3008F441C0295C2D838F708A30DE
:102E1000C8F1895C8E83BB27AF2D9E2D8D2D282F69
:102E200022952F702A3058F1295C2B838F708A30BD
:102E300018F1895C8C838C2D82958F708A30C8F054
:102E4000895C89838C2D8F708A3010F5805D8A8330
:102E5000E6E0F0E08BCFE0E0F0E088CF805D8B83B0
:102E6000E3E0F0E083CF805D8A83BCCF805D89831F
:102E7000B1CF805D8983E6CF805D8C83DCCF205D20
:102E80002B83D4CF805D8E83C6CF205D2D83BECFB4
:102E9000895C8A83E6E0F0E069CF0F931F93CF93BC
:102EA0002091CB032093C8039091CC03915390932E
:102EB000C903933028F083E0CF911F910F910895BB
:102EC0008B01C82F61E0822FCBDC4DEF4C0F082E19
:102ED000000C990B242F30E08217930729F081E032
:102EE000CF911F910F910895442369F0EDECF3E029
:102EF000D8018CEF8C0F90E082539C4F41914D9301
:102F0000E817F907D9F7F801E20FF31F10828FEFE6
:102F1000D3CFCF93DF93EC019091D6039923A1F007
:102F20006A33E1F0E091CA0381E08E0F8093CA0317
:102F3000F0E0E553FC4F60836D3011F18B30E9F028
:102F400080E0DF91CF9108956A33D1F71092CA03E0
:102F500081E08093D6031092CB03F2CF93E38EEF00
:102F600021E2288320E329839A831B829DE09C83AE
:102F70001092D603DF91CF91089591E38FEFF0CFB8
:102F8000BE018BDF982F8F3F59F081E2888380E369
:102F900089839F709A3048F0995C9A838FEFE5CFD0
:102FA0001092D6038091C803CCCF905D8FEFDCCF19
:102FB000FC0191819A3354F09753892F8F7090813F
:102FC0009A334CF49F709295892B0895892F8F70B6
:102FD00090819A33BCF397539F709295892B0895F3
:102FE000FC0161816A3324F16753962F9F706081E1
:102FF0006A331CF167536F706295692B73817A3362
:1030000014F17753972F9F7072817A330CF17753B5
:103010007F707295792B85818A3304F187538F7085
:1030200094819A33FCF49F709295892B90E00895D7
:10303000962F9F7060816A33ECF66F706295692BF2
:1030400073817A33F4F6972F9F7072817A33FCF68E
:103050007F707295792B85818A3304F78F70948104
:103060009A330CF397539F709295892B90E00895B3
:103070008091C90308955058BB27AA270ED084C158
:1030800075D130F07AD120F031F49F3F11F41EF465
:103090006AC10EF4E095E7FB37C1E92F86D180F3D2
:1030A000BA17620773078407950718F071F49EF545
:1030B000B5C10EF4E0950B2EBA2FA02D0B01B9016E
:1030C00090010C01CA01A0011124FF27591B99F09E
:1030D000593F50F4503E68F11A16F040A22F232FAA
:1030E000342F4427585FF3CF469537952795A795FA
:1030F000F0405395C9F77EF41F16BA0B620B730BA1
:10310000840BBAF09150A1F0FF0FBB1F661F771F11
:10311000881FC2F70EC0BA0F621F731F841F48F4C6
:10312000879577956795B795F7959E3F08F0B3CF4C
:103130009395880F08F09927EE0F97958795089536
:1031400056D180F09F3740F491110EF468C160E0D1
:1031500070E080E89FE3089526F01B16611D711D45
:10316000811DD8C0F2C00CD00FC107D140F0FED0F5
:1031700030F021F45F3F19F0C7C0511150C1F3C0C6
:1031800014D198F39923C9F35523B1F3951B550B2B
:10319000BB27AA2762177307840738F09F5F5F4F2A
:1031A000220F331F441FAA1FA9F333D00E2E3AF06B
:1031B000E0E830D091505040E695001CCAF729D085
:1031C000FE2F27D0660F771F881FBB1F26173707D4
:1031D0004807AB07B0E809F0BB0B802DBF01FF2704
:1031E00093585F4F2AF09E3F510568F08DC017C17C
:1031F0005F3FECF3983EDCF3869577956795B7953E
:10320000F7959F5FC9F7880F911D9695879597F958
:103210000895E1E0660F771F881FBB1F62177307D1
:103220008407BA0720F0621B730B840BBA0BEE1FE6
:1032300088F7E0950895C1D088F09F5790F0B92F96
:103240009927B751A0F0D1F0660F771F881F991FFB
:103250001AF0BA95C9F712C0B13081F0DFD0B1E0F1
:103260000895DCC0672F782F8827B85F39F0B93F01
:10327000CCF3869577956795B395D9F73EF49095FD
:103280008095709561957F4F8F4F9F4F0895E8947B
:1032900009C097FB3EF490958095709561957F4F9E
:1032A0008F4F9F4F9923A9F0F92F96E9BB2793954C
:1032B000F695879577956795B795F111F8CFFAF45C
:1032C000BB0F11F460FF1BC06F5F7F4F8F4F9F4F8D
:1032D00016C0882311F096E911C0772321F09EE8EB
:1032E000872F762F05C0662371F096E8862F70E051
:1032F00060E02AF09A95660F771F881FDAF7880F2B
:103300009695879597F9089597F99F6780E870E0FB
:1033100060E00895882371F4772321F09850872B7B
:10332000762F07C0662311F499270DC09051862B84
:1033300070E060E02AF09A95660F771F881FDAF731
:10334000880F9695879597F908959F3F31F0915092
:1033500020F4879577956795B795880F911D969579
:10336000879597F908959FEF80EC089500240A94BB
:103370001616170618060906089500240A94121650
:103380001306140605060895092E0394000C11F483
:10339000882352F0BB0F40F4BF2B11F460FF04C030
:1033A0006F5F7F4F8F4F9F4F089557FD9058440F89
:1033B000551F59F05F3F71F04795880F97FB991F94
:1033C00061F09F3F79F08795089512161306140651
:1033D000551FF2CF4695F1DF08C0161617061806DE
:1033E000991FF1CF86957105610508940895E5DF71
:1033F000A0F0BEE7B91788F4BB279F3860F4161613
:10340000B11D672F782F8827985FF7CF869577951E
:103410006795B11D93959639C8F30895E894BB2735
:1034200066277727CB0197F908950BD0ADCF9EDFA4
:1034300028F0A3DF18F0952309F066CF94CF11246C
:10344000EECFB3DFA0F3959FD1F3950F50E0551F5A
:10345000629FF001729FBB27F00DB11D639FAA27E9
:10346000F00DB11DAA1F649F6627B00DA11D661F38
:10347000829F2227B00DA11D621F739FB00DA11D59
:10348000621F839FA00D611D221F749F3327A00D13
:10349000611D231F849F600D211D822F762F6A2FAF
:1034A00011249F5750408AF0E1F088234AF0EE0F34
:1034B000FF1FBB1F661F771F881F91505040A9F741
:1034C0009E3F510570F020CFAACF5F3FECF3983EAE
:1034D000DCF3869577956795B795F795E7959F5FA8
:1034E000C1F7FE2B880F911D9695879597F9089542
:1034F000AA1BBB1B51E107C0AA1FBB1FA617B7071A
:1035000010F0A61BB70B881F991F5A95A9F7809535
:103510009095BC01CD01089597FB072E16F40094F9
:1035200006D077FD08D0E4DF07FC05D03EF4909587
:1035300081959F4F0895709561957F4F0895A1E201
:103540001A2EAA1BBB1BFD010DC0AA1FBB1FEE1F1D
:10355000FF1FA217B307E407F50720F0A21BB30B68
:10356000E40BF50B661F771F881F991F1A9469F7E4
:1035700060957095809590959B01AC01BD01CF0140
:103580000895EE0FFF1F0590F491E02D0994A29F7E
:10359000B001B39FC001A39F700D811D1124911D27
:1035A000B29F700D811D1124911D0895F0DFA59F1C
:1035B000900DB49F900DA49F800D911D112408952E
:1035C000B7FFF4CFF3DF821B930B0895FB01DC01FF
:1035D0004150504030F08D910190801919F4002035
:1035E000B9F7881B990B0895E199FECF9FBB8EBB5D
:1035F000E09A99278DB30895262FE199FECF9FBBBE
:103600008EBB2DBB0FB6F894E29AE19A0FBE0196DD
:063610000895F894FFCFBD
:103616000300010806040201414551006A0066667E
:1036260000334966004722004A00004B0000486606
:10363600004D6600650066610066620066670022EE
:103646007300664566005011004600004C000056A7
:1036560022007106264F110041660042660053663D
:10366600006E00664E66004422006400224311008C
:103676006300225A22007A002252660072006651C6
:1036860024006F0022586400780066592200541105
:02369600000032
:00000001FF
