:10000000CFC00000F2C00000F0C00000EEC0000051
:10001000ECC00000EAC000000C94F70FE6C000003E
:10002000E4C00000E2C00000E0C00000DEC000004C
:100030000C94EB10DAC00000D8C00000D6C000005D
:10004000D4C00000D2C00000D0C000000C947815CD
:10005000CCC000000C949815C8C00000C6C00000B9
:10006000C4C00000C2C00000C0C00000BEC000008C
:10007000A10A8B0A660A570A5C075C075C075C07E3
:100080005C075C075C075C075C07CB0A5C075C07E6
:10009000780AB70AC1092E0A5C075C075C07FE09EB
:1000A000EA09D7095C075C075C075C075C075C072B
:1000B0005C075C074A0A440A5C075C075C075C074C
:1000C0005C075C075C075C075C07500AB6095C07C5
:1000D0005C07B0095C075C075C075C075C07780994
:1000E0005C07A509BB0709095A08400811088D07D4
:1000F000D808CB088D078D07BC0B8D078D078D07A2
:100100008D078D078D07BF088D078D078D078D071C
:100110008D078D078D078D078D078D07AF08120995
:100120008D078D079F08820805088D078D07F20748
:100130008D078D078D078D078D078D0722098D0788
:10014000E207BB075F095A08400811085C07D80896
:10015000CB085C075C075C075C075C075C075C0717
:100160005C075C07BF085C075C075C075C075C0713
:100170005C075C075C075C075C07AF082E095C073F
:100180005C079F08820805085C075C07F2075C07AC
:100190005C075C075C075C075C0752095C07E207C9
:1001A00011241FBECFEFD4E0DEBFCDBF0FB6F89451
:1001B000A89581B5886181BD11BC0FBE11E0A0E09A
:1001C000B1E0E2EBF3E302C005900D92AC37B1076A
:1001D000D9F724E0ACE7B1E001C01D92A935B20720
:1001E000E1F70E94E70B0C94D7190ACF969A109268
:1001F000B20108954FB7F8941092B401A898809175
:10020000A40180FD03C081E08093A4012091EF014F
:100210003091F0018091EB019091EC0182179307EE
:1002200058F08091F7019091F80101969093EC01BC
:100230008093EB014FBF08958091F7019091F801F1
:100240002817390790F73093F8012093F701C90177
:1002500001969093EC018093EB014FBF08954FB747
:10026000F8941092B501A9988091A50180FD03C072
:1002700081E08093A5012091F1013091F2018091FC
:10028000ED019091EE018217930758F08091F901EA
:100290009091FA0101969093EE018093ED014FBF8A
:1002A00008958091F9019091FA012817390790F784
:1002B0003093FA012093F901C90101969093EE0160
:1002C0008093ED014FBF0895883018F4880F880F90
:1002D000880F613061F108F1623069F06330B1F488
:1002E0008830D9F1803209F04AC08AE28093000157
:1002F000809301010895883059F1803299F58AE29E
:100300008093000188E280930101089587E0809343
:10031000000181E0809301010895883099F08032D6
:10032000A9F782E08093000180930101089588304D
:1003300049F08032F1F485E08093000182E08093FF
:100340000101089583E08093000110920101089556
:100350006093000110920101089510920001109223
:100360000101089587E08093000185E080930101F9
:10037000089584E08093000160930101089580E175
:100380008093000188E28093010108954F925F926B
:100390006F927F928F929F92AF92BF92CF92DF9295
:1003A000EF92FF92CF93DF93C82FD0E0FE01EE0FC4
:1003B000FF1FEE0FFF1FEC56FE4F86A897A8A0ACBC
:1003C000B1AC60E072E18AE790E0A50194010E947F
:1003D000731969017A010E942E182B013C01C50195
:1003E000B4010E942E189B01AC01C301B2010E940E
:1003F0009A1720E030E040E052E40E94FC1820E030
:1004000030E040E05FE30E9423170E9402184B0196
:100410005C01E114F10451F480E8C816D104E10450
:10042000F10408F066C02FE730E002C02EEF3FEF86
:10043000CE01002496958795079496958795079405
:10044000982F802DFC01E953FC4F895F9B4F21932E
:100450003193E817F907D9F781149104A104B10485
:10046000C9F1C501B4010E942E182B013C01C12C19
:10047000D12C7601CC0FDD1FC295D295D07FDC2721
:10048000C07FDC27C701B6010E942E1820E030E0B3
:1004900040E052E40E94FC18A30192010E949A17C6
:1004A0000E9487170E940218FE01E60FF11DEE0F51
:1004B000FF1FE953FC4F80819181019691838083D6
:1004C0008FEFC81AD80AE80AF80A8C149D04AE0403
:1004D000BF04C1F6DF91CF91FF90EF90DF90CF90F6
:1004E000BF90AF909F908F907F906F905F904F9054
:1004F000089581E0C81AD108E108F108960198CF63
:100500000F931F93CF9308E010E0C0E0C8010E9452
:100510008A139C2F982788E027E0990F08F49227E8
:100520008A95D9F7C92F0F5F1F4F043E81E0180746
:1005300069F7911101C0C1E08C2FCF911F910F91EC
:100540000895CF9387E090E00E948A13C82FD8DFE8
:1005500091E0C81390E0892FCF9108951F93CF9316
:10056000DF9300D000D0CDB7DEB7182F40E050E0C9
:1005700063E0CE0101960E94B01343E050E063E0D7
:1005800071E0CE0101960E94B419892B49F080E0F8
:100590000F900F900F900F90DF91CF911F910895C2
:1005A00083E090E00E949A136533734081059105C2
:1005B00071F7112391F180914704843040F788232B
:1005C00039F18091C603813210F78091E701909153
:1005D000E801C2978F379440D0F68091E90190915D
:1005E000EA01C2978F37944090F68091F301909181
:1005F000F401892B61F28091F5019091F601892B2C
:1006000031F29091DD01915081E0933108F2BFCF3A
:100610008091C6038131C8F2BACF93DF8111CBCF6D
:10062000B6CF89E090E00E948A1391E0811101C069
:1006300090E09093C4038AE090E00E948A1391E0D6
:10064000811101C090E09093C5038BE090E00E947F
:100650008A138093470488E090E00E948A13809375
:10066000C6038BE290E00E948A1391E0811190E032
:10067000909380018FE290E00E948A1391E08111B3
:1006800001C090E09093840181E09091C60398307E
:1006900008F080E0809382018AE290E00E948A1351
:1006A00091E0811190E0909381019091C603983080
:1006B00010F08111CBC01092830141E065E373E03B
:1006C00080E090E00E94B715609147048091C603D6
:1006D000FBDD80E043DF8111C0C081E080938901B0
:1006E00080938801BF9A80918901813009F4FAC012
:1006F000C798BD98C59A8A98929A309A389AD7988E
:10070000DF9AD498DC9AD698DE9AD598DD9AD19A59
:10071000D998D09AD8988E9A969AB89AC09A8C9A64
:100720009498329A3A988B9A93988F9A9798E091E6
:100730008201F0E0E050FF4F8081282F217080FF80
:1007400055C0959A982F987083FD55C08D9A222395
:1007500009F454C0C49A911155C0BC9A282F227034
:1007600081FF55C0DB9A982F907184FD55C0D39AB4
:10077000222309F454C0C39A911155C0BB9A282F63
:10078000247082FF55C0DA9A982F907285FD55C06B
:10079000D29A222309F454C0C29A911155C0BA9A30
:1007A0008FE99FE00197F1F700C00000D99AD89A2D
:1007B00089B78C7F89BF13BE8091840181114BC0A2
:1007C000319A3998B99AC19816BC12BC17BC17BC9B
:1007D00087B5806687BD87B5846087BD0E94D114C8
:1007E00060E875E280E090E00C945E149598982F94
:1007F000987083FFABCF8D982111ACCFC49899230B
:1008000009F4ABCFBC98282F227081FDABCFDB98C9
:10081000982F907184FFABCFD3982111ACCFC398A0
:10082000992309F4ABCFBB98282F247082FDABCF5E
:10083000DA98982F907285FFABCFD2982111ACCF68
:10084000C298992309F4ABCFBA98AACF81E08093DC
:10085000830148E033CF3198B4CF80E097DD81E069
:1008600095DD4091F3015091F401ABEFB1E0EBEB7A
:10087000F2E020E030E00CC012968C91129790E0EC
:100880000196280F391F139682E0AB3BB80731F071
:100890008D919C9111974817590770F33093C103BC
:1008A0002093C0034091F5015091F60120E030E023
:1008B0000AC0828190E00196280F391F339693E099
:1008C000EB37F90729F0808191814817590788F3A0
:1008D0003093C3032093C203BF9A80918901813072
:1008E00009F006CFC79A05CF40E050E063E083E00F
:1008F00091E00E941C1443E050E065E373E080E067
:1009000090E00C940514CF93DF93C4E9D1E06EA579
:100910007FA588A999A94EE050E00E9405146AA914
:100920007BA98CA99DA942E150E00E9405146EA903
:100930007FA988AD99AD46E150E00E9405146AADEB
:100940007BAD8CAD9DAD4AE150E00E9405146091F5
:10095000D4017091D5018091D6019091D7014EE1DB
:1009600050E00E9405146091D8017091D9018091E6
:10097000DA019091DB0142E250E00E940514C4ECE0
:10098000D3E069E070E088810E94F2136AE070E0D1
:1009900089810E94F2136BE070E0809147040E940D
:1009A000F21368E070E08091C6030E94F2136CE0DD
:1009B00070E08091F3010E94F2136DE070E080918D
:1009C000F5010E94F21366E270E08091E7019091D8
:1009D000E8010E94F61368E270E08091E9019091CD
:1009E000EA010E94F61380918101C1E06AE270E0A1
:1009F0008C270E94F213809180016BE270E08C27BB
:100A00000E94F2136CE270E08091E5019091E601A2
:100A10000E94F6136EE270E08091DD010E94F213F5
:100A20006FE270E0809184010E94F21344E650E08E
:100A300060E48BEF91E00E943D1444E251E060E4F9
:100A40008BEB92E00E943D145BDD67E070E0DF918C
:100A5000CF910C94F21338980000000000000000C1
:100A600080918001882321F0829B02C082E008955A
:100A7000389A000000000000000080B382FB992734
:100A800090F981E089270895829B14C038988AE004
:100A900000008150E9F7309888EC00008150E9F7B8
:100AA000829B04C082E0309A389A089581E0309A9F
:100AB000389A089580E0309A389A089580919C0180
:100AC00090919D0129B7277F29BF20918400309103
:100AD000850049B7486049BF4091EF015091F0014E
:100AE000782F692F8417950710F4742F652FE091E4
:100AF000B601E1113AC024173507B8F549B7477F69
:100B000049BF9093EC018093EB01309385002093D3
:100B100084007093F7016093F8019091C403809171
:100B2000B001981729F1939AEE23D9F081E090E073
:100B300099BD88BD8091FD0180937E0110927C015A
:100B400012BE1DBC1CBC8091C7039091C80395BD0B
:100B500084BD8EB5897F8EBD8EB581608EBD1092AD
:100B6000B60189B7886089BF0895272F362FC6CF71
:100B70009398DACF80919E0190919F0120917D0002
:100B80002F7D20937D002091860030918700409139
:100B90007D00406240937D004091F1015091F2014F
:100BA000782F692F8417950710F4742F652FE09123
:100BB000B701E11147C02417350708F043C0409141
:100BC0007D004F7D40937D009093EE018093ED0179
:100BD00030938700209386007093F9016093FA01A7
:100BE0009091C5038091B101981779F1979AEE23FE
:100BF00019F181E090E09BBD8ABD8091BD02809398
:100C00007F0110927D0111BE109289001092880020
:100C10008091070490910804909381008093800054
:100C200080918A00897F80938A0080918A00816008
:100C300080938A001092B70180917D00806280933A
:100C40007D000895272F362FBACF9798D0CF3F92A7
:100C50004F925F926F927F928F929F92AF92BF92CC
:100C6000CF92DF92EF92FF92CF93DF93E82FF0E0E5
:100C7000DF01AA0FBB1FED01C054DC4FE880F980F3
:100C8000EF01CC56DE4F9CA1992329F0A701440F18
:100C9000551FE40EF51E9A8D19160CF093C03A8C70
:100CA0009C8D9F01220F331F220F331FE901CC5669
:100CB000DE4F4A895B896C897D89A32CB12C250183
:100CC000440C551C052C000C660877084415550586
:100CD0006605770530F44A8A5B8A6C8A7D8AB3019F
:100CE000A201AE9C6001AF9CD00CBE9CD00C112424
:100CF0004A015B01B694A79497948794AD50BE4F78
:100D00000D90BC91A02DC8E03C1609F457C0E12C11
:100D1000F12C8C149D04AE04BF0410F47501640121
:100D20004C195D096E097F09E901CC56DE4FC88078
:100D3000D980EA80FB80992339F0709560955095B1
:100D400041955F4F6F4F7F4FE901C657DE4F4C0D06
:100D50005D1D6E1D7F1D488359836A837B83EE0F63
:100D6000FF1FE456FE4FB183A08395B3811113C0DA
:100D70009B7F95BBA89ADF91CF91FF90EF90DF907A
:100D8000CF90BF90AF909F908F907F906F905F902B
:100D90004F903F9093CE977F95BBA99ADF91CF91CB
:100DA000FF90EF90DF90CF90BF90AF909F908F908B
:100DB0007F906F905F904F903F90DCCE487FC8EF60
:100DC0008C22A5CF9A8D392E31946ACF811106C01D
:100DD0008091B601811101C00DCA089589B7877F3E
:100DE00089BF8EB5887F8EBD1092B40181E080935B
:100DF000B6018093A40110929201A89808958111E0
:100E000006C08091B701811101C029CA089580915F
:100E10007D008F7D80937D0080918A00887F809304
:100E20008A001092B50181E08093B7018093A501FB
:100E300010929301A9980895811113C081E0C6DF33
:100E4000969881E08093B20110927D0089B78370FB
:100E500089BF1FBC88E18EBD10928B0080938A00F1
:100E6000089581E0CCDFC09881E08093B301ECCF9E
:100E70008F929F92AF92BF92EF92FF920F93CF9378
:100E8000DF93D82F7B010E941F17C82F8091890103
:100E9000811137C0DF3409F452C0109287018D2FC1
:100EA0000D2E000C990BAA0BBB0BFC01E554F109AC
:100EB000EF32F10508F43FC00091880120E030E0F6
:100EC000A9016D2FC7010E94C515DA3409F075C359
:100ED00080918501811171C38091890181116DC358
:100EE000D0E0FE01EC56FE4F8089CE56DE4F80FFEB
:100EF00066C38881823009F460C381E08883C1E0E1
:100F000056C04D2F0D2E000C550B660B770BFA01BA
:100F1000E554F109EF32F10550F0FA01E154F1091D
:100F2000EA33F10548F6E85CFF4F0C949519EE584A
:100F3000FF4F0C949519EF55FF4F0C949519CC2346
:100F400009F442C380918701833108F4C1C1D701FC
:100F50008C9180538093890191E0811101C090E0D0
:100F600090938801811171C300E0C0E020E030E07F
:100F7000A901DFE418C00FB7F894C7010E94F51665
:100F8000D0E0CC0FDD1FCC0FDD1FCC56DE4F6883C9
:100F900079838A839B830FBF00918801C1E020E0A1
:100FA00030E0A901D5E46D2FC7010E94C5158C2F33
:100FB000DF91CF910F91FF90EF90BF90AF909F90F6
:100FC0008F900895D0E0CC0FDD1FCC0FDD1FCC52E9
:100FD000DE4F288139814A815B8100918801C1E01F
:100FE000D3E7E1CF8FB7F894D0E0CC0FDD1FCC0F63
:100FF000DD1FCC56DE4F288139814A815B818FBF4E
:1010000000918801C1E0DAE6CECFD0E0CC56DE4FC9
:101010002EAD30E040E050E000918801C1E0D7E61D
:10102000C2CFC7010E94F5162C2F30E040ECC49FC0
:10103000F0011124E854FD4F80809180A12CB12C47
:10104000F901EE0FFF1FE456FE4F462F572FBC014C
:10105000481559056A057B0508F4CBC051834083C8
:10106000F901EE56FE4F8081823009F4C7C010822C
:1010700000918801C1E020E030E0A901D9E493CFDC
:10108000C7010E94F516D0E0FE01EE0FFF1FEE0F24
:10109000FF1FEC56FE4F628B738B848B958BCE5665
:1010A000DE4F188200918801C1E020E030E0A90104
:1010B000D8E479CFD7018C91D0E0FE01EC56FE4FF9
:1010C00090ED980F908B91E011962C91203309F4BC
:1010D00093C0948FCE56DE4F188292A1992351F07F
:1010E00090918301992331F08153823008F4C4C276
:1010F00081E084A300918801C1E020E030E0A901F3
:10110000D7E451CFD0E0CC56DE4F8CA181116EC018
:1011100020E030E08C8D8111326088A1811101C006
:1011200031608AA1811101C020618E8D8111216001
:1011300040E050E000918801C1E0D6E634CFD0E035
:10114000CC0FDD1FCC0FDD1FCC56DE4F2EA13FA1F3
:1011500048A559A500918801C1E0D5E624CFD0E08B
:10116000CC0FDD1FCC0FDD1FCC56DE4F2EA53FA5CB
:1011700048A959A900918801C1E0D1E614CFC7015F
:101180000E94E61682BD00918801C1E020E030E0B7
:10119000A901D6E508CF81E0C1111AC017DE26D813
:1011A00000918801C1E020E030E0A901DCE4FBCE41
:1011B00080E0CC23C9F023DED0E0CE56DE4F18828B
:1011C00000918801C1E020E030E0A901DBE4EBCE32
:1011D00016DEC09A1092B30100918801C1E020E0B0
:1011E00030E0A901DCE4DFCEF1DDE6CF20E034E041
:1011F00091CFB501A40132CF90E06BCFC11115C2E0
:101200005DDC00918801C1E020E030E0A901D9E473
:10121000CACE00918801C1E024E030E040E050E017
:10122000D0E0C1CEEC2FF0E0EE0FFF1FEE0FFF1F5E
:10123000EC56FE4F26A937A940AD51AD009188016B
:10124000C1E0B1CEC13009F4DFC12091800130E0AE
:1012500040E050E000918801C1E0A5CE8C2F90E0E5
:10126000FC01EE0FFF1FE951FE4F20813181590132
:10127000AA0CBB1C880F991F880F991FFC01EC5604
:10128000FE4FD501119626A937A940AD51AD0E9458
:10129000AA19950140E050E00E947319009188015D
:1012A000C1E081CED7018C91805309F0A2C1009199
:1012B0008801C1E020E030E040E850E074CE8C2F9F
:1012C000BBDD00918801C1E020E030E0A9016BCED8
:1012D000F70190819153933008F4D7C110928701A0
:1012E00000918801C1E020E030E0A901D0E05BCEB0
:1012F0004C2F50E0FA01E458FE4F6081862F90E0B9
:101300009C01220F331F280F391F70EC749FC001FE
:10131000759F900D1124820F931F8C569E4FDC01F8
:10132000A959BF4FCC9111967C91119712962C2FF1
:10133000372F4C9150E081E0860F803408F0B4C123
:10134000808300918801C1E02ECEEC2FF0E0EE0FFB
:10135000FF1FED50FE4F2081318140E050E0F1CF82
:10136000C13009F4CFC12091DD0171CFCC2309F444
:101370009DC100918801C1E020E030E0A901D0E0EA
:1013800012CEC7010E94F516EC2FF0E0EE0FFF1F02
:10139000EE0FFF1FEC52FE4F6083718382839383B5
:1013A00000918801C1E020E030E0A901FCCDC70137
:1013B0000E94E616EC2FF0E0EE0FFF1FED50FE4FFF
:1013C00090E09183808300918801C1E020E030E0CB
:1013D000A901E9CDC7010E94E616EC2FF0E0E45820
:1013E000FE4F808300918801C1E0803408F46CCF07
:1013F00023E030E040E050E0D0E0D5CDC7010E94CE
:10140000F516AC2FB0E0FD01E458FE4F9081292F76
:1014100030E0A901440F551F420F531FC0ECCA9F73
:101420009001CB9F300D1124240F351F2C563E4FB9
:10143000D901A959BF4F11967C936E9312968C9344
:1014400081E0890F8083803408F43BCF10820091C3
:101450008801C1E020E030E0A901A5CD823009F487
:1014600083C1833009F478C1813009F02ACF81E04B
:10147000F7019081903309F4A8C170D8811194C10B
:1014800000918801C1E0B4CFC13009F433C120918B
:101490004704DDCEEC2FF0E0EC53FC4F2081D7CE9B
:1014A000EC2FF0E0EE0FFF1FE951FE4F54CFC701C4
:1014B000C13009F430C10E94E616809347040091C0
:1014C0008801C1E020E030E0A9016DCDEC2FF0E013
:1014D000EC53FC4F81E0D7019C91903309F4F8C0A4
:1014E000808300918801C1E020E030E0A9015BCD5C
:1014F000C701C13009F4DDC00E94E61691E08111F8
:1015000001C090E09093800100918801C1E020E04B
:1015100030E0A90148CDC7010E94F516EC2FF0E09C
:10152000EE0FFF1FEE0FFF1FEC56FE4F66AB77ABC3
:1015300080AF91AF00918801C1E020E030E0A901C7
:1015400032CDC7010E94F516EC2FF0E0EE0FFF1F21
:10155000EE0FFF1FEC56FE4F66A777A780AB91AB4F
:1015600000918801C1E020E030E0A9011CCDC70155
:10157000C13009F4AFC00E94E6169FEF980F933177
:1015800008F07ECF8093DD0100918801C1E020E06A
:1015900030E0A90108CDC7010E94F516EC2FF0E05C
:1015A000EE0FFF1FE951FE4F7183608300918801A8
:1015B000C1E020E030E0A901F6CCC1E0F8CC81E048
:1015C000888380A3C1E0F3CC809184018823B1F1AA
:1015D0003998F7018081803309F462C0319A109202
:1015E000870100918801C1E020E030E0A901DFE43B
:1015F000DACC00918801C1E0813009F0BDCE2CE148
:1016000034E040E050E0CFCC80918101282F30E0E1
:1016100040E050E09091C603983060F1C827C09335
:10162000830100918801C1E0BECCA4DA0091880159
:10163000C1E020E030E0A901D9E4B5CC319AD7016E
:101640008C91803379F1399ACACF81E0BFDB0E9457
:10165000F60081E0D4DBC09A1092B301109292019F
:101660001092930100918801C1E020E030E0A901CF
:10167000DFE499CCC0E0D3CF14A200918801C1E08F
:1016800020E030E0A901D7E48ECC8F5F8093870102
:1016900000918801C1E020E030E0A901D0E083CCD6
:1016A00031989DCF39989BCF10824BCE20918401E9
:1016B000CECD0E94E61691E0811101C090E090939A
:1016C000810100918801C1E020E030E0A9016BCCEC
:1016D00080E006CF0E94F51661157105B1E08B0719
:1016E000910560F10091880123E030E040E050E096
:1016F000D0E059CC2091C60330E040E050E00091AA
:10170000880151CC2091E5013091E60140E050E0A4
:101710000091880148CC0E94E6168093C603883069
:10172000C0F0809181018C278170809383010091AA
:101730008801C1E020E030E0A90135CC7093E601DA
:101740006093E50100918801C1E020E030E0A9014B
:101750002ACC80E090E0E8CFC7D800918801C1E0B2
:1017600020E030E0A9011FCCCED800918801C1E073
:1017700020E030E0A90117CCC11113C0882309F47F
:1017800023CF81E0D7019C91903349F0809384016D
:1017900000918801C1E020E030E0A90104CC80E0A4
:1017A000F5CF8111D4CBCECB0E94A102811189CD7E
:1017B0000E94800267E070E00E94F21300918801AD
:1017C000C1E020E030E0A901EECB80E056CECF931F
:1017D000DF93CDB7DEB760970FB6F894DEBF0FBECC
:1017E000CDBF78940E941103AA24AA94CC24CA9451
:1017F000312C212C10E0D12CE12CF12CBB24B39402
:1018000099249A9482E0882E412C512C90E8692EDC
:10181000712C86B391E0282F207285FD90E0909383
:10182000850121110AC08091B601882309F48FC176
:101830008091B701882309F487C18FEFE81AF80A6D
:1018400080918601811112C1E114F10409F097C061
:1018500080918901882309F4E3C1809102018111FB
:1018600093C088B3805888BB0FD9082F8091DC01C2
:101870000817C1F1802F9DD580918301882319F02D
:10188000023009F411C3809100019091B0019923B5
:1018900009F4B2C29092AE011092B8019091B101D8
:1018A000992309F4A6C29092AF011092B901382F82
:1018B000317080FF68C2959A282F227081FF61C223
:1018C000DB9A982F947082FF5AC2DA9A332309F474
:1018D00054C2C49A222309F44EC2C39A992309F42C
:1018E00048C2C29A80918501811193CFCC9BCEC012
:1018F000CF9B85C20FEF80E09FB7F8946091840082
:10190000709185009FBF2091B601211157C1409170
:10191000B00150E0E82FF0E04E175F0709F44EC128
:101920004091EF015091F0016417750708F046C12E
:101930000E94FA00CD9B6DC1CE9B67C20FEF80E085
:101940009FB7F89440918600509187009FBF909177
:10195000B7019111EBC12091B10130E0682F70E027
:101960002617370709F43DC22091F1013091F201A9
:101970004217530708F035C20E942F014ACF8091C9
:101980000201882309F47AC01E3F09F4D9C00E94DD
:101990001B158823F1F088B3805888BB0E94261558
:1019A000D82E409188016D2DCE0101960E94981687
:1019B000182F882371F00CF4FDC0BE016F5F7F4FBC
:1019C00057DA082FCE0101960E946A15002309F408
:1019D000DCC1E114F10431F480918901813009F412
:1019E000A3C1C7988091850181116EC08091860145
:1019F00081116AC0E11068C0CC9B11C209B3000F0D
:101A0000000B0C1551F08091B001811105C080913F
:101A10009201823009F48DC2C02ECD9B02C209B35F
:101A200006FB002700F901958091B50181114CC09A
:101A30000A1509F449C081E0013009F080E0909175
:101A4000B70191112BC02091B101281739F10E94E3
:101A50002F011092930180919201813009F0D9CE2B
:101A60008091B601882309F4D4CE79C08091020117
:101A700081118ACFE114F10409F4F3CE809185013C
:101A80008111C7CEE110C5CECC9932CF81E0C81606
:101A900009F450CF8091E20101E02ECF0F3F09F40D
:101AA0006CC22091E3013091E40130939F012093B7
:101AB0009E018093B101013009F453C2B092AF018D
:101AC00059D8A02E3324339480919201813009F4A7
:101AD00041C080919301813009F09BCE9091B70174
:101AE000992309F496CE2091A50190918301992321
:101AF00009F468C19FEF920F923008F404C29091EC
:101B000001018091D3013091B101332309F49AC1CD
:101B100081958093AF01B092B90190FFB5C1C49A8D
:101B200093FDB0C1BC9A91FFABC1C39A94FDA6C10D
:101B3000BB9A92FFA1C1C29A95FD9CC1BA9A4AC1B3
:101B400088B3805888BB2DCF81E059D976CE81E00B
:101B50003DD96ECE8091B601882309F4BACF909119
:101B6000A40180918301882309F41CC18FEF890FA0
:101B7000823008F4D3C1809101012091D2013091CB
:101B8000B00131115BC12093AE01B092B80180FF6A
:101B900083C1959A83FD7EC18D9A81FF79C1DB9ABD
:101BA00084FD74C1D39A82FF63C1DA9A85FD5EC158
:101BB000D29A01C1CE0101968DD70BCF0F3F09F408
:101BC00032C1E02FEE0FFF0BE252FE4F40815181F8
:101BD00050939D0140939C01982F91709093B00178
:101BE0009091B801992309F4C2C09091D201882341
:101BF00009F4BAC091959093AE010F3F29F48091FA
:101C0000DC01823009F44AC10E945E05C02ECD99E4
:101C100093CE81E0A81609F4FCCD01E081E090CEDE
:101C20000E942B05082F882309F417CE81E0CED817
:101C300081E0E5D88FB7F8944092940150929501D5
:101C4000609296017092970140929801509299018A
:101C500060929A0170929B018FBF7BD6B0928601F1
:101C6000023009F497C110920201389AE091820182
:101C7000F0E0E050FF4F8081282F217080FDE5C00B
:101C80009598982F987083FD2AC18D9A222309F484
:101C900024C1C49A911135C1BC9A282F227081FFAA
:101CA0002EC1DB9A982F907184FD27C1D39A2223ED
:101CB00009F421C1C39A91111CC1BB9A282F247029
:101CC00082FF15C1DA9A982F907285FD0EC1D29AC3
:101CD000222309F408C1C29A911103C1BA9A80E083
:101CE00068D31092B8011092B90180E0A5D881E0C4
:101CF000A3D8B092A401B092A5011092B001B09205
:101D0000AE011092B101B092AE018091E7019091C5
:101D1000E80190939D0180939C01B0929201AA24C6
:101D2000AA94CC24CA9499CDC79A5CCE0F3F09F4EB
:101D30009AC02091E3013091E40130939F012093F8
:101D40009E018093B1019091B901992309F465C076
:101D50009091D301882309F45DC091959093AF01D0
:101D60000E94BA05A02E55CD9093AE0146CF91E0CA
:101D70003ECFC298B7CDC398B1CDC498ABCDDA9859
:101D8000A5CDDB989ECD959897CD96D69BE088E122
:101D90000FB6F894A89581BD0FBE91BD80E090E08C
:101DA0000E94D7198091B001882309F444C0909211
:101DB000AE011092B80190FF50C00E945E05809263
:101DC000920187CE9091B101911132C08093AF0101
:101DD0001092B90120FF3BC00E94BA058092930186
:101DE00018CD0F3F09F0A5CF0E942F01AA24AA9475
:101DF00010CDB092AF0159CDB092AE014DCDCC20F7
:101E000009F498CD00E080E077CDAA2009F401CD57
:101E100000E095CD9093AF01A3CF91E09BCF01E07F
:101E2000F0CD01E001CE4091E7015091E801D0CE24
:101E30009092AF01CDCFB092AE01BBCF2195209350
:101E4000AE01A3CE8093AF0166CE959A1ACF81E002
:101E50000E94270610929301DCCC80E00E942706A6
:101E60001092920136CEAA24AA94D3CCD298A3CFB2
:101E7000DA989CCEBA98AECFC2985ECEBB9859CEB7
:101E8000C39854CEBC984FCEC4984ACED3988BCE2C
:101E9000DB9886CE8D9881CE95987CCE222309F44E
:101EA00074C0CC24CA9446CD809101019091D20196
:101EB0002091B001211151C09093AE01B092B801B0
:101EC0009091D3012091B101222309F453C091953F
:101ED0009093AF01B092B901EACCC498DBCE8D9853
:101EE000D5CEBA98FCCEC298F7CED298F1CEDA9879
:101EF000EACEBB98E3CEC398DECED398D8CEDB989B
:101F0000D1CEBC98CACE909100013091B10131116F
:101F10002EC08093AF011092B901FFCD80910001D6
:101F20002091B001211120C0B092AE011092B801F1
:101F30002ECE0F3F09F43FC0E02FEE0FFF0BE25211
:101F4000FE4F8081918190939D0180939C010E941E
:101F50005E05C02E2224239460CD91959093AE010E
:101F6000ADCF9092AF01ACCD9092AE01DFCF909209
:101F7000AF01D1CF9093AF01ADCF332009F19923B9
:101F800011F1AA24AA94312C9FCD0E94FA00CC24EE
:101F9000CA94D0CCB0920201ECD40091880124E024
:101FA00030E040E050E060E0CE010C96EED5CE018E
:101FB0000C9690D552CC21100CC0CC24CA942DCDB7
:101FC000AA24AA9481CD0E942F01AA24AA94312C7C
:101FD0007BCD8091E7019091E80190939D018093E2
:101FE0009C010E945E05CC24CA94212C16CD1F9220
:101FF0000F920FB60F9211240F931F932F933F93BD
:102000004F935F936F937F938F939F93EF93FF9380
:102010008AB59BB5019709F05EC081B7E82FEE73D2
:10202000F0E0E95FFB4F2081318130938100209304
:1020300080008F5F81BF80918600909187009BBD5B
:102040008ABD2A9B5BC03A98009198011091990132
:1020500020919A0130919B014091AF01042E000C18
:10206000550B660B770B400F511F621F731F409378
:1020700098015093990160939A0170939B01A99BD9
:1020800010C0AB990EC000918E0110918F0120916C
:10209000900130919101401751076207730709F4CD
:1020A00083C02091F9013091FA0128173907A8F46B
:1020B000A99B03C01092B501A99881E08093B70154
:1020C00080917D008F7D80937D0080918A00887F44
:1020D00080938A0002C09BBD8ABDFF91EF919F91C2
:1020E0008F917F916F915F914F913F912F911F91B0
:1020F0000F910F900FBE0F901F9018953A9A209154
:102100007F01211123C02091ED013091EE012817AC
:10211000390700F580917D018F3398F48F5F8093AC
:102120007D0190E0AC01440F551F840F951F8C5624
:102130009E4FFC01E95DFE4F408151812417350718
:1021400018F13093870020938600C7CF2150209349
:102150007F01C3CF8217930728F580917D018823E3
:1021600081F3815080937D0190E0AC01440F551FB5
:10217000840F951F8C569E4FFC01E95DFE4F4081F8
:10218000518142175307E8F62091B9012223D9F073
:1021900032968081982F990F890F8E5F80937F01EF
:1021A0009A01CFCF9C01CDCFAB9A2091F90130910C
:1021B000FA01A9014F5F5F4F5093EE014093ED018B
:1021C00010927F0172CFFC01E75DFE4F808180930A
:1021D0007F019A01B6CF1F920F920FB60F92112472
:1021E0000F931F932F933F934F935F936F937F931F
:1021F0008F939F93EF93FF9388B599B5019709F05B
:1022000058C082B7E82FEE73F0E0E953FC4F20810D
:10221000318135BD24BD8F5F82BF80918400909154
:10222000850099BD88BD849B57C094980091940106
:102230001091950120919601309197014091AE0146
:10224000042E000C550B660B770B400F511F621FBD
:10225000731F40939401509395016093960170937E
:102260009701A89B10C0AA990EC000918A011091F5
:102270008B0120918C0130918D014017510762072D
:10228000730709F47FC02091F7013091F8012817F6
:10229000390788F4A89B03C01092B401A89881E084
:1022A0008093B60189B7877F89BF8EB5887F8EBD41
:1022B00002C099BD88BDFF91EF919F918F917F9151
:1022C0006F915F914F913F912F911F910F910F90BF
:1022D0000FBE0F901F901895949A20917E012111A6
:1022E00023C02091EB013091EC012817390700F54C
:1022F00080917C018F3398F48F5F80937C0190E014
:10230000AC01440F551F840F951F8C569E4FFC0146
:10231000E959FF4F408151812417350718F1309357
:10232000850020938400C7CF215020937E01C3CF26
:102330008217930728F580917C01882381F38150CF
:1023400080937C0190E0AC01440F551F840F951FD2
:102350008C569E4FFC01E959FF4F40815181421735
:102360005307E8F62091B8012223D9F032968081F4
:10237000982F990F890F8E5F80937E019A01CFCF9E
:102380009C01CDCFAA9A2091F7013091F801A901C3
:102390004F5F5F4F5093EC014093EB0110927E0131
:1023A00076CFFC01E759FF4F808180937E019A012F
:1023B000B6CF482F8093DC018230A9F1813009F437
:1023C0004AC08091E7019091E80144E1489FF00103
:1023D000499FF00D11242091DD0130E0B9016C5EC0
:1023E0007F4FCF016CD77093DF016093DE0164E112
:1023F00070E0621B730BCF0162D77093E1016093B1
:10240000E0011092E2016091E9017091EA01469FBA
:10241000C001479F900D1124B90151D77093E40179
:102420006093E30108958091F3019091F4019093FA
:10243000DF018093DE019093E1018093E00181E070
:102440008093E2018091F5019091F6019093E4016F
:102450008093E3010895E091E701F091E8019F0185
:10246000ABEABAEA68D7969587959093DF01809397
:10247000DE01F093E101E093E0014093E2018091FD
:10248000E9019091EA01969587959093E4018093F4
:10249000E30108952F923F924F925F926F927F9245
:1024A0008F929F92AF92BF92CF92DF92EF92FF9264
:1024B0000F931F93CF93DF9300D000D0CDB7DEB73B
:1024C0006B017C01242E8EE090E034D16093C20138
:1024D0007093C3018093C4019093C50182E190E0A1
:1024E00029D16093C6017093C7018093C80190936E
:1024F000C90186E190E01ED16093CA017093CB01BF
:102500008093CC019093CD018AE190E013D1609348
:10251000CE017093CF018093D0019093D1018EE1D1
:1025200090E008D16093D4017093D5018093D601D7
:102530009093D70182E290E0FDD06093D801709330
:10254000D9018093DA019093DB0186E290E0E3D039
:102550009093E8018093E70188E290E0DCD09093CB
:10256000EA018093E9018CE090E0D4D090E0909370
:10257000F4018093F3018DE090E0CCD090E0909353
:10258000F6018093F5018EE290E0C4D08093DD01E6
:102590008CE290E0C0D09093E6018093E50144E6A0
:1025A00050E060E48BEF91E0FCD044E251E060E465
:1025B0008BEB92E0F6D0E4E9F1E067EE71E04BEFEF
:1025C00051E00FEE11E087EF682E81E0782E9BEE50
:1025D000492E91E0592EFA83E983FC83EB8320E0B6
:1025E00030E033243394812C912CA0E8AA2EB12C16
:1025F000148EC9018C569E4FDC015A963C9214A24F
:1026000032A210A2168EAB81BC818D929D92AD92AA
:10261000BC921397DB018D919D91BD01A981BA8177
:1026200019969C938E931897308AAB81BC815296F1
:102630001D921D921D921C9255979696CD92DD92F9
:10264000ED92FC92999726AEDA018D919C91D8017A
:102650008D939D938D01D3018D939D933D010196A3
:10266000D2018D939D932D01A981BA811D969C93D2
:102670008E931C972F5F3F4F31968B819C810496E0
:102680009C838B831296BA83A98340545F4F223078
:10269000310509F0ADCF80E00F900F900F900F90B3
:1026A000DF91CF911F910F91FF90EF90DF90CF902E
:1026B000BF90AF909F908F907F906F905F904F9062
:1026C0003F902F9076CEEAE0F1E02AE690E005C058
:1026D0009F5F9732E9F0208133968213F9CF892FDB
:1026E00090E0FC01EE0FFF1F8E0F9F1FFC01E95FC2
:1026F000FE4F611105C08281411105C08F700895A0
:1027000081814423D9F3859585958595859508958F
:102710008FEF089537C61F93CF93DF93EC0132D626
:10272000182FCE0101962ED6982F812FDF91CF91B1
:102730001F910895CF92DF92EF92FF92CF93DF9394
:10274000EC01E9DF6C01CE010296E5DF7C01C701F7
:10275000B601DF91CF91FF90EF90DF90CF90089579
:10276000EF92FF920F931F93CF93DF93662391F025
:10277000EA018C0161507A01E60EF11C8FEFE81A34
:10278000F80ACE01FFD5F80181938F012196CE156D
:10279000DF05B9F7DF91CF911F910F91FF90EF9077
:1027A0000895EF92FF920F931F93CF93DF93E62E3E
:1027B0008A01662381F0EC01F12CC801ACDF99831A
:1027C0008883C8010296A7DF8A830D5F1F4FF394A9
:1027D0002396EF10F2CFDF91CF911F910F91FF90D1
:1027E000EF900895282FCB01622FD4C51F93CF936C
:1027F000DF93192FEB01682FCE01CCD5612FCE01CD
:102800000196DF91CF911F91C5C5CF92DF92EF92D4
:10281000FF92CF93DF936B017C01EA01BA01C601FD
:10282000E5DFBE016E5F7F4FC701DF91CF91FF9063
:10283000EF90DF90CF90DACFEF92FF920F931F933C
:10284000CF93DF93662391F0EC016150E62EF12CDB
:102850008FEFE81AF80AEC0EFD1E8A016991C80193
:1028600099D50F5F1F4FCE15DF05C1F7DF91CF91CF
:102870001F910F91FF90EF900895EF92FF920F93A9
:102880001F93CF93DF93E62E8A01662381F0EC013C
:10289000F12CB80188819981A9DF6A81C80102966B
:1028A00079D50D5F1F4FF3942396EF10F2CFDF9190
:1028B000CF911F910F91FF90EF900895CF92DF92EB
:1028C000EF92FF926B017C0182E08BB960E079E0CE
:1028D0008DE390E0A701960106D5DA01C9010197C1
:1028E000A109B109AC01BD0176956795579547954A
:1028F000942F852F252F207FA9F01BB860E874E85E
:102900008EE190E0A7019601EED4DA01C9010197AA
:10291000A109B109AC01BD01769567955795479519
:10292000942F852F8F7080BD99B98FB7F89410922E
:10293000BE031092BF0310929C0310929D038FBFA1
:10294000549A539A579A5598FF90EF90DF90CF90F2
:10295000089554985398579855988FB7F894EEE97E
:10296000F3E010A211A2ECE7F3E010A211A28FBFD6
:102970000895D59ADD9AD798DF9AD69ADE9AD49A96
:10298000DC9A389A8FB7F894EEE9F3E010A211A21E
:10299000ECE7F3E010A211A28FBF81E080937B03EC
:1029A0000895D598DD9AD798DF9AD698DE9AD4986C
:1029B000DC9A10927B038FB7F894EEE9F3E010A253
:1029C00011A2ECE7F3E010A211A28FBF089598E0E6
:1029D00008C00000DE98DD9A880FCF990AC0915098
:1029E00059F0DD9887FFF5CFDE9ADD9A880FCF9BEF
:1029F000F6CF8F5F9150A9F7089590919D03809134
:102A00009C03981709F082990895DC9881E8DFDF2C
:102A1000829BFECF80E8DBDF87FD0BC0E0919C034B
:102A2000F0E0E458FC4F808380919C038F5F80939B
:102A30009C03DC9A089580917B038111DEDF8091F5
:102A40009C0390919D03891B8F71089590919D0324
:102A500080919C03981751F0E92FF0E0E458FC4F67
:102A600080819F5F9F7190939D0308958FEF0895DC
:102A7000539B12C09091BE039F5F9F712091BF0333
:102A80009217A1F0E091BE03F0E0E256FC4F808384
:102A90009093BE03559A089590917B03911101C0C4
:102AA0000895DC988F7793DFDC9A0895559A2091EA
:102AB000BF039217E1F3E6CF539B0BC09091BE0387
:102AC0008091BF03981729F0559A8091BF039813FE
:102AD000FCCF0895CF93DF93EC018881882329F000
:102AE0002196C6DF89918111FCCFDF91CF910895A6
:102AF0002F932FB72F939F938F93EF93FF932CB127
:102B000080919C038F5F8F7190919D03891741F095
:102B1000E0919C03F0E0E458FC4F208380939C03F9
:102B2000FF91EF918F919F912F912FBF2F9118952A
:102B30008F938FB78F939F93EF93FF938091BF03F2
:102B40009091BE03891302C055980AC0E82FF0E0A7
:102B5000E256FC4F90818F5F8F718093BF039CB9C9
:102B6000FF91EF919F918F918FBF8F911895109248
:102B70004B0410924D042BE0EEE4F4E0DF011D92D3
:102B80002A95E9F710924A0485CCEF92FF920F93B1
:102B90001F93CF93DF937C01862FE901142F6111DE
:102BA0001AC081E2F701808380E38183CF70CA304D
:102BB00008F0C95FC05DF701C283E2E0F0E0EE0D0E
:102BC000FF1D8DE081831282DF91CF911F910F91C4
:102BD000FF90EF900895402F60E075DD87FDE1CF15
:102BE0009DE3F7019083823041F08330C9F0863055
:102BF00099F1E82F880FFF0BE2CF8C2F82958F7011
:102C0000CF70CA3008F0C95FC05DF701C2838A3057
:102C100008F0895F805DF7018183E2E0F0E0CFCFCB
:102C20008C2F9C2F8F708A3008F0895F805DF701B0
:102C30008383892F82958F708A3008F0895F805D49
:102C4000F7018283DF70DA3008F0D95FD05DF701D9
:102C5000D183E3E0F0E0B3CF812F82958F701F70B6
:102C60001A3008F0195F105DF70116838A3008F0FA
:102C7000895F805DF70185838D2F82958F70DF706E
:102C8000DA3008F0D95FD05DF701D4838A3008F0DC
:102C9000895F805DF70183838C2F82958F70CF7061
:102CA000CA3008F0C95FC05DF701C2838A3008F0FE
:102CB000895F805DF7018183E6E0F0E080CF0F93CC
:102CC0001F93CF9320914E0420934C0490914F0476
:102CD000915390934A04923028F083E0CF911F9152
:102CE0000F9108958B01C82F61E0822FECDC4DEF2E
:102CF0004C0F082E000C990B242F30E082179307FD
:102D000011F081E0EBCF442369F0E0E5F4E0D80175
:102D10008CEF8C0F90E08F5A9B4F41914D93E817A9
:102D2000F907D9F7F801E20FF31F10828FEFD6CF22
:102D3000CF93DF93EC0190914B049923A1F06A3378
:102D4000E1F0E0914D0481E08E0F80934D04F0E0BE
:102D5000E25BFB4F60836D3011F18B30E9F080E076
:102D6000DF91CF9108956A33D1F710924D0481E03D
:102D700080934B0410924E04F2CF93E38EEF21E246
:102D8000288320E329839A831B829DE09C831092F1
:102D90004B04DF91CF91089591E38FEFF0CFBE0107
:102DA0008EDF87FD0BC091E2988390E39983982F83
:102DB0009F709A3040F0995C8FEFE5CF10924B04F2
:102DC00080914C04CDCF905D8FEFDDCFFC019181E0
:102DD0009A330CF09750905380818A330CF08750CF
:102DE0008295807F9F70892B0895FC0161816A33F1
:102DF0000CF06750605380818A330CF087508295C5
:102E0000807F6F70682B73817A330CF0775070532A
:102E100082818A330CF087508295807F7F70782B77
:102E200095819A330CF09750905384818A330CF03B
:102E300087508295807F9F70892B90E008958091C4
:102E40004A0408955058BB27AA270ED084C175D1D3
:102E500030F07AD120F031F49F3F11F41EF46AC1B2
:102E60000EF4E095E7FB37C1E92F86D180F3BA175E
:102E7000620773078407950718F071F49EF5B5C1D2
:102E80000EF4E0950B2EBA2FA02D0B01B901900185
:102E90000C01CA01A0011124FF27591B99F0593FC9
:102EA00050F4503E68F11A16F040A22F232F342F11
:102EB0004427585FF3CF469537952795A795F0405F
:102EC0005395C9F77EF41F16BA0B620B730B840B74
:102ED000BAF09150A1F0FF0FBB1F661F771F881F2C
:102EE000C2F70EC0BA0F621F731F841F48F4879584
:102EF00077956795B795F7959E3F08F0B3CF939573
:102F0000880F08F09927EE0F97958795089556D169
:102F100080F09F3740F491110EF468C160E070E0DA
:102F200080E89FE3089526F01B16611D711D811D29
:102F3000D8C0F2C00CD00FC107D140F0FED030F0A5
:102F400021F45F3F19F0C7C0511150C1F3C014D133
:102F500098F39923C9F35523B1F3951B550BBB2760
:102F6000AA2762177307840738F09F5F5F4F220F0D
:102F7000331F441FAA1FA9F333D00E2E3AF0E0E806
:102F800030D091505040E695001CCAF729D0FE2F52
:102F900027D0660F771F881FBB1F261737074807E4
:102FA000AB07B0E809F0BB0B802DBF01FF2793589A
:102FB0005F4F2AF09E3F510568F08DC017C15F3FFB
:102FC000ECF3983EDCF3869577956795B795F79582
:102FD0009F5FC9F7880F911D9695879597F908957A
:102FE000E1E0660F771F881FBB1F62177307840716
:102FF000BA0720F0621B730B840BBA0BEE1F88F725
:10300000E0950895C1D088F09F5790F0B92F992787
:10301000B751A0F0D1F0660F771F881F991F1AF0E3
:10302000BA95C9F712C0B13081F0DFD0B1E0089590
:10303000DCC0672F782F8827B85F39F0B93FCCF311
:10304000869577956795B395D9F73EF490958095D9
:10305000709561957F4F8F4F9F4F0895E89409C0F9
:1030600097FB3EF490958095709561957F4F8F4FBB
:103070009F4F9923A9F0F92F96E9BB279395F695D1
:10308000879577956795B795F111F8CFFAF4BB0F4F
:1030900011F460FF1BC06F5F7F4F8F4F9F4F16C0B3
:1030A000882311F096E911C0772321F09EE8872F3D
:1030B000762F05C0662371F096E8862F70E060E0F9
:1030C0002AF09A95660F771F881FDAF7880F969572
:1030D000879597F9089597F99F6780E870E060E019
:1030E0000895882371F4772321F09850872B762F49
:1030F00007C0662311F499270DC09051862B70E00C
:1031000060E02AF09A95660F771F881FDAF7880F1C
:103110009695879597F908959F3F31F0915020F447
:10312000879577956795B795880F911D96958795A3
:1031300097F908959FEF80EC089500240A941616DD
:10314000170618060906089500240A941216130695
:10315000140605060895092E0394000C11F4882323
:1031600052F0BB0F40F4BF2B11F460FF04C06F5F3F
:103170007F4F8F4F9F4F089557FD9058440F551F15
:1031800059F05F3F71F04795880F97FB991F61F0E9
:103190009F3F79F087950895121613061406551F60
:1031A000F2CF4695F1DF08C0161617061806991FCC
:1031B000F1CF86957105610508940895E5DFA0F0CB
:1031C000BEE7B91788F4BB279F3860F41616B11D07
:1031D000672F782F8827985FF7CF86957795679523
:1031E000B11D93959639C8F30895E894BB276627D7
:1031F0007727CB0197F908950BD0ADCF9EDF28F04C
:10320000A3DF18F0952309F066CF94CF1124EECFF9
:10321000B3DFA0F3959FD1F3950F50E0551F629F48
:10322000F001729FBB27F00DB11D639FAA27F00D1F
:10323000B11DAA1F649F6627B00DA11D661F829F46
:103240002227B00DA11D621F739FB00DA11D621F2B
:10325000839FA00D611D221F749F3327A00D611D48
:10326000231F849F600D211D822F762F6A2F11242A
:103270009F5750408AF0E1F088234AF0EE0FFF1F7D
:10328000BB1F661F771F881F91505040A9F79E3FB4
:10329000510570F020CFAACF5F3FECF3983EDCF3EE
:1032A000869577956795B795F795E7959F5FC1F7F1
:1032B000FE2B880F911D9695879597F90895AA1B67
:1032C000BB1B51E107C0AA1FBB1FA617B70710F011
:1032D000A61BB70B881F991F5A95A9F78095909543
:1032E000BC01CD010895A1E21A2EAA1BBB1BFD0152
:1032F0000DC0AA1FBB1FEE1FFF1FA217B307E407D5
:10330000F50720F0A21BB30BE40BF50B661F771F2C
:10331000881F991F1A9469F760957095809590950C
:103320009B01AC01BD01CF010895EE0FFF1F059079
:10333000F491E02D0994A29FB001B39FC001A39F17
:10334000700D811D1124911DB29F700D811D1124DE
:10335000911D0895F0DFA59F900DB49F900DA49F3F
:10336000800D911D11240895FB01DC014150504056
:1033700030F08D910190801919F40020B9F7881B65
:10338000990B0895E199FECF9FBB8EBBE09A9927D8
:103390008DB30895262FE199FECF9FBB8EBB2DBB29
:1033A0000FB6F894E29AE19A0FBE01960895F89448
:0233B000FFCF4D
:1033B200030001414551006A006666003349660018
:1033C2004722004A00004B00004866004D66006537
:1033D20000666100666200666700227300664566E9
:1033E200005011004600004C0000562200710626D3
:1033F2004F11004166004266005366006E00664E41
:1034020066004422006400224311006300225A2213
:10341200007A00225266007200665122006F00227A
:0C34220058660078006659220054110022
:00000001FF
