:1000000009C1000031C100002FC100002DC1000056
:100010002BC1000029C1000027C1000025C100003C
:1000200023C1000021C100001FC100001DC100004C
:100030001BC1000019C1000017C1000015C100005C
:100040000C94651211C100000FC100000DC1000029
:100050000BC1000009C1000007C1000005C100007C
:1000600003C100000C944A180C946B18FDC00000EA
:10007000FBC00000F9C00000F7C000000C9467113D
:10008000F3C00000F1C00000EFC00000EDC00000B0
:10009000EBC00000E9C00000E7C00000E5C00000C0
:1000A000E3C00000E1C00000DFC00000DDC00000D0
:1000B000DBC00000D9C00000D7C00000D5C00000E0
:1000C000D3C00000D1C00000CFC00000CDC00000F0
:1000D000CBC00000C9C00000C7C00000C5C0000000
:1000E000C3C00000C60BB00B9E0B8F0B240A240A62
:1000F000240A240A240A240A240A240A240AFC0AB8
:10010000240A240AE90AD50ABF0A650B240A240A2C
:10011000240A350B210B0E0B240A240A240A240A74
:10012000240A240A240A240A820B7C0B240A240AA7
:10013000240A240A240A240A240A240A240A880BEA
:10014000BA0A240A240AB40A240A240A240A240A19
:10015000240A8A0A240A7C0AC6089008A7080E09FD
:10016000DF089008B709A90990086208B70C990937
:10017000620862086208620862088C096208620804
:10018000620862086208620862086208620862081F
:100190007C09080A620862086C0947093B09620881
:1001A0006208280962086208620862086208620838
:1001B000180A6208C709C608630AA7080E09DF08FB
:1001C000240AB709A909240A4E084E0899094E08BD
:1001D0004E084E084E084E088C094E084E084E0830
:1001E0004E084E084E084E084E084E084E087C0930
:1001F000560A4E084E086C0947093B094E084E083E
:1002000028094E084E084E084E084E084E08490A66
:100210004E08C70911241FBECFEFD1E2DEBFCDBF0C
:100220000FB6F894A8958091600088618093600073
:10023000109260000FBE12E0A0E0B2E0E2E3FAE349
:1002400000E00BBF02C007900D92A238B107D9F7AA
:1002500025E0A2E8B2E001C01D92A037B207E1F7A5
:100260000E94E20C0C94171DCBCEA59A1092BD02F1
:100270000895EFE6F0E080818F7D8083E1E8F0E093
:100280008081887F8083EFE9F2E010A281E082A381
:10029000808F10929D02F0980895E1E7F0E0808150
:1002A0008F7D8083E1E9F0E08081887F8083EFE9C2
:1002B000F2E011A281E083A3818F10929E02F19857
:1002C0000895883018F4880F880F880F613061F125
:1002D00008F1623069F06330B1F48830D9F18032CE
:1002E00009F04AC08AE280930002809301020895D7
:1002F000883059F1803299F58AE28093000288E2D1
:1003000080930102089587E08093000281E080934A
:1003100001020895883099F08032A9F782E0809335
:100320000002809301020895883049F08032F1F490
:1003300085E08093000282E080930102089583E0CB
:1003400080930002109201020895609300021092BF
:10035000010208951092000210920102089587E0B0
:100360008093000285E080930102089584E08093E9
:10037000000260930102089580E18093000288E208
:100380008093010208954F925F926F927F928F92B5
:100390009F92AF92BF92CF92DF92EF92FF92CF9354
:1003A000DF93C82FD0E0FE01EE0FFF1FEE0FFF1FFF
:1003B000E952FD4F80809180A280B38060E072E1BD
:1003C0008AE790E0A50194010E94AF1C69017A01BF
:1003D0000E944A1B2B013C01C501B4010E944A1B2B
:1003E0009B01AC01C301B2010E94B61A20E030E0CB
:1003F00040E052E40E94181C20E030E040E05FE35F
:100400000E943F1A0E941E1B4B015C01E114F10483
:1004100051F480E8C816D104E104F10408F066C084
:1004200020E830E002C02FEF3FEFCE010024969588
:1004300087950794969587950794982F802DFC01B2
:10044000E351FB4F835D9A4F21933193E817F907EE
:10045000D9F781149104A104B104C9F1C501B40113
:100460000E944A1B2B013C01C12CD12C7601CC0FE0
:10047000DD1FC295D295D07FDC27C07FDC27C70166
:10048000B6010E944A1B20E030E040E052E40E94A6
:10049000181CA30192010E94B61A0E94A31A0E947E
:1004A0001E1BFE01E60FF11DEE0FFF1FE351FB4F78
:1004B000808191810196918380838FEFC81AD80A39
:1004C000E80AF80A8C149D04AE04BF04C1F6DF915B
:1004D000CF91FF90EF90DF90CF90BF90AF909F9023
:1004E0008F907F906F905F904F90089596019DCF71
:1004F0000F931F93CF9308E010E0C0E0C8010E9463
:100500002C169C2F982788E027E0990F08F4922753
:100510008A95D9F7C92F0F5F1F4F043E81E0180756
:1005200069F7911101C0C1E08C2FCF911F910F91FC
:100530000895CF9387E090E00E942C16C82FD8DF53
:1005400091E0C81390E0892FCF9108951F93CF9326
:10055000DF9300D000D0CDB7DEB7182F40E050E0D9
:1005600063E0CE0101960E94521643E050E068E03D
:1005700072E0CE0101960E94F31C892B49F080E0C5
:100580000F900F900F900F90DF91CF911F910895D2
:1005900083E090E00E943C166D3373408105910525
:1005A00071F7112391F180916D05843040F7882314
:1005B00039F18091EC04813210F78091FE02909124
:1005C000FF02C2978F379440D0F68091000390913C
:1005D0000103C2978F37944090F680910A0390915F
:1005E0000B03892B61F280910C0390910D03892BF1
:1005F00031F29091F202915081E0933108F2BFCF35
:100600008091EC048131C8F2BACF93DF8111CBCF56
:10061000B6CF89E090E00E942C1691E0811101C0D4
:1006200090E09093EA048AE090E00E942C1691E01A
:10063000811101C090E09093EB048BE090E00E9468
:100640002C1680936D0588E090E00E942C16809314
:10065000EC048BE290E00E942C1691E0811190E076
:1006600090938C028FE290E00E942C1691E0811111
:1006700001C090E09093900281E09091EC0498305A
:1006800008F080E080938E028AE290E00E942C16AF
:1006900091E0811190E090938D029091EC0498305C
:1006A00010F0811111C110928F0241E06DE373E0EF
:1006B00080E090E00E948F1860916D058091EC04BD
:1006C00000DE80E043DF811106C181E08093940267
:1006D00080939302279A80919402813009F440C15B
:1006E0002F980A98129A5098589A099A119A0B982A
:1006F000139A0C9A149A23982B9A2098289A229845
:100700002A9A2198299A819A8998809A88989D9AFC
:10071000A59A80910101806280930101809102017C
:100720008062809302016B9A7398269A2E986D9A34
:10073000759880910101806180930101809102018F
:100740008F7E80930201E0918E02F0E0E050FE4F38
:100750008081282F21709091050180FF6FC09160EA
:1007600090930501982F98703091040183FD6FC01C
:10077000316030930401222309F46EC0599A91111B
:100780006FC0519A282F22709091020181FF6FC093
:10079000926090930201982F90713091010184FD35
:1007A0006FC0326030930101222309F46EC05A9A5F
:1007B00091116FC0529A282F24709091020182FFEC
:1007C0006FC0916090930201982F907285FD6FC069
:1007D00080910101816080930101222309F46EC0A0
:1007E0005B9A91116FC0539A8FE99FE00197F1F7DF
:1007F00000C00000899A889A80919002811169C096
:10080000089A1098249A2C981092B6001092B3006F
:100810001092B0001092B1008091B0008168809376
:10082000B0008091B10084608093B1000E9499175C
:1008300060E875E280E090E00C9400179E7F909352
:100840000501982F98703091040183FF91CF3E7F6E
:1008500030930401211192CF5998992309F491CF33
:100860005198282F22709091020181FD91CF9D7F98
:1008700090930201982F90713091010184FF91CFE4
:100880003D7F30930101211192CF5A98992309F4A9
:1008900091CF5298282F24709091020182FD91CF20
:1008A0009E7F90930201982F907285FF91CF809147
:1008B00001018E7F80930101211192CF5B989923D2
:1008C00009F491CF539890CF81E080938F0248E054
:1008D000EDCE089896CF80E056DD81E054DD409162
:1008E0000A0350910B03A2E1B3E0E2EDF3E020E054
:1008F00030E00CC012968C91129790E00196280F70
:10090000391F139683E0A23DB80731F08D919C9179
:1009100011974817590770F33093E7042093E604C2
:1009200040910C0350910D0320E030E00AC0828119
:1009300090E00196280F391F339694E0E239F907C9
:1009400029F0808191814817590788F33093E90491
:100950002093E804279A80919402813009F0C0CE58
:100960002F9ABFCE40E050E063E088E092E00E9422
:10097000BE1643E050E06DE373E080E090E00C943D
:10098000A716CF93DF93CFE9D2E068A979A98AA906
:100990009BA94EE050E00E94A7166CA97DA98EA9E4
:1009A0009FA942E150E00E94A71668AD79AD8AADDB
:1009B0009BAD46E150E00E94A7166CAD7DAD8EADBB
:1009C0009FAD4AE150E00E94A7166091E702709146
:1009D000E8028091E9029091EA024EE150E00E9423
:1009E000A7166091EB027091EC028091ED0290915C
:1009F000EE0242E250E00E94A716CAEED4E069E09F
:100A000070E088810E9494166AE070E089810E94FB
:100A100094166BE070E080916D050E94941668E07A
:100A200070E08091EC040E9494166CE070E080917C
:100A30000A030E9494166DE070E080910C030E94FE
:100A4000941666E270E08091FE029091FF020E948F
:100A5000981668E270E080910003909101030E9473
:100A6000981680918D02C1E06AE270E08C270E94A6
:100A7000941680918C026BE270E08C270E94941691
:100A80006CE270E08091FC029091FD020E94981649
:100A90006EE270E08091F2020E9494166FE270E0C4
:100AA000809190020E94941644E650E060E482E156
:100AB00093E00E94DF1644E251E060E482ED93E0AF
:100AC0000E94DF1615DD67E070E0DF91CF910C9496
:100AD00094161198000000000000000080918C0224
:100AE000882321F0489B02C082E00895119A0000FB
:100AF00000000000000089B1809581700895382FB2
:100B0000489B0EC011989AE000009150E9F70998AF
:100B100098EC00009150E9F7489917C091E001C0A6
:100B200090E0099A119A8091860280938702209121
:100B300085022093860290938502921711F0832FED
:100B400008959817E9F3832FFBCF92E0EACF382F6F
:100B5000039B20C014989AE000009150E9F70C988C
:100B600098EC00009150E9F790B193FB222720F90F
:100B700091E092270C9A149A8091830280938402C8
:100B8000209182022093830290938202921721F097
:100B9000832F089592E0EECF9817D9F3832FF9CFE2
:100BA000811113C066DBA59881E08093BD0210928D
:100BB000710010926F001092800088E18093810094
:100BC0001092900080939100089567DB809102015C
:100BD0008F7D8093020181E08093BE02E8CF8091F7
:100BE000A7029091A80220916F002F7D20936F00A3
:100BF00020919A0030919B0040916F004062409399
:100C00006F004091060350910703782F692F8417D6
:100C1000950710F4742F652FE091C102E13009F4BB
:100C20004CC02417350708F048C040916F004F7D35
:100C300040936F00909303038093020330939B00D3
:100C400020939A0070930E0360930F032091EA049F
:100C500030E08091BB0290E02817390789F1759A3E
:100C6000E13029F581E090E090938B0080938A0039
:100C70008091140380938A02109288021BBC109208
:100C80008500109284008091ED049091EE04909381
:100C900087008093860080918100897F8093810006
:100CA000809181008160809381001092C1028091C7
:100CB0006F00806280936F000895272F362FB5CF85
:100CC0007598CECF8091A9029091AA0220917100CF
:100CD0002F7D2093710020919800309199004091D0
:100CE00071004062409371004091080350910903E4
:100CF000782F692F8417950710F4742F652FE091D2
:100D0000C202E13009F450C02417350708F04CC086
:100D1000409171004F7D4093710090930503809343
:100D2000040330939900209398007093100360930C
:100D300011032091EB0430E08091BC0290E0281771
:100D40003907A9F180910201806180930201E130AD
:100D500029F581E090E0909389008093880080914C
:100D6000D40380938B02109289021ABC10929500D2
:100D70001092940080912D0590912E0590939700EC
:100D80008093960080919100897F8093910080915B
:100D900091008160809391001092C2028091710055
:100DA0008062809371000895272F362FB1CF8091F4
:100DB00002018F7E80930201CACF4F925F927F9291
:100DC0008F929F92AF92BF92CF92DF92EF92FF925B
:100DD0000F931F93CF93DF93282F30E08901000FEB
:100DE000111FF801EA51FB4FE080F180D901A156B3
:100DF000BD4F94969C919497992329F0A701440F95
:100E0000551FE40EF51E5A96EC915A970E2E000CC3
:100E1000FF0BF7FDB1C09E2F5C967C90D901149614
:100E2000ED01CC0FDD1FCC0FDD1FC156DD4F48811A
:100E300059816A817B814F01880C991C092C000C17
:100E4000AA08BB08481559056A057B0508F073C058
:100E500088829982AA82BB82EE9DE001EF9DD00D2F
:100E6000FE9DD00D112475016401F694E794D7948A
:100E7000C794F801E65FFC4F40805180B501A401A2
:100E8000983009F46DC04E01A12CB12CC814D904BE
:100E9000EA04FB0410F446015701481959096A098C
:100EA0007B09E901CC0FDD1FCC0FDD1F9E01215610
:100EB0003D4FF9010081118122813381F1E07F16DC
:100EC00009F452C0CB56DD4F400F511F621F731FF4
:100ED000488359836A837B83AA0FBB1FA156BD4FEA
:100EE0004D925C929EB3811113C09B7F9EBBF09A82
:100EF000DF91CF911F910F91FF90EF90DF90CF90F6
:100F0000BF90AF909F908F907F905F904F9067CEF3
:100F1000977F9EBBF19ADF91CF911F910F91FF9028
:100F2000EF90DF90CF90BF90AF909F908F907F9089
:100F30005F904F90C7CEEE9DE001EF9DD00DFE9DDE
:100F4000D00D11246A017B01F694E794D794C794DD
:100F5000F801E65FFC4F40805180983009F093CF54
:100F6000487F98EFC9228FCF709560955095419535
:100F70005F4F6F4F7F4FA6CFF195E195F1094BCFB2
:100F8000811126C08091C102813009F14FB7F894D8
:100F90001092BF02F0988091B70280FD03C081E0FB
:100FA0008093B702209106033091070380910203DA
:100FB000909103038217930760F080910E03909144
:100FC0000F03019690930303809302034FBF08958C
:100FD00050C980910E0390910F032817390788F7A5
:100FE00030930F0320930E03C901EBCF811126C06C
:100FF0008091C202813009F14FB7F8941092C0027B
:10100000F1988091B80280FD03C081E08093B8021E
:101010002091080330910903809104039091050306
:101020008217930760F0809110039091110301964D
:1010300090930503809304034FBF08952EC98091B8
:101040001003909111032817390788F73093110383
:1010500020931003C901EBCF8F929F92AF92BF9262
:10106000EF92FF920F93CF93DF93D82F7B010E94D3
:101070003B1AC82F80919402811118C0DF34A9F166
:10108000109292028D2F0D2E000C990BAA0BBB0B08
:10109000FC01E554F109EF32F10518F100919302DA
:1010A000C1E020E030E0A901D0E042C04D2F0D2E7C
:1010B000000C550B660B770BFA01E554F109EF3282
:1010C000F10558F0FA01E154F109EA33F10508F0AD
:1010D000BBC1EE58FF4F0C94D11CE455FF4F0C944C
:1010E000D11CE552FF4F0C94D11CCC2309F471C3E1
:1010F00080919202833108F4EFC1F701808180531F
:101100008093940201E0811101C000E000939302FA
:101110008111A0C3C0E020E030E0A901DFE408C0F5
:1011200000919302C1E024E030E040E050E0D0E0E4
:101130006D2FC7010E949D188C2FDF91CF910F91C9
:10114000FF90EF90BF90AF909F908F900895D70140
:101150008C91D0E0FE01E156FD4F90ED980F908FFD
:1011600091E011962C91203309F437C1948FC35626
:10117000DD4F188292A1913009F431C100919302A0
:10118000C1E020E030E0A901D7E4D2CF0FB7F89456
:10119000C7010E94F319D0E0CC0FDD1FCC0FDD1F7B
:1011A000C156DD4F688379838A839B830FBF00918B
:1011B0009302C1E020E030E0A901D5E4B9CFC70136
:1011C0000E94F3192C2F30E040ECC49FF001112451
:1011D000E153FC4F80809180A12CB12CF901EE0FDE
:1011E000FF1FE955FD4F462F572FBC0148155905E4
:1011F0006A057B0508F4ECC051834083F901E3568E
:10120000FD4F8081823009F4F8C010820091930272
:10121000C1E020E030E0A901D9E48ACFC7010E94F3
:10122000F319D0E0FE01EE0FFF1FEE0FFF1FE15597
:10123000FD4F6083718382839383C356DD4F188291
:1012400000919302C1E020E030E0A901D8E470CF22
:101250008FB7F894D0E0CC0FDD1FCC0FDD1FC15647
:10126000DD4F288139814A815B818FBF00919302D4
:10127000C1E0DAE65DCFD0E0C156DD4F2EA130E00F
:1012800040E050E000919302C1E0D7E651CFD0E0BA
:10129000C156DD4F8CA1813009F4ACC020E030E0B4
:1012A0008C8D813009F493C288A1811101C0316015
:1012B0008091F302813009F488C28AA1813009F05B
:1012C00020618E8D813009F47EC240E050E00091B3
:1012D0009302C1E0D6E62CCFD0E0CC0FDD1FCC0FBF
:1012E000DD1FC953DD4F288139814A815B8100911F
:1012F0009302C1E0D5E61CCFD0E0CC0FDD1FCC0FB0
:10130000DD1FC153DD4F288139814A815B81009106
:101310009302C1E0D1E60CCFC7010E94DB19809394
:10132000B30000919302C1E020E030E0A901D6E5CE
:10133000FFCED7012C9120534C2F60E083E00E9418
:101340000B1500919302C1E020E030E0A901D0E547
:10135000EFCEC1112CC00E9439010E9435010091CD
:101360009302C1E020E030E0A901DCE4E1CE80E0BE
:10137000CC2389F13BDED0E0C356DD4F18820091CB
:101380009302C1E020E030E0A901DBE4D1CED0E05F
:10139000CC0FDD1FCC0FDD1FC951DD4F28813981F6
:1013A0004A815B8100919302C1E0D3E7C1CE0E94E4
:1013B0004D01809102018062809302011092BE0271
:1013C00000919302C1E020E030E0A901DCE4B0CE5E
:1013D000B501A40111CFD4DDCECF90E0C7CE2091CE
:1013E0008F02222309F4CACE8153823008F451C2FD
:1013F00094A3C4CE20E034E053CFC1111BC2EFDB75
:1014000000919302C1E020E030E0A901D9E490CE40
:10141000EC2FF0E0EE0FFF1FEE0FFF1FE952FD4F24
:10142000208131814281538100919302C1E080CEBD
:10143000C13009F4EEC120918C0230E040E050E070
:1014400000919302C1E074CE0091930220E030E05D
:10145000A9016D2FC7010E949D18DA3409F0ACC1B3
:101460008091F3028111A8C1809194028111A4C1DD
:10147000D0E0FE01E156FD4F808DC356DD4F80FF69
:101480009DC18881823009F497C181E08883C1E0E1
:1014900053CED7018C91805309F0B0C100919302D3
:1014A000C1E020E030E040E850E042CEEC2FF0E038
:1014B000EE0FFF1FEE0FFF1FE152FD4F2081318124
:1014C00042815381BDCF8C2F6BDB00919302C1E031
:1014D00020E030E0A9012CCED7019C9191539330AC
:1014E00008F4D3C11092920200919302C1E020E06F
:1014F00030E0A901D0E01CCEEC2FF0E0EE0FFF1F92
:10150000E65FFC4F2081318140E050E00091930282
:10151000C1E00ECE4C2F50E0FA01E857FD4F60813C
:10152000862F90E09C01220F331F280F391F70EC8B
:10153000749FC001759F900D1124820F931F8156D7
:101540009D4FDC01AD58BF4FCC9111967C91119706
:1015500012962C2F372F4C9150E081E0860F80346B
:1015600008F0A4C180836CCFC13009F4BFC12091C1
:10157000F20263CFC11192CD209190025ECFC701DC
:101580000E94F319EC2FF0E0EE0FFF1FEE0FFF1F8C
:10159000E951FD4F608371838283938300919302AD
:1015A000C1E020E030E0A901C3CDC701C13009F49A
:1015B000B5C10E94DB199FEF980F933108F098C0D6
:1015C0008093F20200919302C1E020E030E0A90193
:1015D000AFCDC701C13009F492C10E94DB1991E07F
:1015E000811101C090E090938C0200919302C1E0C0
:1015F00020E030E0A9019CCDC7010E94F319EC2F37
:10160000F0E0EE0FFF1FE250FD4F71836083009109
:101610009302C1E020E030E0A9018ACDC7010E9419
:10162000DB19EC2FF0E0EE0FFF1FE65FFC4F90E0C0
:101630009183808300919302C1E020E030E0A90112
:1016400077CDC7010E94DB19EC2FF0E0E857FD4F82
:10165000808300919302C1E0803408F439CF23E005
:1016600030E040E050E0D0E063CDC7010E94F319C4
:10167000AC2FB0E0FD01E857FD4F9081292F30E0FD
:10168000A901440F551F420F531FC0ECCA9F900180
:10169000CB9F300D1124240F351F21563D4FD9010A
:1016A000AD58BF4F11967C936E9312968C9381E048
:1016B000890F8083803408F408CF10820091930250
:1016C000C1E020E030E0A90133CD823009F436C119
:1016D000833009F449C1813009F0F7CE81E0F70188
:1016E0009081903309F46CC10E94A602811157C108
:1016F00000919302C1E0B3CFC13009F4EFC0209153
:101700006D059BCEEC2FF0E0E651FB4F208195CE8E
:10171000EC2FF0E0EE0FFF1FE250FD4FF3CEC701BC
:10172000C13009F4C5C00E94DB1980936D0500919A
:101730009302C1E020E030E0A901FACCEC2FF0E008
:10174000E651FB4F81E0D7019C91903309F4C4C06E
:10175000808300919302C1E020E030E0A901E8CC51
:10176000C7010E94F319EC2FF0E0EE0FFF1FEE0F00
:10177000FF1FE952FD4F6083718382839383009141
:101780009302C1E020E030E0A901D2CCC7010E9461
:10179000F319EC2FF0E0EE0FFF1FEE0FFF1FE153E8
:1017A000FD4F608371838283938300919302C1E034
:1017B00020E030E0A901BCCCC1E0BECC81E0888350
:1017C00080A3C1E0B9CC216080CD206276CD3260AB
:1017D0006BCD809190028823B1F11098D7018C9144
:1017E000803309F461C0089A10929202009193022A
:1017F000C1E020E030E0A901DFE49ACC009193023F
:10180000C1E0813009F04DCC2CE134E040E050E003
:101810008FCC80918D02282F30E040E050E09091F5
:10182000EC04983080F1C827C0938F020091930296
:10183000C1E07ECC47DA00919302C1E020E030E0C5
:10184000A901D9E475CC089AF7018081803351F160
:10185000109ACACF0E9439010E9435010E944D01A1
:10186000809102018062809302011092BE02109268
:101870009D0210929E0200919302C1E020E030E0B0
:10188000A901DFE455CCC0E0CFCF8F5F80939202F7
:1018900005CC14A200919302C1E020E030E0A90140
:1018A000D7E446CC1098A0CF08989ECF1082C8CD20
:1018B0000E94DB198093EC04883008F452C08091B8
:1018C0008D028C27817080938F0200919302C1E07A
:1018D00020E030E0A9012CCC80E03ACF2091EC044C
:1018E00030E040E050E00091930222CC2091FC02D5
:1018F0003091FD0240E050E00091930219CC0E942B
:10190000DB1991E0811101C090E090938D0200916C
:101910009302C1E020E030E0A9010ACC0E94F31953
:1019200061157105F1E08F07910580F00091930238
:1019300023E030E040E050E0D0E0FACB22D8009144
:101940009302C1E020E030E0A901F2CB7093FD02E8
:101950006093FC0200919302C1E020E030E0A90115
:10196000E7CB80E090E0AECF0E94B204AECDC111D3
:1019700013C0882309F42DCF81E0F70190819033C3
:1019800049F08093900200919302C1E020E030E0A2
:10199000A901CECB80E0F5CF8111AFCBA9CB0E94BE
:1019A0009902811192CD0E94780267E070E00E9456
:1019B000941600919302C1E020E030E0A901B8CB79
:1019C00080E092CECF93DF93CDB7DEB760970FB6AE
:1019D000F894DEBF0FBECDBF78940E940903AA24FD
:1019E000AA94BB24BA94812C312C10E0C12CE12C98
:1019F000F12CDD24D39499249A94412C512C80E825
:101A0000682E712C0299FCC0D092F3028091C10221
:101A1000813011F00E9439018091C202813011F0B1
:101A20000E944D018FEFE81AF80A8091910281110E
:101A3000F1C0E114F10409F009C1809194028823F6
:101A400009F440C280910202811104C185B180581D
:101A500085B98091F00253D8082F8091F10277D890
:101A60009091F002091305C09091F102891709F4D1
:101A700047C025E042E0682F802FCDD780918F02AC
:101A8000882319F0023009F423C380910002909159
:101A9000BB02913009F4FDC2D092B9021092C30288
:101AA0009091BC02913009F4FDC2D092BA0210921A
:101AB000C402382F31709091050180FFB5C291604A
:101AC00090930501282F22709091020181FFA8C2F6
:101AD000926090930201982F947082FF9BC2809134
:101AE0000201816080930201332309F491C2599A63
:101AF000222309F48BC25A9A992309F485C25B9A6E
:101B00008091F30281117ECF189B94C01B9BBBC2B6
:101B10000FEF80E09FB7F89420919A0030919B00DE
:101B20009FBF9091C102913061F09091BB028917E3
:101B300041F040910603509107032417350708F43C
:101B4000F4C20F3F09F4B5C2E02FEE0FFF0BEA50CD
:101B5000FD4F208131813093A8022093A70280930A
:101B6000BB029091C302992309F469C29091C50206
:101B7000813009F468C29093B9020F3F29F4809133
:101B8000F002823009F458C32AD8B02E199B50C2F3
:101B90001A9B74C20FEF80E09FB7F89420919800D1
:101BA000309199009FBF9091C202913061F0909165
:101BB000BC02891741F04091080350910903241792
:101BC000350708F4AEC20F3F09F4B3C22091FA0200
:101BD0003091FB023093AA022093A9028093BC02A9
:101BE0009091C402992309F432C29091C6028130C7
:101BF00009F431C29093BA0265D8A02E029B04CF9B
:101C00001092F3028FEFE81AF80A8091910288236C
:101C100009F40FCF8091020281111CC0E114F1047C
:101C200009F414CF8091F3028111ECCEE110EACED9
:101C300018996CCF81E0B81609F4A8CF81E0909193
:101C4000EF02913009F080E001E064CF8091020260
:101C5000882341F31E3F09F417C10E94DD17882332
:101C6000F1F085B1805885B90E94E817C82E4091DF
:101C700093026C2DCE0101960E948C19182F882397
:101C800071F00CF41AC1BE016F5F7F4FE5D9082FC8
:101C9000CE0101960E943C18002309F4E0C1E11432
:101CA000F10431F480919402813009F4ABC12F9892
:101CB0008091F3028111A6C0809191028111A2C08E
:101CC000E110A0C0189BF3C103B103FB002700F98A
:101CD00001950B1551F08091BB02811105C08091D7
:101CE0009D02823009F473C2B02E199BDEC183B10C
:101CF00082FB882780F9082F01958091C00281110D
:101D000081C00A1509F47EC081E0013009F080E04D
:101D10009091C202913009F45EC09091BC02891783
:101D200009F459C080E062D910929E0280919D0210
:101D3000813009F067CE8091C102813009F062CE16
:101D40009091B70280918F02882309F4ACC08FEF85
:101D5000890F823008F459C2809101022091C50296
:101D60003091BB02313009F47AC22093B902D0928B
:101D7000C3022091050180FF14C221602093050158
:101D80002091040183FD09C2216020930401209168
:101D9000020181FFFEC12260209302012091010116
:101DA00084FDF3C12260209301012091020182FF92
:101DB000E8C121602093020185FDDDC18091010110
:101DC00081608093010190FFA6C10E94EF0582E02F
:101DD00080939D021CC00F3F09F438C22091FA0283
:101DE0003091FB023093AA022093A9028093BC0297
:101DF000013009F44EC2D092BA020E946206A02EAF
:101E00008824839480919D02813009F441C080919F
:101E10009E02813009F0F6CD8091C202813009F036
:101E2000F1CD2091B80290918F02992309F446C117
:101E30009FEF920F923008F4F4C1909101028091CB
:101E4000C6023091BC02313009F405C28093BA0257
:101E5000D092C40290FFB9C1599A93FDB4C1519A6E
:101E600091FFAFC15A9A94FDAAC1529A92FFA5C19F
:101E70005B9A95FDA0C1539A20FF47C10E9462065C
:101E800082E080939E02BECD85B1805885B9EFCEA9
:101E90008091C102813009F0BACF9091B702809150
:101EA0008F02811154CF8091BB02813009F4A6C109
:101EB000D092B9021092C30286CFCE0101960E9441
:101EC0003C18EDCE0E946905082F882309F4BACD8D
:101ED0000E9439010E944D018FB7F89440929F02F1
:101EE0005092A0026092A1027092A2024092A302BC
:101EF0005092A4026092A5027092A6028FBFE7D70B
:101F0000D0929102023009F4AEC110920202119AED
:101F1000149AE0918E02F0E0E050FE4F8081282F6D
:101F200021709091050180FDECC09E7F909305018A
:101F3000982F98703091040183FD39C1316030933E
:101F40000401222309F431C1599A911110C1519A07
:101F5000282F22709091020181FF05C19260909319
:101F60000201982F90713091010184FDF8C0326018
:101F700030930101222309F4F0C05A9A9111EBC069
:101F8000529A282F24709091020182FFE0C0916044
:101F900090930201982F907285FDD3C0809101012A
:101FA000816080930101222309F4C9C05B9A9111D9
:101FB000E0C0539A25E042E060E080E02CD510922A
:101FC000C3021092C40280E00E94D00581E00E940A
:101FD000D005D092B702D092B8021092BB02D09234
:101FE000B9021092BC028091F4029091F502909394
:101FF000A8028093A702D0929D02AA24AA94BB248F
:10200000BA9420CD2F9A54CE5B987ACD5A9874CD3D
:1020100059986ECD809102018E7F8093020164CD2C
:102020009D7F9093020157CD9E7F909305014ACDED
:1020300081E0A81609F4E6CC01E081E0ADCD91E0A5
:10204000813009F098CD91959093B90296CD91E0A9
:10205000813009F0CFCD91959093BA02CDCDF8D7CC
:102060009BE088E10FB6F894A895809360000FBEBE
:102070009093600080E090E00E94171DAA2009F470
:10208000C1CC00E088CDBB2009F480CD00E080E029
:1020900041CD9092B9021092C3029091BC0291304E
:1020A00009F003CD9092BA0202CD01E026CE01E004
:1020B00010CE2091F4023091F5024DCD9091BC02EA
:1020C000913009F498C08093BA021092C402D4CE21
:1020D000809101029091C5022091BB02213009F448
:1020E00090C09093B902D092C3029091C602209101
:1020F000BC02213009F4A6C09093BA02D092C40267
:10210000D8CC91609093050113CF81E00E94DD0649
:1021100010929E0277CC80E00E94DD0610929D0214
:1021200076CE80E00E94F6076DCC80E00E94C0076A
:102130002DCD80E00E94F607AA24AA9463CC5B9878
:1021400036CF809101018E7F809301012CCF9E7F3D
:10215000909302011FCF529814CF5A980FCF3D7F12
:102160003093010107CF9D7F90930201FACE5198E1
:10217000EFCE53981FCF809101018E7F8093010194
:1021800022CE2E7F2093020117CE2D7F20930101B6
:102190000CCE2D7F2093020101CE2E7F20930401CF
:1021A000F6CD2E7F20930501EBCD5998CECE3E7F04
:1021B00030930401C6CE53985FCE5B985ACE5298A6
:1021C00055CE5A9850CE51984BCE599846CE0F3F87
:1021D00009F45AC0E02FEE0FFF0BEA50FD4F80814B
:1021E00091819093A8028093A7020E94EF05B02EE0
:1021F000332433947ACD9092BA0267CF9092B90289
:1022000059CE91959093B9026ECF809100022091A2
:10221000BB02213009F440C0D092B9021092C3022F
:10222000A8CD909100023091BC023130C1F1809371
:10223000BA021092C4020ECE80E00E94C007BB24F6
:10224000BA94A4CC91959093BA0258CF81102AC029
:10225000AA24AA94D7CD81958093BA02F9CD21956D
:102260002093B90284CDD09202024BD60091930202
:1022700024E030E040E050E060E0CE010C965DD715
:10228000CE010C96F9D6DECB311013C0BB24BA9424
:102290002CCD9092BA02B1CD9092B902BFCF90925C
:1022A000BA02C7CF80E00E94F607AA24AA94812C24
:1022B000A9CD8091F4029091F5029093A8028093A9
:1022C000A7020E94EF05BB24BA94312C0ECD1F92B9
:1022D0000F920FB60F9211240BB60F920F931F930C
:1022E0002F933F934F935F936F937F938F939F931E
:1022F000EF93FF938091880090918900019709F0F6
:1023000060C08AB5E82FEE73F0E0E35DFA4F2081FC
:10231000318130939700209396008F5F8ABD809122
:1023200098009091990090938900809388001E9B5B
:102330005FC02E980091A3021091A4022091A502E3
:102340003091A6024091BA02042E000C550B660B88
:10235000770B400F511F621F731F4093A3025093CE
:10236000A4026093A5027093A602F19B10C0F3999A
:102370000EC00091990210919A0220919B02309117
:102380009C02401751076207730709F487C0209128
:1023900010033091110328173907B8F4F19B03C0DB
:1023A0001092C002F19881E08093C2028091710086
:1023B0008F7D8093710080919100887F8093910040
:1023C00004C09093890080938800FF91EF919F91C2
:1023D0008F917F916F915F914F913F912F911F91BD
:1023E0000F910F900BBE0F900FBE0F901F9018957E
:1023F0002E9A20918B02211123C020910403309149
:1024000005032817390700F5809189028F3398F466
:102410008F5F8093890290E0AC01440F551F840FB9
:10242000951F81569D4FFC01ED5CFE4F408151810F
:102430002417350718F13093990020939800C5CFE1
:10244000215020938B02C1CF8217930728F58091EA
:102450008902882381F381508093890290E0AC0146
:10246000440F551F840F951F81569D4FFC01ED5C55
:10247000FE4F4081518142175307E8F62091C40274
:102480002223D9F032968081982F990F890F8E5F81
:1024900080938B029A01CFCF9C01CDCFF39A2091EC
:1024A000100330911103A9014F5F5F4F5093050353
:1024B0004093040310928B026ECFFC01EB5CFE4F45
:1024C000808180938B029A01B6CF1F920F920FB634
:1024D0000F9211240BB60F920F931F932F933F93DC
:1024E0004F935F936F937F938F939F93EF93FF939C
:1024F00080918A0090918B00019709F060C08BB5A4
:10250000E82FEE73F0E0E351FB4F208131813093EF
:102510008700209386008F5F8BBD80919A009091F9
:102520009B0090938B0080938A00639B5FC073989D
:1025300000919F021091A0022091A1023091A2026D
:102540004091B902042E000C550B660B770B400F1F
:10255000511F621F731F40939F025093A00260930C
:10256000A1027093A202F09B10C0F2990EC00091DC
:10257000950210919602209197023091980240178F
:1025800051076207730709F487C020910E03309149
:102590000F0328173907B8F4F09B03C01092BF024D
:1025A000F09881E08093C10280916F008F7D8093CD
:1025B0006F0080918100887F8093810004C0909398
:1025C0008B0080938A00FF91EF919F918F917F9173
:1025D0006F915F914F913F912F911F910F910F90AC
:1025E0000BBE0F900FBE0F901F901895739A2091FD
:1025F0008A02211123C0209102033091030328177E
:10260000390700F5809188028F3398F48F5F8093AB
:10261000880290E0AC01440F551F840F951F81562E
:102620009D4FFC01ED58FF4F408151812417350724
:1026300018F130939B0020939A00C5CF215020932E
:102640008A02C1CF8217930728F5809188028823D8
:1026500081F381508093880290E0AC01440F551FB4
:10266000840F951F81569D4FFC01ED58FF4F40810F
:10267000518142175307E8F62091C3022223D9F073
:1026800032968081982F990F890F8E5F80938A02EE
:102690009A01CFCF9C01CDCFF29A20910E033091B9
:1026A0000F03A9014F5F5F4F509303034093020351
:1026B00010928A026ECFFC01EB58FF4F808180930D
:1026C0008A029A01B6CF2F923F924F925F926F92F9
:1026D0007F928F929F92AF92BF92CF92DF92EF92B2
:1026E000FF920F931F93CF93DF93CDB7DEB72E9753
:1026F0000FB6F894DEBF0FBECDBF4B015C01042FB7
:102700008EE090E0B9D26093CF027093D0028093B4
:10271000D1029093D20282E190E0AED26093D302D4
:102720007093D4028093D5029093D60286E190E014
:10273000A3D26093D7027093D8028093D90290936A
:10274000DA028AE190E098D26093DB027093DC02B7
:102750008093DD029093DE028EE190E08DD2609353
:10276000E7027093E8028093E9029093EA0282E222
:1027700090E082D26093EB027093EC028093ED02C2
:102780009093EE0286E290E068D29093FF028093ED
:10279000FE0288E290E061D29093010380930003EF
:1027A0008CE090E059D290E090930B0380930A0361
:1027B0008DE090E051D290E090930D0380930C0354
:1027C0008EE290E049D28093F2028CE290E045D212
:1027D0009093FD028093FC021092F30244E650E0D5
:1027E00060E482E193E07FD244E251E060E482ED74
:1027F00093E079D23FE9C32E32E0D32E4EEF442E40
:1028000042E0542E52E1252E53E0352E26E033E0EF
:102810003E832D836EE073E07C836B8382E093E0E4
:102820009A838983AFEDB2E0B887AF83760110E079
:10283000DE86CD86AD85BE855C961C925C97E1E018
:102840005A96EC935A9794961C929497F1E092962C
:10285000FC93929790961C9290975E961C9260E0E3
:1028600070E080E890E0D7016D937D938D939C9309
:102870001397F201619071902F01D60119967C9205
:102880006E92189721E0ED85FE85208FD701509636
:102890001D921D921D921C925397F70180A691A63E
:1028A000A2A6B3A6AD85BE8596960C93F101808154
:1028B0009181AD81BE818D939D93BE83AD83EB816C
:1028C000FC8181939193FC83EB830196A981BA816A
:1028D0008D939D93BA83A983F60195878487D70149
:1028E000D0966D917D918D919C91D397D3D62CE00C
:1028F0003AE448EA57E43AD669877A878B879C8717
:10290000B30180E090E0C6D69B01AC0169857A8571
:102910008B859C858DD7EFD7660C771C8FD69B0156
:10292000AC01D30111960E94E91C930140E050E0F4
:102930000E94AF1CEF81F88521933193419351930D
:10294000F887EF831F5F2D853E852F5F3F4F3E87C2
:102950002D8734E0E30EF11C62E0C60ED11C70EC52
:10296000270E311C123009F065CF1092F002109240
:10297000F1028091FE029091FF02E0910003F0913C
:102980000103FA83E9839093F5028093F40244E112
:10299000489FF001499FF00D11242091F20230E090
:1029A000B9016C5E7F4FCF01C6D77093F702609379
:1029B000F60264E170E0621B730BCF01BCD7709329
:1029C000F9026093F8021092EF02E981FA814E9FBA
:1029D000C0014F9F900D1124B901ADD77093FB0238
:1029E0006093FA022E960FB6F894DEBF0FBECDBFED
:1029F000DF91CF911F910F91FF90EF90DF90CF90DB
:102A0000BF90AF909F908F907F906F905F904F900E
:102A10003F902F900895EF92FF920F931F93CF93C3
:102A2000DF9300D000D01F92CDB7DEB7E82F8093A0
:102A3000F0026093F102833009F44DC00091FE0270
:102A40001091FF02E0900003F0900103623009F45E
:102A50007BC0613009F4A0C01093F5020093F4022A
:102A6000E13009F482C0E23009F49CC044E1409FA7
:102A7000F001419FF00D11242091F20230E0B901E4
:102A80006C5E7F4FCF0157D77093F7026093F602C9
:102A900064E170E0621B730BCF014DD77093F902B4
:102AA0006093F8021092EF024E9DC0014F9D900D71
:102AB0001124B90140D77093FB026093FA020F9082
:102AC0000F900F900F900F90DF91CF911F910F916A
:102AD000FF90EF90089585E0E3E0F2E0DE011196CB
:102AE00001900D928A95E1F7253048F7411172C0A7
:102AF000E091FE02F091FF02F093F502E093F40200
:102B0000EE0FFF1FEE0FFF1FEE0FFF1FA1E0B0E063
:102B1000AC0FBD1FA20FB11D2C9130E0B901685F51
:102B20007F4FCF0108D77093F7026093F60268E0F9
:102B300070E0621B730BCF01FED67093F9026093B5
:102B4000F8021092EF02BBCFD80123EB30E041E056
:102B500050E03FD78C01D7013CD77C011093F502A0
:102B60000093F402E13009F07ECF9801ABEABAEAB3
:102B700021D7969587959093F7028093F60210934C
:102B8000F9020093F802E093EF02F694E794F092D2
:102B9000FB02E092FA0293CFD8012DE939E041E03F
:102BA00050E0D7CF80910A0390910B039093F702E6
:102BB0008093F6029093F9028093F80281E080936B
:102BC000EF0280910C0390910D039093FB02809390
:102BD000FA0275CF413009F072CF809100039091D5
:102BE0000103880F991F880F991F880F991FE1E033
:102BF000F0E0EC0FFD1FE20FF11D608170E09BD64D
:102C00007093FB026093FA025ACFEFE0F2E02AE6FB
:102C100090E005C09F5F9732E9F0208133968213E0
:102C2000F9CF892F90E0FC01EE0FFF1F8E0F9F1F41
:102C3000FC01E45FFD4F611105C08281411105C0B7
:102C40008F70089581814423D9F385958595859565
:102C5000859508958FEF0895D4C61F93CF93DF9382
:102C6000EC01CFD6182FCE010196CBD6982F812F0D
:102C7000DF91CF911F910895CF92DF92EF92FF9253
:102C8000CF93DF93EC01E9DF6C01CE010296E5DF23
:102C90007C01C701B601DF91CF91FF90EF90DF90EB
:102CA000CF900895EF92FF920F931F93CF93DF93EE
:102CB000662391F0EA018C0161507A01E60EF11C65
:102CC0008FEFE81AF80ACE019CD6F80181938F01A4
:102CD0002196CE15DF05B9F7DF91CF911F910F91A6
:102CE000FF90EF900895EF92FF920F931F93CF9371
:102CF000DF93E62E8A01662381F0EC01F12CC801F6
:102D0000ACDF99838883C8010296A7DF8A830D5FB1
:102D10001F4FF3942396EF10F2CFDF91CF911F91C5
:102D20000F91FF90EF900895282FCB01622F71C66D
:102D30001F93CF93DF93192FEB01682FCE0169D634
:102D4000612FCE010196DF91CF911F9162C6CF9284
:102D5000DF92EF92FF92CF93DF936B017C01EA0148
:102D6000BA01C601E5DFBE016E5F7F4FC701DF918B
:102D7000CF91FF90EF90DF90CF90DACFEF92FF925C
:102D80000F931F93CF93DF93662391F0EC01615073
:102D9000E62EF12C8FEFE81AF80AEC0EFD1E8A01E0
:102DA0006991C80136D60F5F1F4FCE15DF05C1F7F9
:102DB000DF91CF911F910F91FF90EF900895EF92C7
:102DC000FF920F931F93CF93DF93E62E8A01662322
:102DD00081F0EC01F12CB80188819981A9DF6A8129
:102DE000C801029616D60D5F1F4FF3942396EF107D
:102DF000F2CFDF91CF911F910F91FF90EF90089547
:102E0000CF92DF92EF92FF92CF93DF936B017C0121
:102E100082E08093C00060E079E08DE390E0A7015C
:102E200096019DD5DA01C9010197A109B109AC014B
:102E3000BD017695679557954795842FC52F90E0EE
:102E4000D92F9E01207F3327232BB1F01092C00091
:102E500060E874E88EE190E0A701960180D5DA0180
:102E6000C9010197A109B109AC01BD01769567952A
:102E700057954795CA01C92FCF70C093C50080935D
:102E8000C4008FB7F8941092D5041092D604109213
:102E9000B3041092B4048FBF8091C100806180930D
:102EA000C1008091C10088608093C1008091C10001
:102EB00080688093C1008091C1008F7D8093C100A4
:102EC000DF91CF91FF90EF90DF90CF900895E1ECEC
:102ED000F0E080818F7E80838081877F8083808106
:102EE0008F77808380818F7D80838FB7F894E5EB27
:102EF000F4E010A211A2E3E9F4E010A211A28FBF46
:102F00000895219A299A23982B9A229A2A9A209AEC
:102F1000289A119A8FB7F894E5EBF4E010A211A269
:102F2000E3E9F4E010A211A28FBF81E08093920444
:102F300008952198299A23982B9A22982A9A2098C2
:102F4000289A109292048FB7F894E5EBF4E010A25F
:102F500011A2E3E9F4E010A211A28FBF089598E056
:102F600008C000002A98299A880F1B998F5F9150FA
:102F700029F0299887FFF5CF2A9AF5CF08959091E7
:102F8000B4048091B304981709F0489908952898DB
:102F900081E8E5DF489BFECF80E8E1DF87FD0BC0DD
:102FA000E091B304F0E0ED56FB4F80838091B304D1
:102FB0008F5F8093B304289A0895809192048111C1
:102FC000DEDF8091B3049091B404891B8F71089562
:102FD0009091B4048091B304981751F0E92FF0E078
:102FE000ED56FB4F80819F5F9F719093B4040895CD
:102FF0008FEF08959091C10093FF16C09091D50472
:103000009F5F9F712091D6049217C1F0E091D50483
:10301000F0E0EB54FB4F80839093D5048091C10086
:1030200080628093C100089590919204911101C033
:10303000089528988F7793DF289A08952091C100EA
:1030400020622093C1002091D6049217E1F3DECFD5
:103050008091C10083FF0FC09091D5048091D60468
:10306000981749F08091C10080628093C1008091DF
:10307000D6049813FCCF0895CF93DF93EC01888199
:10308000882329F02196B6DF89918111FCCFDF9149
:10309000CF9108952F932FB72F939F938F93EF93F3
:1030A000FF932091C6008091B3048F5F8F71909140
:1030B000B404891741F0E091B304F0E0ED56FB4F02
:1030C00020838093B304FF91EF918F919F912F9173
:1030D0002FBF2F9118958F938FB78F939F93EF9357
:1030E000FF938091D6049091D504891306C08091F6
:1030F000C1008F7D8093C1000BC0E82FF0E0EB543E
:10310000FB4F90818F5F8F718093D6049093C600A0
:10311000FF91EF919F918F918FBF8F911895109292
:10312000E5041092D9042BE0EAEDF4E0DF011D92F2
:103130002A95E9F71092D804C6CACF92DF92EF928F
:10314000FF920F93CF93DF93EC01862F69017A01F1
:1031500061111CC081E28883013009F47FC080E3E3
:1031600089838C2D8F708A3010F1895C8A83E2E02C
:10317000F0E0EC0FFD1F8DE081831282DF91CF9193
:103180000F91FF90EF90DF90CF900895402F60E077
:103190003CDD87FDDFCF9DE39883823069F083308B
:1031A000A9F0863059F1E82F880FFF0BE2CF805D40
:1031B0008A83E2E0F0E0DDCF8C2D82958F708A303B
:1031C00018F0895C8983CDCF805DCACF8D2D8F703B
:1031D0008A3008F44EC0895C89838C2D82958F706B
:1031E0008A3008F443C0895C8A838C2D8F708A30C2
:1031F000C0F1895C8B83E3E0F0E0BBCFC701AA2775
:10320000BB27282F22952F702A3008F441C0295C53
:103210002D838F708A30C8F1895C8E83BB27AF2DD8
:103220009E2D8D2D282F22952F702A3058F1295C44
:103230002B838F708A3018F1895C8C838C2D82955A
:103240008F708A30C8F0895C89838C2D8F708A30AA
:1032500010F5805D8A83E6E0F0E08BCFE0E0F0E0FF
:1032600088CF805D8B83E3E0F0E083CF805D8A834D
:10327000BCCF805D8983B1CF805D8983E6CF805DDF
:103280008C83DCCF205D2B83D4CF805D8E83C6CF33
:10329000205D2D83BECF895C8A83E6E0F0E069CFB4
:1032A0000F931F93CF932091DA042093D70490912A
:1032B000DB0491539093D804933028F083E0CF91AE
:1032C0001F910F9108958B01C82F61E0822F9DDC23
:1032D0004DEF4C0F082E000C990B242F30E0821775
:1032E000930729F081E0CF911F910F910895442316
:1032F00069F0ECEDF4E0D8018CEF8C0F90E0835294
:103300009B4F41914D93E817F907D9F7F801E20F68
:10331000F31F10828FEFD3CFCF93DF93EC01909107
:10332000E5049923A1F06A33E1F0E091D90481E04A
:103330008E0F8093D904F0E0E652FB4F60836D302E
:1033400011F18B30E9F080E0DF91CF9108956A337D
:10335000D1F71092D90481E08093E5041092DA0449
:10336000F2CF93E38EEF21E2288320E329839A832F
:103370001B829DE09C831092E504DF91CF9108951C
:1033800091E38FEFF0CFBE018BDF982F8F3F59F085
:1033900081E2888380E389839F709A3048F0995C4A
:1033A0009A838FEFE5CF1092E5048091D704CCCFBC
:1033B000905D8FEFDCCFFC0191819A3354F09753ED
:1033C000892F8F7090819A334CF49F709295892B3E
:1033D0000895892F8F7090819A33BCF397539F7013
:1033E0009295892B0895FC0161816A3324F167531A
:1033F000962F9F7060816A331CF167536F706295DE
:10340000692B73817A3314F17753972F9F707281F0
:103410007A330CF177537F707295792B85818A33DB
:1034200004F187538F7094819A33FCF49F709295C6
:10343000892B90E00895962F9F7060816A33ECF697
:103440006F706295692B73817A33F4F6972F9F70B2
:1034500072817A33FCF67F707295792B85818A337D
:1034600004F78F7094819A330CF397539F70929561
:10347000892B90E008958091D80408955058BB2777
:10348000AA270ED084C175D130F07AD120F031F462
:103490009F3F11F41EF46AC10EF4E095E7FB37C1BB
:1034A000E92F86D180F3BA1762077307840795075F
:1034B00018F071F49EF5B5C10EF4E0950B2EBA2FFD
:1034C000A02D0B01B90190010C01CA01A00111242A
:1034D000FF27591B99F0593F50F4503E68F11A16D6
:1034E000F040A22F232F342F4427585FF3CF469567
:1034F00037952795A795F0405395C9F77EF41F1689
:10350000BA0B620B730B840BBAF09150A1F0FF0F52
:10351000BB1F661F771F881FC2F70EC0BA0F621F3E
:10352000731F841F48F4879577956795B795F7952E
:103530009E3F08F0B3CF9395880F08F09927EE0FC0
:1035400097958795089556D180F09F3740F4911153
:103550000EF468C160E070E080E89FE3089526F013
:103560001B16611D711D811DD8C0F2C00CD00FC18A
:1035700007D140F0FED030F021F45F3F19F0C7C012
:10358000511150C1F3C014D198F39923C9F35523B5
:10359000B1F3951B550BBB27AA2762177307840746
:1035A00038F09F5F5F4F220F331F441FAA1FA9F3FC
:1035B00033D00E2E3AF0E0E830D091505040E695EE
:1035C000001CCAF729D0FE2F27D0660F771F881F4F
:1035D000BB1F261737074807AB07B0E809F0BB0B3E
:1035E000802DBF01FF2793585F4F2AF09E3F510562
:1035F00068F08DC017C15F3FECF3983EDCF3869511
:1036000077956795B795F7959F5FC9F7880F911DD7
:103610009695879597F90895E1E0660F771F881FC3
:10362000BB1F621773078407BA0720F0621B730B76
:10363000840BBA0BEE1F88F7E0950895C1D088F08F
:103640009F5790F0B92F9927B751A0F0D1F0660F8E
:10365000771F881F991F1AF0BA95C9F712C0B130A9
:1036600081F0DFD0B1E00895DCC0672F782F882784
:10367000B85F39F0B93FCCF3869577956795B395E8
:10368000D9F73EF490958095709561957F4F8F4F57
:103690009F4F0895E89409C097FB3EF4909580955C
:1036A000709561957F4F8F4F9F4F9923A9F0F92F08
:1036B00096E9BB279395F695879577956795B79586
:1036C000F111F8CFFAF4BB0F11F460FF1BC06F5F6C
:1036D0007F4F8F4F9F4F16C0882311F096E911C07E
:1036E000772321F09EE8872F762F05C0662371F09F
:1036F00096E8862F70E060E02AF09A95660F771FB3
:10370000881FDAF7880F9695879597F9089597F9A6
:103710009F6780E870E060E00895882371F4772364
:1037200021F09850872B762F07C0662311F4992734
:103730000DC09051862B70E060E02AF09A95660FDC
:10374000771F881FDAF7880F9695879597F9089560
:103750009F3F31F0915020F4879577956795B79505
:10376000880F911D9695879597F908959FEF80ECA6
:10377000089500240A9416161706180609060895D7
:1037800000240A9412161306140605060895092E3D
:103790000394000C11F4882352F0BB0F40F4BF2BAC
:1037A00011F460FF04C06F5F7F4F8F4F9F4F0895EC
:1037B00057FD9058440F551F59F05F3F71F04795E2
:1037C000880F97FB991F61F09F3F79F087950895C7
:1037D000121613061406551FF2CF4695F1DF08C0E6
:1037E000161617061806991FF1CF86957105610503
:1037F00008940895E5DFA0F0BEE7B91788F4BB2769
:103800009F3860F41616B11D672F782F8827985FB0
:10381000F7CF869577956795B11D93959639C8F33F
:103820000895E894BB2766277727CB0197F9089579
:103830000BD0ADCF9EDF28F0A3DF18F0952309F061
:1038400066CF94CF1124EECFB3DFA0F3959FD1F3D1
:10385000950F50E0551F629FF001729FBB27F00D3E
:10386000B11D639FAA27F00DB11DAA1F649F662793
:10387000B00DA11D661F829F2227B00DA11D621FE2
:10388000739FB00DA11D621F839FA00D611D221F9C
:10389000749F3327A00D611D231F849F600D211D80
:1038A000822F762F6A2F11249F5750408AF0E1F023
:1038B00088234AF0EE0FFF1FBB1F661F771F881F6C
:1038C00091505040A9F79E3F510570F020CFAACFEC
:1038D0005F3FECF3983EDCF3869577956795B79557
:1038E000F795E7959F5FC1F7FE2B880F911D969581
:1038F000879597F9089564DFE0F09E37D8F0963900
:10390000B8F49E3848F4672F782F8827985FF9CF4E
:1039100086957795679593959539D0F3B62FB170C5
:103920006B0F711D811D20F4879577956795939591
:10393000F4CE0ECF77CFAA1BBB1B51E107C0AA1F45
:10394000BB1FA617B70710F0A61BB70B881F991F40
:103950005A95A9F780959095BC01CD010895A1E2F3
:103960001A2EAA1BBB1BFD010DC0AA1FBB1FEE1FF9
:10397000FF1FA217B307E407F50720F0A21BB30B44
:10398000E40BF50B661F771F881F991F1A9469F7C0
:1039900060957095809590959B01AC01BD01CF011C
:1039A0000895EE0FFF1F0024001C0BBE0790F69138
:1039B000E02D0994A29FB001B39FC001A39F700D99
:1039C000811D1124911DB29F700D811D1124911D27
:1039D0000895F0DFA59F900DB49F900DA49F800DDA
:1039E000911D11240895FB01DC014150504030F03D
:1039F0008D910190801919F40020B9F7881B990B5B
:103A00000895F999FECF92BD81BDF89A992780B5A6
:103A10000895262FF999FECF1FBA92BD81BD20BD12
:103A20000FB6F894FA9AF99A0FBE01960895F89491
:023A3000FFCFC6
:103A32000300010806040201414551006A0066665E
:103A420000334966004722004A00004B00004866E6
:103A5200004D6600650066610066620066670022CE
:103A62007300664566005011004600004C00005687
:103A720022007106264F110041660042660053661D
:103A8200006E00664E66004422006400224311006C
:103A92006300225A22007A002252660072006651A6
:103AA20024006F00225864007800665922005411E5
:023AB200000012
:00000001FF
