:10000000CFC00000F2C00000F0C00000EEC0000051
:10001000ECC00000EAC000000C94800FE6C00000B5
:10002000E4C00000E2C00000E0C00000DEC000004C
:100030000C947410DAC00000D8C00000D6C00000D4
:10004000D4C00000D2C00000D0C000000C94F8144E
:10005000CCC000000C941815C8C00000C6C0000039
:10006000C4C00000C2C00000C0C00000BEC000008C
:100070008E0A7A0A5A0A4D0A590759075907590729
:10008000590759075907590759076A0A590759075C
:10009000AF099D0989090E0A590759075907E1094E
:1000A000D109C0095907590759075907590759076D
:1000B00059075907430A2D0A59075907590759077C
:1000C00059075907590759075907370A8009590726
:1000D0004B09410959075907590759075907550944
:1000E00059073509E607DF0843082B08FD0788078D
:1000F000B708AC0888078807550B88078807880762
:10010000880788078807A20888078807880788075C
:100110008807880788078807880788079408EE08F3
:100120008807880786086B08CE0788078807B00706
:100130008807880788078807880788078807880747
:10014000D807E6071E0943082B08FD075907B7081B
:10015000AC0859075907590759075907590759074B
:1001600059075907A2085907590759075907590745
:10017000590759075907590759079408FC0859079F
:10018000590786086B08CE0759075907B007590762
:100190005907590759075907590759075907D807E0
:1001A00011241FBECFEFD4E0DEBFCDBF0FB6F89451
:1001B000A89581B5886181BD11BC0FBE11E0A0E09A
:1001C000B1E0EEE3F2E302C005900D92AC37B10767
:1001D000D9F724E0ACE7B1E001C01D92A835B20721
:1001E000E1F70E94680B0C941D190ACF969A1092A1
:1001F000B10108954FB7F8941092B301A898809177
:10020000A30180FD03C081E08093A3012091EE0152
:100210003091EF018091EA019091EB0182179307F1
:1002200058F08091F6019091F70101969093EB01BF
:100230008093EA014FBF08958091F6019091F701F4
:100240002817390790F73093F7012093F601C90179
:1002500001969093EB018093EA014FBF08954FB749
:10026000F8941092B401A9988091A40180FD03C074
:1002700081E08093A4012091F0013091F1018091FF
:10028000EC019091ED018217930758F08091F801ED
:100290009091F90101969093ED018093EC014FBF8D
:1002A00008958091F8019091F9012817390790F786
:1002B0003093F9012093F801C90101969093ED0163
:1002C0008093EC014FBF0895883018F4880F880F91
:1002D000880F613061F108F1623069F06330B1F488
:1002E0008830D9F1803209F04AC08AE28093000157
:1002F000809301010895883059F1803299F58AE29E
:100300008093000188E280930101089587E0809343
:10031000000181E0809301010895883099F08032D6
:10032000A9F782E08093000180930101089588304D
:1003300049F08032F1F485E08093000182E08093FF
:100340000101089583E08093000110920101089556
:100350006093000110920101089510920001109223
:100360000101089587E08093000185E080930101F9
:10037000089584E08093000160930101089580E175
:100380008093000188E28093010108954F925F926B
:100390006F927F928F929F92AF92BF92CF92DF9295
:1003A000EF92FF92CF93DF93C82FD0E0FE01EE0FC4
:1003B000FF1FEE0FFF1FED56FE4F86A897A8A0ACBB
:1003C000B1AC60E072E18AE790E0A50194010E947F
:1003D000B91869017A010E9474172B013C01C5010B
:1003E000B4010E9474179B01AC01C301B2010E94C9
:1003F000E01620E030E040E052E40E94421820E0A5
:1004000030E040E05FE30E9469160E9448174B010C
:100410005C01E114F10451F480E8C816D104E10450
:10042000F10408F066C02FE730E002C02EEF3FEF86
:10043000CE01002496958795079496958795079405
:10044000982F802DFC01EA53FC4F8A5F9B4F21932C
:100450003193E817F907D9F781149104A104B10485
:10046000C9F1C501B4010E9474172B013C01C12CD4
:10047000D12C7601CC0FDD1FC295D295D07FDC2721
:10048000C07FDC27C701B6010E94741720E030E06E
:1004900040E052E40E944218A30192010E94E0163B
:1004A0000E94CD160E944817FE01E60FF11DEE0FC7
:1004B000FF1FEA53FC4F80819181019691838083D5
:1004C0008FEFC81AD80AE80AF80A8C149D04AE0403
:1004D000BF04C1F6DF91CF91FF90EF90DF90CF90F6
:1004E000BF90AF909F908F907F906F905F904F9054
:1004F000089581E0C81AD108E108F108960198CF63
:100500000F931F93CF9308E010E0C0E0C8010E9452
:100510000A139C2F982788E027E0990F08F4922768
:100520008A95D9F7C92F0F5F1F4F043E81E0180746
:1005300069F7911101C0C1E08C2FCF911F910F91EC
:100540000895CF9387E090E00E940A13C82FD8DF68
:1005500091E0C81390E0892FCF9108951F93CF9316
:10056000DF9300D000D0CDB7DEB7182F40E050E0C9
:1005700063E0CE0101960E94301343E050E063E057
:1005800071E0CE0101960E94FA18892B49F080E0B3
:100590000F900F900F900F90DF91CF911F910895C2
:1005A00083E090E00E941A13643373408105910543
:1005B00071F7112391F180914604843040F788232C
:1005C00039F18091C503813210F78091E601909155
:1005D000E701C2978F379440D0F68091E80190915F
:1005E000E901C2978F37944090F68091F201909183
:1005F000F301892B61F28091F4019091F501892B2F
:1006000031F29091DC01915081E0933108F2BFCF3B
:100610008091C5038131C8F2BACF93DF8111CBCF6E
:10062000B6CF89E090E00E940A1391E0811101C0E9
:1006300090E09093C3038AE090E00E940A1391E057
:10064000811101C090E09093C4038BE090E00E9480
:100650000A138093460488E090E00E940A13809376
:10066000C5038BE290E00E940A1391E0811190E0B3
:10067000909380018FE290E00E940A1391E0811133
:1006800001C090E09093840181E09091C50398307F
:1006900008F080E0809382018AE290E00E940A13D1
:1006A00091E0811190E0909381019091C503983081
:1006B00010F08111C9C01092830141E064E373E03E
:1006C00080E090E00E943715609146048091C50358
:1006D000FBDD80E043DF8111BEC081E080938801B3
:1006E000BF9A80918801813009F4FAC0C798BD98FB
:1006F000C59A8A98929A309A389AD798DF9AD4985D
:10070000DC9AD698DE9AD598DD9AD19AD998D09A63
:10071000D8988E9A969AB89AC09A8C9A9498329A47
:100720003A988B9A93988F9A9798E0918201F0E08B
:10073000E050FF4F8081282F217080FF55C0959A8F
:10074000982F987083FD55C08D9A222309F454C0C8
:10075000C49A911155C0BC9A282F227081FF55C0B0
:10076000DB9A982F907184FD55C0D39A222309F407
:1007700054C0C39A911155C0BB9A282F247082FF90
:1007800055C0DA9A982F907285FD55C0D29A2223CF
:1007900009F454C0C29A911155C0BA9A8FE99FE0EA
:1007A0000197F1F700C00000D99AD89A89B78C7FD9
:1007B00089BF13BE8091840181114BC0319A399851
:1007C000B99AC19816BC12BC17BC17BC87B5806615
:1007D00087BD87B5846087BD0E94511460E875E2CB
:1007E00080E090E00C94DE139598982F987083FF2A
:1007F000ABCF8D982111ACCFC498992309F4ABCF1E
:10080000BC98282F227081FDABCFDB98982F907178
:1008100084FFABCFD3982111ACCFC398992309F4AF
:10082000ABCFBB98282F247082FDABCFDA98982FDE
:10083000907285FFABCFD2982111ACCFC29899238B
:1008400009F4ABCFBA98AACF81E08093830148E046
:1008500035CF3198B4CF80E099DD81E097DD4091CC
:10086000F2015091F301AAEFB1E0EAEBF2E020E0EF
:1008700030E00CC012968C91129790E00196280FF0
:10088000391F139682E0AA3BB80731F08D919C91F5
:1008900011974817590770F33093C0032093BF0393
:1008A0004091F4015091F50120E030E00AC08281CE
:1008B00090E00196280F391F339693E0EA37F90745
:1008C00029F0808191814817590788F33093C2033A
:1008D0002093C103BF9A80918801813009F006CF2F
:1008E000C79A05CF40E050E063E083E091E00E94CA
:1008F0009C1343E050E064E373E080E090E00C94EC
:100900008513CF93DF93C3E9D1E06EA57FA588A9B6
:1009100099A94EE050E00E9485136AA97BA98CA991
:100920009DA942E150E00E9485136EA97FA988AD80
:1009300099AD46E150E00E9485136AAD7BAD8CAD68
:100940009DAD4AE150E00E9485136091D301709102
:10095000D4018091D5019091D6014EE150E00E94E2
:1009600085136091D7017091D8018091D901909140
:10097000DA0142E250E00E948513C3ECD3E069E063
:1009800070E088810E9472136AE070E089810E94A1
:1009900072136BE070E0809146040E94721368E06D
:1009A00070E08091C5030E9472136CE070E080914A
:1009B000F2010E9472136DE070E08091F4010E94D8
:1009C000721366E270E08091E6019091E7010E9467
:1009D000761368E270E08091E8019091E9010E944D
:1009E000761380918101C1E06AE270E08C270E9459
:1009F0007213809180016BE270E08C270E94721369
:100A00006CE270E08091E4019091E5010E94761320
:100A10006EE270E08091DC010E9472136FE270E080
:100A2000809184010E94721344E650E060E48AEFF2
:100A300091E00E94BD1344E251E060E48AEB92E051
:100A40000E94BD135DDD67E070E0DF91CF910C94F3
:100A500072133898000000000000000080918001AF
:100A6000882321F0829B02C082E00895389A00001A
:100A700000000000000080B382FB992790F981E01C
:100A800089270895829B14C038988AE0000081501D
:100A9000E9F7309888EC00008150E9F7829B04C0A8
:100AA00082E0309A389A089581E0309A389A089511
:100AB00080E0309A389A089580919B0190919C0132
:100AC00029B7277F29BF209184003091850049B73D
:100AD000486049BF4091EE015091EF01782F692F96
:100AE0008417950710F4742F652FE091B501E1117B
:100AF0003AC024173507B8F549B7477F49BF9093E7
:100B0000EB018093EA013093850020938400709379
:100B1000F6016093F7019091C3038091AF0198179C
:100B200029F1939AEE23D9F081E090E099BD88BD38
:100B30008091FC0180937E0110927C0112BE1DBC4D
:100B40001CBC8091C6039091C70395BD84BD8EB532
:100B5000897F8EBD8EB581608EBD1092B50189B73B
:100B6000886089BF0895272F362FC6CF9398DACF94
:100B700080919D0190919E0120917D002F7D209379
:100B80007D00209186003091870040917D00406279
:100B900040937D004091F0015091F101782F692F31
:100BA0008417950710F4742F652FE091B601E111B9
:100BB00047C02417350708F043C040917D004F7DA2
:100BC00040937D009093ED018093EC01309387007A
:100BD000209386007093F8016093F9019091C4030B
:100BE0008091B001981779F1979AEE2319F181E07D
:100BF00090E09BBD8ABD8091BC0280937F011092E2
:100C00007D0111BE10928900109288008091060427
:100C100090910704909381008093800080918A00D6
:100C2000897F80938A0080918A00816080938A0006
:100C30001092B60180917D00806280937D000895BE
:100C4000272F362FBACF9798D0CF3F924F925F92EF
:100C50006F927F928F929F92AF92BF92CF92DF92CC
:100C6000EF92FF92CF93DF93E82FF0E0DF01AA0F1E
:100C7000BB1FED01C154DC4FE880F980EF01CD5678
:100C8000DE4F9CA1992329F0A701440F551FE40EC4
:100C9000F51E9A8D19160CF093C03A8C9C8D9F010D
:100CA000220F331F220F331FE901CD56DE4F4A8931
:100CB0005B896C897D89A32CB12C2501440C551CC2
:100CC000052C000C66087708441555056605770560
:100CD00030F44A8A5B8A6C8A7D8AB301A201AE9C99
:100CE0006001AF9CD00CBE9CD00C11244A015B016A
:100CF000B694A79497948794AE50BE4F0D90BC9134
:100D0000A02DC8E03C1609F457C0E12CF12C8C143E
:100D10009D04AE04BF0410F4750164014C195D0913
:100D20006E097F09E901CD56DE4FC880D980EA807F
:100D3000FB80992339F070956095509541955F4FF0
:100D40006F4F7F4FE901C757DE4F4C0D5D1D6E1D84
:100D50007F1D488359836A837B83EE0FFF1FE5560F
:100D6000FE4FB183A08395B3811113C09B7F95BBC8
:100D7000A89ADF91CF91FF90EF90DF90CF90BF9036
:100D8000AF909F908F907F906F905F904F903F902B
:100D900093CE977F95BBA99ADF91CF91FF90EF906B
:100DA000DF90CF90BF90AF909F908F907F906F908B
:100DB0005F904F903F90DCCE487FC8EF8C22A5CF4C
:100DC0009A8D392E31946ACF811106C08091B50178
:100DD000811101C00FCA089589B7877F89BF8EB579
:100DE000887F8EBD1092B30181E08093B50180931E
:100DF000A30110929101A8980895811106C08091D5
:100E0000B601811101C02BCA089580917D008F7DAC
:100E100080937D0080918A00887F80938A00109261
:100E2000B40181E08093B6018093A40110929201F5
:100E3000A9980895811113C081E0C6DF969881E0DA
:100E40008093B10110927D0089B7837089BF1FBC68
:100E500088E18EBD10928B0080938A00089581E016
:100E6000CCDFC09881E08093B201ECCFCF92DF92CB
:100E7000EF92FF920F931F93CF93DF93D82F8B01A5
:100E80000E946516C82F80918801811135C0DF341A
:100E900009F450C0109287018D2F0D2E000C990B74
:100EA000AA0BBB0BFC01E554F109EF32F10508F484
:100EB0003DC020E030E0A9016D2FC8010E9445151A
:100EC000DA3409F03FC38091850181113BC38091E1
:100ED0008801811137C3D0E0FE01ED56FE4F8089B5
:100EE000CF56DE4F80FF30C38881823009F42AC399
:100EF00081E08883C1E048C04D2F0D2E000C550BBA
:100F0000660B770BFA01E554F109EF32F10550F069
:100F1000FA01E154F109EA33F10558F6E85CFF4FB4
:100F20000C94DB18EE58FF4F0C94DB18EF55FF4F75
:100F30000C94DB18CC2309F40CC380918701833116
:100F400008F086C1F80190819153933008F43BC3B7
:100F500010928701C1E020E030E0A901D0E010C08C
:100F60008FB7F894D0E0CC0FDD1FCC0FDD1FCD562E
:100F7000DE4F288139814A815B818FBFC1E0DAE68B
:100F80006D2FC8010E9445158C2FDF91CF911F91C5
:100F90000F91FF90EF90DF90CF900895D0E0CD5665
:100FA000DE4F2EAD30E040E050E0C1E0D7E6E8CFC4
:100FB000D0E0CC0FDD1FCC0FDD1FCD52DE4F2881DE
:100FC00039814A815B81C1E0D3E7DACFFFB6F8947B
:100FD000C8010E943B16D0E0CC0FDD1FCC0FDD1FF7
:100FE000CD56DE4F688379838A839B83FFBEC1E041
:100FF00020E030E0A901D5E4C3CFC8010E943B1630
:10100000B62F2C2F30E040ECC49FF0011124E9549E
:10101000FD4FC080D180E12CF12CF901EE0FFF1FB4
:10102000E556FE4F4B2F572FBC014C155D056E0545
:101030007F0508F4BDC051834083F901EF56FE4F90
:101040008081823009F4C1C01082C1E020E030E02C
:10105000A901D9E495CFC8010E943B16D0E0FE015A
:10106000EE0FFF1FEE0FFF1FED56FE4F628B738BCF
:10107000848B958BCF56DE4F1882C1E020E030E0A4
:10108000A901D8E47DCFD8018C91D0E0FE01ED56C6
:10109000FE4F90ED980F908B91E011962C9120339C
:1010A00009F48BC0948FCF56DE4F188292A19923FA
:1010B00009F46BC090918301992309F466C08153B0
:1010C000823008F479C281E084A3C1E020E030E0FE
:1010D000A901D7E455CFD0E0CD56DE4F8CA18111C8
:1010E00064C020E030E08C8D8111326088A18111D4
:1010F00001C031608AA1811101C020618E8D8111F2
:10110000216040E050E0C1E0D6E63ACFD0E0CC0F1D
:10111000DD1FCC0FDD1FCD56DE4F2EA13FA148A510
:1011200059A5C1E0D5E62CCFD0E0CC0FDD1FCC0F08
:10113000DD1FCD56DE4F2EA53FA548A959A9C1E018
:10114000D1E61ECFC8010E942C1682BDC1E020E06E
:1011500030E0A901D6E514CF81E0C1111CC034DE16
:1011600045D8C1E020E030E0A901DCE409CF80E00F
:10117000CC2309F142DED0E0CF56DE4F1882C1E029
:1011800020E030E0A901DBE4FBCEC1E020E030E06C
:10119000A901D7E4F5CE31DEC09A1092B201C1E0C8
:1011A00020E030E0A901DCE4EBCE20E034E09BCF8E
:1011B000B701A60140CF08DEDECF90E073CFC1E0DB
:1011C00020E030E0A901D0E0DBCEC111D4C174DC55
:1011D000C1E020E030E0A901D9E4D2CEEC2FF0E06C
:1011E000EE0FFF1FEE0FFF1FED56FE4F26A937A98A
:1011F00040AD51ADC1E0C4CE8C2F90E0FC01EE0FAC
:10120000FF1FEA51FE4F208131817901EE0CFF1C56
:10121000880F991F880F991FFC01ED56FE4FD701CB
:10122000119626A937A940AD51AD0E94F01897013B
:1012300040E050E00E94B918C1E0A2CE8C2FFADD48
:10124000C1E020E030E0A9019BCE882309F475CEEF
:10125000D8018C9180538093880181119AC1C0E09C
:1012600020E030E0A901DFE48BCEEC2FF0E0EE0FC0
:10127000FF1FEE50FE4F2081318140E050E0C1E081
:101280007FCEC13009F4D4C12091DC0130E040E0D0
:1012900050E0C1E075CEC13009F4BAC1209180019F
:1012A00030E040E050E0C1E06BCE4C2F50E0FA015E
:1012B000E458FE4F6081862F90E09C01220F331F7F
:1012C000280F391F70EC749FC001759F900D112479
:1012D000820F931F8D569E4FDC01A959BF4FCC91B1
:1012E00011967C91119712962C2F372F4C9150E02C
:1012F00081E0860F803408F073C18083C1E040CE66
:10130000C1115DCF2091840130E040E050E0C1E0A8
:1013100037CEC8010E943B16EC2FF0E0EE0FFF1F06
:10132000EE0FFF1FED52FE4F608371838283938324
:10133000C1E020E030E0A90123CEC801C13009F4AA
:101340007EC10E942C169FEF980F933108F037CF83
:101350008093DC01C1E020E030E0A90111CEC8019A
:10136000C13009F446C10E942C1691E0811101C0E0
:1013700090E090938001C1E020E030E0A90100CE30
:10138000C8010E942C16EC2FF0E0EE0FFF1FEE506C
:10139000FE4F90E091838083C1E020E030E0A9011E
:1013A000EFCDC8010E942C16EC2FF0E0E458FE4F60
:1013B0008083803408F003CFC1E020E030E0A90151
:1013C000DFCDC8010E943B16AC2FB0E0FD01E45810
:1013D000FE4F9081292F30E0A901440F551F420F85
:1013E000531FC0ECCA9F9001CB9F300D1124240FD6
:1013F000351F2D563E4FD901A959BF4F11967C93E9
:101400006E9312968C9381E0890F803408F45CC04F
:101410001082C1E020E030E0A901B2CD823009F4B1
:1014200039C1833009F42DC1813031F681E0F801F2
:101430009081903309F437C191D8882309F4BFCE45
:1014400080D88111B9CF5CD867E070E00E94721338
:10145000C1E020E030E0A90193CDC13009F4C3C060
:101460002091460430E040E050E0C1E089CDEC2F0F
:10147000F0E0EE0FFF1FEA51FE4F2081318140E086
:1014800050E0C1E07DCDEC2FF0E0ED53FC4F20812A
:1014900030E040E050E0C1E073CDC801C13009F454
:1014A000DFC00E942C1680934604C1E020E030E0AB
:1014B000A90166CDEC2FF0E0ED53FC4F81E0D8019F
:1014C0009C91903309F4A2C08083C1E020E030E019
:1014D000A90156CDC8010E943B16EC2FF0E0EE0F9B
:1014E000FF1FEA51FE4F71836083C1E020E030E0CE
:1014F000A90146CDC8010E943B16EC2FF0E0EE0F8B
:10150000FF1FEE0FFF1FED56FE4F66AB77AB80AFB0
:1015100091AFC1E020E030E0A90132CDC8010E94C6
:101520003B16EC2FF0E0EE0FFF1FEE0FFF1FED5606
:10153000FE4F66A777A780AB91ABC1E020E030E01B
:10154000A9011ECDC1E020CD81E0888380A3C1E048
:101550001BCD809184018823A9F03998F8018081FE
:101560008033D1F1319A10928701C1E020E030E060
:10157000A901DFE405CDFCDAC1E020E030E0A901FB
:10158000D9E4FECC319AD8018C91803339F1399A63
:10159000EACF81E019DC0E94F60081E02EDCC09ADF
:1015A0001092B2011092910110929201C1E020E0DC
:1015B00030E0A901DFE4E4CC14A2C1E020E030E097
:1015C000A901D7E4DDCC8F5F80938701C1E020E0E3
:1015D00030E0A901D0E0D4CC3198C5CF3998C3CF41
:1015E0001082C1E0CDCC2091C50330E040E050E056
:1015F000C7CC0E942C1691E0811101C090E090931D
:101600008101C1E020E030E0A901BACC80E05CCFEC
:1016100080918101282F30E040E050E09091C50397
:101620009830A8F18C27817080938301C1E0A8CC09
:101630002091E4013091E50140E050E0A1CC0E940E
:101640003B1661157105B1E08B07910508F0B7CD28
:101650007093E5016093E40120E030E0A90190CCB3
:101660000E942C168093C5038830D0F080918101B0
:101670008C27817080938301C1E020E030E0A901D4
:101680007FCC30D9C1E020E030E0A90179CC80E006
:1016900090E0C9CF36D9C1E020E030E0A90170CC9C
:1016A00080E090E0E6CF80E0C7CEC111CECD8823A8
:1016B00009F44FCF81E0D8019C91903339F08093A9
:1016C0008401C1E020E030E0A9015ACC80E0F7CFEE
:1016D000CF93DF93CDB7DEB72E970FB6F894DEBF6A
:1016E0000FBECDBF78940E941103BB24BA94DD24B1
:1016F000DA94812C312CF12CE12C00E010E0CC2488
:10170000C394AA24AA9482E0982E412C512C90E8EC
:10171000692E712C86B391E0282F207285FD90E010
:101720009093850121110AC08091B501882309F4A5
:1017300092C18091B601882309F48AC10F5F1F4FBF
:1017400080918601811113C10115110509F09AC01C
:1017500080918801882309F4EAC1809102018111F6
:1017600096C088B3805888BB8DD9282E8091DB0124
:101770002816C9F1822DA6D580918301882321F0F6
:1017800092E0291609F41BC3809100019091AF01EA
:10179000992309F4BAC2A092AD011092B7019091B9
:1017A000B001992309F4AEC2A092AE011092B80123
:1017B000382F317080FF70C2959A282F227081FFD8
:1017C00069C2DB9A982F947082FF62C2DA9A33233F
:1017D00009F45CC2C49A222309F456C2C39A99231D
:1017E00009F450C2C29A80918501811193CFCC9B9C
:1017F000CEC0CF9B8DC222242A9480E09FB7F8945C
:1018000060918400709185009FBF2091B5012111E6
:1018100059C14091AF0150E0E82FF0E04E175F074B
:1018200009F450C14091EE015091EF016417750722
:1018300008F048C10E94FA00CD9B71C1CE9B6EC2D8
:1018400022242A9480E09FB7F8944091860050911A
:1018500087009FBF9091B6019111F0C12091B00116
:1018600030E0682F70E02617370709F443C2209153
:10187000F0013091F1014217530708F03BC20E947A
:101880002F0148CF80910201882309F478C08EEFA0
:10189000F81609F4D9C00E949B148823E1F088B39C
:1018A000805888BB0E94A614E82E6E2DCE010196AA
:1018B0000E94EB15F82E882371F00CF4FFC0BE01D6
:1018C0006F5F7F4FD3DA282ECE0101960E94EA1473
:1018D000222009F4E3C10115110531F4809188013A
:1018E000813009F4A9C1C79880918501811170C028
:1018F0008091860181116CC001116AC0CC9B18C215
:1019000029B2220C22082D1451F08091AF018111CF
:1019100005C080919101823009F496C2D22CCD9BF2
:101920000AC229B226FA222420F821948091B40117
:1019300081114EC02B1409F44BC081E0281280E0C5
:101940009091B60191112CC02091B001281741F15E
:101950000E942F011092920180919101813009F033
:10196000D9CE8091B501882309F4D4CE7CC0809172
:10197000020181118CCF0115110509F4F2CE80917D
:1019800085018111C7CE0111C5CECC9932CF81E03E
:10199000D81609F451CF8091E101222423942ECF4F
:1019A0002FEF221609F475C22091E2013091E30174
:1019B00030939E0120939D018093B00181E0281611
:1019C00009F45BC2C092AE01D3D8B22C88248394B0
:1019D00080919101813009F441C080919201813060
:1019E00009F098CE9091B601992309F493CE2091F5
:1019F000A40190918301992309F46DC19FEF920F87
:101A0000923008F40BC2909101018091D201309183
:101A1000B001332309F4A1C181958093AE01C09236
:101A2000B80190FFBCC1C49A93FDB7C1BC9A91FFA5
:101A3000B2C1C39A94FDADC1BB9A92FFA8C1C29A2C
:101A400095FDA3C1BA9A4FC188B3805888BB2DCFEA
:101A500081E0D3D973CE81E0B7D96BCE8091B50147
:101A6000882309F4BACF9091A30180918301882340
:101A700009F421C18FEF890F823008F4DAC1809117
:101A800001012091D1013091AF01311162C1209348
:101A9000AD01C092B70180FF8AC1959A83FD85C1CF
:101AA0008D9A81FF80C1DB9A84FD7BC1D39A82FF2E
:101AB0006AC1DA9A85FD65C1D29A06C1CE01019646
:101AC00089D709CF9FEF291609F438C1E22DEE0F0F
:101AD000FF0BE352FE4F4081518150939C01409394
:101AE0009B01982F91709093AF019091B70199232A
:101AF00009F4C6C09091D101882309F4BEC0919524
:101B00009093AD018FEF281205C08091DB018230E8
:101B100009F44FC10E945C05D22CCD998FCE91E083
:101B2000B91609F4F7CD2224239481E08CCE0E94CB
:101B30002905282E882309F410CE81E045D981E0BB
:101B40005CD98FB7F89440929301509294016092BF
:101B5000950170929601409297015092980160927F
:101B6000990170929A018FBF74D6C092860122E0CB
:101B7000221609F49BC110920201389AE091820169
:101B8000F0E0E050FF4F8081282F217080FDE8C0F9
:101B90009598982F987083FD2DC18D9A222309F472
:101BA00027C1C49A911138C1BC9A282F227081FF95
:101BB00031C1DB9A982F907184FD2AC1D39A2223D8
:101BC00009F424C1C39A91111FC1BB9A282F247014
:101BD00082FF18C1DA9A982F907285FD11C1D29AAE
:101BE000222309F40BC1C29A911106C1BA9A80E06E
:101BF00069D31092B7011092B80180E01BD981E03F
:101C000019D9C092A301C092A4011092AF01C09251
:101C1000AD011092B001C092AD018091E6019091AA
:101C2000E70190939C0180939B01C0929101BB249A
:101C3000BA94DD24DA9491CDC79A56CE2FEF2216AE
:101C400009F49CC02091E2013091E30130939E01A0
:101C500020939D018093B0019091B801992309F4DC
:101C600065C09091D201882309F45DC0919590934D
:101C7000AE010E94B805B22C4DCD9093AD0142CF7C
:101C800091E03ACFC298AFCDC398A9CDC498A3CD67
:101C9000DA989DCDDB9896CD95988FCD8DD69BE02B
:101CA00088E10FB6F894A89581BD0FBE91BD80E084
:101CB00090E00E941D198091AF01882309F446C06D
:101CC000A092AD011092B70190FF52C00E945C0536
:101CD0009092910182CE9091B001911134C0809385
:101CE000AE011092B80120FF3DC00E94B80590924D
:101CF000920110CD9FEF2912A5CF0E942F01BB2486
:101D0000BA9408CDC092AE0151CDC092AD0145CD7F
:101D1000DD2009F491CD212C80E070CDBB2009F4A9
:101D2000F9CC212C8FCD9093AE01A3CF91E09BCF26
:101D300022242394E8CD22242394F8CD4091E60177
:101D40005091E701CACEA092AE01CBCFC092AD01B7
:101D5000B9CF21952093AD019CCE8093AE015FCE8B
:101D6000959A17CF81E00E94250610929201D2CC5D
:101D700080E00E942506109291012FCEBB24BA94D8
:101D8000C9CCD298A1CFDA9895CEBA98ACCFC298E8
:101D900057CEBB9852CEC3984DCEBC9848CEC4986F
:101DA00043CED39884CEDB987FCE8D987ACE95980B
:101DB00075CE222309F475C0DD24DA943DCD8091DF
:101DC00001019091D1012091AF01211152C0909356
:101DD000AD01C092B7019091D2012091B0012223B0
:101DE00009F454C091959093AE01C092B801E0CC33
:101DF000C498D8CE8D98D2CEBA98F9CEC298F4CEE7
:101E0000D298EECEDA98E7CEBB98E0CEC398DBCE80
:101E1000D398D5CEDB98CECEBC98C7CE909100019A
:101E20003091B00131112FC08093AE011092B801F2
:101E3000F8CD809100012091AF01211121C0C09205
:101E4000AD011092B70127CE9FEF291609F43CC0CF
:101E5000E22DEE0FFF0BE352FE4F808191819093B4
:101E60009C0180939B010E945C05D22C3324339407
:101E700056CD91959093AD01ACCFA092AE01A4CD7B
:101E8000A092AD01DECFA092AE01D0CF9093AE0173
:101E9000ACCF8820F1F09923F9F0BB24BA94812CBF
:101EA00097CD0E94FA00DD24DA94C6CCC0920201DC
:101EB000E0D420E030E0A90160E0CE010C96E5D549
:101EC000CE010C9687D549CC31100CC0DD24DA94B4
:101ED00026CDBB24BA947CCD0E942F01BB24BA949A
:101EE000812C76CD8091E6019091E70190939C0141
:101EF00080939B010E945C05DD24DA94312C0FCD88
:101F00001F920F920FB60F9211240F931F932F93CE
:101F10003F934F935F936F937F938F939F93EF9331
:101F2000FF938AB59BB5019709F05EC081B7E82F92
:101F3000EE73F0E0EA5FFB4F208131813093810046
:101F4000209380008F5F81BF8091860090918700F1
:101F50009BBD8ABD2A9B5BC03A9800919701109166
:101F600098012091990130919A014091AE01042E7F
:101F7000000C550B660B770B400F511F621F731F30
:101F800040939701509398016093990170939A013F
:101F9000A99B10C0AB990EC000918D0110918E01CC
:101FA00020918F013091900140175107620773070C
:101FB00009F483C02091F8013091F90128173907FD
:101FC000A8F4A99B03C01092B401A99881E0809362
:101FD000B60180917D008F7D80937D0080918A0085
:101FE000887F80938A0002C09BBD8ABDFF91EF91DC
:101FF0009F918F917F916F915F914F913F912F9121
:102000001F910F910F900FBE0F901F9018953A9A45
:1020100020917F01211123C02091EC013091ED012D
:102020002817390700F580917D018F3398F48F5F71
:1020300080937D0190E0AC01440F551F840F951FE4
:102040008D569E4FFC01E95DFE4F40815181241762
:10205000350718F13093870020938600C7CF2150B1
:1020600020937F01C3CF8217930728F580917D01CC
:10207000882381F3815080937D0190E0AC01440F6F
:10208000551F840F951F8D569E4FFC01E95DFE4F35
:102090004081518142175307E8F62091B80122236D
:1020A000D9F032968081982F990F890F8E5F809397
:1020B0007F019A01CFCF9C01CDCFAB9A2091F8013F
:1020C0003091F901A9014F5F5F4F5093ED014093AB
:1020D000EC0110927F0172CFFC01E75DFE4F808121
:1020E00080937F019A01B6CF1F920F920FB60F9285
:1020F00011240F931F932F933F934F935F936F93ED
:102100007F938F939F93EF93FF9388B599B5019732
:1021100009F058C082B7E82FEE73F0E0EA53FC4FA5
:102120002081318135BD24BD8F5F82BF80918400C5
:102130009091850099BD88BD849B57C0949800916B
:102140009301109194012091950130919601409155
:10215000AD01042E000C550B660B770B400F511F81
:10216000621F731F409393015093940160939501F4
:1021700070939601A89B10C0AA990EC00091890186
:1021800010918A0120918B0130918C0140175107E9
:102190006207730709F47FC02091F6013091F701BF
:1021A0002817390788F4A89B03C01092B301A89898
:1021B00081E08093B50189B7877F89BF8EB5887F1D
:1021C0008EBD02C099BD88BDFF91EF919F918F9107
:1021D0007F916F915F914F913F912F911F910F913F
:1021E0000F900FBE0F901F901895949A20917E012A
:1021F000211123C02091EA013091EB012817390702
:1022000000F580917C018F3398F48F5F80937C017F
:1022100090E0AC01440F551F840F951F8D569E4FC3
:10222000FC01E959FF4F408151812417350718F10E
:102230003093850020938400C7CF215020937E01E6
:10224000C3CF8217930728F580917C01882381F3FF
:10225000815080937C0190E0AC01440F551F840FA6
:10226000951F8D569E4FFC01E959FF4F40815181CA
:1022700042175307E8F62091B7012223D9F032968E
:102280008081982F990F890F8E5F80937E019A012C
:10229000CFCF9C01CDCFAA9A2091F6013091F701C2
:1022A000A9014F5F5F4F5093EB014093EA011092F9
:1022B0007E0176CFFC01E759FF4F808180937E013C
:1022C0009A01B6CF482F8093DB018230A9F181308B
:1022D00009F44AC08091E6019091E70144E1489FEA
:1022E000F001499FF00D11242091DC0130E0B9018B
:1022F0006C5E7F4FCF0129D77093DE016093DD01C3
:1023000064E170E0621B730BCF011FD77093E00193
:102310006093DF011092E1016091E8017091E901A1
:10232000469FC001479F900D1124B9010ED77093AD
:10233000E3016093E20108958091F2019091F3012D
:102340009093DE018093DD019093E0018093DF01A3
:1023500081E08093E1018091F4019091F5019093E7
:10236000E3018093E2010895E091E601F091E70135
:102370009F01ABEABAEA25D7969587959093DE013F
:102380008093DD01F093E001E093DF014093E101F0
:102390008091E8019091E901969587959093E301EA
:1023A0008093E20108952F923F924F925F926F9235
:1023B0007F928F929F92AF92BF92CF92DF92EF92D5
:1023C000FF920F931F93CF93DF9300D000D0CDB730
:1023D000DEB76B017C01242E8EE090E02BD1609360
:1023E000C1017093C2018093C3019093C40182E143
:1023F00090E020D16093C5017093C6018093C7011E
:102400009093C80186E190E015D16093C901709363
:10241000CA018093CB019093CC018AE190E00AD16C
:102420006093CD017093CE018093CF019093D00142
:102430008EE190E0FFD06093D3017093D40180933C
:10244000D5019093D60182E290E0F4D06093D70159
:102450007093D8018093D9019093DA0186E290E0DD
:10246000DAD09093E7018093E60188E290E0D3D040
:102470009093E9018093E8018CE090E0CBD090E06C
:102480009093F3018093F2018DE090E0C3D090E04F
:102490009093F5018093F4018EE290E0BBD080939D
:1024A000DC018CE290E0B7D09093E5018093E401E9
:1024B00044E650E060E48AEF91E0F3D044E251E07A
:1024C00060E48AEB92E0EDD0E3E9F1E066EE71E0E2
:1024D0004AEF51E00EEE11E086EF682E81E0782E93
:1024E0009AEE492E91E0592EFA83E983FC83EB831F
:1024F00020E030E033243394812C912CA0E8AA2EE4
:10250000B12C148EC9018D569E4FDC015A963C9217
:1025100014A232A210A2168EAB81BC818D929D9224
:10252000AD92BC921397DB018D919D91BD01A98164
:10253000BA8119969C938E931897308AAB81BC818F
:1025400052961D921D921D921C9255979696CD9271
:10255000DD92ED92FC92999726AEDA018D919C91D5
:10256000D8018D939D938D01D3018D939D933D0152
:102570000196D2018D939D932D01A981BA811D965B
:102580009C938E931C972F5F3F4F31968B819C813C
:1025900004969C838B831296BA83A98340545F4F21
:1025A0002230310509F0ADCF80E00F900F900F90F1
:1025B0000F90DF91CF911F910F91FF90EF90DF90DF
:1025C000CF90BF90AF909F908F907F906F905F90D3
:1025D0004F903F902F9076CEEAE0F1E02AE690E02F
:1025E00005C09F5F9732A1F0208133968213F9CF07
:1025F000892F90E0FC01EE0FFF1F8E0F9F1FFC0143
:10260000E95FFE4F662311F081810895828108956C
:102610008FEF0895FDC51F93CF93DF93EC01F8D59D
:10262000182FCE010196F4D5982F812FDF91CF91ED
:102630001F910895CF92DF92EF92FF92CF93DF9395
:10264000EC01E9DF6C01CE010296E5DF7C01C701F8
:10265000B601DF91CF91FF90EF90DF90CF9008957A
:10266000EF92FF920F931F93CF93DF93662391F026
:10267000EA018C0161507A01E60EF11C8FEFE81A35
:10268000F80ACE01C5D5F80181938F012196CE15A8
:10269000DF05B9F7DF91CF911F910F91FF90EF9078
:1026A0000895EF92FF920F931F93CF93DF93E62E3F
:1026B0008A01662381F0EC01F12CC801ACDF99831B
:1026C0008883C8010296A7DF8A830D5F1F4FF394AA
:1026D0002396EF10F2CFDF91CF911F910F91FF90D2
:1026E000EF900895282FCB01622F9AC51F93CF93A7
:1026F000DF93192FEB01682FCE0192D5612FCE0108
:102700000196DF91CF911F918BC5CF92DF92EF920F
:10271000FF92CF93DF936B017C01EA01BA01C601FE
:10272000E5DFBE016E5F7F4FC701DF91CF91FF9064
:10273000EF90DF90CF90DACFEF92FF920F931F933D
:10274000CF93DF93662391F0EC016150E62EF12CDC
:102750008FEFE81AF80AEC0EFD1E8A016991C80194
:102760005FD50F5F1F4FCE15DF05C1F7DF91CF910A
:102770001F910F91FF90EF900895EF92FF920F93AA
:102780001F93CF93DF93E62E8A01662381F0EC013D
:10279000F12CB80188819981A9DF6A81C80102966C
:1027A0003FD50D5F1F4FF3942396EF10F2CFDF91CB
:1027B000CF911F910F91FF90EF900895CF92DF92EC
:1027C000EF92FF926B017C0182E08BB960E079E0CF
:1027D0008DE390E0A7019601CCD4DA01C9010197FD
:1027E000A109B109AC01BD0176956795579547954B
:1027F000942F852F252F207FA9F01BB860E874E85F
:102800008EE190E0A7019601B4D4DA01C9010197E5
:10281000A109B109AC01BD0176956795579547951A
:10282000942F852F8F7080BD99B98FB7F89410922F
:10283000BD031092BE0310929B0310929C038FBFA6
:10284000549A539A579A5598FF90EF90DF90CF90F3
:10285000089554985398579855988FB7F894EDE980
:10286000F3E010A211A2EBE7F3E010A211A28FBFD8
:102870000895D59ADD9AD798DF9AD69ADE9AD49A97
:10288000DC9A389A8FB7F894EDE9F3E010A211A220
:10289000EBE7F3E010A211A28FBF81E080937A03EF
:1028A0000895D598DD9AD798DF9AD698DE9AD4986D
:1028B000DC9A10927A038FB7F894EDE9F3E010A256
:1028C00011A2EBE7F3E010A211A28FBF089598E0E8
:1028D00008C00000DE98DD9A880FCF990AC0915099
:1028E00059F0DD9887FFF5CFDE9ADD9A880FCF9BF0
:1028F000F6CF8F5F9150A9F7089590919C03809136
:102900009B03981709F082990895DC9881E8DFDF2E
:10291000829BFECF80E8DBDF87FD0BC0E0919B034D
:10292000F0E0E558FC4F808380919B038F5F80939C
:102930009B03DC9A089580917A038111DEDF8091F8
:102940009B0390919C03891B8F71089590919C0328
:1029500080919B03981751F0E92FF0E0E558FC4F68
:1029600080819F5F9F7190939C0308958FEF0895DE
:10297000539B12C09091BD039F5F9F712091BE0336
:102980009217A1F0E091BD03F0E0E356FC4F808385
:102990009093BD03559A089590917A03911101C0C7
:1029A0000895DC988F7793DFDC9A0895559A2091EB
:1029B000BE039217E1F3E6CF539B0BC09091BD038A
:1029C0008091BE03981729F0559A8091BE03981301
:1029D000FCCF0895CF93DF93EC018881882329F001
:1029E0002196C6DF89918111FCCFDF91CF910895A7
:1029F0002F932FB72F939F938F93EF93FF932CB128
:102A000080919B038F5F8F7190919C03891741F098
:102A1000E0919B03F0E0E558FC4F208380939B03FB
:102A2000FF91EF918F919F912F912FBF2F9118952B
:102A30008F938FB78F939F93EF93FF938091BE03F4
:102A40009091BD03891302C055980AC0E82FF0E0A9
:102A5000E356FC4F90818F5F8F718093BE039CB9CA
:102A6000FF91EF919F918F918FBF8F911895109249
:102A70004A0410924C042BE0EDE4F4E0DF011D92D7
:102A80002A95E9F7109249048ECCFF920F931F9379
:102A9000CF93DF93EC01862F122F032FF42E6111B9
:102AA0000BC081E288838DE089831A82DF91CF9108
:102AB0001F910F91FF90089560E08EDD87FDF1CFAB
:102AC0009DE39883823039F18330A1F1863029F07B
:102AD000C80FD11D87FDDA95E6CF2F2D22952F70D7
:102AE0009F2D9F709A3008F0995F905D9E83922F82
:102AF0002A3008F0995F905D9D83902F92959F708A
:102B00000F700A3008F0095F005D0C839A3008F0FE
:102B1000995F905D9B83912F92959F701F701A30E3
:102B200008F0195F105D1A839A3008F0995F905D84
:102B30009983CECF912F212F9F709A3008F0995F03
:102B4000905D9B83922F92959F709A3008F0995FC9
:102B5000905D9A830F700A3008F0095F005D098369
:102B6000B7CF0F931F93CF9320914D0420934B0425
:102B700090914E04915390934904923028F080E054
:102B8000CF911F910F9108958B01C82F61E0822F83
:102B900023DD2DEF2C0F082E000C990B622F70E017
:102BA0008617970761F7222399F0EFE4F4E0D80144
:102BB0008CEF8C0F90E0805B9B4F21912D93E81759
:102BC000F907D9F7F801E60FF71F108281E0D8CF97
:102BD00060E070E0F7CFCF93DF9320914A04222387
:102BE000A9F06A3331F1EC01E0914C0481E08E0FE1
:102BF00080934C04F0E0E35BFB4F60836D3081F029
:102C00008B3009F180E0DF91CF9108956A33D1F7DD
:102C100010924C0481E080934A0410924D04F2CF4C
:102C2000BE019FDF882379F010924A0480914B0403
:102C3000EACF21E2FC0120832DE021831282109251
:102C40004A048EEFE0CF81E288838DE089831A8287
:102C500010924A048FEFD7CFFC0191819A330CF088
:102C60009750905380818A330CF087508295807FF3
:102C70009F70892B0895FC0161816A330CF06750C5
:102C8000605380818A330CF087508295807F6F700B
:102C9000682B73817A330CF07750705382818A33BA
:102CA0000CF087508295807F7F70782B95819A33C6
:102CB0000CF09750905384818A330CF087508295A2
:102CC000807F9F70892B90E008958091490408953A
:102CD0005058BB27AA270ED084C175D130F07AD1C5
:102CE00020F031F49F3F11F41EF46AC10EF4E09518
:102CF000E7FB37C1E92F86D180F3BA176207730764
:102D00008407950718F071F49EF5B5C10EF4E095AF
:102D10000B2EBA2FA02D0B01B90190010C01CA0195
:102D2000A0011124FF27591B99F0593F50F4503E40
:102D300068F11A16F040A22F232F342F4427585F32
:102D4000F3CF469537952795A795F0405395C9F74A
:102D50007EF41F16BA0B620B730B840BBAF0915002
:102D6000A1F0FF0FBB1F661F771F881FC2F70EC0A1
:102D7000BA0F621F731F841F48F487957795679574
:102D8000B795F7959E3F08F0B3CF9395880F08F05D
:102D90009927EE0F97958795089556D180F09F3724
:102DA00040F491110EF468C160E070E080E89FE3A8
:102DB000089526F01B16611D711D811DD8C0F2C03B
:102DC0000CD00FC107D140F0FED030F021F45F3FAE
:102DD00019F0C7C0511150C1F3C014D198F3992311
:102DE000C9F35523B1F3951B550BBB27AA276217CF
:102DF0007307840738F09F5F5F4F220F331F441F14
:102E0000AA1FA9F333D00E2E3AF0E0E830D091504B
:102E10005040E695001CCAF729D0FE2F27D0660F38
:102E2000771F881FBB1F261737074807AB07B0E877
:102E300009F0BB0B802DBF01FF2793585F4F2AF08D
:102E40009E3F510568F08DC017C15F3FECF3983E7F
:102E5000DCF3869577956795B795F7959F5FC9F7EA
:102E6000880F911D9695879597F90895E1E0660F73
:102E7000771F881FBB1F621773078407BA0720F0EC
:102E8000621B730B840BBA0BEE1F88F7E095089555
:102E9000C1D088F09F5790F0B92F9927B751A0F073
:102EA000D1F0660F771F881F991F1AF0BA95C9F7DE
:102EB00012C0B13081F0DFD0B1E00895DCC0672FDF
:102EC000782F8827B85F39F0B93FCCF3869577958E
:102ED0006795B395D9F73EF4909580957095619577
:102EE0007F4F8F4F9F4F0895E89409C097FB3EF4A2
:102EF00090958095709561957F4F8F4F9F4F992347
:102F0000A9F0F92F96E9BB279395F69587957795C4
:102F10006795B795F111F8CFFAF4BB0F11F460FF84
:102F20001BC06F5F7F4F8F4F9F4F16C0882311F0DC
:102F300096E911C0772321F09EE8872F762F05C0F0
:102F4000662371F096E8862F70E060E02AF09A958B
:102F5000660F771F881FDAF7880F9695879597F980
:102F6000089597F99F6780E870E060E008958823EE
:102F700071F4772321F09850872B762F07C06623B2
:102F800011F499270DC09051862B70E060E02AF073
:102F90009A95660F771F881FDAF7880F96958795A1
:102FA00097F908959F3F31F0915020F487957795D8
:102FB0006795B795880F911D9695879597F9089510
:102FC0009FEF80EC089500240A9416161706180641
:102FD0000906089500240A9412161306140605061D
:102FE0000895092E0394000C11F4882352F0BB0FAE
:102FF00040F4BF2B11F460FF04C06F5F7F4F8F4F11
:103000009F4F089557FD9058440F551F59F05F3F4B
:1030100071F04795880F97FB991F61F09F3F79F0FA
:1030200087950895121613061406551FF2CF46957C
:10303000F1DF08C0161617061806991FF1CF8695FE
:103040007105610508940895E5DFA0F0BEE7B917A2
:1030500088F4BB279F3860F41616B11D672F782FB0
:103060008827985FF7CF869577956795B11D9395DB
:103070009639C8F30895E894BB2766277727CB01D4
:1030800097F908950BD0ADCF9EDF28F0A3DF18F09D
:10309000952309F066CF94CF1124EECFB3DFA0F3D0
:1030A000959FD1F3950F50E0551F629FF001729FDD
:1030B000BB27F00DB11D639FAA27F00DB11DAA1FFC
:1030C000649F6627B00DA11D661F829F2227B00D49
:1030D000A11D621F739FB00DA11D621F839FA00DD4
:1030E000611D221F749F3327A00D611D231F849F24
:1030F000600D211D822F762F6A2F11249F5750407B
:103100008AF0E1F088234AF0EE0FFF1FBB1F661F15
:10311000771F881F91505040A9F79E3F510570F0CE
:1031200020CFAACF5F3FECF3983EDCF386957795EE
:103130006795B795F795E7959F5FC1F7FE2B880FC9
:10314000911D9695879597F90895AA1BBB1B51E190
:1031500007C0AA1FBB1FA617B70710F0A61BB70B07
:10316000881F991F5A95A9F780959095BC01CD01AC
:103170000895A1E21A2EAA1BBB1BFD010DC0AA1FB8
:10318000BB1FEE1FFF1FA217B307E407F50720F0D0
:10319000A21BB30BE40BF50B661F771F881F991F4B
:1031A0001A9469F760957095809590959B01AC0194
:1031B000BD01CF010895EE0FFF1F0590F491E02DA2
:1031C0000994A29FB001B39FC001A39F700D811D00
:1031D0001124911DB29F700D811D1124911D089520
:1031E000F0DFA59F900DB49F900DA49F800D911DC1
:1031F00011240895FB01DC014150504030F08D91C5
:103200000190801919F40020B9F7881B990B0895D3
:10321000E199FECF9FBB8EBBE09A99278DB30895AD
:10322000262FE199FECF9FBB8EBB2DBB0FB6F89426
:0E323000E29AE19A0FBE01960895F894FFCF3E
:10323E00030001414551006A00066600034906007D
:10324E004702004A00004B00004806004D0600658C
:10325E00000661000662000667000273000645065E
:10326E00005001004600004C00005602004F0100C5
:10327E004106004206005306006E00064E0600444C
:10328E0002006400024301006300025A02007A0049
:10329E00025206007200065102007100026F000217
:0C32AE0058060078000659020054010088
:00000001FF
