:100000000C94AC000C94CC000C94CC000C94CC0060
:100010000C94CC000C94CC000C94CC000C94CC0030
:100020000C94CC000C94C6030C94CC000C94CC0023
:100030000C94CC000C94CC000C94CC000C94CC0010
:100040000C944A050C94CC000C94CC000C94CC007D
:100050000C94CC000C94CC000C94CC000C94CC00F0
:100060000C94CC000C94550E0C94760E0C94CC0091
:100070000C94CC000C94CC000C94CC000C946A042E
:100080000C94CC000C94CC000C94CC000C94CC00C0
:100090000C94CC000C94CC000C94CC000C94CC00B0
:1000A0000C94CC000C94CC000C94CC000C94CC00A0
:1000B0000C94CC000C94CC000C94CC000C94CC0090
:1000C0000C94CC000C94CC000C94CC000C94CC0080
:1000D0000C94CC000C94CC000C94CC000C94CC0070
:1000E0000C94CC0021092D09980964090509180907
:1000F000B408C908DD08D209A508AC08D20950091E
:10010000A109D209D209D2093909BB09D209D209F8
:10011000D209D209D2098409D209D209D209D20955
:10012000D209D2092D08360890095C0924087908FB
:100130006608D209D2099508D209D209D20949091B
:10014000D209D209D209D2096C08D209D209D2093E
:10015000D209D209D2097A0911241FBECFEFD1E208
:10016000DEBFCDBF12E0A0E0B2E0E0EEF4E200E0DE
:100170000BBF02C007900D92AC36B107D9F71BBE7A
:1001800013E0ACE6B2E001C01D92A33FB107E1F776
:100190000E94980A0C946E120C940000FB01DC0182
:1001A0004150504030F08D910190801919F4002099
:1001B000B9F7881B990B0895883018F4880F880FB9
:1001C000880F803150F481E0809308028093090207
:1001D00010920A0210920B0219C0803161F081E086
:1001E000809308028093090280930A0210920B0206
:1001F00080930C020DC081E0962F982790930802FF
:100200009093090280930A0280930B0210920C02D1
:1002100010920D020895E82F882311F4A59805C0C7
:10022000809102018F7D80930201F0E0EC5FFC4F32
:1002300081E0868F1092710010926F001092800002
:1002400088E180938100109290008093910008953E
:10025000E82F882311F4A59A05C0809102018062DD
:1002600080930201F0E0EC5FFC4F168E0895CF936F
:10027000DF93EC0140910C0350910D0380916F00CE
:100280008F7D80936F00E0919A00F0919B008091A8
:100290006F00806280936F0020915403309155036A
:1002A000C901722F692F2417350718F4CA01742F5A
:1002B000692FA0912603AA2329F4E217F30710F46B
:1002C0009F0103C0872F962F9C0180916F008F7D27
:1002D00080936F00509351034093500330939B00E1
:1002E00020939A0070935C0360935D0381E090E03B
:1002F00090938B0080938A009091FF02809120035D
:10030000981711F0759A01C07598AA23E9F0109218
:10031000F9021EBAD8B9C7B91092850010928400AC
:100320008091780290917902909387008093860063
:1003300080918100897F809381008091810081601C
:10034000809381001092260380916F0080628093D9
:100350006F00DF91CF910895CF93DF93EC0140912F
:100360000E0350910F03809171008F7D8093710077
:10037000E0919800F09199008091710080628093E3
:1003800071002091560330915703C901722F692FD4
:100390002417350718F4CA01742F692FA091270379
:1003A000AA2329F4E217F30710F49F0103C0872F53
:1003B000962F9C01809171008F7D809371005093E6
:1003C0005303409352033093990020939800709305
:1003D0005E0360935F0381E090E0909389008093D7
:1003E00088009091000380912103981721F080915B
:1003F0000201806103C0809102018F7E809302011F
:10040000AA23E9F01092FA021ABCD1BDC0BD109225
:100410009500109294008091B8029091B902909347
:1004200097008093960080919100897F809391003E
:1004300080919100816080939100109227038091B8
:100440007100806280937100DF91CF9108958823BD
:1004500021F4CB010E9437010895CB010E94AC0129
:1004600008956F927F928F929F92AF92BF92CF9298
:10047000DF92EF92FF920F931F93CF93DF93682E3B
:10048000C82FD0E0FE01EE0FFF1FE550FD4FE080CA
:10049000F180FE01EC5FFC4F828D181614F4028D82
:1004A00002C0028D0195FE01EC5FFC4F848D882314
:1004B00019F47724739402C077247A94BE01660FEE
:1004C000771F660F771F6620B9F4C7019695879549
:1004D0009C0140E050E0FB01EC5FFC4F8289938976
:1004E000A489B58982179307A407B507C0F4228BA6
:1004F000338B448B558B13C0FB01EC5FFC4F82891F
:100500009389A489B5894097A105B10540F480E19C
:1005100090E0A0E0B0E0828B938BA48BB58B802F12
:1005200090E08E9D50018F9DB00C9E9DB00C1124CB
:10053000FE01EE0FFF1FEE0FFF1FEC5FFC4FC288A6
:10054000D388E488F588A701960156954795379595
:1005500027952F5F3F4F4F4F5F4FFE01EE0FFF1F5D
:10056000E85AFC4F80809180083049F488EF9FEF73
:10057000AFEFBFEFC822D922EA22FB22287FC501B4
:10058000A0E0B0E0281739074A075B0708F45901D3
:100590008E01000F111F000F111FC501A0E0B0E078
:1005A000C81AD90AEA0AFB0A272D332727FD3095F6
:1005B000432F532FC701B6010E941912F801EC5FB7
:1005C000FC4F2081318142815381260F371F481F04
:1005D000591F00591D4FD8012D933D934D935C93A6
:1005E0001397FE01EE0FFF1FE45FFC4F91828082A4
:1005F0009BB5662011F484E001C088E0892B8BBD97
:10060000872D992787FD9095A89EB001A99E700D12
:10061000B89E700D1124862D0E942702C259DD4F0D
:1006200081E08883DF91CF911F910F91FF90EF9030
:10063000DF90CF90BF90AF909F908F907F906F9002
:100640000895E4E0F3E0E80FF11D628D772767FD80
:1006500070950E94270208958823A1F080916F0071
:100660008F7D80936F0080918100887F80938100CF
:100670001092240381E08093260310926C02109262
:100680006E02089580912603882369F51092240351
:1006900010926E0280916F008F7D80936F00209189
:1006A0005403309155038091500390915103821768
:1006B000930758F480915C0390915D0328173907E4
:1006C00020F430935D0320935C0380915C03909150
:1006D0005D030196909351038093500380916F00C6
:1006E000806280936F0008958823A1F0809171004B
:1006F0008F7D8093710080919100887F809391001D
:100700001092250381E08093270310926D021092CE
:100710006F02089580912703882369F510922503BD
:1007200010926F02809171008F7D809371002091F3
:1007300056033091570380915203909153038217CF
:10074000930758F480915E0390915F03281739074F
:1007500020F430935F0320935E0380915E039091B9
:100760005F0301969093530380935203809171002D
:100770008062809371000895882321F4862F0E945F
:100780002C030895862F0E94740308951F920F92E0
:100790000FB60F920BB60F9211242F933F934F93E6
:1007A0005F936F937F938F939F93AF93BF93EF93D9
:1007B000FF9380912403882309F04BC040912603C6
:1007C00020914C0330914D0380912003882319F030
:1007D000442309F43AC0189902C085E503C01B9967
:1007E00034C083E3220F331F220F331F90E0A0E0B9
:1007F000B0E02F5F3F4F289F912D900DA11D329F9C
:10080000900DA11DBB1FA00DB11D11249D013093A2
:10081000510320935003442361F01092200361E0C0
:1008200060931E036093140380E070E00E9427022F
:1008300010C080915C0390915D038217930748F488
:1008400030935D0320935C0304C0309351032093E5
:10085000500380912503882351F5199903C091E035
:100860008FEF04C01A991AC090E081E080931F03B3
:100870009093210380914E0390914F03880F991F0D
:10088000880F991F909353038093520381E08093C4
:10089000150361E070E00E94270209C080915E03A9
:1008A00090915F0301969093530380935203FF91BD
:1008B000EF91BF91AF919F918F917F916F915F91D8
:1008C0004F913F912F910F900BBE0F900FBE0F9045
:1008D0001F9018958F938FB78F939F938091880067
:1008E00090918900019709F0CCC0EF93FF932F936B
:1008F0003F935F934F930F921F9211248AB5E82F75
:10090000EE73F0E0E854FD4F208131813093970081
:10091000209396008F5F8ABD25B1809198009091B9
:100920009900909389008093880026FF73C0BF933D
:10093000AF932F7B25B98091080390910903A09173
:100940000A03B0910B0320911F03332727FD309535
:10095000432F532F280F391F4A1F5B1F2093080373
:100960003093090340930A0350930B0380916F0265
:10097000882369F18091740290917502A0917602AA
:10098000B091770282179307A407B50701F50BB45E
:1009900003FE28C020B531B54FEF37FF4427542F51
:1009A000280F391F4A1F5B1F209374023093750272
:1009B00040937602509377028BB5877F8BBD8091F1
:1009C0005E0390915F0390935303809352032091B1
:1009D00098003091990080915E0390915F03821797
:1009E0009307A8F480916F02882321F010922503C9
:1009F00010926F0281E080932703809171008F7DB8
:100A00008093710080919100887F80939100AF91D5
:100A1000BF912EC0206425B94091520350915303D9
:100A20004817590709F424C02091FA0230914B036A
:100A30003217D9F4382F092E307F02943295032AC9
:100A4000069403949C0180199109841795073CF43E
:100A5000C901800D911D481759070CF4CA019093E4
:100A600099008093980020E001C02F5F2093FA0244
:100A70001F900F904F915F913F912F91FF91EF91B8
:100A800004C090938900809388009F918F918FBFBD
:100A90008F9118958F938FB78F939F9380918A0032
:100AA00090918B00019709F0CCC0EF93FF932F93A7
:100AB0003F935F934F930F921F9211248EB3E82FB1
:100AC000EE73F0E0E858FD4F2081318130938700CC
:100AD000209386008F5F8EBB2EB180919A009091FB
:100AE0009B0090938B0080938A0023FF73C0BF9379
:100AF000AF93277F2EB98091040390910503A091B5
:100B00000603B091070320911E03332727FD30957C
:100B1000432F532F280F391F4A1F5B1F20930403B5
:100B200030930503409306035093070380916E02B0
:100B3000882369F18091700290917102A0917202F4
:100B4000B091730282179307A407B50701F50BB4A0
:100B500002FE28C027B138B14FEF37FF4427542F8A
:100B6000280F391F4A1F5B1F2093700230937102B8
:100B700040937202509373028BB58B7F8BBD809133
:100B80005C0390915D0390935103809350032091F7
:100B90009A0030919B0080915C0390915D038217D5
:100BA0009307A8F480916E02882321F01092240309
:100BB00010926E0281E08093260380916F008F7DFA
:100BC00080936F0080918100887F80938100AF9136
:100BD000BF912EC028602EB940915003509151030F
:100BE0004817590709F424C02091F90230914A03AB
:100BF0003217D9F4382F092E307F02943295032A08
:100C0000069403949C0180199109841795073CF47C
:100C1000C901800D911D481759070CF4CA01909322
:100C20009B0080939A0020E001C02F5F2093F9027F
:100C30001F900F904F915F913F912F91FF91EF91F6
:100C400004C090938B0080938A009F918F918FBFF7
:100C50008F9118952F923F924F925F926F927F9251
:100C60009F92AF92BF92CF92DF92EF92FF920F933B
:100C70001F93DF93CF9300D000D0CDB7DEB7282EDF
:100C80003324F101EE0FFF1FEE0FFF1FE85CFC4F56
:100C9000A080B180C280D38060E072E18AE790E0FA
:100CA000A60195010E944C12952E822F932FA42FFE
:100CB000B92D2C013D0160E072E18AE790E0A601C8
:100CC00095010E944C120E94E6107B018C01C60126
:100CD000B5010E94E6109B01AC01C801B7010E945A
:100CE000521020E030E040E052E40E94B61120E0D3
:100CF00030E040E05FE30E94DB0F0E94BA1069839E
:100D00007A838B839C83862D992D892B39F02FEF45
:100D1000422E2FEF522E612C712C0BC080E848160A
:100D200051046104710428F490E8492E512C612C7F
:100D3000712CF10186E0EE0FFF1F8A95E1F7E8586C
:100D4000FD4F80E0419251928F5F8032D9F762016E
:100D5000442455243201510105E0AA0CBB1C0A951C
:100D6000E1F72DC0C301B2010E94E61020E030E09F
:100D700040E052E40E94B6117B018C0169817A81C6
:100D80008B819C810E94E6109B01AC01C801B701D8
:100D90000E9452100E943F100E94BA10F501E60F07
:100DA000F11DEE0FFF1FE858FD4F808191810196E4
:100DB000918380830894411C511C611C711C8981A2
:100DC0009A81AB81BC81481659066A067B0650F2AF
:100DD000B3E0D694C794BA95E1F7F101EE0FFF1F87
:100DE000E45BFC4F60817181F3E076956795FA953D
:100DF000E1F7C69EB0011124AAE4B3E02A0E3B1E1F
:100E0000CB0196958795825C964B0E943812615073
:100E1000F10160830F900F900F900F90CF91DF91B1
:100E20001F910F91FF90EF90DF90CF90BF90AF9008
:100E30009F907F906F905F904F903F902F9008957C
:100E400060913003709131038091320390913303AC
:100E50004EE00E94A50D609134037091350380919E
:100E600036039091370342E10E94A50D609138034B
:100E70007091390380913A0390913B0346E10E94BF
:100E8000A50D60913C0370913D0380913E039091CC
:100E90003F034AE10E94A50D609142037091430314
:100EA00080914403909145034EE10E94A50D60910D
:100EB000460370914703809148039091490342E2B1
:100EC0000E94A50D8091FF0269E00E94780D80913B
:100ED00000036AE00E94780D809103036BE00E949A
:100EE000780D8091020368E00E94780D809158038C
:100EF0006CE00E94780D80915A036DE00E94780D9D
:100F000080914C0390914D0366E20E94870D809181
:100F10004E0390914F0368E20E94870D089580E090
:100F200092E068E040E00E94B90D08950F931F938E
:100F3000DF93CF93CDB7DEB729970FB6F894DEBF16
:100F40000FBECDBF8E010F5F1F4F89E0F8011192D8
:100F50008A95E9F7C80168E040E00E94670DC80182
:100F600060E072E048E050E00E94CE000097A1F5FA
:100F70008091FF02823080F580910003823060F51D
:100F800080910303823040F590910203882319F089
:100F9000913218F021C09131F8F480914C03909176
:100FA0004D03C2978F579440B8F480914E039091AF
:100FB0004F03C2978F57944078F4809158039091D3
:100FC0005903892B49F020E080915A0390915B03EB
:100FD000892B19F021E001C020E0822F29960FB65D
:100FE000F894DEBF0FBECDBFCF91DF911F910F915F
:100FF0000895CF92DF92EF92FF920F931F93DF93AA
:10100000CF93CDB7DEB72B970FB6F894DEBF0FBEE8
:10101000CDBFC82E7B0182E00E94C80ED82E8C2D39
:10102000992787FD9095A92FB92FFC01E154F04035
:10103000EA33F10508F0B6C1EE58FF4FEE0FFF1F7F
:101040000590F491E02D0994ED2DF0E0EE0FFF1FD7
:10105000EE0FFF1FE85DFC4F47C0ED2DF0E0EE0FF7
:10106000FF1FEE0FFF1FE05DFC4F3EC0AD2DB0E057
:10107000FD01EE0FFF1FEE0FFF1FE85CFC4F20810C
:1010800031814281538180910103882309F08EC10F
:10109000AA0FBB1FA45BBC4FED90FC90EE0CFF1C95
:1010A0000894E11CF11CB70180E090E00894E1088D
:1010B000F1080E94191200E010E0A80197010E94B7
:1010C0004C12C901DA019C01AD0170C1ED2DF0E0B7
:1010D000EC5FFC4F84AD29C1ED2DF0E0EE0FFF1F5A
:1010E000EE0FFF1FEE5BFC4F208131814281538167
:1010F0005DC1ED2DF0E0EC5FFC4F848D382F330F98
:1011000020E092A180E0282B392B868D90E0282BBF
:10111000392B80A190E074E0880F991F7A95E1F750
:10112000282B392B40E050E041C18FB7F894ED2DCA
:10113000F0E0EE0FFF1FEE0FFF1FEC5FFC4F208172
:101140003181428153818FBF31C18D2D60E00E947A
:10115000BC03ED2DF0E01AC08D2D61E00E94BC03B0
:101160008D2D0E9428011EC1ED2DF0E09F012C5F06
:101170003C4FD7018C918053D90150968C93D70165
:1011800011968C918170D9015C968C93E459FD4F36
:101190003AC0C7010E94AB0EAD2DB0E0FD01EE0FCD
:1011A000FF1FEE0FFF1FEC5FFC4F628B738B848B76
:1011B000958BA459BD4F1C92F5C0C7010E94AB0E80
:1011C000611571058105910521F461E070E080E011
:1011D00090E0AD2DB0E0FD01EE0FFF1FE45FFC4F8E
:1011E00071836083FD01E459FD4F8081823059F4A1
:1011F000AC5FBC4F5A966C91772767FD70958D2D2B
:101200000E942702CFC01082CDC01FB7F894C7013B
:101210000E94AB0EED2DF0E0EE0FFF1FEE0FFF1F53
:10122000EC5FFC4F60837183828393831FBFBAC0DE
:1012300080910103882309F0B4C08D2D0E940B0119
:10124000B1C0C7010E94AB0EED2DF0E0EE0FFF1F05
:10125000EE0FFF1FE05DFC4F17C0C7010E94AB0EF1
:10126000ED2DF0E0EE0FFF1FEE0FFF1FE85CFC4FCF
:101270000BC0C7010E94AB0EED2DF0E0EE0FFF1F7B
:10128000EE0FFF1FEE5BFC4F6083718382839383BD
:1012900089C0ED2DF0E0EE0FFF1FE45BFC4F30C086
:1012A000C7010E94AB0EED2DF0E0EE0FFF1FE45BD7
:1012B000FC4F7183608376C0DD2019F080910203BA
:1012C00034C08091030331C0DD2071F0C7010E945A
:1012D000A80E809302031092F802853008F462C0D1
:1012E00081E08093F8025EC0C7010E94A80E80933F
:1012F000030358C0ED2DF0E0EE0FFF1FE85AFC4F3E
:10130000808191819C010ECFC7010E94A80EED2D16
:10131000F0E0EE0FFF1FE85AFC4F8083118242C0BD
:10132000ED2DF0E0E150FD4F8081282F30E0FACE26
:10133000ED2DF0E0E150FD4FD7018C91805380837B
:1013400031C0F7018081805380930103882351F1DC
:1013500080E061E00E94BC0380E00E94280181E0FF
:1013600061E00E94BC0381E00E94280110926C029F
:1013700010926D0217C08091010390E09C012170D2
:10138000307081FF08C0232B19F00E948F070AC01C
:101390000E94200707C0232B29F00E94960788236C
:1013A00009F4CC2420E030E040E050E08E010F5FF3
:1013B0001F4FC8016C2D0E94480FC8010E94390EB2
:1013C000F2E5CF1691F489818D3319F528E088E193
:1013D00090E00FB6F894A895809360000FBE20931C
:1013E000600080E090E00E946E128AE4C81689F4E2
:1013F00080910103882369F48D2D90E0FC01E4596C
:10140000FD4F21E02083FC01EC5FFC4F808980FFD1
:1014100020A32B960FB6F894DEBF0FBECDBFCF91A1
:10142000DF911F910F91FF90EF90DF90CF90089583
:1014300061E075E080E090E00E94B60F89E00E94D4
:10144000240D8093FF028AE00E94240D8093000304
:101450008BE00E94240D8093030388E00E94240DFA
:10146000982F8093020360E080910303811161E073
:10147000892F0E94DC001092F802809102038530CF
:1014800018F081E08093F8020E949607882319F4EF
:1014900081E08093010380E00E942A0681E00E949F
:1014A0002A066091580370915903E0915403F0911A
:1014B000550380914A03482F50E04F5F5F4F20E073
:1014C00030E00BC0CB01B5E096958795BA95E1F772
:1014D0000196680F791F240F351F6E177F0790F351
:1014E0003093FC022093FB0260915A0370915B03DE
:1014F000E0915603F091570380914B03482F50E041
:101500004F5F5F4F20E030E00BC0CB01A5E0969528
:101510008795AA95E1F70196680F791F240F351F6B
:101520006E177F0790F33093FE022093FD0208951B
:10153000AF92BF92CF92DF92EF92FF920F931F93E1
:10154000DF93CF93CDB7DEB72B970FB6F894DEBFFE
:101550000FBECDBF78940E94180A14BC15BC10921F
:101560006E00279A819A8998809A88989D9AA59A60
:10157000809101018062809301018091020180626B
:10158000809302016B9A7398269A2E986D9A75989B
:1015900080910101806180930101809102018F7E21
:1015A0008093020180910401816080930401809105
:1015B000010182608093010180910101816080932B
:1015C0000101519A529A539A8091F802882319F492
:1015D000EBE0F2E002C0E8E0F2E08081882339F03D
:1015E00080910501816080930501599A06C0809120
:1015F00005018E7F8093050159988181882339F0F8
:10160000809102018260809302015A9A06C0809103
:1016100002018D7F809302015A988281882339F0DC
:10162000809102018160809302015B9A06C08091E3
:1016300002018E7F809302015B9880EA9FE0019710
:10164000F1F7899A889A23982B9A2098289A2298B9
:101650002A9A2198299A60E875E280E090E00E9439
:10166000D00D02C00E94270E0E94200E8823D1F7C1
:101670008FE080936B00809168008B7F809368007F
:10168000809168008D7F8093680080916800816000
:1016900080936800DD2410E07E010894E11CF11CB9
:1016A00022E0A22E0FEF98E0B92E88EFC82E1E3F41
:1016B00021F00E94200E8823D1F085B1805885B991
:1016C0001E3F19F00E94270ED82EC7016D2D0E94D3
:1016D000070F182F181634F40E94C50EB7010E9488
:1016E000F90705C0882319F0C7010E94390E9091AF
:1016F0006C02913009F062C080912603882309F4BE
:101700005DC0209114038091F802882309F440C041
:10171000222311F0233061F4EBE0F2E0809120030A
:10172000882319F0C0921E030EC0B0921E030BC096
:10173000E8E0F2E080912003882319F000931E0373
:1017400002C090931E038081882321F080910501BF
:10175000816003C0809105018E7F809305018181A6
:10176000882321F080910201826003C080910201F0
:101770008D7F809302018281882321F08091020174
:10178000816003C0809102018E7F8093020109C0B5
:1017900080912003882319F000931E0302C09093C8
:1017A0001E0320FF06C080E00E942103A0926C026D
:1017B00005C080E00E94310210926C0290916D028F
:1017C000913009F074CF80912703882309F46FCFFB
:1017D000209115038091F802882371F1222311F0E2
:1017E000233061F4EBE0F2E080912103882319F0CB
:1017F000C0921F030EC0B0921F030BC0E8E0F2E0DE
:1018000080912103882319F000931F0302C0909355
:101810001F038081882311F0599A01C05998818152
:10182000882311F05A9A01C05A988281882311F0B6
:101830005B9A0BC05B9809C080912103882319F043
:1018400000931F0302C090931F0320FF06C081E096
:101850000E942103A0926D022ACF81E00E943102F2
:1018600010926D0224CF982FEEE0F2E020E030E0FD
:101870008081891789F4F901EE0FFF1F662331F08B
:10188000E20FF31FE25FFD4F81810895E20FF31F26
:10189000E25FFD4F828108952F5F3F4F33962F31D6
:1018A000310531F78FEF08958F929F92AF92BF92DB
:1018B000CF92DF92EF92FF920F931F93CF93DF931C
:1018C0005B016C01842E8EE00E94400D609330031A
:1018D00070933103809332039093330382E10E942B
:1018E000400D6093340370933503809336039093D7
:1018F000370386E10E94400D6093380370933903EB
:1019000080933A0390933B038AE10E94400D6093D9
:101910003C0370933D0380933E0390933F038EE11D
:101920000E94400D609342037093430380934403ED
:101930009093450382E20E94400D609346037093AA
:101940004703809348039093490386E20E942C0D3D
:1019500090934D0380934C0388E20E942C0D90934A
:101960004F0380934E038CE00E94240D08E513E0A2
:1019700080935803109259038DE00E94240D8093A8
:101980005A03F8011382D801D89724E033E0E80124
:101990002C97B901685F7F4F40E050E09924939401
:1019A000E12CF12CF0E80F2F112D1C92FA01EC5FC5
:1019B000FC4F928E16969C92169714961C92149732
:1019C00012961C921297F901E082F182028313832E
:1019D00088819981FB01918380831C971C921C96BE
:1019E000F901128A138A148A158AA4A2B5A2C6A282
:1019F000D7A290968C92909796958795998788878D
:101A0000998B888B01969D838C83FB0195838483BE
:101A10009A961C929A974F5F5F4F11962C5F3F4F9B
:101A200022966E5F7F4F4230510509F0BECFDF91A5
:101A3000CF911F910F91FF90EF90DF90CF90BF90CB
:101A4000AF909F908F900895F999FECF90E092BD4E
:101A500081BDF89A80B50895282FF999FECF822F7D
:101A600090E092BD81BDF89A30B5F999FECF2F5F15
:101A7000822F90E092BD81BDF89A90B5832F089592
:101A8000282FF999FECF822F90E092BD81BDF89A60
:101A900040B5F999FECF2F5F822F90E092BD81BDB6
:101AA000F89A70B52F5FF999FECF822F90E092BD22
:101AB00081BDF89A30B5F999FECF2F5F822F90E063
:101AC00092BD81BDF89A90B5642F832F0895FC01D3
:101AD00020E009C0F999FECF90E092BD81BDF89A4F
:101AE00080B581932F5F822F840F261798F3089576
:101AF000282FF999FECF1FBA862F90E092BD81BDA5
:101B000020BD0FB6F894FA9AF99A0FBE08959C0179
:101B1000F999FECF1FBA862F90E092BD81BD20BDFE
:101B20000FB6F894FA9AF99A0FBE232FF999FECFBF
:101B30001FBA6F5F862F90E092BD81BD20BD0FB6AA
:101B4000F894FA9AF99A0FBE0895FF920F931F9393
:101B5000142F082FF92ECB01642F0E94870D1E5FD2
:101B6000802F9F2D612F0E94870D1F910F91FF9055
:101B70000895FC0120E011C03081F999FECF1FBA11
:101B8000822F840F90E092BD81BD30BD0FB6F894D6
:101B9000FA9AF99A0FBE2F5F3196261768F30895C7
:101BA000EF92FF920F931F937B018C0182E0809351
:101BB000C00060E079E08DE390E0A80197010E9409
:101BC0004C12215030404040504056954795379533
:101BD0002795922F232F832F807FA1F01092C00092
:101BE00060E874E88EE190E0A80197010E944C1231
:101BF00021503040404050405695479537952795A5
:101C0000922F232F2F702093C5009093C4008091B2
:101C1000C10080618093C1008091C1008860809381
:101C2000C1008091C10080688093C1008091C10093
:101C30008F7D8093C1001F910F91FF90EF900895C9
:101C40008091E2039091E303891B8F730895909133
:101C5000E3038091E203891711F48FEF0895E92FD0
:101C6000F0E0EE55FC4F80819F5F9F739093E303FC
:101C70000895DC0116C09091A0039F5F9F7380912F
:101C8000A1039817E1F31196E091A003F0E0E05A68
:101C9000FC4F20839093A0038091C10080628093C9
:101CA000C1002C91222339F708952F932FB72F933A
:101CB0009F938F93EF93FF932091C6009091E2033F
:101CC0009F5F9F738091E303981741F0E091E203D7
:101CD000F0E0EE55FC4F20839093E203FF91EF91EB
:101CE0008F919F912F912FBF2F9118958F938FB721
:101CF0008F939F93EF93FF939091A1038091A00303
:101D0000891731F48091C1008F7D8093C1000BC091
:101D1000E92FF0E0E05AFC4F80819F5F9F73909322
:101D2000A1038093C600FF91EF919F918F918FBF88
:101D30008F911895FC0191819A330CF09750808116
:101D40008A330CF087508295807F9F70892B08958D
:101D50000E949A0E0895EF92FF920F931F938C01A9
:101D600004960E949A0EE82EC80102960E949A0ECE
:101D7000F82EC8010E949A0E682F7F2D8E2D90E0BC
:101D80001F910F91FF90EF9008958091F2030895B5
:101D9000823010F48093F1038091F1030895EF9263
:101DA000FF921F93CF93DF93182F7B019091E50350
:101DB0009093F2038091E60381538093F103823084
:101DC000F8F4892F61E00E94330C1350282F332739
:101DD00027FD3095812F90E02817390789F4A7EE69
:101DE000B3E0E701F9012A0F3B1F02C08D918993EF
:101DF000A217B307D9F7EE0DFF1D108281E001C0D5
:101E000080E0DF91CF911F91FF90EF900895CF93E5
:101E1000DF93EC018091E403882319F16A3349F4DC
:101E200081E288838DE089831A821092E4038EEF29
:101E30002CC08091F003E82FF0E0EB51FC4F608361
:101E40008F5F8093F0036D3049F4BE010E94CF0E86
:101E5000882389F01092E40381E017C08B30A1F44D
:101E60000AC06A3389F41092F00381E08093E4039E
:101E70001092E50309C081E288838DE089831A828C
:101E80001092E4038FEF01C080E0DF91CF910895BD
:101E9000FF920F931F93CF93DF93EC01862F122FA6
:101EA000032FF42E60E00E94330C982F87FF04C0AC
:101EB00081E2888390E04EC08DE388839230D9F12F
:101EC0009330C9F4212F302F812F8F708A3008F082
:101ED000895F805D8B83822F82958F708A3008F0B6
:101EE000895F805D8A83832F8F708A3008F0895FD5
:101EF000805D89832FC0963069F58F2D8F708A3071
:101F000008F0895F805D8E834F2D42954F704A3077
:101F100008F0495F405D4D83802F8F708A3008F054
:101F2000895F805D8C83302F32953F703A3008F0A6
:101F3000395F305D3B83812F8F708A3008F0895F75
:101F4000805D8A83212F22952F702A3008F0295F27
:101F5000205D2983FE01E90FF11D8DE0818312824E
:101F6000DF91CF911F910F91FF900895EF92FF9213
:101F70000F931F937B018C011092E4031092F003E6
:101F80008BE0E5EEF3E0DF011D928A95E9F7109210
:101F9000F10388E00E94240D883010F048E001C071
:101FA00041E0C801B7010E94540C1F910F91FF90AE
:101FB000EF9008955058BB27AA270ED086C177D13D
:101FC00030F07CD120F031F49F3F11F41EF46CC14D
:101FD0000EF4E095E7FB37C1E92F88D180F3BA17FB
:101FE000620773078407950718F071F49EF5B7C16F
:101FF0000EF4E0950B2EBA2FA02D0B01B901900124
:102000000C01CA01A0011124FF27591B99F0593F67
:1020100050F4503E68F11A16F040A22F232F342FAF
:102020004427585FF3CF469537952795A795F040FD
:102030005395C9F77EF41F16BA0B620B730B840B12
:10204000BAF09150A1F0FF0FBB1F661F771F881FCA
:10205000C2F70EC0BA0F621F731F841F48F4879522
:1020600077956795B795F7959E3F08F0B3CF939511
:10207000880F08F09927EE0F97958795089558D106
:1020800080F09F3740F491110EF46AC160E070E077
:1020900080E89FE3089526F01B16611D711D811DC8
:1020A000D8C0F2C00CD011C109D140F000D130F03D
:1020B00021F45F3F19F0C7C0511152C1F5C016D1CC
:1020C00098F39923C9F35523B1F3951B550BBB27FF
:1020D000AA2762177307840738F09F5F5F4F220FAC
:1020E000331F441FAA1FA9F333D00E2E3AF0E0E8A5
:1020F00030D091505040E695001CCAF729D0FE2FF1
:1021000027D0660F771F881FBB1F26173707480782
:10211000AB07B0E809F0BB0B802DBF01FF27935838
:102120005F4F2AF09E3F510568F08DC019C15F3F97
:10213000ECF3983EDCF3869577956795B795F79520
:102140009F5FC9F7880F911D9695879597F9089518
:10215000E1E0660F771F881FBB1F621773078407B4
:10216000BA0720F0621B730B840BBA0BEE1F88F7C3
:10217000E0950895C3D088F09F5790F0B92F992724
:10218000B751A0F0D1F0660F771F881F991F1AF082
:10219000BA95C9F712C0B13081F0E1D0B1E008952D
:1021A000DEC0672F782F8827B85F39F0B93FCCF3AE
:1021B000869577956795B395D9F73EF49095809578
:1021C000709561957F4F8F4F9F4F0895E89409C098
:1021D00097FB3EF490958095709561957F4F8F4F5A
:1021E0009F4F9923A9F0F92F96E9BB279395F69570
:1021F000879577956795B795F111F8CFFAF4BB0FEE
:1022000011F460FF1BC06F5F7F4F8F4F9F4F16C051
:10221000882311F096E911C0772321F09EE8872FDB
:10222000762F05C0662371F096E8862F70E060E097
:102230002AF09A95660F771F881FDAF7880F969510
:10224000879597F9089597F99F6780E870E060E0B7
:102250000895882371F4772321F09850872B762FE7
:1022600007C0662311F499270DC09051862B70E0AA
:1022700060E02AF09A95660F771F881FDAF7880FBB
:102280009695879597F908959F3F49F0915028F4C6
:10229000869577956795B7959F5F80389F4F880F94
:1022A0009695879597F908959FEF80EC08950024FF
:1022B0000A941616170618060906089500240A94AB
:1022C00012161306140605060895092E0394000C31
:1022D00011F4882352F0BB0F40F4BF2B11F460FFC0
:1022E00004C06F5F7F4F8F4F9F4F089557FD9058E9
:1022F000440F551F59F05F3F71F04795880F97FBCA
:10230000991F61F09F3F79F0879508951216130683
:102310001406551FF2CF4695F1DF08C016161706B2
:102320001806991FF1CF86957105610508940895E7
:10233000E5DFA0F0BEE7B91788F4BB279F3860F44B
:102340001616B11D672F782F8827985FF7CF8695CF
:1023500077956795B11D93959639C8F30895E894DC
:10236000BB2766277727CB0197F908950BD0ADCF10
:102370009EDF28F0A3DF18F0952309F064CF94CFF7
:102380001124EECFB3DFA0F3959FD1F3950F50E06A
:10239000551F629FF001729FBB27F00DB11D639F17
:1023A000AA27F00DB11DAA1F649F6627B00DA11DBD
:1023B000661F829F2227B00DA11D621F739FB00D63
:1023C000A11D621F839FA00D611D221F749F3327D3
:1023D000A00D611D231F849F600D211D822F762F6C
:1023E0006A2F11249F5750408AF0E1F088234AF069
:1023F000EE0FFF1FBB1F661F771F881F91505040B5
:10240000A9F79E3F510570F01ECFAACF5F3FECF3B6
:10241000983EDCF3869577956795B795F795E795A0
:102420009F5FC1F7FE2B880F911D9695879597F9B1
:102430000895629FD001739FF001829FE00DF11D0E
:10244000649FE00DF11D929FF00D839FF00D749F2E
:10245000F00D659FF00D9927729FB00DE11DF91FDA
:10246000639FB00DE11DF91FBD01CF011124089537
:10247000AA1BBB1B51E107C0AA1FBB1FA617B707AA
:1024800010F0A61BB70B881F991F5A95A9F78095C6
:102490009095BC01CD010895A1E21A2EAA1BBB1B89
:1024A000FD010DC0AA1FBB1FEE1FFF1FA217B30720
:1024B000E407F50720F0A21BB30BE40BF50B661F36
:1024C000771F881F991F1A9469F7609570958095FA
:1024D00090959B01AC01BD01CF010895F894FFCF09
:1024E000417374726F4551000101010100006A00DF
:1024F000066600034906004702004A00004B000040
:102500004806004D06006500066100066200066789
:1025100000027300064506005001004600004C0012
:10252000004106004206005306006E00064E0600FB
:102530004402006400024301006300025A02007A70
:0C25400000024F01005400005200000097
:00000001FF
