:10000000A0C00000C3C00000C1C00000BFC000000D
:10001000BDC00000BBC000000C94530DB7C0000071
:10002000B5C00000B3C00000B1C00000AFC0000008
:100030000C94470EABC00000A9C00000A7C0000090
:10004000A5C00000A3C00000A1C000000C94CB120A
:100050009DC000000C94EB1299C0000097C00000F6
:1000600095C0000093C0000091C000008FC0000048
:10007000710688069306AE06C8063206F306020726
:10008000320632060C0732063206320632063206D5
:1000900032063206320632063206320632063206A0
:1000A00032063206320632061807260732063206B4
:1000B0004D0776075B0732063206650732063206C1
:1000C0003206320632063206320632065606170964
:1000D000810871085A083606360636063606360690
:1000E0003606360636063606070936063606F70899
:1000F00033081F08DE08360636063606B208EC0856
:1001000049083606360636063606360636063606FA
:1001100036069F0895083606360636063606360633
:100120003606360636063606A908360636060A08A4
:10013000FF0736063606360636063606D607360674
:10014000CA0711241FBECFEFD4E0DEBFCDBF0FB66C
:10015000F894A89581B5886181BD11BC0FBE11E0EE
:10016000A0E0B1E0E4E3FEE202C005900D92AA3700
:10017000B107D9F724E0AAE7B1E001C01D92A33589
:10018000B207E1F70E9490090C94181739CF969A9C
:100190001092AC0108954FB7F8941092AE01A89850
:1001A00010929E012091E9013091EA018091E501D0
:1001B0009091E6018217930758F08091F101909198
:1001C000F20101969093E6018093E5014FBF0895F7
:1001D0008091F1019091F2012817390790F730933F
:1001E000F2012093F101C90101969093E6018093F9
:1001F000E5014FBF08954FB7F8941092AF011092E8
:100200009F01A9982091EB013091EC018091E701C9
:100210009091E8018217930758F08091F301909133
:10022000F40101969093E8018093E7014FBF089590
:100230008091F3019091F4012817390790F73093DA
:10024000F4012093F301C90101969093E801809392
:10025000E7014FBF0895883018F4880F880F880F82
:100260008830A1F0803249F06130B1F087E08093AE
:10027000000181E0809301010895623089F087E0F8
:100280008093000182E080930101089583E08093D0
:1002900000011092010108956093000184E0EACF0B
:1002A00082E28093000180E2E5CF4F925F926F92ED
:1002B0007F928F929F92AF92BF92CF92DF92EF92F6
:1002C000FF92CF93DF93C82FD0E0FE01EE0FFF1F08
:1002D000EE0FFF1FE257FE4F86A897A8A0ACB1AC67
:1002E00060E072E18AE790E0A50194010E94B416F3
:1002F00069017A010E946F152B013C01C501B4010F
:100300000E946F159B01AC01C301B2010E94DB1476
:1003100020E030E040E052E40E943D1620E030E072
:1003200040E05FE30E9464140E9443154B015C01AE
:10033000E114F10451F480E8C816D104E104F10499
:1003400008F066C02FE730E002C02EEF3FEFCE018D
:100350000024969587950794969587950794982FEE
:10036000802DFC01EF53FC4F8F5F9B4F2193319306
:10037000E817F907D9F781149104A104B104C9F170
:10038000C501B4010E946F152B013C01C12CD12C79
:100390007601CC0FDD1FC295D295D07FDC27C07FC0
:1003A000DC27C701B6010E946F1520E030E040E075
:1003B00052E40E943D16A30192010E94DB140E94A8
:1003C000C8140E944315FE01E60FF11DEE0FFF1F3A
:1003D000EF53FC4F808191810196918380838FEF51
:1003E000C81AD80AE80AF80A8C149D04AE04BF049F
:1003F000C1F6DF91CF91FF90EF90DF90CF90BF904B
:10040000AF909F908F907F906F905F904F900895E6
:1004100081E0C81AD108E108F108960198CF0F933E
:100420001F93CF93DF93CDB7DEB729970FB6F8941C
:10043000DEBF0FBECDBF8E010F5F1F4F89E0F801F9
:1004400011928A95E9F740E050E068E0C8010E9407
:10045000031148E050E063E071E0C8010E94F51626
:10046000892B61F580914104833040F5882391F117
:100470008091C003813210F58091E1019091E201F9
:10048000C2978F379440D0F48091E3019091E401BA
:10049000C2978F37944090F48091ED019091EE01D6
:1004A000892B61F08091EF019091F001892B31F05F
:1004B0009091D701915081E0933108F080E0299626
:1004C0000FB6F894DEBF0FBECDBFDF91CF911F9165
:1004D0000F9108958091C003813170F2EFCF89E0D0
:1004E00090E00E94DD1091E0811101C090E09093B6
:1004F000BE038AE090E00E94DD1091E0811101C00E
:1005000090E09093BF038BE090E00E94DD10809319
:10051000410488E090E00E94DD108093C0038BE2EC
:1005200090E00E94DD1091E0811190E090937E01B7
:1005300081E09091C003983008F080E080938001C2
:100540008AE290E00E94DD1091E0811190E09093AA
:100550007F019091C003983010F08111C1C01092BA
:10056000810141E065E273E080E090E00E940A13BF
:10057000609141048091C0036EDE51DF811103C0A0
:1005800081E08093830180E090DE81E08EDE409107
:10059000ED015091EE01A5EFB1E0E5EBF2E020E0D6
:1005A00030E00BC012968C91129790E00196280FC4
:1005B000391F1396EA17FB0731F08D919C91119723
:1005C0004817590778F33093BB032093BA0340913F
:1005D000EF015091F00120E030E00AC0828190E00C
:1005E0000196280F391F339683E0E537F80729F085
:1005F000808191814817590788F33093BD03209378
:10060000BC03BF9AC7988A98929A309A389AD7981A
:10061000DF9AD498DC9AD698DE9AD598DD9AD19A4A
:10062000D998D09AD8988E9A969AB89AC09A8C9A55
:100630009498329A3A988B9A93988F9A9798E091D7
:100640008001F0E0E050FF4F808180FF2EC0959A3E
:100650008D9AC49ABC9A81FF2EC0DB9AD39AC39A12
:10066000BB9A282F247082FF2EC0DA9A982F90729E
:1006700085FD2EC0D29A222371F1C29A992371F17D
:10068000BA988FE99FE00197F1F700C00000D99A6E
:10069000D89A89B78C7F89BF13BE0E94241260E864
:1006A00075E280E090E00C94B11195988D9AC49811
:1006B000BC9A81FDD2CFDB98D39AC398BB9A282FDE
:1006C000247082FDD2CFDA98982F907285FFD2CF16
:1006D000D2982111D2CFC2989111D2CFBA9AD1CF4C
:1006E00081E08093810148E03DCFCF93DF93CEE856
:1006F000D1E06EA57FA588A999A94EE050E00E949F
:1007000058116AA97BA98CA99DA942E150E00E94D9
:1007100058116EA97FA988AD99AD46E150E00E94BD
:1007200058116AAD7BAD8CAD9DAD4AE150E00E94A1
:1007300058116091CE017091CF018091D0019091BC
:10074000D1014EE150E00E9458116091D2017091A8
:10075000D3018091D4019091D50142E250E00E94F2
:100760005811CEEBD3E069E070E088810E9445111A
:100770006AE070E089810E9445116BE070E0809131
:1007800041040E94451168E070E08091C0030E941E
:1007900045116CE070E08091ED010E9445116DE023
:1007A00070E08091EF010E94451166E270E0809157
:1007B000E1019091E2010E94491168E270E08091AC
:1007C000E3019091E4010E94491180917F01C1E011
:1007D0006AE270E08C270E94451180917E016BE2F5
:1007E00070E08C270E9445116CE270E08091DF017F
:1007F0009091E0010E9449116EE270E08091D70172
:100800000E94451144E650E060E485EF91E00E94CB
:10081000901144E251E060E485EB92E0DF91CF91EA
:100820000C949011389800000000000000008091A6
:100830007E01882321F0829B02C082E00895389ACD
:10084000000000000000000080B382FB992790F9AF
:1008500081E089270895829B14C038988AE00000BF
:100860008150E9F7309888EC00008150E9F7829BCD
:1008700004C082E0309A389A089581E0309A389A1C
:10088000089580E0309A389A0895882389F0C098B6
:1008900081E08093AD0110927D0089B7837089BF9C
:1008A0001FBC88E18EBD10928B0080938A00089552
:1008B000969881E08093AC01EECF80919601909163
:1008C000970129B7277F29BF2091840030918500A7
:1008D00049B7486049BF4091E9015091EA01782F3A
:1008E000692F8417950710F4742F652FE091B001DC
:1008F000E1113AC024173507B8F549B7477F49BF1A
:100900009093E6018093E501309385002093840065
:100910007093F1016093F2019091BE038091AA015E
:10092000981729F1939AEE23D9F081E090E099BDD0
:1009300088BD8091F70180937C0110927A0112BEEC
:100940001DBC1CBC8091C1039091C20395BD84BDA8
:100950008EB5897F8EBD8EB581608EBD1092B0013F
:1009600089B7886089BF0895272F362FC6CF9398FF
:10097000DACF809198019091990120917D002F7D8F
:1009800020937D00209186003091870040917D006A
:10099000406240937D004091EB015091EC01782F33
:1009A000692F8417950710F4742F652FE091B1011A
:1009B000E11145C02417350708F041C040917D0082
:1009C0004F7D40937D009093E8018093E701309341
:1009D0008700209386007093F3016093F401909157
:1009E000BF038091AB01981769F1979AEE2309F143
:1009F00081E090E09BBD8ABD8091B70280937D012C
:100A000010927B0111BE1092890010928800809193
:100A100001049091020490938100809380008EB530
:100A2000897F80938A008EB5816080938A001092BE
:100A3000B10180917D00806280937D000895272F11
:100A4000362FBCCF9798D2CF3F924F925F926F9242
:100A50007F928F929F92AF92BF92CF92DF92EF924E
:100A6000FF92CF93DF93E82FF0E0DF01AA0FBB1FC7
:100A7000ED01C654DC4FE880F980EF01C257DE4F2C
:100A80009CA1992329F0A701440F551FE40EF51EE0
:100A90009A8D19160CF093C03A8C9C8D9F01220FF1
:100AA000331F220F331FE901C257DE4F4A895B898A
:100AB0006C897D89A32CB12C2501440C551C052C77
:100AC000000C66087708441555056605770530F46F
:100AD0004A8A5B8A6C8A7D8AB301A201AE9C60015E
:100AE000AF9CD00CBE9CD00C11244A015B01B69483
:100AF000A79497948794A351BE4F0D90BC91A02DBD
:100B0000C8E03C1609F457C0E12CF12C8C149D046C
:100B1000AE04BF0410F4750164014C195D096E093F
:100B20007F09E901C257DE4FC880D980EA80FB8087
:100B3000992339F070956095509541955F4F6F4FAF
:100B40007F4FE901CC57DE4F4C0D5D1D6E1D7F1DA3
:100B5000488359836A837B83EE0FFF1FEA56FE4F5B
:100B6000B183A08395B3811113C09B7F95BBA89AD5
:100B7000DF91CF91FF90EF90DF90CF90BF90AF903B
:100B80009F908F907F906F905F904F903F9095CE09
:100B9000977F95BBA99ADF91CF91FF90EF90DF905F
:100BA000CF90BF90AF909F908F907F906F905F900D
:100BB0004F903F90DECE487FC8EF8C22A5CF9A8D14
:100BC000392E31946ACF811106C08091B001811114
:100BD00001C0E1CA089589B7877F89BF8EB5887F34
:100BE0008EBD1092AE0181E08093B00110929E0103
:100BF00010928C01A8980895811106C08091B101CE
:100C0000811101C0F8CA089580917D008F7D809385
:100C10007D0080918A00887F80938A001092AF01C6
:100C200081E08093B10110929F0110928D01A998EB
:100C30000895CF92DF92EF92FF920F931F93CF937D
:100C4000DF93C82F8B010E946014D82F8C2F0C2E9D
:100C5000000C990BAA0BBB0BFC01E554F109EF3218
:100C6000F10500F120918301211167C120E030E0FE
:100C7000A9016C2FC8010E941813CA3489F480910D
:100C8000830181110DC08D2F90E0FC01E457FE4FD0
:100C900021E02083FC01E257FE4F808980FF20A3E2
:100CA000D1E015C0E85CFF4F0C94D616ED2FF0E0B4
:100CB000EE0FFF1FEE0FFF1FE253FE4F2081318129
:100CC00042815381D1E06C2FC8010E9418138D2FEF
:100CD000DF91CF911F910F91FF90EF90DF90CF9018
:100CE0000895FFB6F894C8010E943614ED2FF0E085
:100CF000EE0FFF1FEE0FFF1FE257FE4F6083718361
:100D000082839383FFBED1E020E030E0A901DBCFF6
:100D100080918301882309F41DC1D1E020E030E0F7
:100D2000A901C0E0D0CF2D2F30E0D901A257BE4F8E
:100D3000F8018081805350968C93509781E0918187
:100D4000903309F405C15C968C93F901E457FE4F8A
:100D50001082D1E020E030E0A901B5CFC8010E94A7
:100D60003614ED2FF0E0DF01AA0FBB1FAA0FBB1F47
:100D7000A257BE4F52966D937D938D939C9355973A
:100D8000E457FE4F1082D1E020E030E0A9019BCF74
:100D9000C8010E943614ED2FF0E040ECD49FD00142
:100DA0001124AE54BD4FCD90DC90E12CF12CDF012D
:100DB000AA0FBB1FAA56BE4F462F572FBC014C157A
:100DC0005D056E057F0508F4B0C04D935C93E45754
:100DD000FE4F8081823009F4D5C01082D1E020E03E
:100DE00030E0A90170CF80E0DD2309F4A4C004DF66
:100DF000ED2FF0E0E457FE4F1082D1E020E030E02C
:100E0000A90161CF81E0D11187C0DDDEC0D9D1E079
:100E100020E030E0A90157CFD8018C918053809316
:100E2000830181119EC0D0E020E030E0A9014BCFCA
:100E3000ED2FF0E0EE0FFF1FEE0FFF1FE257FE4F0A
:100E400026A537A540A951A9D1E03DCFED2FF0E06F
:100E5000DF01AA0FBB1FAA0FBB1FA257BE4FD6961A
:100E60002D913D914D915C91D99780918301811194
:100E700051C0EE0FFF1FEF51FE4F0190F081E02DAA
:100E8000EE0FFF1FDF0111960E94EB169F0140E05D
:100E900050E00E94B416D1E016CFED2FF0E0EE0F37
:100EA000FF1FEE0FFF1FE257FE4F26A137A140A5FF
:100EB00051A5D1E008CFED2FF0E0E257FE4F26AD6F
:100EC00030E040E050E0D1E0FECE8FB7F894ED2F57
:100ED000F0E0EE0FFF1FEE0FFF1FE257FE4F2081E5
:100EE0003181428153818FBFD1E0EDCEED2FF0E013
:100EF000E257FE4F848D81111BC020E030E082A1BB
:100F00008111316080A181112061868D8111216064
:100F100040E050E0D1E0D7CE6FDEC09A1092AD0134
:100F2000D1E020E030E0A901CECEB701A6014DCF3F
:100F300020E032E0E4CF47DE5BCFFC01E154F10971
:100F4000EA33F10508F092CEE959FF4F0C94D6161A
:100F500080E0F9CE8D2F99DCD1E020E030E0A901CE
:100F6000B2CE81E030DE13D981E046DEC09A109225
:100F7000AD0110928C0110928D01D1E020E030E0A3
:100F8000A901A1CED11167C198DCD1E020E030E009
:100F9000A90199CEED2FF0E0EE0FFF1FE351FE4FB8
:100FA0002081318140E050E0D1E08DCEED2FF0E0A6
:100FB000DF01A658BE4F6C91262F30E0C901880F83
:100FC000991F820F931F40EC4E9F90014F9F300D51
:100FD0001124820F931F82579E4FFC01E959FF4F46
:100FE000D081718132962D2F372F408150E081E0E2
:100FF000860F803408F035C18C93D1E064CEDD23B8
:1010000009F461C12091DF013091E00140E050E03E
:10101000D1E059CEDD2309F43AC190917F01292F07
:1010200030E040E050E08091C003883008F45DC1BA
:1010300081E08927817080938101D1E044CEC8018D
:101040000E943614ED2FF0E0EE0FFF1FEE0FFF1F92
:10105000E253FE4F6083718382839383D1E020E06B
:1010600030E0A90130CEC801DD2309F417C10E9488
:10107000361461157105B1E08B07910508F04DCE6E
:101080007093E0016093DF01D1E020E030E0A9013E
:101090001ACEC8010E942714ED2FF0E0EE0FFF1FBB
:1010A000E351FE4F90E091838083D1E020E030E077
:1010B000A90109CEC801DD2309F40CC10E9427143F
:1010C0008093C003883008F413C190917F0181E0C0
:1010D0008927817080938101D1E020E030E0A9016F
:1010E000F2CDED2FF0E0E254FC4F81E0D8019C916D
:1010F000903309F4F8C08083D1E020E030E0A9010A
:10110000E2CDC8010E943614ED2FF0E0EE0FFF1F74
:10111000EE0FFF1FE257FE4F66AB77AB80AF91AF8C
:10112000D1E020E030E0A901CECDDD2309F4C4C038
:101130002091C00330E040E050E0D1E0C4CDED2F7D
:10114000F0E0E254FC4F208130E040E050E0D1E09C
:10115000BACDED2FF0E0EE0FFF1FEF51FE4F2081D3
:101160003181D6CEC8010E943614ED2FF0E0DF01A8
:10117000A658BE4F9C91292F30E0A901440F551F5E
:10118000420F531FD0ECDE9F9001DF9F300D1124E2
:10119000240F351F22573E4FF901E959FF4F718344
:1011A00060833296808381E0890F803408F069C0C3
:1011B0008C93D1E020E030E0A90185CD223009F404
:1011C000A9C0233009F49BC0213009F494C0D1E0B8
:1011D00020E030E0A90177CDC8010E942714ED2F4F
:1011E000F0E0E658FE4F8083803488F396CDC80146
:1011F000DD23D1F10E94271491E0811101C090E01C
:1012000090937F01D1E020E030E0A9015CCDC801DE
:101210000E943614ED2FF0E0EE0FFF1FEF51FE4F4E
:1012200071836083D1E020E030E0A9014CCDC8019A
:101230000E943614ED2FF0E0EE0FFF1FEE0FFF1FA0
:10124000E257FE4F66A777A780AB91ABD1E020E0D5
:1012500030E0A90138CD8DDBD1E020E030E0A901FC
:1012600032CD1C92D1E02FCD0E94271491E0811144
:1012700001C090E090937E01D1E020E030E0A90130
:1012800022CD1C92D1E020E030E0A9011CCD2091BC
:101290007E0130E040E050E0D1E015CD0E942714FF
:1012A0009FEF980F933108F038CD8093D701D1E0AC
:1012B00020E030E0A90107CD2091410430E040E07A
:1012C00050E0D1E000CD2091D70130E040E050E087
:1012D000D1E0F9CC0E94271480934104D1E020E0B2
:1012E00030E0A901F0CC80E006CF80E090E0A2CE13
:1012F00080E090E0EECE93D8811169CF0ECD40E032
:1013000050E068E083E091E0EAD7D1E020E030E00F
:10131000A901D9CCEAD9D1E020E030E0A901D3CCB1
:10132000CF93DF93CDB7DEB72F970FB6F894DEBF1C
:101330000FBECDBF7894D3D880918201BB24BA94DC
:10134000DD24DA94612C1F86F12CC12C00E010E022
:10135000AA24A39499249A9492E0792E212C312CDA
:1013600020E8422E512C38E1832E0F5F1F4F811150
:101370002CC10115110509F098C0809183018823C3
:1013800009F4F8C180910201811194C088B380589A
:1013900088BB61DAE82E8091D601E816C9F18E2D5E
:1013A00064D580918101882321F092E0E91609F447
:1013B00005C3809100019091AA01992309F4B5C257
:1013C0009092A8011092B2019091AB01992309F477
:1013D000A9C29092A9011092B301382F317080FFF9
:1013E0006EC2959A282F227081FF67C2DB9A982FD0
:1013F000947082FF60C2DA9A332309F45AC2C49A05
:10140000222309F454C2C39A992309F44EC2C29A02
:10141000CC9BE7C0CF9B32C2EE24EA9480E09FB71A
:10142000F89460918400709185009FBF2091B00175
:10143000211115C14091AA0150E0E82FF0E04E17AC
:101440005F0709F40CC14091E9015091EA0164176A
:10145000750708F004C10E94CB00CD9B2CC1CE9B28
:1014600008C2EE24EA9480E09FB7F8944091860089
:10147000509187009FBF9091B10191114BC1209174
:10148000AB0130E0682F70E02617370709F4E7C199
:101490002091EB013091EC014217530708F0DFC1B6
:1014A0000E94FB008091820160CF909102019923FC
:1014B00009F493C08EEFF81609F49CC00E946E12D6
:1014C0008823E1F088B3805888BB0E947912C82E27
:1014D0006C2DCE0101960E94E613F82E882371F040
:1014E0000CF438C1BE016F5F7F4FA3DBE82ECE0145
:1014F00001960E94BD12EE2009F4E3C10115110509
:1015000009F07CC0C7988091820181114EC0CC99AE
:10151000C3C1EE24E394ED1449F08091AA01811136
:1015200005C080918C01823009F434C2CD9BB1C1D9
:10153000D9B2D6FADD24D0F8D1948091AF018111CF
:1015400017C1DB1409F414C181E0D81280E0909136
:10155000B101911111C02091AB01281769F00E94CF
:10156000FB0010928D0180918C01813009F484C2BE
:1015700080918201DE2CF9CE2FEFD21609F4F4C04F
:101580002091DD013091DE01309399012093980183
:101590008093AB0181E0D81609F4DEC1A092A901C5
:1015A000E8D9BD2CDE2C6624639480918C018130B7
:1015B00081F180918D01813009F485C08091820193
:1015C0000F5F1F4F882309F4D4CE9091020191112F
:1015D00071CF0115110509F4D9CE0111C6CECC99F0
:1015E00019CF81E0D81609F438CF8091DC01EE24C0
:1015F000E39415CF88B3805888BB6ACF809182016D
:101600008111D3CF002309F482CF80918C018130E6
:1016100081F68091B001882361F280919E019091C2
:101620008101992309F46AC19FEF980F923008F461
:10163000E4C1909101012091CC013091AA013111B6
:1016400083C12093A801A092B20190FFA1C1959AF5
:1016500091FF9CC1DB9A92FF91C1DA9A57C19FEF2B
:10166000E91609F41DC1EE2DEE0FFF0BE852FE4FF7
:10167000408151815093970140939601982F91702A
:101680009093AA019091B201992309F467C09091B7
:10169000CC01882309F465C091959093A8018FEF40
:1016A000E81205C08091D601823009F441C105D904
:1016B000DE2CCD99D4CE91E0B91609F47FCFEE247B
:1016C000E39481E0D1CE9091B101992309F476CFD2
:1016D00090919F0120918101222309F4FFC02FEFF7
:1016E000290F223008F494C1209101018091CD018D
:1016F0003091AB0131112CC18093A901A092B301AB
:1017000020FF42C1C49A21FF3DC1C39A22FF38C1C4
:10171000C29AECC09FEFE91609F4FFC02091DD01E9
:101720003091DE0130939901209398018093AB01B1
:101730009091B301992309F4AAC09091CD01882317
:1017400009F4A2C091959093A90113D980918201C7
:10175000BE2C0BCECE01019610D7D0CE91E08111D8
:101760009BCF9093A8019BCF61107CC1BB24BA94FE
:10177000DE2C1BCF57D8E82E882309F403CE81E056
:1017800022DA81E039DA8FB7F89420928E01309214
:101790008F014092900150929101209292013092DB
:1017A000930140929401509295018FBF25D6A0924B
:1017B000820122E0E21609F461C110920201389A16
:1017C000E0918001F0E0E050FF4F808180FFC7C0D2
:1017D000959AC49A81FF0EC1DB9AC39A82FF07C112
:1017E000DA9AC29A80E041D31092B2011092B3010A
:1017F0009698A092AC0110927D0089B7837089BF42
:101800001FBC8EBC10928B0080928A00C098A09260
:10181000AD0110927D0089B7837089BF1FBC8EBC5B
:1018200010928B0080928A00A0929E01A0929F014C
:101830001092AA01A092A8011092AB01A092A80157
:101840008091E1019091E20190939701809396013C
:10185000A0928C01BB24BA94DD24DA9493CD2FEFAF
:10186000E2125CCF0E94FB0080918201BB24BA94FB
:101870007CCDBB2009F4A2CEE12CF5CDDD2009F40E
:10188000ECCDE12C80E0CBCD9093A9015ECF91E02F
:1018900056CFDD24D39451CEE9B2EE0CEE083BCE08
:1018A0004091E1015091E201E5CEC298B1CDC398DB
:1018B000ABCDC498A5CDDA989FCDDB9898CD9598FF
:1018C00091CD4DD69BE088E10FB6F894A89581BDE7
:1018D0000FBE91BD80E090E00E9418172091AB01EF
:1018E00021112FC08093A9011092B30190FF3FC036
:1018F00040D870928D018091820137CD9091AA01DC
:1019000091111CC0A092A8011092B20180FF2AC0C0
:101910000E945D0470928C014CCE80918201BB24A8
:10192000BA9423CDA092A90156CDA092A8014ACD88
:10193000222309F478C0DD24DA948FCD9092A80197
:10194000E3CF9092A901D0CF21952093A8017BCE1F
:1019500081958093A901D2CE9092A90121CE95982C
:10196000C49838CF80E070D810928C0122CE81E0EC
:101970006BD810928D0180918201F7CCDA98C6CF96
:10198000C298B4CFC398C2CEC498BDCEDB9863CE04
:1019900095985ECE9FEFE91609F44AC0EE2DEE0F42
:1019A000FF0BE852FE4F80819181909397018093C5
:1019B00096010E945D0421E02F87B8CD809101013E
:1019C0009091CC012091AA01211142C09093A801CD
:1019D000A092B2019091CD012091AB01222309F494
:1019E00048C091959093A901A092B301F6CCDA98E2
:1019F000C298F8CEDB98C398F1CE90910001209167
:101A0000AA0121112CC0A092A8011092B2011DCEF2
:101A1000209100013091AB0131111EC08093A901CA
:101A20001092B3016DCE0E94CB00DD24DA9415CD67
:101A30008F85882309F47ACD8091E1019091E201AC
:101A400090939701809396010E945D041F866ECD4E
:101A500091959093A801BCCF9092A901E1CF90926B
:101A6000A801D3CF9923C1F0BB24BA94DE2C612CFA
:101A70009CCD9093A901B8CFDE2CCBCDA0920201D2
:101A8000CBD420E030E0A90160E0CE010C96D0D5A7
:101A9000CE010C9672D576CC0E94FB00BB24BA9482
:101AA000DE2C612C82CD1F920F920FB60F92112463
:101AB0000F931F932F933F934F935F936F937F9356
:101AC0008F939F93EF93FF938AB59BB5019709F08E
:101AD0005EC081B7E82FEE73F0E0EF5FFB4F20812F
:101AE000318130938100209380008F5F81BF80918E
:101AF0008600909187009BBD8ABD2A9B5BC03A9867
:101B000000919201109193012091940130919501DF
:101B10004091A901042E000C550B660B770B400F6A
:101B2000511F621F731F4093920150939301609362
:101B3000940170939501A99B10C0AB990EC00091C0
:101B400088011091890120918A0130918B01401701
:101B500051076207730709F483C02091F3013091A4
:101B6000F40128173907A8F4A99B03C01092AF010C
:101B7000A99881E08093B10180917D008F7D809351
:101B80007D0080918A00887F80938A0002C09BBD7F
:101B90008ABDFF91EF919F918F917F916F915F919E
:101BA0004F913F912F911F910F910F900FBE0F906A
:101BB0001F9018953A9A20917D01211123C0209100
:101BC000E7013091E8012817390700F580917B0182
:101BD0008F3398F48F5F80937B0190E0AC01440FCA
:101BE000551F840F951F82579E4FFC01E95DFE4FE4
:101BF000408151812417350718F1309387002093D5
:101C00008600C7CF215020937D01C3CF8217930751
:101C100028F580917B01882381F3815080937B019B
:101C200090E0AC01440F551F840F951F82579E4FC3
:101C3000FC01E95DFE4F4081518142175307E8F6F0
:101C40002091B3012223D9F032968081982F990FE9
:101C5000890F8E5F80937D019A01CFCF9C01CDCFFC
:101C6000AB9A2091F3013091F401A9014F5F5F4FCE
:101C70005093E8014093E70110927D0172CFFC017F
:101C8000E75DFE4F808180937D019A01B6CF1F9260
:101C90000F920FB60F9211240F931F932F933F9320
:101CA0004F935F936F937F938F939F93EF93FF93E4
:101CB00088B599B5019709F058C082B7E82FEE733F
:101CC000F0E0EF53FC4F2081318135BD24BD8F5FA3
:101CD00082BF809184009091850099BD88BD849BCE
:101CE00057C0949800918E0110918F01209190011E
:101CF000309191014091A801042E000C550B660B08
:101D0000770B400F511F621F731F40938E0150933A
:101D10008F016093900170939101A89B10C0AA99C4
:101D20000EC00091840110918501209186013091AF
:101D30008701401751076207730709F47FC020919C
:101D4000F1013091F2012817390788F4A89B03C0EC
:101D50001092AE01A89881E08093B00189B7877F87
:101D600089BF8EB5887F8EBD02C099BD88BDFF91A9
:101D7000EF919F918F917F916F915F914F913F91E3
:101D80002F911F910F910F900FBE0F901F901895DC
:101D9000949A20917C01211123C02091E50130917A
:101DA000E6012817390700F580917A018F3398F4FE
:101DB0008F5F80937A0190E0AC01440F551F840F30
:101DC000951F82579E4FFC01E959FF4F4081518179
:101DD0002417350718F13093850020938400C7CF6E
:101DE000215020937C01C3CF8217930728F580915F
:101DF0007A01882381F3815080937A0190E0AC01CD
:101E0000440F551F840F951F82579E4FFC01E959BF
:101E1000FF4F4081518142175307E8F62091B201EC
:101E20002223D9F032968081982F990F890F8E5FE7
:101E300080937C019A01CFCF9C01CDCFAA9A2091AB
:101E4000F1013091F201A9014F5F5F4F5093E6011C
:101E50004093E50110927C0176CFFC01E759FF4FDA
:101E6000808180937C019A01B6CF482F8093D60160
:101E70008230A9F1813009F44AC08091E10190914A
:101E8000E20144E1489FF001499FF00D11242091A7
:101E9000D70130E0B9016C5E7F4FCF0151D770930D
:101EA000D9016093D80164E170E0621B730BCF012C
:101EB00047D77093DB016093DA011092DC016091E7
:101EC000E3017091E401469FC001479F900D1124EA
:101ED000B90136D77093DE016093DD0108958091DA
:101EE000ED019091EE019093D9018093D8019093E8
:101EF000DB018093DA0181E08093DC018091EF01C6
:101F00009091F0019093DE018093DD010895E091BE
:101F1000E101F091E2019F01ABEABAEA4DD7969553
:101F200087959093D9018093D801F093DB01E093DA
:101F3000DA014093DC018091E3019091E4019695F0
:101F400087959093DE018093DD0108952F923F9253
:101F50004F925F926F927F928F929F92AF92BF92B9
:101F6000CF92DF92EF92FF920F931F93CF93DF9365
:101F700000D000D0CDB7DEB76B017C01342E8EE0EF
:101F800090E02BD16093BC017093BD018093BE01A2
:101F90009093BF0182E190E020D16093C0017093E3
:101FA000C1018093C2019093C30186E190E015D1F5
:101FB0006093C4017093C5018093C6019093C701DB
:101FC0008AE190E00AD16093C8017093C9018093BF
:101FD000CA019093CB018EE190E0FFD06093CE01D7
:101FE0007093CF018093D0019093D10182E290E071
:101FF000F4D06093D2017093D3018093D401909375
:10200000D50186E290E0DAD09093E2018093E1017D
:1020100088E290E0D3D09093E4018093E3018CE0D8
:1020200090E0CBD090E09093EE018093ED018DE0B5
:1020300090E0C3D090E09093F0018093EF018EE2A6
:1020400090E0BBD08093D7018CE290E0B7D0909322
:10205000E0018093DF0144E650E060E485EF91E029
:10206000F3D044E251E060E485EB92E0EDD0EEE89D
:10207000F1E061EE71E045EF51E009EE11E081EF32
:10208000682E81E0782E95EE492E91E0592EFA8344
:10209000E983FC83EB8320E030E022242394812C2D
:1020A000912CA0E8AA2EB12C148EC90182579E4F04
:1020B000DC015A962C9214A222A210A2168EAB8199
:1020C000BC818D929D92AD92BC921397DB018D9154
:1020D0009D91BD01A981BA8119969C938E93189701
:1020E000108AAB81BC8152961D921D921D921C924A
:1020F00055979696CD92DD92ED92FC92999736AED9
:10210000DA018D919C91D8018D939D938D01D3011E
:102110008D939D933D010196D2018D939D932D0149
:10212000A981BA811D969C938E931C972F5F3F4F78
:1021300031968B819C8104969C838B831296BA8303
:10214000A98340545F4F2230310509F0ADCF80E0C4
:102150000F900F900F900F90DF91CF911F910F91E3
:10216000FF90EF90DF90CF90BF90AF909F908F90B7
:102170007F906F905F904F903F902F9076CEEEE0E3
:10218000F1E02AE690E005C09F5F9532A1F0208142
:1021900033968213F9CF892F90E0FC01EE0FFF1FD9
:1021A0008E0F9F1FFC01E55FFE4F662311F08181BA
:1021B0000895828108958FEF089525C61F93CF93C8
:1021C000DF93EC0120D6182FCE0101961CD6982F54
:1021D000812FDF91CF911F910895CF92DF92EF92DF
:1021E000FF92CF93DF93EC01E9DF6C01CE01029601
:1021F000E5DF7C01C701B601DF91CF91FF90EF9041
:10220000DF90CF900895EF92FF920F931F93CF939B
:10221000DF93662391F0EA018C0161507A01E60EAA
:10222000F11C8FEFE81AF80ACE01EDD5F801819381
:102230008F012196CE15DF05B9F7DF91CF911F9160
:102240000F91FF90EF900895EF92FF920F931F93DD
:10225000CF93DF93E62E8A01662381F0EC01F12C07
:10226000C801ACDF99838883C8010296A7DF8A83FF
:102270000D5F1F4FF3942396EF10F2CFDF91CF91B4
:102280001F910F91FF90EF900895282FCB01622F9F
:10229000C2C51F93CF93DF93192FEB01682FCE0197
:1022A000BAD5612FCE010196DF91CF911F91B3C5B1
:1022B000CF92DF92EF92FF92CF93DF936B017C017D
:1022C000EA01BA01C601E5DFBE016E5F7F4FC701BB
:1022D000DF91CF91FF90EF90DF90CF90DACFEF9228
:1022E000FF920F931F93CF93DF93662391F0EC013E
:1022F0006150E62EF12C8FEFE81AF80AEC0EFD1E65
:102300008A016991C80187D50F5F1F4FCE15DF0580
:10231000C1F7DF91CF911F910F91FF90EF9008953A
:10232000EF92FF920F931F93CF93DF93E62E8A01D4
:10233000662381F0EC01F12CB80188819981A9DF35
:102340006A81C801029667D50D5F1F4FF3942396EB
:10235000EF10F2CFDF91CF911F910F91FF90EF908F
:102360000895CF92DF92EF92FF926B017C0182E0A1
:102370008BB960E079E08DE390E0A7019601F4D499
:10238000DA01C9010197A109B109AC01BD01769536
:10239000679557954795942F852F252F207FA9F076
:1023A0001BB860E874E88EE190E0A7019601DCD4E8
:1023B000DA01C9010197A109B109AC01BD01769506
:1023C000679557954795942F852F8F7080BD99B944
:1023D0008FB7F8941092B8031092B9031092960335
:1023E000109297038FBF549A539A579A5598FF901B
:1023F000EF90DF90CF900895549853985798559840
:102400008FB7F894E8E9F3E010A211A2E6E7F3E051
:1024100010A211A28FBF0895D59ADD9AD798DF9A9E
:10242000D69ADE9AD49ADC9A389A8FB7F894E8E96B
:10243000F3E010A211A2E6E7F3E010A211A28FBF11
:1024400081E0809375030895D598DD9AD798DF9A37
:10245000D698DE9AD498DC9A109275038FB7F894C8
:10246000E8E9F3E010A211A2E6E7F3E010A211A25E
:102470008FBF089598E008C00000DE98DD9A880FAD
:10248000CF990AC0915059F0DD9887FFF5CFDE9AB9
:10249000DD9A880FCF9BF6CF8F5F9150A9F70895F3
:1024A0009091970380919603981709F08299089567
:1024B000DC9881E8DFDF829BFECF80E8DBDF87FDF1
:1024C0000BC0E0919603F0E0EA58FC4F80838091C6
:1024D00096038F5F80939603DC9A0895809175032D
:1024E0008111DEDF8091960390919703891B8F7194
:1024F00008959091970380919603981751F0E92FD2
:10250000F0E0EA58FC4F80819F5F9F7190939703A2
:1025100008958FEF0895539B12C09091B8039F5F69
:102520009F712091B9039217A1F0E091B803F0E0F8
:10253000E856FC4F80839093B803559A0895909184
:102540007503911101C00895DC988F7793DFDC9AB1
:102550000895559A2091B9039217E1F3E6CF539B62
:102560000BC09091B8038091B903981729F0559A40
:102570008091B9039813FCCF0895CF93DF93EC01BA
:102580008881882329F02196C6DF89918111FCCFAB
:10259000DF91CF9108952F932FB72F939F938F9310
:1025A000EF93FF932CB1809196038F5F8F71909181
:1025B0009703891741F0E0919603F0E0EA58FC4F49
:1025C000208380939603FF91EF918F919F912F919C
:1025D0002FBF2F9118958F938FB78F939F93EF9362
:1025E000FF938091B9039091B803891302C0559865
:1025F0000AC0E82FF0E0E856FC4F90818F5F8F71A2
:102600008093B9039CB9FF91EF919F918F918FBFF8
:102610008F91189510924504109247042BE0E8E43E
:10262000F4E0DF011D922A95E9F7109244048ECC64
:10263000FF920F931F93CF93DF93EC01862F122FFE
:10264000032FF42E611115C081E2888382E090E0AF
:1026500021E030E0FE01E20FF31F4DE04083FE0178
:10266000E80FF91F1082DF91CF911F910F91FF901A
:10267000089560E084DD87FDE7CF9DE39883823095
:1026800061F08330E9F08630B1F1082E000C990B2F
:102690009C012F5F3F4F0296DDCF812F82958F7077
:1026A0001F701A3008F0195F105D1A838A3008F025
:1026B000895F805D898384E090E023E030E0CACFC9
:1026C000812F912F8F708A3008F0895F805D8B8316
:1026D000892F82958F708A3008F0895F805D8A83A8
:1026E0000F700A3008F0095F005D098385E090E013
:1026F00024E030E0AFCF9F2D92959F708F2D8F708B
:102700008A3008F0895F805D8E83892F9A3008F0C7
:10271000895F805D8D83802F82958F700F700A3066
:1027200008F0095F005D0C838A3008F0895F805DE6
:102730008B83812F82958F701F701A3008F0195F7C
:10274000105D1A838A3008F0895F805D898388E094
:1027500090E027E030E07ECF0F931F93CF9320913E
:102760004804209346049091490491539093440463
:10277000923028F080E0CF911F910F9108958B0146
:10278000C82F61E0822FFBDC2DEF2C0F082E000CF0
:10279000990B622F70E08617970761F7222399F053
:1027A000EAE4F4E0D8018CEF8C0F90E0855B9B4F5E
:1027B00021912D93E817F907D9F7F801E60FF71FD4
:1027C000108281E0D8CF60E070E0F7CFCF93DF9345
:1027D000209145042223A9F06A3331F1EC01E09104
:1027E000470481E08E0F80934704F0E0E85BFB4FE5
:1027F00060836D3081F08B3009F180E0DF91CF9103
:1028000008956A33D1F71092470481E0809345041C
:1028100010924804F2CFBE019FDF882379F0109216
:10282000450480914604EACF21E2FC0120832DE09B
:1028300021831282109245048EEFE0CF81E28883DB
:102840008DE089831A82109245048FEFD7CFFC0167
:1028500091819A330CF09750905380818A330CF019
:1028600087508295807F9F70892B0895FC0161813C
:102870006A330CF06750605380818A330CF08750C4
:102880008295807F6F70682B73817A330CF077505C
:10289000705382818A330CF087508295807F7F70DD
:1028A000782B95819A330CF09750905384818A331A
:1028B0000CF087508295807F9F70892B90E008955F
:1028C0008091440408955058BB27AA270ED084C194
:1028D00075D130F07AD120F031F49F3F11F41EF41D
:1028E0006AC10EF4E095E7FB37C1E92F86D180F38A
:1028F000BA17620773078407950718F071F49EF5FD
:10290000B5C10EF4E0950B2EBA2FA02D0B01B90125
:1029100090010C01CA01A0011124FF27591B99F055
:10292000593F50F4503E68F11A16F040A22F232F61
:10293000342F4427585FF3CF469537952795A795B1
:10294000F0405395C9F77EF41F16BA0B620B730B58
:10295000840BBAF09150A1F0FF0FBB1F661F771FC9
:10296000881FC2F70EC0BA0F621F731F841F48F47E
:10297000879577956795B795F7959E3F08F0B3CF04
:102980009395880F08F09927EE0F979587950895EE
:1029900056D180F09F3740F491110EF468C160E089
:1029A00070E080E89FE3089526F01B16611D711DFD
:1029B000811DD8C0F2C00CD00FC107D140F0FED0AD
:1029C00030F021F45F3F19F0C7C0511150C1F3C07E
:1029D00014D198F39923C9F35523B1F3951B550BE3
:1029E000BB27AA2762177307840738F09F5F5F4FE2
:1029F000220F331F441FAA1FA9F333D00E2E3AF023
:102A0000E0E830D091505040E695001CCAF729D03C
:102A1000FE2F27D0660F771F881FBB1F261737078B
:102A20004807AB07B0E809F0BB0B802DBF01FF27BB
:102A300093585F4F2AF09E3F510568F08DC017C133
:102A40005F3FECF3983EDCF3869577956795B795F5
:102A5000F7959F5FC9F7880F911D9695879597F910
:102A60000895E1E0660F771F881FBB1F6217730789
:102A70008407BA0720F0621B730B840BBA0BEE1F9E
:102A800088F7E0950895C1D088F09F5790F0B92F4E
:102A90009927B751A0F0D1F0660F771F881F991FB3
:102AA0001AF0BA95C9F712C0B13081F0DFD0B1E0A9
:102AB0000895DCC0672F782F8827B85F39F0B93FB9
:102AC000CCF3869577956795B395D9F73EF49095B5
:102AD0008095709561957F4F8F4F9F4F0895E89433
:102AE00009C097FB3EF490958095709561957F4F56
:102AF0008F4F9F4F9923A9F0F92F96E9BB27939504
:102B0000F695879577956795B795F111F8CFFAF413
:102B1000BB0F11F460FF1BC06F5F7F4F8F4F9F4F44
:102B200016C0882311F096E911C0772321F09EE8A2
:102B3000872F762F05C0662371F096E8862F70E008
:102B400060E02AF09A95660F771F881FDAF7880FE2
:102B50009695879597F9089597F99F6780E870E0B3
:102B600060E00895882371F4772321F09850872B33
:102B7000762F07C0662311F499270DC09051862B3C
:102B800070E060E02AF09A95660F771F881FDAF7E9
:102B9000880F9695879597F908959F3F31F091504A
:102BA00020F4879577956795B795880F911D969531
:102BB000879597F908959FEF80EC089500240A9473
:102BC0001616170618060906089500240A94121608
:102BD0001306140605060895092E0394000C11F43B
:102BE000882352F0BB0F40F4BF2B11F460FF04C0E8
:102BF0006F5F7F4F8F4F9F4F089557FD9058440F41
:102C0000551F59F05F3F71F04795880F97FB991F4B
:102C100061F09F3F79F08795089512161306140608
:102C2000551FF2CF4695F1DF08C016161706180695
:102C3000991FF1CF86957105610508940895E5DF28
:102C4000A0F0BEE7B91788F4BB279F3860F41616CA
:102C5000B11D672F782F8827985FF7CF86957795D6
:102C60006795B11D93959639C8F30895E894BB27ED
:102C700066277727CB0197F908950BD0ADCF9EDF5C
:102C800028F0A3DF18F0952309F066CF94CF112424
:102C9000EECFB3DFA0F3959FD1F3950F50E0551F12
:102CA000629FF001729FBB27F00DB11D639FAA27A1
:102CB000F00DB11DAA1F649F6627B00DA11D661FF0
:102CC000829F2227B00DA11D621F739FB00DA11D11
:102CD000621F839FA00D611D221F749F3327A00DCB
:102CE000611D231F849F600D211D822F762F6A2F67
:102CF00011249F5750408AF0E1F088234AF0EE0FEC
:102D0000FF1FBB1F661F771F881F91505040A9F7F8
:102D10009E3F510570F020CFAACF5F3FECF3983E65
:102D2000DCF3869577956795B795F795E7959F5F5F
:102D3000C1F7FE2B880F911D9695879597F90895F9
:102D4000AA1BBB1B51E107C0AA1FBB1FA617B707D1
:102D500010F0A61BB70B881F991F5A95A9F78095ED
:102D60009095BC01CD010895A1E21A2EAA1BBB1BB0
:102D7000FD010DC0AA1FBB1FEE1FFF1FA217B30747
:102D8000E407F50720F0A21BB30BE40BF50B661F5D
:102D9000771F881F991F1A9469F760957095809521
:102DA00090959B01AC01BD01CF010895EE0FFF1F6F
:102DB0000590F491E02D0994A29FB001B39FC0014A
:102DC000A39F700D811D1124911DB29F700D811D57
:102DD0001124911D0895F0DFA59F900DB49F900DD3
:102DE000A49F800D911D11240895FB01DC01415029
:102DF000504030F08D910190801919F40020B9F7FE
:102E0000881B990B0895E199FECF9FBB8EBBE09A7A
:102E100099278DB30895262FE199FECF9FBB8EBBD6
:102E20002DBB0FB6F894E29AE19A0FBE0196089571
:042E3000F894FFCF44
:102E3400030001417374726F4551006A0006660015
:102E4400034906004702004A00004B000048060000
:102E54004D06006500066100066200066700027305
:102E640000064506005001004600004C00004106E3
:102E7400004206005306006E00064E06004402009F
:102E84006400024301006300025A02007A00025205
:102E940006007200064F010051020071000258063C
:0A2EA40000780006590200540000F7
:00000001FF
