:1000000009C1000031C100002FC100002DC1000056
:100010002BC1000029C1000027C1000025C100003C
:1000200023C1000021C100001FC100001DC100004C
:100030001BC1000019C1000017C1000015C100005C
:100040000C944A1211C100000FC100000DC1000044
:100050000BC1000009C1000007C1000005C100007C
:1000600003C100000C94AC170C94CD17FDC0000028
:10007000FBC00000F9C00000F7C000000C944C1158
:10008000F3C00000F1C00000EFC00000EDC00000B0
:10009000EBC00000E9C00000E7C00000E5C00000C0
:1000A000E3C00000E1C00000DFC00000DDC00000D0
:1000B000DBC00000D9C00000D7C00000D5C00000E0
:1000C000D3C00000D1C00000CFC00000CDC00000F0
:1000D000CBC00000C9C00000C7C00000C5C0000000
:1000E000C3C00000BA0884089B080209D30884082A
:1000F000AA099C0937083708A20C8D093708370868
:1001000037083708370880093708370837083708AD
:100110003708370837083708370837087009FB09E8
:100120003708370860093B092F09370837081C09C9
:100130003708370837083708370837080B0A3708F1
:10014000BA09BA084F0A9B080209D308210AAA096A
:100150009C092308230823088D0923082308230862
:1001600023082308800923082308230823082308D9
:100170002308230823082308230870092B0A2308CF
:10018000230860093B092F09230823081C092308B9
:1001900023082308230823082308140A2308BA097C
:1001A000820BCB0BB90BAA0B3E083E083E083E085B
:1001B0003E083E083E083E083E08980B3E083E08B2
:1001C0006F0B5C0B460B2F0B3E083E083E08EC0AFB
:1001D000D80A1C0B3E083E083E083E083E083E0872
:1001E0003E083E08C00ACD0A3E083E083E083E08CA
:1001F0003E083E083E083E083E08C60AD30A3E08AE
:100200003E08BA0A3E083E083E083E083E08900AEC
:100210003E08820A11241FBECFEFD1E2DEBFCDBF60
:100220000FB6F894A8958091600088618093600073
:10023000109260000FBE12E0A0E0B2E0E8EEF8E33A
:1002400000E00BBF02C007900D92A238B107D9F7AA
:1002500025E0A2E8B2E001C01D92A136B207E1F7A5
:100260000E94CD0C0C94721CCBCEA59A1092B702B2
:100270000895EFE6F0E080818F7D8083E1E8F0E093
:100280008081887F8083E9E9F2E010A281E082A387
:10029000808F10929702F0980895E1E7F0E0808156
:1002A0008F7D8083E1E9F0E08081887F8083E9E9C8
:1002B000F2E011A281E083A3818F10929802F1985D
:1002C0000895883018F4880F880F880F613061F125
:1002D00008F1623069F06330B1F48830D9F18032CE
:1002E00009F04AC08AE280930002809301020895D7
:1002F000883059F1803299F58AE28093000288E2D1
:1003000080930102089587E08093000281E080934A
:1003100001020895883099F08032A9F782E0809335
:100320000002809301020895883049F08032F1F490
:1003300085E08093000282E080930102089583E0CB
:1003400080930002109201020895609300021092BF
:10035000010208951092000210920102089587E0B0
:100360008093000285E080930102089584E08093E9
:10037000000260930102089580E18093000288E208
:100380008093010208954F925F926F927F928F92B5
:100390009F92AF92BF92CF92DF92EF92FF92CF9354
:1003A000DF93C82FD0E0FE01EE0FFF1FEE0FFF1FFF
:1003B000EF52FD4F80809180A280B38060E072E1B7
:1003C0008AE790E0A50194010E94041C69017A016A
:1003D0000E94AC1A2B013C01C501B4010E94AC1A69
:1003E0009B01AC01C301B2010E94181A20E030E069
:1003F00040E052E40E947A1B20E030E040E05FE3FE
:100400000E94A1190E94801A4B015C01E114F104C1
:1004100051F480E8C816D104E104F10408F066C084
:1004200020E830E002C02FEF3FEFCE010024969588
:1004300087950794969587950794982F802DFC01B2
:10044000E252FB4F825E9A4F21933193E817F907EE
:10045000D9F781149104A104B104C9F1C501B40113
:100460000E94AC1A2B013C01C12CD12C7601CC0F7F
:10047000DD1FC295D295D07FDC27C07FDC27C70166
:10048000B6010E94AC1A20E030E040E052E40E9445
:100490007A1BA30192010E94181A0E94051A0E9459
:1004A000801AFE01E60FF11DEE0FFF1FE252FB4F17
:1004B000808191810196918380838FEFC81AD80A39
:1004C000E80AF80A8C149D04AE04BF04C1F6DF915B
:1004D000CF91FF90EF90DF90CF90BF90AF909F9023
:1004E0008F907F906F905F904F90089596019DCF71
:1004F0000F931F93CF9308E010E0C0E0C8010E9463
:100500008E159C2F982788E027E0990F08F49227F2
:100510008A95D9F7C92F0F5F1F4F043E81E0180756
:1005200069F7911101C0C1E08C2FCF911F910F91FC
:100530000895CF9387E090E00E948E15C82FD8DFF2
:1005400091E0C81390E0892FCF9108951F93CF9326
:10055000DF9300D000D0CDB7DEB7182F40E050E0D9
:1005600063E0CE0101960E94B41543E050E068E0DC
:1005700072E0CE0101960E944E1C892B49F080E06A
:100580000F900F900F900F90DF91CF911F910895D2
:1005900083E090E00E949E156833734081059105C9
:1005A00071F7112391F180915E05843040F7882323
:1005B00039F18091DD04813210F78091EF02909142
:1005C000F002C2978F379440D0F68091F10290915B
:1005D000F202C2978F37944090F68091FB0290917F
:1005E000FC02892B61F28091FD029091FE02892B21
:1005F00031F29091E302915081E0933108F2BFCF44
:100600008091DD048131C8F2BACF93DF8111CBCF65
:10061000B6CF89E090E00E948E1591E0811101C073
:1006200090E09093DB048AE090E00E948E1591E0C8
:10063000811101C090E09093DC048BE090E00E9477
:100640008E1580935E0588E090E00E948E15809361
:10065000DD048BE290E00E948E1591E0811190E024
:10066000909386028FE290E00E948E1591E08111B6
:1006700001C090E090938A0281E09091DD0498306F
:1006800008F080E0809388028AE290E00E948E1554
:1006900091E0811190E0909387029091DD04983071
:1006A00010F081110FC11092890241E068E373E0FC
:1006B00080E090E00E94F11760915E058091DD047A
:1006C00000DE80E043DF811104C181E080938E026F
:1006D00080938D02279A80918E02813009F43EC169
:1006E0002F980A98129A5098589A0B98139A099A28
:1006F000119A23982B9A2098289A22982A9A21981E
:10070000299A819A8998809A88989D9AA59A809129
:1007100001018062809301018091020180628093D7
:1007200002016B9A7398269A2E986D9A759880910B
:100730000101806180930101809102018F7E80938D
:100740000201E0918802F0E0E050FE4F8081282F06
:1007500021709091050180FF6FC091609093050119
:10076000982F98703091040183FD6FC031603093F1
:100770000401222309F46EC0599A91116FC0519A55
:10078000282F22709091020181FF6FC09260909398
:100790000201982F90713091010184FD6FC0326089
:1007A00030930101222309F46EC05A9A91116FC04F
:1007B000529A282F24709091020182FF6FC091609D
:1007C00090930201982F907285FD6FC08091010176
:1007D000816080930101222309F46EC05B9A91111C
:1007E0006FC0539A8FE99FE00197F1F700C00000B6
:1007F000899A889A80918A02811169C0089A109812
:10080000249A2C981092B6001092B3001092B00067
:100810001092B1008091B00081688093B000809107
:10082000B10084608093B1000E94FB1660E875E21D
:1008300080E090E00C9462169E7F90930501982FC3
:1008400098703091040183FF91CF3E7F3093040173
:10085000211192CF5998992309F491CF5198282FBB
:1008600022709091020181FD91CF9D7F90930201B2
:10087000982F90713091010184FF91CF3D7F30938B
:100880000101211192CF5A98992309F491CF5298DE
:10089000282F24709091020182FD91CF9E7F90932A
:1008A0000201982F907285FF91CF809101018E7F78
:1008B00080930101211192CF5B98992309F491CF84
:1008C000539890CF81E08093890248E0EFCE08985A
:1008D00096CF80E058DD81E056DD4091FB025091DB
:1008E000FC02A3E0B3E0E3ECF3E020E030E00CC076
:1008F00012968C91129790E00196280F391F13964B
:1009000083E0A33CB80731F08D919C911197481773
:10091000590770F33093D8042093D7044091FD0217
:100920005091FE0220E030E00AC0828190E0019602
:10093000280F391F339694E0E338F90729F08081B6
:1009400091814817590788F33093DA042093D9042A
:10095000279A80918E02813009F0C2CE2F9AC1CEA3
:1009600040E050E063E088E092E00E94201643E01F
:1009700050E068E373E080E090E00C940916CF93B8
:10098000DF93C9E9D2E068A979A98AA99BA94EE0B9
:1009900050E00E9409166CA97DA98EA99FA942E189
:1009A00050E00E94091668AD79AD8AAD9BAD46E175
:1009B00050E00E9409166CAD7DAD8EAD9FAD4AE151
:1009C00050E00E9409166091D9027091DA0280917C
:1009D000DB029091DC024EE150E00E94091660912A
:1009E000DD027091DE028091DF029091E00242E22E
:1009F00050E00E940916CBEDD4E069E070E08881F8
:100A00000E94F6156AE070E089810E94F6156BE09D
:100A100070E080915E050E94F61568E070E08091BC
:100A2000DD040E94F6156CE070E08091FB020E94EC
:100A3000F6156DE070E08091FD020E94F61566E209
:100A400070E08091EF029091F0020E94FA1568E246
:100A500070E08091F1029091F2020E94FA1580916B
:100A60008702C1E06AE270E08C270E94F61580914F
:100A700086026BE270E08C270E94F6156CE270E053
:100A80008091ED029091EE020E94FA156EE270E004
:100A90008091E3020E94F6156FE270E080918A0275
:100AA0000E94F61544E650E060E483E093E00E9483
:100AB000411644E251E060E483EC93E00E94411669
:100AC00017DD67E070E0DF91CF910C94F615119877
:100AD000000000000000000080918602882321F0C1
:100AE000489B02C082E00895119A000000000000B7
:100AF000000089B1809581700895489B14C01198B9
:100B00008AE000008150E9F7099888EC00008150E4
:100B1000E9F748990DC0099A119A039B02C081E038
:100B2000089585E00895099A119A80B180E00895AA
:100B3000099A119A039902C084E0089582E0089509
:100B4000811113C096DBA59881E08093B7021092C3
:100B5000710010926F001092800088E180938100F4
:100B60001092900080939100089597DB809102018C
:100B70008F7D8093020181E08093B802E8CF80915D
:100B8000A1029091A20220916F002F7D20936F000F
:100B900020919A0030919B0040916F0040624093F9
:100BA0006F004091F7025091F802782F692F841757
:100BB000950710F4742F652FE091BB02E13009F422
:100BC0004CC02417350708F048C040916F004F7D96
:100BD00040936F009093F4028093F30230939B0054
:100BE00020939A007093FF02609300032091DB042E
:100BF00030E08091B50290E02817390789F1759AA5
:100C0000E13029F581E090E090938B0080938A0099
:100C10008091050380938402109282021BBC109283
:100C20008500109284008091DE049091DF049093FF
:100C300087008093860080918100897F8093810066
:100C4000809181008160809381001092BB0280912D
:100C50006F00806280936F000895272F362FB5CFE5
:100C60007598CECF8091A3029091A402209171003B
:100C70002F7D209371002091980030919900409130
:100C800071004062409371004091F9025091FA0264
:100C9000782F692F8417950710F4742F652FE09132
:100CA000BC02E13009F450C02417350708F04CC0ED
:100CB000409171004F7D409371009093F6028093B4
:100CC000F50230939900209398007093010360938C
:100CD00002032091DC0430E08091B60290E02817F6
:100CE0003907A9F180910201806180930201E1300E
:100CF00029F581E090E090938900809388008091AD
:100D0000C50380938502109283021ABC109295004D
:100D10001092940080911E0590911F05909397006A
:100D20008093960080919100897F809391008091BB
:100D300091008160809391001092BC0280917100BB
:100D40008062809371000895272F362FB1CF809154
:100D500002018F7E80930201CACF4F925F927F92F1
:100D60008F929F92AF92BF92CF92DF92EF92FF92BB
:100D70000F931F93CF93DF93282F30E0F901EE0FED
:100D8000FF1FE952FB4F00811181D901A756BD4FCA
:100D900094969C919497992329F0A801440F551F8C
:100DA000040F151F5A96EC915A970E2E000CFF0B4C
:100DB000F7FDB5C09E2F5C967C90D9011496ED018D
:100DC000CC0FDD1FCC0FDD1FC756DD4F4881598189
:100DD0006A817B816F01CC0CDD1C0D2C000CEE08B0
:100DE000FF084C155D056E057F0508F075C0C882CB
:100DF000D982EA82FB82E09FE001E19FD00DF09F63
:100E0000D00D112446015701B694A7949794879466
:100E1000F901EE0FFF1FE550FD4F40805180B701F3
:100E2000A601983009F46FC06E01E12CF12C8C14EE
:100E30009D04AE04BF0410F4750164014C195D09F2
:100E40006E097F09E901CC0FDD1FCC0FDD1F9E016C
:100E500027563D4FF9010081118122813381F1E054
:100E60007F1609F454C0C157DD4F400F511F621F58
:100E7000731F488359836A837B83AA0FBB1FA756BE
:100E8000BD4F4D925C929EB3811113C09B7F9EBB60
:100E9000F09ADF91CF911F910F91FF90EF90DF902B
:100EA000CF90BF90AF909F908F907F905F904F902A
:100EB00066CE977F9EBBF19ADF91CF911F910F91E4
:100EC000FF90EF90DF90CF90BF90AF909F908F906A
:100ED0007F905F904F90C6CEE09FE001E19FD00DE4
:100EE000F09FD00D11244A015B01B694A79497940A
:100EF0008794F901EE0FFF1FE550FD4F40805180B0
:100F0000983009F091CF487F98EF89228DCF709566
:100F10006095509541955F4F6F4F7F4FA4CFF195EE
:100F2000E195F10947CF811126C08091BB02813044
:100F300009F14FB7F8941092B902F0988091B1027C
:100F400080FD03C081E08093B1022091F7023091CF
:100F5000F8028091F3029091F4028217930760F0F7
:100F60008091FF029091000301969093F402809388
:100F7000F3024FBF08957DC98091FF029091000355
:100F80002817390788F7309300032093FF02C9011F
:100F9000EBCF811126C08091BC02813009F14FB79F
:100FA000F8941092BA02F1988091B20280FD03C0C9
:100FB00081E08093B2022091F9023091FA0280918F
:100FC000F5029091F6028217930760F08091010379
:100FD0009091020301969093F6028093F5024FBF21
:100FE00008955BC980910103909102032817390786
:100FF00088F73093020320930103C901EBCF8F924E
:101000009F92AF92BF92EF92FF920F93CF93DF9395
:10101000D82F7B010E949D19C82F80918E028111CB
:101020001AC0DF3409F455C010928C028D2F0D2E9A
:10103000000C990BAA0BBB0BFC01E554F109EF3234
:10104000F10508F442C000918D02C1E020E030E0DB
:10105000A901D0E061C04D2F0D2E000C550B660B81
:10106000770BFA01E554F109EF32F10550F1FA017D
:10107000E154F109EA33F10508F440C200918D0210
:1010800020E030E0A9016D2FC7010E94FF17DA347C
:10109000B1F48091E402811112C080918E0281111D
:1010A0000EC0D0E0FE01E756FD4F808DC956DD4FE2
:1010B00080FF0EC28881823011F081E08883C1E018
:1010C0002FC0EE58FF4F0C94261CEF55FF4F0C9489
:1010D000261CCC2309F475C380918C02833108F45B
:1010E000E7C1F7018081805380938E0201E0811176
:1010F00001C000E000938D02811199C3C0E020E09F
:1011000030E0A901DFE408C000918D02C1E024E0D5
:1011100030E040E050E0D0E06D2FC7010E94FF17A3
:101120008C2FDF91CF910F91FF90EF90BF90AF90F8
:101130009F908F900895D7018C91D0E0FE01E756E3
:10114000FD4F90ED980F908F91E011962C912033E8
:1011500009F436C1948FC956DD4F188292A191309F
:1011600009F43EC100918D02C1E020E030E0A90108
:10117000D7E4D2CF0FB7F894C7010E945519D0E039
:10118000CC0FDD1FCC0FDD1FC756DD4F6883798381
:101190008A839B830FBF00918D02C1E020E030E085
:1011A000A901D5E4B9CFC7010E9455192C2F30E011
:1011B00040ECC49FF0011124E054FC4F80809180EA
:1011C000A12CB12CF901EE0FFF1FEF55FD4F462F5B
:1011D000572FBC01481559056A057B0508F4EDC079
:1011E00051834083F901E956FD4F8081823009F433
:1011F000E9C0108200918D02C1E020E030E0A90139
:10120000D9E48ACFC7010E945519D0E0FE01EE0F44
:10121000FF1FEE0FFF1FE755FD4F60837183828331
:101220009383C956DD4F188200918D02C1E020E002
:1012300030E0A901D8E470CF8FB7F894D0E0CC0F9C
:10124000DD1FCC0FDD1FC756DD4F288139814A8154
:101250005B818FBF00918D02C1E0DAE65DCFD0E007
:10126000C756DD4F2EA130E040E050E000918D02E6
:10127000C1E0D7E651CFD0E0C756DD4F8CA1813019
:1012800009F4ABC020E030E08C8D813009F429C135
:1012900088A1811101C031608091E402813009F49C
:1012A0001EC18AA1813009F020618E8D813009F440
:1012B00014C140E050E000918D02C1E0D6E62CCF91
:1012C000D0E0CC0FDD1FCC0FDD1FCF53DD4F2881C9
:1012D00039814A815B8100918D02C1E0D5E61CCF46
:1012E000D0E0CC0FDD1FCC0FDD1FC753DD4F2881B1
:1012F00039814A815B8100918D02C1E0D1E60CCF3A
:10130000C7010E943D198093B30000918D02C1E096
:1013100020E030E0A901D6E5FFCED7014C91405343
:101320006C2F83E00E941C1500918D02C1E020E02B
:1013300030E0A901D0E5F0CEC1112CC00E943901E6
:101340000E94350100918D02C1E020E030E0A9014A
:10135000DCE4E2CE80E0CC2371F11BDED0E0C956A4
:10136000DD4F188200918D02C1E020E030E0A9013C
:10137000DBE4D2CED0E0CC0FDD1FCC0FDD1FC75297
:10138000DD4F288139814A815B8100918D02C1E066
:10139000D3E7C2CE0E944D0180910201806280930A
:1013A00002011092B80200918D02C1E020E030E00D
:1013B000A901DCE4B1CEB7DDD1CFB501A40110CFD6
:1013C00090E0C8CEC11112C2DADB00918D02C1E0FB
:1013D00020E030E0A901D9E49FCE20E034E054CFF2
:1013E00020918902222309F4BDCE8153823008F472
:1013F0003DC294A3B7CEEC2FF0E0EE0FFF1FEE0F2F
:10140000FF1FEF52FD4F20813181428153810091B6
:101410008D02C1E081CEC13009F4F1C12091860274
:1014200030E040E050E0F3CFD7018C91805309F0D9
:101430005AC000918D02C1E020E030E040E850E069
:101440006BCE00918D0220E030E0A9016AE4C70173
:101450000E94FF171ECE8C2F90E0FC01EE0FFF1FA5
:10146000E151FD4F208131815901AA0CBB1C880F2D
:10147000991F880F991FFC01EF52FD4FD50111965E
:1014800020813181428153810E943E1C950140E0C0
:1014900050E00E94041C00918D02C1E03DCE8C2FD3
:1014A0004FDB00918D02C1E020E030E0A90134CE95
:1014B000D7019C919153933008F4D4C110928C02BF
:1014C00000918D02C1E020E030E0A901D0E024CEFF
:1014D00081E0888380A3C1E023CE2160EACE206230
:1014E000E0CE3260D5CE00918D02C1E0813009F0AE
:1014F000ADCD2CE134E040E050E00ECEE053FF4FA4
:101500000C94261CEC2FF0E0EE0FFF1FE550FD4F72
:101510002081318140E050E000918D02C1E0FCCD9E
:101520004C2F50E0FA01EE57FD4F6081862F90E07E
:101530009C01220F331F280F391F70EC749FC001CC
:10154000759F900D1124820F931F87569D4FDC01CC
:10155000A659BF4FCC9111967C91119712962C2FC2
:10156000372F4C9150E081E0860F803408F08BC11A
:1015700080834DCFC13009F490C12091E30250CF58
:10158000EC2FF0E0E552FB4F20814ACFEC2FF0E04A
:10159000EE0FFF1FE151FD4FBBCFC13009F475C104
:1015A00020915E053DCFC1114ECD20918A0238CFEA
:1015B000C7010E943D19EC2FF0E0EE57FD4F8083EC
:1015C00000918D02C1E0803408F46ECF23E030E05A
:1015D00040E050E0D0E0A0CDC7010E945519AC2FEB
:1015E000B0E0FD01EE57FD4F9081292F30E0A901B9
:1015F000440F551F420F531FC0ECCA9F9001CB9F51
:10160000300D1124240F351F27563D4FD901A659FF
:10161000BF4F11967C936E9312968C9381E0890F45
:101620008083803408F43DCF108200918D02C1E0A8
:1016300020E030E0A90170CDC7010E943D19EC2FD8
:10164000F0E0EE0FFF1FE550FD4F90E091838083A7
:1016500000918D02C1E020E030E0A9015DCD823033
:1016600009F466C1833009F46BC1813009F019CFE8
:1016700081E0F7019081903309F48DC10E94A602A8
:10168000811178C100918D02C1E0A0CFC7010E94F5
:101690005519EC2FF0E0EE0FFF1FEE0FFF1FE75282
:1016A000FD4F608371838283938300918D02C1E03B
:1016B00020E030E0A90130CDC701C13009F4F6C007
:1016C0000E943D199FEF980F9331E0F68093E3025B
:1016D00000918D02C1E020E030E0A9011DCDC701DD
:1016E000C13009F406C10E943D1991E0811101C089
:1016F00090E09093860200918D02C1E020E030E0FE
:10170000A9010ACDC7010E945519EC2FF0E0EE0F98
:10171000FF1FEE0FFF1FE753FD4F6083718382832E
:10172000938300918D02C1E020E030E0A901F4CC68
:10173000C7010E945519EC2FF0E0EE0FFF1FE15199
:10174000FD4F7183608300918D02C1E020E030E0A5
:10175000A901E2CCC701C13009F4B8C00E943D190B
:1017600080935E0500918D02C1E020E030E0A90188
:10177000D3CCEC2FF0E0E552FB4F81E0D7019C91F8
:10178000903309F4C5C0808300918D02C1E020E050
:1017900030E0A901C1CCC7010E945519EC2FF0E03F
:1017A000EE0FFF1FEE0FFF1FEF52FD4F608371839F
:1017B0008283938300918D02C1E020E030E0A90193
:1017C000ABCC80918A02882359F11098D7018C9173
:1017D000803309F456C0089A10928C0200918D0251
:1017E000C1E020E030E0A901DFE496CC3BDA0091D3
:1017F0008D02C1E020E030E0A901D9E48DCC8091D8
:101800008702282F30E040E050E09091DD049830CE
:1018100038F1C827C093890200918D02C1E07CCCC9
:10182000089AF7018081803351F1109AD5CF0E9438
:1018300039010E9435010E944D01809102018062B0
:10184000809302011092B8021092970210929802AF
:1018500000918D02C1E020E030E0A901DFE45CCC22
:10186000C0E0D8CF8F5F80938C02EDCB14A20091A3
:101870008D02C1E020E030E0A901D7E44DCC109802
:10188000ABCF0898A9CF1082C2CD2091DD0430E003
:1018900040E050E000918D023FCC2091ED0230916C
:1018A000EE0240E050E000918D0236CC0E945519C6
:1018B00061157105F1E08F07910560F100918D02CE
:1018C00023E030E040E050E0D0E026CC0E943D191B
:1018D0008093DD04883048F1809187028C278170E5
:1018E0008093890200918D02C1E020E030E0A901DF
:1018F00013CC0E943D1991E0811101C090E09093BA
:10190000870200918D02C1E020E030E0A90104CC03
:1019100080E039CF7093EE026093ED0200918D026A
:10192000C1E020E030E0A901F7CB80E090E0D7CF24
:1019300026D800918D02C1E020E030E0A901ECCB77
:101940000FD8AFCDC11113C0882309F43ACF81E07D
:10195000F7019081903349F080938A0200918D02C3
:10196000C1E020E030E0A901D7CB80E0F5CF8111C4
:10197000B8CBB2CB0E949902811193CD0E9478021C
:1019800067E070E00E94F61500918D02C1E020E052
:1019900030E0A901C1CB80E071CECF93DF93CDB70A
:1019A000DEB760970FB6F894DEBF0FBECDBF789458
:1019B0000E940903AA24AA94BB24BA94812C312C36
:1019C00010E0C12CE12CF12CDD24D39499249A94BD
:1019D000412C512C80E8682E712C0299F2C0D092D3
:1019E000E4028091BB02813011F00E9439018091A4
:1019F000BC02813011F00E944D018FEFE81AF80A05
:101A000080918B028111E7C0E114F10409F0FFC05D
:101A100080918E02882309F436C2809102028111DE
:101A2000FAC085B1805885B968D8082F8091E20244
:101A3000081709F446C045E062E0802FFDD7809189
:101A40008902882319F0023009F444C3809100020E
:101A50009091B502913009F41CC3D092B302109258
:101A6000BD029091B602913009F410C3D092B40235
:101A70001092BE02382F31709091050180FFB2C2E2
:101A8000916090930501282F22709091020181FFAF
:101A9000B2C2926090930201982F947082FFB2C2FA
:101AA00080910201816080930201332309F4B1C265
:101AB000599A222309F4B0C25A9A992309F4AFC261
:101AC0005B9A8091E402811188CF189B94C01B9B84
:101AD000BFC20FEF80E09FB7F89420919A00309139
:101AE0009B009FBF9091BB02913061F09091B50235
:101AF000891741F04091F7025091F80224173507F9
:101B000008F4DEC20F3F09F4B2C2E02FEE0FFF0B64
:101B1000E951FD4F208131813093A2022093A1022F
:101B20008093B5029091BD02992309F453C290911C
:101B3000BF02813009F452C29093B3020F3F29F4DF
:101B40008091E202823009F458C319D8B02E199B53
:101B50003AC21A9B83C20FEF80E09FB7F89420919E
:101B60009800309199009FBF9091BC02913061F034
:101B70009091B602891741F04091F9025091FA0212
:101B80002417350708F498C20F3F09F49DC220912D
:101B9000EB023091EC023093A4022093A3028093D5
:101BA000B6029091BE02992309F43BC29091C00203
:101BB000813009F43AC29093B40254D8A02E029B0B
:101BC0000ECF1092E4028FEFE81AF80A80918B0290
:101BD000882309F419CF8091020281111CC0E114FD
:101BE000F10409F41ECF8091E4028111F6CEE110D8
:101BF000F4CE18996CCF81E0B81609F4A8CF81E033
:101C00009091E102913009F080E001E064CF809191
:101C10000202882341F31E3F09F417C10E943F17B7
:101C20008823F1F085B1805885B90E944A17C82EE3
:101C300040918D026C2DCE0101960E94EE18182F56
:101C4000882371F00CF41AC1BE016F5F7F4FD7D9A2
:101C5000082FCE0101960E949E17002309F4E9C1C6
:101C6000E114F10431F480918E02813009F4A9C1AC
:101C70002F988091E4028111A6C080918B0281117E
:101C8000A2C0E110A0C0189BF0C103B103FB002764
:101C900000F901950B1551F08091B502811105C035
:101CA00080919702823009F476C2B02E199BDBC175
:101CB00083B182FB882780F9082F01958091BA02B1
:101CC000811181C00A1509F47EC081E0013009F05C
:101CD00080E09091BC02913009F45EC09091B60210
:101CE000891709F459C080E054D910929802809164
:101CF0009702813009F071CE8091BB02813009F0EA
:101D00006CCE9091B10280918902882309F4ACC015
:101D10008FEF890F823008F464C280910102209114
:101D2000BF023091B502313009F46DC22093B30285
:101D3000D092BD022091050180FF17C2216020933F
:101D400005012091040183FD0CC221602093040150
:101D50002091020181FF01C22260209302012091A3
:101D6000010184FDF6C1226020930101209102014E
:101D700082FFEBC121602093020185FDE0C18091CB
:101D8000010181608093010190FF90C10E94BF0515
:101D900082E0809397021CC00F3F09F438C2209163
:101DA000EB023091EC023093A4022093A3028093C3
:101DB000B602013009F452C2D092B4020E94320637
:101DC000A02E8824839480919702813009F441C029
:101DD00080919802813009F000CE8091BC02813060
:101DE00009F0FBCD2091B20290918902992309F468
:101DF00043C19FEF920F923008F4E7C19091010226
:101E00008091C0023091B602313009F405C280934E
:101E1000B402D092BE0290FFBCC1599A93FDB7C1E3
:101E2000519A91FFB2C15A9A94FDADC1529A92FF54
:101E3000A8C15B9A95FDA3C1539A20FF31C10E94AE
:101E4000320682E080939802C8CD85B1805885B96A
:101E5000EFCE8091BB02813009F0BACF9091B102F0
:101E600080918902811154CF8091B502813009F4AB
:101E7000A9C1D092B3021092BD0286CFCE010196C5
:101E80000E949E17EDCE0E946705082F882309F453
:101E9000C4CD0E9439010E944D018FB7F894409241
:101EA000990250929A0260929B0270929C02409218
:101EB0009D0250929E0260929F027092A0028FBF7C
:101EC00068D7D0928B02023009F4AAC110920202A4
:101ED000119AE0918802F0E0E050FE4F8081282FB7
:101EE00021709091050180FDD7C09E7F90930501E0
:101EF000982F98703091040183FD3DC1316030937B
:101F00000401222309F435C1599A911114C1519A3F
:101F1000282F22709091020181FF09C19260909355
:101F20000201982F90713091010184FDFCC0326054
:101F300030930101222309F4F4C05A9A9111EFC0A1
:101F4000529A282F24709091020182FFE4C0916080
:101F500090930201982F907285FDD7C08091010166
:101F6000816080930101222309F4CDC05B9A911115
:101F7000E4C0539A45E062E080E05ED51092BD0275
:101F80001092BE0280E00E94A00581E00E94A005A0
:101F9000D092B102D092B2021092B502D092B302A6
:101FA0001092B6028091E5029091E6029093A2020F
:101FB0008093A102D0929702AA24AA94BB24BA9437
:101FC0002CCD2F9A56CE81E0A81609F406CD01E05B
:101FD00081E0C3CD91E0813009F0AECD9195909331
:101FE000B302ACCD9E7F90930501282F2270909173
:101FF000020181FD4ECD9D7F90930201982F947038
:1020000082FD4ECD809102018E7F809302013111BD
:102010004FCD5998211150CD5A98911151CD5B98BF
:1020200050CD91E0813009F0C6CD91959093B402E6
:10203000C4CD70D79BE088E10FB6F894A895809343
:1020400060000FBE9093600080E090E00E94721CE0
:10205000BB2009F47CCD00E080E03DCDAA2009F44E
:10206000BCCC00E079CD01E029CE01E013CE209177
:10207000E5023091E60250CD9091B602913009F41C
:102080009EC08093B4021092BE02D7CE9092B4024A
:10209000EFCC9092B302E3CC91609093050128CFEE
:1020A00081E00E94AD061092980297CC80E00E94D9
:1020B000AD06109297028CCE80E00E94C9078DCCAD
:1020C00080E00E94930743CD80E00E94C907AA24C4
:1020D000AA9483CC809101029091BF022091B50215
:1020E000213009F4B2C09093B302D092BD02909116
:1020F000C0022091B602213009F4A3C09093B4022B
:10210000D092BE02B7CC5B9832CF809101018E7F16
:102110008093010128CF9E7F909302011BCF52989C
:1021200010CF5A980BCF3D7F3093010103CF9D7F95
:1021300090930201F6CE5198EBCE53981BCF80912D
:1021400001018E7F809301011FCE2E7F209302011B
:1021500014CE2D7F2093010109CE2D7F2093020103
:10216000FECD2E7F20930401F3CD2E7F2093050119
:10217000E8CD5998CACE3E7F30930401C2CE539821
:102180005CCE5B9857CE529852CE5A984DCE51980D
:1021900048CE599843CE0F3F09F45BC0E02FEE0FB5
:1021A000FF0BE951FD4F808191819093A2028093B2
:1021B000A1020E94BF05B02E3324339477CD9092B4
:1021C000B40261CF9092B30256CE9091000230914A
:1021D000B602313009F445C08093B4021092BE02B9
:1021E0001ACE809100022091B502213009F43CC042
:1021F000D092B3021092BD029DCD80E00E94930761
:10220000BB24BA94A4CC21952093B30291CD811024
:102210002EC0AA24AA94D7CD81958093B402F9CD7B
:10222000D0920202D0D500918D0224E030E040E04F
:1022300050E060E0CE010C96E2D6CE010C967ED640
:10224000ECCB91959093B4025BCF91959093B302B0
:102250004CCF311013C0BB24BA9428CD9092B40255
:10226000ADCD9092B402BACF9092B302C3CF80E0CA
:102270000E94C907AA24AA94812CA5CD8091E502C9
:102280009091E6029093A2028093A1020E94BF0562
:10229000BB24BA94312C0ACD1F920F920FB60F9225
:1022A00011240BB60F920F931F932F933F934F93CD
:1022B0005F936F937F938F939F93EF93FF9380919F
:1022C000880090918900019709F060C08AB5E82FD5
:1022D000EE73F0E0E25EFA4F208131813093970097
:1022E000209396008F5F8ABD80919800909199000D
:1022F00090938900809388001E9B5FC02E98009168
:102300009D0210919E0220919F023091A002409167
:10231000B402042E000C550B660B770B400F511FB7
:10232000621F731F40939D0250939E0260939F0211
:102330007093A002F19B10C0F3990EC0009193021C
:102340001091940220919502309196024017510706
:102350006207730709F487C02091010330910203DB
:1023600028173907B8F4F19B03C01092BA02F1980C
:1023700081E08093BC02809171008F7D8093710019
:1023800080919100887F8093910004C09093890090
:1023900080938800FF91EF919F918F917F916F9132
:1023A0005F914F913F912F911F910F910F900BBE15
:1023B0000F900FBE0F901F9018952E9A20918502B6
:1023C000211123C02091F5023091F6022817390718
:1023D00000F5809183028F3398F48F5F809383029E
:1023E00090E0AC01440F551F840F951F87569D4FF9
:1023F000FC01E65DFE4F408151812417350718F13D
:102400003093990020939800C5CF215020938502E6
:10241000C1CF8217930728F580918302882381F327
:1024200081508093830290E0AC01440F551F840FCC
:10243000951F87569D4FFC01E65DFE4F40815181FF
:1024400042175307E8F62091BE022223D9F03296B4
:102450008081982F990F890F8E5F809385029A0152
:10246000CFCF9C01CDCFF39A20910103309102038D
:10247000A9014F5F5F4F5093F6024093F50210920F
:1024800085026ECFFC01E45DFE4F80818093850262
:102490009A01B6CF1F920F920FB60F9211240BB66E
:1024A0000F920F931F932F933F934F935F936F93CD
:1024B0007F938F939F93EF93FF9380918A009091E6
:1024C0008B00019709F060C08BB5E82FEE73F0E048
:1024D000E252FB4F208131813093870020938600A8
:1024E0008F5F8BBD80919A0090919B0090938B00A1
:1024F00080938A00639B5FC073980091990210914A
:102500009A0220919B0230919C024091B302042ECA
:10251000000C550B660B770B400F511F621F731F8A
:102520004093990250939A0260939B0270939C028D
:10253000F09B10C0F2990EC000918F021091900292
:102540002091910230919202401751076207730760
:1025500009F487C02091FF02309100032817390742
:10256000B8F4F09B03C01092B902F09881E0809318
:10257000BB0280916F008F7D80936F0080918100FE
:10258000887F8093810004C090938B0080938A00A1
:10259000FF91EF919F918F917F916F915F914F91FB
:1025A0003F912F911F910F910F900BBE0F900FBE77
:1025B0000F901F901895739A20918402211123C0C7
:1025C0002091F3023091F4022817390700F5809129
:1025D00082028F3398F48F5F8093820290E0AC0187
:1025E000440F551F840F951F87569D4FFC01E659D8
:1025F000FF4F408151812417350718F130939B001C
:1026000020939A00C5CF215020938402C1CF821716
:10261000930728F580918202882381F3815080936B
:10262000820290E0AC01440F551F840F951F87561E
:102630009D4FFC01E659FF4F4081518142175307DE
:10264000E8F62091BD022223D9F032968081982F9E
:10265000990F890F8E5F809384029A01CFCF9C01DE
:10266000CDCFF29A2091FF0230910003A9014F5F74
:102670005F4F5093F4024093F302109284026ECFA6
:10268000FC01E459FF4F8081809384029A01B6CF08
:10269000EF92FF920F931F93CF93DF9300D000D060
:1026A0001F92CDB7DEB7833009F44AC0E091EF0244
:1026B000F091F0020091F1021091F202853009F4DC
:1026C0007AC0843009F484C0F093E602E093E50216
:1026D00044E14E9F70014F9FF00C11242091E302C2
:1026E00030E0B9016C5E7F4FC7010E94F11B70930F
:1026F000E8026093E70264E170E0621B730BC701BC
:102700000E94F11B7093EA026093E9021092E102C9
:10271000409FC001419F900D1124B9010E94F11BFF
:102720007093EC026093EB020F900F900F900F905C
:102730000F90DF91CF911F910F91FF90EF9008952F
:1027400085E0E3E0F2E0DE01119601900D928A95BA
:10275000E1F7453048F7611141C02091EF02309117
:10276000F0023093E6022093E502220F331F220F7E
:10277000331F220F331FE1E0F0E0EC0FFD1FE40FE9
:10278000F11DE081F0E0BF01685F7F4FC9010E9449
:10279000DD1B7093E8026093E70268E070E06E1B57
:1027A0007F0BC9010E94DD1B7093EA026093E9026E
:1027B0001092E102B9CFDF0123EB30E041E050E0BD
:1027C0000E94481CFC01D8010E94481C8C017CCF4F
:1027D000DF012DE939E041E050E0F2CF613009F04E
:1027E000A3CF8091F1029091F202880F991F880F78
:1027F000991F880F991FE1E0F0E0EC0FFD1FE40F37
:10280000F11D608170E0D9D77093EC026093EB0208
:102810008BCF3F924F925F926F927F928F929F9257
:10282000AF92BF92CF92DF92EF92FF920F931F93DE
:10283000CF93DF9300D000D0CDB7DEB76B017C0122
:10284000342E8EE090E07AD16093C9027093CA0270
:102850008093CB029093CC0282E190E06FD16093A1
:10286000CD027093CE028093CF029093D00286E186
:1028700090E064D16093D1027093D2028093D3022E
:102880009093D4028AE190E059D16093D50270937D
:10289000D6028093D7029093D8028EE190E04ED179
:1028A0006093D9027093DA028093DB029093DC028A
:1028B00082E290E043D16093DD027093DE02809368
:1028C000DF029093E00286E290E029D19093F0023B
:1028D0008093EF0288E290E022D19093F2028093FD
:1028E000F1028CE090E01AD190E09093FC0280938A
:1028F000FB028DE090E012D190E09093FE02809375
:10290000FD028EE290E00AD18093E3028CE290E037
:1029100006D19093EE028093ED021092E40244E619
:1029200050E060E483E093E040D144E251E060E4B1
:1029300083EC93E03AD1E9E9F2E06FEE72E023E054
:1029400033E047EF52E00FEF12E083EF682E82E0B2
:10295000782EFA83E983FC83EB8392E0592E44249A
:102960004394812C912CA0E8AA2EB12C148E428E77
:1029700014A242A210A2168EAB81BC818D929D92B0
:10298000AD92BC921397DB018D919D91BD01A98100
:10299000BA8119969C938E931897408EAB81BC8117
:1029A00050961D921D921D921C9253979896CD920F
:1029B000DD92ED92FC929B9736A2D9018D919C916C
:1029C000DA018D939D93AD01D8018D939D938D0177
:1029D0000196D3018D939D933D01A981BA811D96E6
:1029E0009C938E931C975A9431968B819C8104966C
:1029F0009C838B831296BA83A98320543F4F511036
:102A0000B5CF1092E20245E062E080E00F900F90B7
:102A10000F900F90DF91CF911F910F91FF90EF904A
:102A2000DF90CF90BF90AF909F908F907F906F90EE
:102A30005F904F903F902CCE582F8093E2028230CF
:102A400019F0813009F124CE8091EF029091F002CB
:102A50009093E6028093E5028091FB029091FC0244
:102A60009093E8028093E7029093EA028093E90250
:102A700081E08093E1028091FD029091FE029093AB
:102A8000EC028093EB020895E091EF02F091F002E6
:102A9000F093E602E093E5029F01ABEABAEADFD6E3
:102AA000969587959093E8028093E702F093EA0267
:102AB000E093E9025093E1028091F1029091F202D9
:102AC000969587959093EC028093EB020895EFE042
:102AD000F2E02AE690E005C09F5F9732E9F020819E
:102AE00033968213F9CF892F90E0FC01EE0FFF1F80
:102AF0008E0F9F1FFC01E45FFD4F611105C08281B5
:102B0000411105C08F70089581814423D9F38595C3
:102B100085958595859508958FEF0895CDC61F936A
:102B2000CF93DF93EC01C8D6182FCE010196C4D6FF
:102B3000982F812FDF91CF911F910895CF92DF922F
:102B4000EF92FF92CF93DF93EC01E9DF6C01CE01AE
:102B50000296E5DF7C01C701B601DF91CF91FF90BE
:102B6000EF90DF90CF900895EF92FF920F931F9315
:102B7000CF93DF93662391F0EA018C0161507A01D3
:102B8000E60EF11C8FEFE81AF80ACE0195D6F8018F
:102B900081938F012196CE15DF05B9F7DF91CF9193
:102BA0001F910F91FF90EF900895EF92FF920F9376
:102BB0001F93CF93DF93E62E8A01662381F0EC0109
:102BC000F12CC801ACDF99838883C8010296A7DF86
:102BD0008A830D5F1F4FF3942396EF10F2CFDF919E
:102BE000CF911F910F91FF90EF900895282FCB0167
:102BF000622F6AC61F93CF93DF93192FEB01682FC3
:102C0000CE0162D6612FCE010196DF91CF911F9147
:102C10005BC6CF92DF92EF92FF92CF93DF936B016F
:102C20007C01EA01BA01C601E5DFBE016E5F7F4F9C
:102C3000C701DF91CF91FF90EF90DF90CF90DACF77
:102C4000EF92FF920F931F93CF93DF93662391F040
:102C5000EC016150E62EF12C8FEFE81AF80AEC0E29
:102C6000FD1E8A016991C8012FD60F5F1F4FCE1537
:102C7000DF05C1F7DF91CF911F910F91FF90EF908A
:102C80000895EF92FF920F931F93CF93DF93E62E59
:102C90008A01662381F0EC01F12CB80188819981C9
:102CA000A9DF6A81C80102960FD60D5F1F4FF3940A
:102CB0002396EF10F2CFDF91CF911F910F91FF90EC
:102CC000EF900895CF92DF92EF92FF92CF93DF9330
:102CD0006B017C0182E08093C00060E079E08DE3CD
:102CE00090E0A701960190D5DA01C9010197A109E9
:102CF000B109AC01BD017695679557954795842F2D
:102D0000C52F90E0D92F9E01207F3327232BB1F0D0
:102D10001092C00060E874E88EE190E0A70196018F
:102D200073D5DA01C9010197A109B109AC01BD014F
:102D30007695679557954795CA01C92FCF70C0936F
:102D4000C5008093C4008FB7F8941092C604109207
:102D5000C7041092A4041092A5048FBF8091C100F3
:102D600080618093C1008091C10088608093C10020
:102D70008091C10080688093C1008091C1008F7DE7
:102D80008093C100DF91CF91FF90EF90DF90CF90C3
:102D90000895E1ECF0E080818F7E80838081877FE1
:102DA000808380818F77808380818F7D80838FB7C0
:102DB000F894E6EAF4E010A211A2E4E8F4E010A22C
:102DC00011A28FBF0895219A299A23982B9A229AAB
:102DD0002A9A209A289A119A8FB7F894E6EAF4E092
:102DE00010A211A2E4E8F4E010A211A28FBF81E0CA
:102DF0008093830408952198299A23982B9A2298E6
:102E00002A9A2098289A109283048FB7F894E6EAB9
:102E1000F4E010A211A2E4E8F4E010A211A28FBF26
:102E2000089598E008C000002A98299A880F1B99F5
:102E30008F5F915029F0299887FFF5CF2A9AF5CF17
:102E400008959091A5048091A404981709F04899D9
:102E50000895289881E8E5DF489BFECF80E8E1DF10
:102E600087FD0BC0E091A404F0E0EC57FB4F80839A
:102E70008091A4048F5F8093A404289A0895809180
:102E800083048111DEDF8091A4049091A504891B45
:102E90008F7108959091A5048091A404981751F022
:102EA000E92FF0E0EC57FB4F80819F5F9F7190937B
:102EB000A50408958FEF08959091C10093FF16C067
:102EC0009091C6049F5F9F712091C7049217C1F033
:102ED000E091C604F0E0EA55FB4F80839093C6046E
:102EE0008091C10080628093C10008959091830415
:102EF000911101C0089528988F7793DF289A08953B
:102F00002091C10020622093C1002091C704921734
:102F1000E1F3DECF8091C10083FF0FC09091C60422
:102F20008091C704981749F08091C1008062809316
:102F3000C1008091C7049813FCCF0895CF93DF930D
:102F4000EC018881882329F02196B6DF89918111CF
:102F5000FCCFDF91CF9108952F932FB72F939F939D
:102F60008F93EF93FF932091C6008091A4048F5F0D
:102F70008F719091A504891741F0E091A404F0E0CD
:102F8000EC57FB4F20838093A404FF91EF918F9126
:102F90009F912F912FBF2F9118958F938FB78F935C
:102FA0009F93EF93FF938091C7049091C604891378
:102FB00006C08091C1008F7D8093C1000BC0E82FB7
:102FC000F0E0EA55FB4F90818F5F8F718093C704CB
:102FD0009093C600FF91EF919F918F918FBF8F913A
:102FE00018951092D6041092CA042BE0EBECF4E092
:102FF000DF011D922A95E9F71092C9040ACCCF92FD
:10300000DF92EF92FF920F93CF93DF93EC01862F25
:1030100069017A0161111CC081E28883013009F4E1
:103020007FC080E389838C2D8F708A3010F1895C9A
:103030008A83E2E0F0E0EC0FFD1F8DE081831282D5
:10304000DF91CF910F91FF90EF90DF90CF90089597
:10305000402F60E03CDD87FDDFCF9DE39883823029
:1030600069F08330A9F0863059F1E82F880FFF0B03
:10307000E2CF805D8A83E2E0F0E0DDCF8C2D8295A7
:103080008F708A3018F0895C8983CDCF805DCACF7C
:103090008D2D8F708A3008F44EC0895C89838C2D09
:1030A00082958F708A3008F443C0895C8A838C2DA6
:1030B0008F708A30C0F1895C8B83E3E0F0E0BBCF96
:1030C000C701AA27BB27282F22952F702A3008F482
:1030D00041C0295C2D838F708A30C8F1895C8E8352
:1030E000BB27AF2D9E2D8D2D282F22952F702A3096
:1030F00058F1295C2B838F708A3018F1895C8C839E
:103100008C2D82958F708A30C8F0895C89838C2DD4
:103110008F708A3010F5805D8A83E6E0F0E08BCF17
:10312000E0E0F0E088CF805D8B83E3E0F0E083CFE8
:10313000805D8A83BCCF805D8983B1CF805D8983C8
:10314000E6CF805D8C83DCCF205D2B83D4CF805D88
:103150008E83C6CF205D2D83BECF895C8A83E6E057
:10316000F0E069CF0F931F93CF932091CB0420936E
:10317000C8049091CC0491539093C904933028F0E3
:1031800083E0CF911F910F9108958B01C82F61E0CB
:10319000822F9DDC4DEF4C0F082E000C990B242F35
:1031A00030E08217930729F081E0CF911F910F91B2
:1031B0000895442369F0EDECF4E0D8018CEF8C0F16
:1031C00090E082539B4F41914D93E817F907D9F74F
:1031D000F801E20FF31F10828FEFD3CFCF93DF936D
:1031E000EC019091D6049923A1F06A33E1F0E091CB
:1031F000CA0481E08E0F8093CA04F0E0E553FB4FD0
:1032000060836D3011F18B30E9F080E0DF91CF9178
:1032100008956A33D1F71092CA0481E08093D604EE
:103220001092CB04F2CF93E38EEF21E2288320E3C8
:1032300029839A831B829DE09C831092D604DF91A0
:10324000CF91089591E38FEFF0CFBE018BDF982FE0
:103250008F3F59F081E2888380E389839F709A30A1
:1032600048F0995C9A838FEFE5CF1092D604809155
:10327000C804CCCF905D8FEFDCCFFC0191819A33F5
:1032800054F09753892F8F7090819A334CF49F702C
:103290009295892B0895892F8F7090819A33BCF372
:1032A00097539F709295892B0895FC0161816A3331
:1032B00024F16753962F9F7060816A331CF1675326
:1032C0006F706295692B73817A3314F17753972F5E
:1032D0009F7072817A330CF177537F707295792BDE
:1032E00085818A3304F187538F7094819A33FCF47B
:1032F0009F709295892B90E00895962F9F70608122
:103300006A33ECF66F706295692B73817A33F4F649
:10331000972F9F7072817A33FCF67F707295792BAC
:1033200085818A3304F78F7094819A330CF3975315
:103330009F709295892B90E008958091C90408951B
:103340005058BB27AA270ED084C175D130F07AD14E
:1033500020F031F49F3F11F41EF46AC10EF4E095A1
:10336000E7FB37C1E92F86D180F3BA1762077307ED
:103370008407950718F071F49EF5B5C10EF4E09539
:103380000B2EBA2FA02D0B01B90190010C01CA011F
:10339000A0011124FF27591B99F0593F50F4503ECA
:1033A00068F11A16F040A22F232F342F4427585FBC
:1033B000F3CF469537952795A795F0405395C9F7D4
:1033C0007EF41F16BA0B620B730B840BBAF091508C
:1033D000A1F0FF0FBB1F661F771F881FC2F70EC02B
:1033E000BA0F621F731F841F48F4879577956795FE
:1033F000B795F7959E3F08F0B3CF9395880F08F0E7
:103400009927EE0F97958795089556D180F09F37AD
:1034100040F491110EF468C160E070E080E89FE331
:10342000089526F01B16611D711D811DD8C0F2C0C4
:103430000CD00FC107D140F0FED030F021F45F3F37
:1034400019F0C7C0511150C1F3C014D198F399239A
:10345000C9F35523B1F3951B550BBB27AA27621758
:103460007307840738F09F5F5F4F220F331F441F9D
:10347000AA1FA9F333D00E2E3AF0E0E830D09150D5
:103480005040E695001CCAF729D0FE2F27D0660FC2
:10349000771F881FBB1F261737074807AB07B0E801
:1034A00009F0BB0B802DBF01FF2793585F4F2AF017
:1034B0009E3F510568F08DC017C15F3FECF3983E09
:1034C000DCF3869577956795B795F7959F5FC9F774
:1034D000880F911D9695879597F90895E1E0660FFD
:1034E000771F881FBB1F621773078407BA0720F076
:1034F000621B730B840BBA0BEE1F88F7E0950895DF
:10350000C1D088F09F5790F0B92F9927B751A0F0FC
:10351000D1F0660F771F881F991F1AF0BA95C9F767
:1035200012C0B13081F0DFD0B1E00895DCC0672F68
:10353000782F8827B85F39F0B93FCCF38695779517
:103540006795B395D9F73EF4909580957095619500
:103550007F4F8F4F9F4F0895E89409C097FB3EF42B
:1035600090958095709561957F4F8F4F9F4F9923D0
:10357000A9F0F92F96E9BB279395F695879577954E
:103580006795B795F111F8CFFAF4BB0F11F460FF0E
:103590001BC06F5F7F4F8F4F9F4F16C0882311F066
:1035A00096E911C0772321F09EE8872F762F05C07A
:1035B000662371F096E8862F70E060E02AF09A9515
:1035C000660F771F881FDAF7880F9695879597F90A
:1035D000089597F99F6780E870E060E00895882378
:1035E00071F4772321F09850872B762F07C066233C
:1035F00011F499270DC09051862B70E060E02AF0FD
:103600009A95660F771F881FDAF7880F969587952A
:1036100097F908959F3F31F0915020F48795779561
:103620006795B795880F911D9695879597F9089599
:103630009FEF80EC089500240A94161617061806CA
:103640000906089500240A941216130614060506A6
:103650000895092E0394000C11F4882352F0BB0F37
:1036600040F4BF2B11F460FF04C06F5F7F4F8F4F9A
:103670009F4F089557FD9058440F551F59F05F3FD5
:1036800071F04795880F97FB991F61F09F3F79F084
:1036900087950895121613061406551FF2CF469506
:1036A000F1DF08C0161617061806991FF1CF869588
:1036B0007105610508940895E5DFA0F0BEE7B9172C
:1036C00088F4BB279F3860F41616B11D672F782F3A
:1036D0008827985FF7CF869577956795B11D939565
:1036E0009639C8F30895E894BB2766277727CB015E
:1036F00097F908950BD0ADCF9EDF28F0A3DF18F027
:10370000952309F066CF94CF1124EECFB3DFA0F359
:10371000959FD1F3950F50E0551F629FF001729F66
:10372000BB27F00DB11D639FAA27F00DB11DAA1F85
:10373000649F6627B00DA11D661F829F2227B00DD2
:10374000A11D621F739FB00DA11D621F839FA00D5D
:10375000611D221F749F3327A00D611D231F849FAD
:10376000600D211D822F762F6A2F11249F57504004
:103770008AF0E1F088234AF0EE0FFF1FBB1F661F9F
:10378000771F881F91505040A9F79E3F510570F058
:1037900020CFAACF5F3FECF3983EDCF38695779578
:1037A0006795B795F795E7959F5FC1F7FE2B880F53
:1037B000911D9695879597F90895AA1BBB1B51E11A
:1037C00007C0AA1FBB1FA617B70710F0A61BB70B91
:1037D000881F991F5A95A9F780959095BC01CD0136
:1037E000089597FB072E16F4009406D077FD08D0B5
:1037F000E4DF07FC05D03EF4909581959F4F089536
:10380000709561957F4F0895A1E21A2EAA1BBB1BEC
:10381000FD010DC0AA1FBB1FEE1FFF1FA217B3079C
:10382000E407F50720F0A21BB30BE40BF50B661FB2
:10383000771F881F991F1A9469F760957095809576
:1038400090959B01AC01BD01CF010895EE0FFF1FC4
:103850000024001C0BBE0790F691E02D0994A29F56
:10386000B001B39FC001A39F700D811D1124911D54
:10387000B29F700D811D1124911D0895F0DFA59F49
:10388000900DB49F900DA49F800D911D112408955B
:10389000B7FFF4CFF3DF821B930B0895FB01DC012C
:1038A0004150504030F08D910190801919F4002062
:1038B000B9F7881B990B0895F999FECF92BD81BD88
:1038C000F89A992780B50895262FF999FECF1FBA47
:1038D00092BD81BD20BD0FB6F894FA9AF99A0FBE39
:0838E00001960895F894FFCF52
:1038E8000300010806040201414551006A006666AA
:1038F80000334966004722004A00004B0000486632
:10390800004D660065006661006662006667002219
:103918007300664566005011004600004C000056D2
:1039280022007106264F1100416600426600536668
:10393800006E00664E6600442200640022431100B7
:103948006300225A22007A002252660072006651F1
:1039580024006F0022586400780066592200541130
:0239680000005D
:00000001FF
