:10000000DAC0000002C1000000C10000FEC0000014
:10001000FCC00000FAC00000F8C00000F6C00000FC
:10002000F4C00000F2C00000F0C00000EEC000000C
:10003000ECC00000EAC00000E8C00000E6C000001C
:100040000C949210E2C00000E0C00000DEC000008E
:10005000DCC00000DAC00000D8C00000D6C000003C
:10006000D4C000000C944E150C946F15CEC0000047
:10007000CCC00000CAC00000C8C000000C94940F9F
:10008000C4C00000C2C00000C0C00000BEC000006C
:10009000BCC00000BAC00000B8C00000B6C000007C
:1000A000B4C00000B2C00000B0C00000AEC000008C
:1000B000ACC00000AAC00000A8C00000A6C000009C
:1000C000A4C00000A2C00000A0C000009EC00000AC
:1000D0009CC000009AC0000098C0000096C00000BC
:1000E00094C00000AE07C507E107FA0714086F07C0
:1000F00040084F086F076F0759086F076F076F07B2
:100100006F076F076F076F076F076F076F076F073F
:100110006F076F076F076F076F076F076408720835
:100120006F076F079908C208A7086F076F07B10824
:100130006F076F076F076F076F076F076F076F070F
:100140009307600A4C0AD509BE0973077307730742
:10015000730773077307730773077307740A7307CB
:100160007307EE09970983092B0A7307730773074F
:10017000FF09EA08AD09730773077307730773076D
:10018000730773077307420AE4097307730773075A
:10019000730773077307730773077307390A7307C6
:1001A00073076E0963097307730773077307730790
:1001B0003A0973072E0911241FBECFEFD1E2DEBF2B
:1001C000CDBF0FB6F894A8958091600088618093A8
:1001D0006000109260000FBE12E0A0E0B2E0EEE41A
:1001E000F3E300E00BBF02C007900D92AC37B107FC
:1001F000D9F725E0ACE7B2E001C01D92A535B20702
:10020000E1F70E94020B0C94A519FACEA59A109260
:10021000AE0208954FB7F8941092B002F098109281
:10022000A0022091EB023091EC028091E7029091C4
:10023000E8028217930758F08091F3029091F4023C
:1002400001969093E8028093E7024FBF0895809152
:10025000F3029091F4022817390790F73093F402D3
:100260002093F302C90101969093E8028093E7027C
:100270004FBF08954FB7F8941092B1021092A102A7
:10028000F1982091ED023091EE028091E902909177
:10029000EA028217930758F08091F5029091F602D6
:1002A00001969093EA028093E9024FBF08958091EE
:1002B000F5029091F6022817390790F73093F6026D
:1002C0002093F502C90101969093EA028093E90216
:1002D0004FBF0895883018F4880F880F880F613059
:1002E00061F108F1623069F06330B1F48830D9F11E
:1002F000803209F04AC08AE28093000280930102B2
:100300000895883059F1803299F58AE2809300028D
:1003100088E280930102089587E08093000281E0E3
:10032000809301020895883099F08032A9F782E025
:1003300080930002809301020895883049F0803252
:10034000F1F487E08093000282E080930102089537
:1003500083E08093000210920102089560930002EE
:100360001092010208951092000210920102089565
:1003700087E08093000285E080930102089584E085
:100380008093000260930102089580E1809300024F
:1003900088E28093010208954F925F926F927F925C
:1003A0008F929F92AF92BF92CF92DF92EF92FF9285
:1003B000CF93DF93C82FD0E0FE01EE0FFF1FEE0FAB
:1003C000FF1FE057FD4F86A897A8A0ACB1AC60E036
:1003D00072E18AE790E0A50194010E943D1969014C
:1003E0007A010E94F8172B013C01C501B4010E945B
:1003F000F8179B01AC01C301B2010E94641720E011
:1004000030E040E052E40E94C61820E030E040E0D6
:100410005FE30E94ED160E94CC174B015C01E114D2
:10042000F10451F480E8C816D104E104F10408F0A5
:1004300066C020E830E002C02FEF3FEFCE0100247D
:10044000969587950794969587950794982F802D74
:10045000FC01ED53FB4F8D5F9A4F21933193E817C9
:10046000F907D9F781149104A104B104C9F1C501B8
:10047000B4010E94F8172B013C01C12CD12C76014C
:10048000CC0FDD1FC295D295D07FDC27C07FDC2743
:10049000C701B6010E94F81720E030E040E052E4C6
:1004A0000E94C618A30192010E9464170E9451176E
:1004B0000E94CC17FE01E60FF11DEE0FFF1FED535A
:1004C000FB4F808191810196918380838FEFC81AC1
:1004D000D80AE80AF80A8C149D04AE04BF04C1F6D9
:1004E000DF91CF91FF90EF90DF90CF90BF90AF90D2
:1004F0009F908F907F906F905F904F90089596019E
:100500009DCF0F931F93CF9308E010E0C0E0C80188
:100510000E9438139C2F982788E027E0990F08F451
:1005200092278A95D9F7C92F0F5F1F4F043E81E0AC
:10053000180769F7911101C0C1E08C2FCF911F916D
:100540000F910895CF9387E090E00E943813C82F51
:10055000D8DF91E0C81390E0892FCF9108951F93C1
:10056000CF93DF9300D000D0CDB7DEB7182F40E097
:1005700050E063E0CE0101960E945E1343E050E03C
:1005800063E072E0CE0101960E948119892B49F047
:1005900080E00F900F900F900F90DF91CF911F91FF
:1005A000089543E050E064E0CE0101960E945E139E
:1005B00044E050E067E072E0CE0101960E948119AC
:1005C000892B31F7112379F180914305843000F7AD
:1005D000882369F18091C2048132D0F68091E302D0
:1005E0009091E402C2978F37944090F68091E50293
:1005F0009091E602C2978F37944050F68091EF02B7
:100600009091F002892B21F28091F1029091F202F7
:10061000892B09F4BDCF9091D902915081E093319B
:1006200008F4B7CFB5CF8EDF8111CECFB1CF809197
:10063000C204813198F2ACCF89E090E00E94381377
:1006400091E0811101C090E09093C0048AE090E0B5
:100650000E94381391E0811101C090E09093C10491
:100660008BE090E00E9438138093430588E090E08F
:100670000E9438138093C2048BE290E00E943813EA
:1006800091E0811190E09093800281E09091C2040A
:10069000983008F080E0809382028AE290E00E9425
:1006A000381391E0811190E0909381029091C204FF
:1006B000983010F08111EFC01092830241E06AE29D
:1006C00073E080E090E00E94931560914305809173
:1006D000C20400DE80E043DF8111E2C081E080934C
:1006E0008502279A80918502813009F41EC12F98D6
:1006F0005098589A099A119A23982B9A2098289AD8
:1007000022982A9A2198299A819A8998809A889879
:100710009D9AA59A80910101806280930101809148
:1007200002018062809302016B9A7398269A2E9838
:100730006D9A75988091010180618093010180918B
:1007400002018F7E80930201E0918202F0E0E0508E
:10075000FE4F8081282F21709091050180FF56C0A7
:10076000916090930501982F98703091040183FD5A
:1007700056C0316030930401222309F455C0599AC0
:10078000911156C0519A282F22709091020181FF39
:1007900056C0926090930201982F907130910101A0
:1007A00084FD56C0326030930101222309F455C004
:1007B0005A9A911156C0529A282F24709091020192
:1007C00082FF56C0916090930201982F907285FD30
:1007D00056C080910101816080930101222309F4B8
:1007E00055C05B9A992309F454C053988FE99FE050
:1007F0000197F1F700C00000899A889A0E949D1421
:1008000060E875E280E090E00C940C149E7F909379
:100810000501982F98703091040183FFAACF3E7F85
:10082000309304012111ABCF5998992309F4AACF31
:100830005198282F22709091020181FDAACF9D7FAF
:1008400090930201982F90713091010184FFAACFFB
:100850003D7F309301012111ABCF5A98992309F4C0
:10086000AACF5298282F24709091020182FDAACF1E
:100870009E7F90930201982F907285FFAACF80915E
:1008800001018E7F809301012111ABCF5B98911103
:10089000ACCF539AABCF81E08093830248E00FCF77
:1008A00080E07ADD81E078DD4091EF025091F00246
:1008B000A7EFB2E0E7EBF3E020E030E00CC01296E7
:1008C0008C91129790E00196280F391F139683E0C0
:1008D000A73BB80731F08D919C91119748175907A4
:1008E00070F33093BD042093BC044091F102509109
:1008F000F20220E030E00AC0828190E00196280FE9
:10090000391F339694E0E737F90729F08081918108
:100910004817590788F33093BF042093BE04279AE1
:1009200080918502813009F0E2CE2F9AE1CE40E03D
:1009300050E063E083E092E00E94CA1343E050E09D
:1009400064E087E092E00C94CA13CF93DF93C0E990
:10095000D2E06EA57FA588A999A94EE050E00E943B
:10096000B3136AA97BA98CA99DA942E150E00E941A
:10097000B3136EA97FA988AD99AD46E150E00E94FE
:10098000B3136AAD7BAD8CAD9DAD4AE150E00E94E2
:10099000B3136091D0027091D1028091D2029091F4
:1009A000D3024EE150E00E94B3136091D4027091E3
:1009B000D5028091D6029091D70242E250E00E9487
:1009C000B313C0ECD4E069E070E088810E94A0130A
:1009D0006AE070E089810E94A0136BE070E0809172
:1009E00043050E94A01368E070E08091C2040E9459
:1009F000A0136CE070E08091EF020E94A0136DE004
:100A000070E08091F1020E94A01366E270E0809194
:100A1000E3029091E4020E94A41368E270E08091E6
:100A2000E5029091E6020E94A41380918102C1E048
:100A30006AE270E08C270E94A013809180026BE232
:100A400070E08C270E94A0136CE270E08091E102BC
:100A50009091E2020E94A4136EE270E08091D902AC
:100A60000E94A01344E650E060E487EF92E00E9409
:100A7000EB1344E251E060E487EB93E00E94EB1358
:100A800040DD67E070E0DF91CF910C94A0131198E6
:100A9000000000000000000080918002882321F007
:100AA000489B02C082E00895119A000000000000F7
:100AB000000089B1809581700895489B14C01198F9
:100AC0008AE000008150E9F7099888EC0000815025
:100AD000E9F7489B04C082E0099A119A089581E0E1
:100AE000099A119A089580E0099A119A08958091BF
:100AF00098029091990220916F002F7D20936F00B2
:100B000020919A0030919B0040916F004062409389
:100B10006F004091EB025091EC02782F692F8417FF
:100B2000950710F4742F652FE091B202E11149C0CE
:100B30002417350708F045C040916F004F7D409362
:100B40006F009093E8028093E70230939B0020931C
:100B50009A007093F3026093F4029091C004809124
:100B6000AC02981789F1759AEE2329F181E090E0A3
:100B700090938B0080938A008091F90280937E028B
:100B800010927C021BBC1092850010928400809110
:100B9000C3049091C4049093870080938600809151
:100BA0008100897F809381008091810081608093A2
:100BB00081001092B20280916F00806280936F007A
:100BC0000895272F362FB8CF7598CECF80919A02EF
:100BD00090919B02209171002F7D209371002091B4
:100BE00098003091990040917100406240937100EB
:100BF0004091ED025091EE02782F692F84179507EE
:100C000010F4742F652FE091B302E1114DC0241749
:100C1000350708F049C0409171004F7D4093710045
:100C20009093EA028093E902309399002093980010
:100C30007093F5026093F6029091C1048091AD0229
:100C40009817A9F180910201806180930201EE233F
:100C500029F181E090E09093890080938800809151
:100C6000B90380937F0210927D021ABC1092950006
:100C70001092940080910305909104059093970041
:100C80008093960080919100897F8093910080915C
:100C900091008160809391001092B3028091710065
:100CA0008062809371000895272F362FB4CF8091F2
:100CB00002018F7E80930201CACF3F924F925F92D2
:100CC0006F927F928F929F92AF92BF92CF92DF925C
:100CD000EF92FF92CF93DF93E82FF0E0DF01AA0FAE
:100CE000BB1FED01C454DB4FE880F980EF01C05712
:100CF000DD4F9CA1992329F0A701440F551FE40E55
:100D0000F51E9A8D19160CF093C03A8C9C8D9F019C
:100D1000220F331F220F331FE901C057DD4F4A89CD
:100D20005B896C897D89A32CB12C2501440C551C51
:100D3000052C000C660877084415550566057705EF
:100D400030F44A8A5B8A6C8A7D8AB301A201AE9C28
:100D50006001AF9CD00CBE9CD00C11244A015B01F9
:100D6000B694A79497948794A151BD4F0D90BC91D0
:100D7000A02DC8E03C1609F457C0E12CF12C8C14CE
:100D80009D04AE04BF0410F4750164014C195D09A3
:100D90006E097F09E901C057DD4FC880D980EA801C
:100DA000FB80992339F070956095509541955F4F80
:100DB0006F4F7F4FE901CA57DD4F4C0D5D1D6E1D12
:100DC0007F1D488359836A837B83EE0FFF1FE8569C
:100DD000FD4FB183A0839EB3811113C09B7F9EBB47
:100DE000F09ADF91CF91FF90EF90DF90CF90BF907E
:100DF000AF909F908F907F906F905F904F903F90BB
:100E000076CE977F9EBBF19ADF91CF91FF90EF90C6
:100E1000DF90CF90BF90AF909F908F907F906F901A
:100E20005F904F903F90D2CE487FC8EF8C22A5CFE5
:100E30009A8D392E31946ACF811106C08091B20209
:100E4000811101C0E7C9089580916F008F7D809363
:100E50006F0080918100887F809381001092B002A2
:100E600081E08093B2021092A00210928E02F0985C
:100E70000895811106C08091B302811101C0FAC9A1
:100E80000895809171008F7D809371008091910011
:100E9000887F809391001092B10281E08093B30229
:100EA0001092A10210928F02F1980895CF92DF92D2
:100EB000EF92FF920F931F93CF93DF93082FEB01D5
:100EC0000E94E916182F802F002E000C990BAA0BF8
:100ED000BB0BFC01E554F109EF32F10500F1209163
:100EE0008502211190C120E030E0A901602FCE01E0
:100EF0000E94A1150A3489F48091850281110DC0E8
:100F0000812F90E0FC01E257FD4F21E02083FC019E
:100F1000E057FD4F808980FF20A311E015C0EE58F7
:100F2000FF4F0C945F19E12FF0E0EE0FFF1FEE0F63
:100F3000FF1FE053FD4F208131814281538111E039
:100F4000602FCE010E94A115812FDF91CF911F91BB
:100F50000F91FF90EF90DF90CF900895FFB6F89437
:100F6000CE010E94BF16E12FF0E0EE0FFF1FEE0F43
:100F7000FF1FE057FD4F6083718382839383FFBE21
:100F800011E020E030E0A901DBCF809185028111E2
:100F90002CC11111B9C2A59881E08093AE021092C4
:100FA000710010926F001092800088E180938100A0
:100FB000109290008093910011E020E030E0A901B0
:100FC000BFCFE12FF0E0DF01A057BD4F88818053F4
:100FD00050968C93509781E09981903309F41EC10B
:100FE0005C968C93E257FD4F108211E020E030E0D8
:100FF000A901A6CFCE010E94BF16E12FF0E0DF01CC
:10100000AA0FBB1FAA0FBB1FA057BD4F52966D93CF
:101010007D938D939C935597E257FD4F108211E07D
:1010200020E030E0A9018CCFCE010E94BF16212F15
:1010300030E040EC149FF0011124EC54FC4FC080D0
:10104000D180E12CF12CF901EE0FFF1FE856FD4F86
:10105000462F572FBC014C155D056E057F0508F422
:10106000CDC051834083F901E257FD4F808182302A
:1010700009F4ECC0108211E020E030E0A90160CF5B
:1010800080E0112309F4BDC0F4DEE12FF0E0E25767
:10109000FD4F108211E020E030E0A90151CF81E046
:1010A00011118BC0C9DEB2D811E020E030E0A901F7
:1010B00047CF88818053809385028111B1C010E0B1
:1010C00020E030E0A9013CCFE12FF0E0EE0FFF1F60
:1010D000EE0FFF1FE057FD4F26A537A540A951A9E8
:1010E00011E02ECFE12FF0E0DF01AA0FBB1FAA0F06
:1010F000BB1FA057BD4FD6962D913D914D915C9150
:10110000D99780918502811156C0EE0FFF1FED51D6
:10111000FD4F0190F081E02DEE0FFF1FDF011196D2
:101120000E9477199F0140E050E00E943D1911E0B4
:1011300007CFE12FF0E0EE0FFF1FEE0FFF1FE0578C
:10114000FD4F26A137A140A551A511E0F9CEE12F11
:10115000F0E0E057FD4F26AD30E040E050E011E018
:10116000EFCE8FB7F894E12FF0E0EE0FFF1FEE0FF8
:10117000FF1FE057FD4F20813181428153818FBF96
:1011800011E0DECEE12FF0E0E057FD4F84A18111A8
:1011900032C020E030E0848D8111326080A1811165
:1011A00001C0316082A1811101C02061868D811151
:1011B000216040E050E011E0C3CE5BDE809102018F
:1011C0008062809302011092AF0211E020E030E0D3
:1011D000A901B6CECE010E94B016E12FF0E0E4588E
:1011E000FD4F8083803408F43FC111E020E030E0FF
:1011F000A90100E0A5CE20E034E0CDCFB701A601E3
:1012000030CF1ADE42CFFC01E154F109EA33F10597
:1012100008F069CEEF55FF4F0C945F1980E0E0CEE7
:1012200081E00ADE0E94060181E023DE8091020156
:101230008062809302011092AF0210928E0210928F
:101240008F0211E020E030E0A9017ACE111165C1D2
:101250004EDC11E020E030E0A90172CEE12FF0E099
:10126000EE0FFF1FE151FD4F2081318140E050E042
:1012700011E066CEE12FF0E0DF01A458BD4F6C9184
:10128000262F30E0C901880F991F820F931F40EC71
:101290004E9F90014F9F300D1124820F931F805756
:1012A0009D4FFC01E959FF4F108171813296212F2A
:1012B000372F408150E081E0860F803408F040C134
:1012C0008C9311E03DCE112309F45FC12091E1021E
:1012D0003091E20240E050E011E032CE112309F4F7
:1012E00047C190918102292F30E040E050E0809189
:1012F000C204883008F45BC181E089278170809343
:10130000830211E01DCECE010E94BF16E12FF0E056
:10131000EE0FFF1FEE0FFF1FE053FD4F6083718341
:101320008283938311E020E030E0A90109CECE0151
:10133000112309F408C10E94BF166115710521E04F
:101340008207910508F051CF7093E2026093E102A9
:1013500011E020E030E0A901F3CDCE010E94B016EB
:10136000E12FF0E0EE0FFF1FE151FD4F90E0918380
:10137000808311E020E030E0A901E2CDCE0111230D
:1013800009F40AC10E94B0168093C204883008F4A0
:1013900011C19091810281E089278170809383023D
:1013A00011E020E030E0A901CBCDE12FF0E0E054E6
:1013B000FB4F81E09881903309F4F7C0808311E0FE
:1013C00020E030E0A901BCCD112309F4CAC020916E
:1013D000C20430E040E050E011E0B2CDCE01112374
:1013E00009F4A1C00E94B01691E0811101C090E003
:1013F0009093810211E020E030E0A901A1CDCE015F
:101400000E94BF16E12FF0E0DF01A458BD4F9C9170
:10141000292F30E0A901440F551F420F531F10EC34
:101420001E9F90011F9F300D1124240F351F205740
:101430003D4FF901E959FF4F7183608332968083F4
:1014400081E0890F803408F09AC08C9311E020E08D
:1014500030E0A90175CD223009F4CEC0233009F463
:10146000C5C0213009F4A9C011E020E030E0A90195
:1014700067CDE12FF0E0EE0FFF1FED51FD4F208112
:10148000318197CEE12FF0E0E054FB4F208130E036
:1014900040E050E011E054CDCE010E94BF16E12F94
:1014A000F0E0EE0FFF1FEE0FFF1FE057FD4F66ABA2
:1014B00077AB80AF91AF11E020E030E0A90140CDE3
:1014C000CE010E94BF16E12FF0E0EE0FFF1FEE0FDE
:1014D000FF1FE057FD4F66A777A780AB91AB11E0E8
:1014E00020E030E0A9012CCDCE010E94BF16E12FF3
:1014F000F0E0EE0FFF1FED51FD4F7183608311E0AF
:1015000020E030E0A9011CCD809102018F7D809305
:10151000020181E08093AF0242CD58DB11E020E070
:1015200030E0A9010DCD0E94B01691E0811101C0FB
:1015300090E09093800211E020E030E0A90100CD1E
:101540001C9211E0FDCC0E94B0169FEF980F9331D2
:1015500008F04BCE8093D90211E020E030E0A901E1
:10156000EFCC2091430530E040E050E011E0E8CCC2
:101570002091800230E040E050E011E0E1CC1C928C
:1015800011E020E030E0A901DBCC2091D90230E06D
:1015900040E050E011E0D4CC0E94B01680934305A7
:1015A00011E020E030E0A901CBCC80E007CF80E063
:1015B00090E0A4CE80E090E0F0CE81E0988190337E
:1015C00009F480E00E94AF02882309F40ECE0E9445
:1015D000A202811149CF0E94810267E070E00E945F
:1015E000A01311E020E030E0A901AACCA0D911E0BD
:1015F00020E030E0A901A4CCA8D911E020E030E03F
:10160000A9019ECCCF93DF93CDB7DEB72F970FB64E
:10161000F894DEBF0FBECDBF78940ED880918402BF
:10162000BB24BA94DD24DA94612C1F86F12CC12CE2
:1016300000E010E0AA24A39499249A9492E0792ED1
:10164000212C312C20E8422E512C38E1832E0F5FC3
:101650001F4F811141C10115110509F0A5C08091ED
:101660008502882309F437C2809102028111A1C04A
:1016700085B1805885B921DAE82E8091D802E81624
:1016800009F445C08E2D4CD680918302882321F029
:1016900092E0E91609F4B2C3809100029091AC0285
:1016A000992309F445C39092AA021092B402909132
:1016B000AD02992309F439C39092AB021092B5029E
:1016C000382F31709091050180FFF7C2916090939F
:1016D0000501282F22709091020181FFEAC29260D9
:1016E00090930201982F947082FFDDC280910201D5
:1016F000816080930201332309F4D3C2599A2223D3
:1017000009F4CDC25A9A992309F4C7C25B9A189B6F
:10171000EFC01B9BACC2EE24EA9480E09FB7F89424
:1017200060919A0070919B009FBF2091B20221119D
:101730003EC14091AC0250E0E82FF0E04E175F0749
:1017400009F435C14091EB025091EC026417750722
:1017500008F02DC10E940A01199B55C11A9B82C233
:10176000EE24EA9480E09FB7F8944091980050915D
:1017700099009FBF9091B30291117DC12091AD025C
:1017800030E0682F70E02617370709F461C2209116
:10179000ED023091EE024217530708F059C20E9441
:1017A0003A018091840253CF90910202992309F467
:1017B0009BC08EEFF81609F4A4C00E94E1148823A0
:1017C000E1F085B1805885B90E94EC14C82E6C2DCB
:1017D000CE0101960E946F16F82E882371F00CF44A
:1017E0006AC1BE016F5F7F4F61DBE82ECE010196BB
:1017F0000E944015EE2009F464C20115110509F09C
:1018000084C080918502813009F420C22F98809194
:101810008402811151C0189B38C2E3B0E3FAEE2470
:10182000E0F8E194ED1449F08091AC02811105C01B
:1018300080918E02823009F4CDC2199B23C2D3B0AD
:10184000D2FADD24D0F8D1948091B102811141C146
:10185000DB1409F43EC181E0D81280E09091B3021C
:10186000911111C02091AD02281769F00E943A0130
:1018700010928F0280918E02813009F439C38091D9
:101880008402DE2CE4CE2FEFD21609F41EC1209183
:10189000DF023091E00230939B0220939A02809302
:1018A000AD0281E0D81609F45AC2A092AB028ED9DB
:1018B000BD2CDE2C6624639480918E02813081F1F0
:1018C00080918F02813009F4A6C0809184020F5F5D
:1018D0001F4F882309F4BFCE90910202911169CF66
:1018E0000115110509F4C4CE0111B1CE189911CF1B
:1018F00081E0D81609F430CF8091DE02EE24E39423
:101900000DCF85B1805885B962CF80918402811155
:10191000D3CF002309F47FCF80918E02813081F6EE
:101920008091B202882361F29091A002809183029B
:10193000882309F4E6C18FEF890F823008F4A4C22E
:10194000809101022091CE023091AC023111FFC191
:101950002093AA02A092B4022091050180FF36C212
:101960002160209305012091040183FD2BC2216099
:10197000209304012091020181FF20C22260209364
:1019800002012091010184FD15C222602093010112
:101990002091020182FFFEC121602093020185FD9A
:1019A000F3C180910101816080930101B2C19FEF79
:1019B000E91609F46DC1EE2DEE0FFF0BE652FD4F57
:1019C000408151815093990240939802982F9170D1
:1019D0009093AC029091B402992309F470C0909155
:1019E000CE02882309F46EC091959093AA028FEFDE
:1019F000E81205C08091D802823009F49CC177D8E2
:101A0000DE2C1999ABCE91E0B91609F45ECFEE2425
:101A1000E39481E0A8CE9091B302992309F455CFC5
:101A20002091A10290918302992309F459C19FEF5B
:101A3000920F923008F41DC2909101028091CF0262
:101A40003091AD02311187C18093AB02A092B502F3
:101A500090FFAEC1599A93FDA9C1519A91FFA4C1BB
:101A60005A9A94FD9FC1529A92FF9AC15B9A95FD32
:101A700095C1539A3DC12FEFE21609F451C120914F
:101A8000DF023091E00230939B0220939A02809310
:101A9000AD029091B502992309F4F2C09091CF0262
:101AA000882309F4EAC091959093AB028FD8809176
:101AB0008402BE2CCCCDCE010196E2D79ECE91E021
:101AC000811192CF9093AA0292CF611007C2BB24DA
:101AD000BA94DE2CF1CE0E944705E82E882309F443
:101AE000C3CD81E0A9D981E0C4D98FB7F894209201
:101AF0009002309291024092920250929302209270
:101B000094023092950240929602509297028FBFB3
:101B1000E2D6A092840222E0E21609F4F0C110920B
:101B20000202119AE0918202F0E0E050FE4F8081C3
:101B3000282F21709091050180FD14C19E7F909304
:101B40000501982F98703091040183FD8EC131609A
:101B500030930401222309F486C1599A911181C15D
:101B6000519A282F22709091020181FF76C19260D4
:101B700090930201982F90713091010184FD69C109
:101B8000326030930101222309F461C15A9A911104
:101B90005CC1529A282F24709091020182FF51C19A
:101BA000916090930201982F907285FD44C18091BD
:101BB0000101816080930101222309F43AC15B9AFB
:101BC000911135C1539A80E0ABD31092B4021092B8
:101BD000B502A598A092AE021092710010926F000B
:101BE000109280008092810010929000809291006B
:101BF000809102018F7D80930201A092AF0210922A
:101C0000710010926F0010928000809281001092FB
:101C1000900080929100A092A002A092A102109246
:101C2000AC02A092AA021092AD02A092AA028091E8
:101C3000E3029091E4029093990280939802A0921B
:101C40008E02BB24BA94DD24DA940ECD2F9ADFCD18
:101C50009FEFE91214CF0E943A0180918402BB24C5
:101C6000BA94F5CCBB2009F430CEE12C7BCDDD203D
:101C700009F472CDE12C80E051CD9093AB0216CFE8
:101C800091E00ECFDD24D394DFCDEE24E394CACDD2
:101C90004091E3025091E40295CE5B9838CD5A987A
:101CA00032CD59982CCD809102018E7F8093020114
:101CB00022CD9D7F9093020115CD9E7F90930501CB
:101CC00008CDCAD69BE088E10FB6F894A89580931A
:101CD00060000FBE9093600080E090E00E94A51924
:101CE0009091AD02911130C08093AB021092B50279
:101CF00020FF42C00E94E60570928F02809184020C
:101D0000A6CC8091AC0281111CC0A092AA021092B4
:101D1000B40290FF2BC00E94770570928E02D0CD46
:101D200080918402BB24BA9492CCA092AB02C6CC20
:101D3000A092AA02BACC222309F4B1C0DD24DA941D
:101D40000BCD9092AA02E3CF9092AB02CFCF219518
:101D50002093AA02FFCD81958093AB0277CE90921B
:101D6000AB02A5CD916090930501EBCE80E00E947F
:101D70005D0610928E02A4CD81E00E945D06109255
:101D80008F028091840263CC809101018E7F8093C9
:101D90000101BFCF2E7F2093020101CE5398A8CF1F
:101DA0005B9865CE529860CE5A985BCE519856CECD
:101DB000599851CE2D7F20930101EACD2D7F20939C
:101DC0000201DFCD2E7F20930401D4CD2E7F2093FE
:101DD0000501C9CD9FEFE91609F466C0EE2DEE0F9F
:101DE000FF0BE652FD4F8081918190939902809381
:101DF00098020E94770521E02F871FCD8091010274
:101E00009091CE022091AC0221115EC09093AA0263
:101E1000A092B4029091CF022091AD02222309F446
:101E200064C091959093AB02A092B50249CC5398AF
:101E3000CACE5B98C5CE809101018E7F809301014F
:101E4000BBCE9E7F90930201AECE5298A3CE5A98FD
:101E50009ECE3D7F3093010196CE9D7F90930201EF
:101E600089CE51987ECE599879CE3E7F3093040129
:101E700071CE909100023091AD0231112CC080934F
:101E8000AB021092B502E4CD809100022091AC0229
:101E900021111EC0A092AA021092B4025DCD0E9430
:101EA0000A01DD24DA9458CC8F85882309F4C5CC47
:101EB0008091E3029091E4029093990280939802BA
:101EC0000E9477051F86B9CC91959093AA02A0CF66
:101ED0009092AA02E1CF9092AB02D3CF9923E9F07E
:101EE000BB24BA94DE2C612CE7CC9093AB029CCF40
:101EF0008091B202DE2C882309F4E7CC15CDA092A4
:101F0000020203D520E030E0A90160E0CE010C968A
:101F100018D6CE010C96B4D5A7CB0E943A01BB24AB
:101F2000BA94DE2C612CC8CC1F920F920FB60F9280
:101F300011240BB60F920F931F932F933F934F9340
:101F40005F936F937F938F939F93EF93FF93809112
:101F5000880090918900019709F060C08AB5E82F48
:101F6000EE73F0E0ED5FFA4F2081318130939700FE
:101F7000209396008F5F8ABD809198009091990080
:101F800090938900809388001E9B5FC02E980091DB
:101F900094021091950220919602309197024091FF
:101FA000AB02042E000C550B660B770B400F511F34
:101FB000621F731F409394025093950260939602A0
:101FC00070939702F19B10C0F3990EC000918A02A2
:101FD00010918B0220918C0230918D024017510795
:101FE0006207730709F487C02091F5023091F60269
:101FF00028173907B8F4F19B03C01092B102F19889
:1020000081E08093B302809171008F7D8093710095
:1020100080919100887F8093910004C09093890003
:1020200080938800FF91EF919F918F917F916F91A5
:102030005F914F913F912F911F910F910F900BBE88
:102040000F900FBE0F901F9018952E9A20917F022F
:10205000211123C02091E9023091EA0228173907A3
:1020600000F580917D028F3398F48F5F80937D021D
:1020700090E0AC01440F551F840F951F80579D4F72
:10208000FC01E95DFE4F408151812417350718F1AD
:102090003093990020939800C5CF215020937F0260
:1020A000C1CF8217930728F580917D02882381F3A1
:1020B000815080937D0290E0AC01440F551F840F46
:1020C000951F80579D4FFC01E95DFE4F4081518176
:1020D00042175307E8F62091B5022223D9F0329631
:1020E0008081982F990F890F8E5F80937F029A01CC
:1020F000CFCF9C01CDCFF39A2091F5023091F6021B
:10210000A9014F5F5F4F5093EA024093E90210929A
:102110007F026ECFFC01E75DFE4F808180937F02DE
:102120009A01B6CF1F920F920FB60F9211240BB6E1
:102130000F920F931F932F933F934F935F936F9340
:102140007F938F939F93EF93FF9380918A00909159
:102150008B00019709F060C08BB5E82FEE73F0E0BB
:10216000ED53FB4F2081318130938700209386000F
:102170008F5F8BBD80919A0090919B0090938B0014
:1021800080938A00639B5FC07398009190021091C6
:10219000910220919202309193024091AA02042E62
:1021A000000C550B660B770B400F511F621F731FFE
:1021B0004093900250939102609392027093930225
:1021C000F09B10C0F2990EC0009186021091870218
:1021D00020918802309189024017510762077307E6
:1021E00009F487C02091F3023091F40228173907CF
:1021F000B8F4F09B03C01092B002F09881E0809395
:10220000B20280916F008F7D80936F00809181007A
:10221000887F8093810004C090938B0080938A0014
:10222000FF91EF919F918F917F916F915F914F916E
:102230003F912F911F910F910F900BBE0F900FBEEA
:102240000F901F901895739A20917E02211123C040
:102250002091E7023091E8022817390700F58091B4
:102260007C028F3398F48F5F80937C0290E0AC0106
:10227000440F551F840F951F80579D4FFC01E9594E
:10228000FF4F408151812417350718F130939B008F
:1022900020939A00C5CF215020937E02C1CF821790
:1022A000930728F580917C02882381F381508093E5
:1022B0007C0290E0AC01440F551F840F951F80579E
:1022C0009D4FFC01E959FF4F40815181421753074F
:1022D000E8F62091B4022223D9F032968081982F1B
:1022E000990F890F8E5F80937E029A01CFCF9C0158
:1022F000CDCFF29A2091F3023091F402A9014F5F01
:102300005F4F5093E8024093E70210927E026ECF37
:10231000FC01E759FF4F808180937E029A01B6CF7E
:10232000482F8093D8028230A9F1813009F44AC045
:102330008091E3029091E40244E1489FF001499FBB
:10234000F00D11242091D90230E0B9016C5E7F4F6D
:10235000CF017FD77093DB026093DA0264E170E013
:10236000621B730BCF0175D77093DD026093DC02A3
:102370001092DE026091E5027091E602469FC00174
:10238000479F900D1124B90164D77093E0026093C8
:10239000DF0208958091EF029091F0029093DB02AA
:1023A0008093DA029093DD028093DC0281E08093D7
:1023B000DE028091F1029091F2029093E00280930C
:1023C000DF020895E091E302F091E4029F01ABEA9D
:1023D000BAEA7ED7969587959093DB028093DA02CE
:1023E000F093DD02E093DC024093DE028091E5028F
:1023F0009091E602969587959093E0028093DF0294
:1024000008952F923F924F925F926F927F928F9298
:102410009F92AF92BF92CF92DF92EF92FF920F9373
:102420001F93CF93DF9300D000D0CDB7DEB76B0101
:102430007C01342E8EE090E02BD16093BE0270932D
:10244000BF028093C0029093C10282E190E020D14C
:102450006093C2027093C3028093C4029093C5023A
:1024600086E190E015D16093C6027093C702809315
:10247000C8029093C9028AE190E00AD16093CA022F
:102480007093CB028093CC029093CD028EE190E0CA
:10249000FFD06093D0027093D1028093D2029093C8
:1024A000D30282E290E0F4D06093D4027093D5021C
:1024B0008093D6029093D70286E290E0DAD0909390
:1024C000E4028093E30288E290E0D3D09093E602A6
:1024D0008093E5028CE090E0CBD090E09093F00206
:1024E0008093EF028DE090E0C3D090E09093F202F1
:1024F0008093F1028EE290E0BBD08093D9028CE20F
:1025000090E0B7D09093E2028093E10244E650E07D
:1025100060E487EF92E0F3D044E251E060E487EBBF
:1025200093E0EDD0E0E9F2E063EE72E047EF52E0D5
:102530000BEE12E083EF682E82E0782E97EE492EA4
:1025400092E0592EFA83E983FC83EB8320E030E0AC
:1025500022242394812C912CA0E8AA2EB12C148E35
:10256000C90180579D4FDC015A962C9214A222A2D9
:1025700010A2168EAB81BC818D929D92AD92BC92C1
:102580001397DB018D919D91BD01A981BA811996A7
:102590009C938E931897108AAB81BC8152961D92A2
:1025A0001D921D921C9255979696CD92DD92ED92BA
:1025B000FC92999736AEDA018D919C91D8018D935A
:1025C0009D938D01D3018D939D933D010196D20181
:1025D0008D939D932D01A981BA811D969C938E9315
:1025E0001C972F5F3F4F31968B819C8104969C8373
:1025F0008B831296BA83A98340545F4F22303105F2
:1026000009F0ADCF80E00F900F900F900F90DF9109
:10261000CF911F910F91FF90EF90DF90CF90BF90DF
:10262000AF909F908F907F906F905F904F903F9072
:102630002F9076CEEFE0F2E02AE690E005C09F5FB3
:102640009532A1F0208133968213F9CF892F90E043
:10265000FC01EE0FFF1F8E0F9F1FFC01E45FFD4F7B
:10266000662311F081810895828108958FEF089586
:1026700056C61F93CF93DF93EC0151D6182FCE018E
:1026800001964DD6982F812FDF91CF911F910895FC
:10269000CF92DF92EF92FF92CF93DF93EC01E9DFCD
:1026A0006C01CE010296E5DF7C01C701B601DF9126
:1026B000CF91FF90EF90DF90CF900895EF92FF922F
:1026C0000F931F93CF93DF93662391F0EA018C0160
:1026D00061507A01E60EF11C8FEFE81AF80ACE017C
:1026E0001ED6F80181938F012196CE15DF05B9F72B
:1026F000DF91CF911F910F91FF90EF900895EF928E
:10270000FF920F931F93CF93DF93E62E8A016623E8
:1027100081F0EC01F12CC801ACDF99838883C801FA
:102720000296A7DF8A830D5F1F4FF3942396EF1065
:10273000F2CFDF91CF911F910F91FF90EF9008950D
:10274000282FCB01622FF3C51F93CF93DF93192F4F
:10275000EB01682FCE01EBD5612FCE010196DF9101
:10276000CF911F91E4C5CF92DF92EF92FF92CF936A
:10277000DF936B017C01EA01BA01C601E5DFBE010E
:102780006E5F7F4FC701DF91CF91FF90EF90DF9099
:10279000CF90DACFEF92FF920F931F93CF93DF93F7
:1027A000662391F0EC016150E62EF12C8FEFE81AD0
:1027B000F80AEC0EFD1E8A016991C801B8D50F5FB9
:1027C0001F4FCE15DF05C1F7DF91CF911F910F91FC
:1027D000FF90EF900895EF92FF920F931F93CF9386
:1027E000DF93E62E8A01662381F0EC01F12CB8011B
:1027F00088819981A9DF6A81C801029698D50D5F09
:102800001F4FF3942396EF10F2CFDF91CF911F91DA
:102810000F91FF90EF900895CF92DF92EF92FF9289
:102820006B017C0182E08093C00060E079E08DE381
:1028300090E0A701960121D5DA01C9010197A1090C
:10284000B109AC01BD017695679557954795942FD1
:10285000852F252F207FB1F01092C00060E874E82A
:102860008EE190E0A701960108D5DA01C901019730
:10287000A109B109AC01BD017695679557954795BA
:10288000942F852F8F708093C5009093C4008FB7CD
:10289000F8941092BA041092BB041092980410920B
:1028A00099048FBF8091C10080618093C1008091A5
:1028B000C10088608093C1008091C10080688093CE
:1028C000C1008091C1008F7D8093C100FF90EF9087
:1028D000DF90CF900895E1ECF0E080818F7E8083DF
:1028E0008081877F808380818F77808380818F7DC7
:1028F00080838FB7F894EAE9F4E010A211A2E8E728
:10290000F4E010A211A28FBF0895219A299A23986A
:102910002B9A229A2A9A209A289A119A8FB7F89479
:10292000EAE9F4E010A211A2E8E7F4E010A211A293
:102930008FBF81E08093770408952198299A239886
:102940002B9A22982A9A2098289A109277048FB767
:10295000F894EAE9F4E010A211A2E8E7F4E010A28A
:1029600011A28FBF089598E008C000002A98299A04
:10297000880F1B998F5F915029F0299887FFF5CF19
:102980002A9AF5CF08959091990480919804981708
:1029900009F048990895289881E8E5DF489BFECF23
:1029A00080E8E1DF87FD0BC0E0919804F0E0E85893
:1029B000FB4F8083809198048F5F80939804289ABE
:1029C0000895809177048111DEDF809198049091C1
:1029D0009904891B8F7108959091990480919804AE
:1029E000981751F0E92FF0E0E858FB4F80819F5F86
:1029F0009F719093990408958FEF08959091C1006D
:102A000093FF16C09091BA049F5F9F712091BB0401
:102A10009217C1F0E091BA04F0E0E656FB4F8083D4
:102A20009093BA048091C10080628093C1000895A0
:102A300090917704911101C0089528988F7793DFC2
:102A4000289A08952091C10020622093C10020910E
:102A5000BB049217E1F3DECF8091C10083FF0FC06A
:102A60009091BA048091BB04981749F08091C100FD
:102A700080628093C1008091BB049813FCCF0895BD
:102A8000CF93DF93EC018881882329F02196B6DF6C
:102A900089918111FCCFDF91CF9108952F932FB7AA
:102AA0002F939F938F93EF93FF932091C600809174
:102AB00098048F5F8F7190919904891741F0E0918C
:102AC0009804F0E0E858FB4F208380939804FF912E
:102AD000EF918F919F912F912FBF2F9118958F93E9
:102AE0008FB78F939F93EF93FF938091BB04909147
:102AF000BA04891306C08091C1008F7D8093C10004
:102B00000BC0E82FF0E0E656FB4F90818F5F8F718E
:102B10008093BB049093C600FF91EF919F918F919A
:102B20008FBF8F91189510924705109249052BE0A1
:102B3000EAE4F5E0DF011D922A95E9F710924605D7
:102B400060CCFF920F931F93CF93DF93EC01862FFE
:102B5000122F032FF42E611115C081E2888382E0C9
:102B600090E021E030E0FE01E20FF31F4DE04083F2
:102B7000FE01E80FF91F1082DF91CF911F910F9195
:102B8000FF90089560E056DD87FDE7CF9DE39883D1
:102B9000823061F08330E9F08630B1F1082E000C0C
:102BA000990B9C012F5F3F4F0296DDCF812F8295BD
:102BB0008F701F701A3008F0195F105D1A838A3009
:102BC00008F0895F805D898384E090E023E030E055
:102BD000CACF812F912F8F708A3008F0895F805D76
:102BE0008B83892F82958F708A3008F0895F805D92
:102BF0008A830F700A3008F0095F005D098385E061
:102C000090E024E030E0AFCF9F2D92959F708F2D04
:102C10008F708A3008F0895F805D8E83892F9A30AB
:102C200008F0895F805D8D83802F82958F700F7093
:102C30000A3008F0095F005D0C838A3008F0895F74
:102C4000805D8B83812F82958F701F701A3008F002
:102C5000195F105D1A838A3008F0895F805D89836F
:102C600088E090E027E030E07ECF0F931F93CF9372
:102C700020914A052093480590914B0591539093DC
:102C80004605923028F080E0CF911F910F91089572
:102C90008B01C82F61E0822FCDDC2DEF2C0F082E89
:102CA000000C990B622F70E08617970761F72223BB
:102CB00099F0ECE4F5E0D8018CEF8C0F90E0835BA9
:102CC0009A4F21912D93E817F907D9F7F801E60FEC
:102CD000F71F108281E0D8CF60E070E0F7CFCF938C
:102CE000DF93209147052223A9F06A3331F1EC01EB
:102CF000E091490581E08E0F80934905F0E0E65BA5
:102D0000FA4F60836D3081F08B3009F180E0DF9104
:102D1000CF9108956A33D1F71092490581E08093ED
:102D2000470510924A05F2CFBE019FDF882379F054
:102D30001092470580914805EACF21E2FC012083EB
:102D40002DE021831282109247058EEFE0CF81E2C1
:102D500088838DE089831A82109247058FEFD7CF41
:102D6000FC0191819A330CF09750905380818A3303
:102D70000CF087508295807F9F70892B0895FC010D
:102D800061816A330CF06750605380818A330CF0A4
:102D900087508295807F6F70682B73817A330CF037
:102DA0007750705382818A330CF087508295807FF0
:102DB0007F70782B95819A330CF0975090538481D3
:102DC0008A330CF087508295807F9F70892B90E02A
:102DD00008958091460508955058BB27AA270ED024
:102DE00084C175D130F07AD120F031F49F3F11F4D5
:102DF0001EF46AC10EF4E095E7FB37C1E92F86D1D6
:102E000080F3BA17620773078407950718F071F407
:102E10009EF5B5C10EF4E0950B2EBA2FA02D0B0137
:102E2000B90190010C01CA01A0011124FF27591B0F
:102E300099F0593F50F4503E68F11A16F040A22F15
:102E4000232F342F4427585FF3CF46953795279586
:102E5000A795F0405395C9F77EF41F16BA0B620B85
:102E6000730B840BBAF09150A1F0FF0FBB1F661FCC
:102E7000771F881FC2F70EC0BA0F621F731F841F0F
:102E800048F4879577956795B795F7959E3F08F035
:102E9000B3CF9395880F08F09927EE0F97958795F4
:102EA000089556D180F09F3740F491110EF468C117
:102EB00060E070E080E89FE3089526F01B16611D36
:102EC000711D811DD8C0F2C00CD00FC107D140F0D8
:102ED000FED030F021F45F3F19F0C7C0511150C14E
:102EE000F3C014D198F39923C9F35523B1F3951B7B
:102EF000550BBB27AA2762177307840738F09F5F1B
:102F00005F4F220F331F441FAA1FA9F333D00E2E89
:102F10003AF0E0E830D091505040E695001CCAF7F6
:102F200029D0FE2F27D0660F771F881FBB1F2617BB
:102F300037074807AB07B0E809F0BB0B802DBF018E
:102F4000FF2793585F4F2AF09E3F510568F08DC0D0
:102F500017C15F3FECF3983EDCF386957795679554
:102F6000B795F7959F5FC9F7880F911D969587953F
:102F700097F90895E1E0660F771F881FBB1F62175E
:102F800073078407BA0720F0621B730B840BBA0B1C
:102F9000EE1F88F7E0950895C1D088F09F5790F014
:102FA000B92F9927B751A0F0D1F0660F771F881F6E
:102FB000991F1AF0BA95C9F712C0B13081F0DFD06D
:102FC000B1E00895DCC0672F782F8827B85F39F00B
:102FD000B93FCCF3869577956795B395D9F73EF4CD
:102FE00090958095709561957F4F8F4F9F4F089575
:102FF000E89409C097FB3EF4909580957095619593
:103000007F4F8F4F9F4F9923A9F0F92F96E9BB2748
:103010009395F695879577956795B795F111F8CFC4
:10302000FAF4BB0F11F460FF1BC06F5F7F4F8F4F2F
:103030009F4F16C0882311F096E911C0772321F025
:103040009EE8872F762F05C0662371F096E8862FBD
:1030500070E060E02AF09A95660F771F881FDAF714
:10306000880F9695879597F9089597F99F6780E857
:1030700070E060E00895882371F4772321F0985080
:10308000872B762F07C0662311F499270DC0905126
:10309000862B70E060E02AF09A95660F771F881FF4
:1030A000DAF7880F9695879597F908959F3F31F045
:1030B000915020F4879577956795B795880F911D66
:1030C0009695879597F908959FEF80EC08950024D1
:1030D0000A941616170618060906089500240A947D
:1030E00012161306140605060895092E0394000C03
:1030F00011F4882352F0BB0F40F4BF2B11F460FF92
:1031000004C06F5F7F4F8F4F9F4F089557FD9058BA
:10311000440F551F59F05F3F71F04795880F97FB9B
:10312000991F61F09F3F79F0879508951216130655
:103130001406551FF2CF4695F1DF08C01616170684
:103140001806991FF1CF86957105610508940895B9
:10315000E5DFA0F0BEE7B91788F4BB279F3860F41D
:103160001616B11D672F782F8827985FF7CF8695A1
:1031700077956795B11D93959639C8F30895E894AE
:10318000BB2766277727CB0197F908950BD0ADCFE2
:103190009EDF28F0A3DF18F0952309F066CF94CFC7
:1031A0001124EECFB3DFA0F3959FD1F3950F50E03C
:1031B000551F629FF001729FBB27F00DB11D639FE9
:1031C000AA27F00DB11DAA1F649F6627B00DA11D8F
:1031D000661F829F2227B00DA11D621F739FB00D35
:1031E000A11D621F839FA00D611D221F749F3327A5
:1031F000A00D611D231F849F600D211D822F762F3E
:103200006A2F11249F5750408AF0E1F088234AF03A
:10321000EE0FFF1FBB1F661F771F881F9150504086
:10322000A9F79E3F510570F020CFAACF5F3FECF386
:10323000983EDCF3869577956795B795F795E79572
:103240009F5FC1F7FE2B880F911D9695879597F983
:103250000895AA1BBB1B51E107C0AA1FBB1FA617DD
:10326000B70710F0A61BB70B881F991F5A95A9F72F
:1032700080959095BC01CD010895A1E21A2EAA1B5C
:10328000BB1BFD010DC0AA1FBB1FEE1FFF1FA21716
:10329000B307E407F50720F0A21BB30BE40BF50B13
:1032A000661F771F881F991F1A9469F7609570959C
:1032B000809590959B01AC01BD01CF010895EE0F63
:1032C000FF1F0024001C0BBE0790F691E02D09940F
:1032D000A29FB001B39FC001A39F700D811D112457
:1032E000911DB29F700D811D1124911D0895F0DF75
:1032F000A59F900DB49F900DA49F800D911D11244A
:103300000895FB01DC014150504030F08D91019057
:10331000801919F40020B9F7881B990B0895F999C1
:10332000FECF92BD81BDF89A992780B50895262FCA
:10333000F999FECF1FBA92BD81BD20BD0FB6F8949A
:0E334000FA9AF99A0FBE01960895F894FFCFFD
:10334E0003000141455100382E3131006A000666F6
:10335E0000034906004702004A00004B00004806E1
:10336E00004D060065000661000662000667000259
:10337E007300064506005001004600004C00004157
:10338E0006004206005306006E00064E060044027A
:10339E00006400024301006300025A02007A000238
:1033AE005206007200064F010051020071000258D1
:0C33BE00060078000659020054010000CF
:00000001FF
