:100000000C9404010C942F010C942F010C942F01DB
:100010000C942F010C942F010C942F010C942F01A0
:100020000C942F010C9425040C942F010C942F0197
:100030000C942F010C942F010C942F010C942F0180
:100040000C9421020C942F010C942F010C942F017D
:100050000C942F010C942F010C942F010C94460D3D
:100060000C942F010C943E0F0C946A100C942F01E9
:100070000C942F010C942F010C942F010C9455011A
:100080000C942F010C942F010C942F010C942F0130
:100090000C94770F0C94A9100C942F010C942F0141
:1000A0000C942F010C942F010C942F010C942F0110
:1000B0000C942F010C942F010C942F010C942F0100
:1000C0000C942F010C942F010C942F010C94B00F61
:1000D0000C94E8100C942F010C94E90F0C94271148
:1000E0000C942F0100002100240027002A002D007D
:1000F0003000330001010000040107010A01000083
:100100002200250028002B002E00310034000201BF
:100110000000050108010B0100002000230026005B
:1001200029002C002F00320000010000030106010D
:10013000090105050505070508080808020202026D
:100140000A0A080804040404010101010101010173
:100150000303030303030303040707070C0C0C0C3E
:100160000C0C0C0C02020202060606060606060627
:100170000B0B0B0B0B0B0B0B0102102020080810B4
:100180002040102040800201020108040201010207
:1001900004081020408080402010080402018004E0
:1001A000020180402010080402010804020101023B
:1001B0000408102040800102040810204080000044
:1001C000090A02080B0C0D070603040100000000D9
:1001D000000000000000000000000000000000001F
:1001E0000000000000000000000011100F000000DF
:1001F00000000000000000000000000000000000FF
:10020000000000000E03911211241FBECFEFD1E2B7
:10021000DEBFCDBF12E0A0E0B2E0ECEAFDE200E01C
:100220000BBF02C007900D92AC37B107D9F71BBEC8
:1002300016E0ACE7B2E001C01D92A938B107E1F7C2
:1002400012E0C8E0D2E004C02297FE010E94D0165E
:10025000C430D107C9F70E94AF130C94D4160C9484
:100260000000FB01DC0101900D920020E1F70895F0
:10027000FB01DC014150504030F08D91019080191C
:1002800019F40020B9F7881B990B0895FB01DC01D4
:100290004150504048F001900D920020C9F701C034
:1002A0001D9241505040E0F708951F920F920FB6F3
:1002B0000F920BB60F9211242F933F934F935F939E
:1002C0008F939F93AF93BF93EF93FF938AB5E09182
:1002D0000A02EE0FE823F0E0E15DFC4F208131815E
:1002E00030939700209396008F5F8ABD809188009D
:1002F00090918900019709F08FC025B180919800F5
:1003000090919900909389008093880026FF6AC09D
:100310002F7B25B98091800290918102A091820269
:10032000B091830220919702332727FD3095432F08
:10033000532F280F391F4A1F5B1F209380023093D1
:100340008102409382025093830280919D02882310
:1003500069F18091EB029091EC02A091ED02B091D5
:10036000EE0282179307A407B50701F53F9B2AC049
:100370003091970227B1311514F021953327432F7F
:10038000532F280F391F4A1F5B1F2093EB02309316
:10039000EC024093ED025093EE0217B88091E50213
:1003A0009091E602909387028093860220919800B4
:1003B000309199008091E5029091E60282179307AF
:1003C00008F02EC010929D0281E080939F028091E0
:1003D00071008F7D8093710080919100887F809360
:1003E00091001EC0206425B9409186025091870279
:1003F0000090C3029C0180199109841795073CF471
:10040000C901800D911D481759070CF4CA0190933A
:1004100099008093980004C090938900809388008D
:10042000FF91EF91BF91AF919F918F915F914F910C
:100430003F912F910F900BBE0F900FBE0F901F900A
:1004400018951F920F920FB60F920BB60F921124B0
:100450002F933F934F935F938F939F93AF93BF934C
:10046000EF93FF938EB3E0910902EE0FE823F0E0E3
:10047000E151FD4F20813181309387002093860028
:100480008F5F8EBB80918A0090918B00019709F05D
:100490008FC02EB180919A0090919B0090938B0019
:1004A00080938A0023FF6AC0277F2EB980917C0247
:1004B00090917D02A0917E02B0917F0220919602E0
:1004C000332727FD3095432F532F280F391F4A1FFD
:1004D0005B1F20937C0230937D0240937E025093F9
:1004E0007F0280919C02882369F18091E7029091BC
:1004F000E802A091E902B091EA02281739074A07F9
:100500005B0701F5479B2AC03091960228B131154F
:1005100014F021953327432F532F280F391F4A1FDB
:100520005B1F2093E7023093E8024093E902509367
:10053000EA0218B88091E3029091E4029093850258
:100540008093840220919A0030919B008091E30275
:100550009091E4028217930708F02EC010929C023B
:1005600081E080939E0280916F008F7D80936F0069
:1005700080918100887F809381001EC028602EB901
:1005800040918402509185020090C2029C01801922
:100590009109841795073CF4C901800D911D4817F6
:1005A00059070CF4CA0190939B0080939A0004C0F1
:1005B00090938B0080938A00FF91EF91BF91AF9150
:1005C0009F918F915F914F913F912F910F900BBE13
:1005D0000F900FBE0F901F901895EF92FF920F9300
:1005E0001F937B018C0180918106882381F481E82F
:1005F00096E00E94BE13892B51F086E296E0B80186
:10060000A7010E941B0D81E896E00E94C81386E2B4
:1006100096E01F910F91FF90EF90089561E075E0D3
:1006200080E090E00E94ED02ACE7B2E0FC018BE5D7
:1006300001900D928150E1F708951F93182F6623C2
:1006400021F18CE792E0612F40E00E94470A8CE79D
:1006500092E0612F41E00E94410A112359F08091FC
:1006600071008F7D8093710080919100887F8093CD
:10067000910023C080916F008F7D80936F008091E7
:100680008100887F8093810018C0A82FB0E0FD0111
:10069000E458FD4F82A1882381F4AA0FBB1FEA5BB7
:1006A000FF4F2081FD01ED51FD4F80819181820F2F
:1006B000911DAC57BD4F8D939C931F910895682F4A
:1006C000882359F080919100897F809391008091D7
:1006D00091008160809391000AC080918100897FA0
:1006E00080938100809181008160809381008CE7FC
:1006F00092E041E00E94240A08950F931F93CF9344
:10070000DF93182F062FC82FD0E09E012B5E3D4FA0
:10071000FE01E458FD4FDE01AF58BC4F648D8C9153
:100720006827F90180810E940A0FFE01EE0FFF1F6A
:10073000E152FD4F80819181FE01EE0FFF1FEC57CA
:10074000FD4F208131818217930758F0F2E08B38FA
:100750009F0730F02B58324018F42AE832E001C0ED
:100760009C01FE01EE0FFF1FED51FD4F31832083F1
:10077000FE01E458FD4F42A1602F6195442361F4CE
:10078000112329F0209198003091990007C0209101
:100790009A0030919B000FC0112369F081E090E036
:1007A000909389008093880030939900209398005B
:1007B0001ABC67B90CC081E090E090938B008093E5
:1007C0008A0030939B0020939A001EBA68B9442394
:1007D00089F1FE0136E0EE0FFF1F3A95E1F7112394
:1007E00091F01092950010929400809171008062B7
:1007F00080937100E151FD4F80819181909397002A
:100800008093960011C01092850010928400809110
:100810006F00806280936F00E151FD4F8081918174
:100820009093870080938600C159DC4F812F6881A7
:100830000E945F038CE792E0612F40E00E94410A32
:10084000DF91CF911F910F9108951F920F920FB6D4
:100850000F920BB60F9211242F933F934F935F93F8
:100860006F937F938F939F93AF93BF93EF93FF9378
:1008700080919C02882309F04AC040919E022091F9
:10088000C4023091C50280919802882319F0442354
:1008900009F439C0189902C085E503C01B9933C01B
:1008A00083E3220F331F220F331F90E0A0E0B0E05C
:1008B0002F5F3F4F289F912D900DA11D329F900DCE
:1008C000A11DBB1FA00DB11D11249D0130938502F8
:1008D00020938402442359F01092980261E06093BF
:1008E000960260938C0280E00E947D0310C080918C
:1008F000E3029091E4028217930748F43093E402F4
:100900002093E30204C030938502209384028091F7
:100910009D02882361F5199903C091E08FEF04C00F
:100920001A9919C090E081E0809397029093990200
:100930008091C4029091C502880F991F880F991F5A
:10094000909387028093860281E080938D0261E01C
:100950000E947D030CC02091C3028091E50290911A
:10096000E602820F911D9093870280938602FF9189
:10097000EF91BF91AF919F918F917F916F915F9117
:100980004F913F912F910F900BBE0F900FBE0F9084
:100990001F90189561E00E947D030895AF92BF9269
:1009A000CF92DF92EF92FF920F931F93CF93DF933B
:1009B000A82E082F10E0F801EE0FFF1FEE0FFF1F0B
:1009C000E458FD4F82899389A489B5890297A105CE
:1009D000B10548F48CE792E06A2D22E030E040E077
:1009E00050E00E94840AF801EE0FFF1FEE0FFF1F78
:1009F000E458FD4FC288D388E488F588A7019601A2
:100A00005695479537952795D801AA0FBB1FFD012D
:100A1000E952FD4FC081D181203531054105510595
:100A200018F0A0E5BA2E17C0B22EA552BD4F2D91D9
:100A30003C912430310530F4F801EE53FD4F8081B4
:100A4000C80FD11D2830310530F4F801EE53FD4FA9
:100A50008081C80FD11DF801E458FD4F228D000F91
:100A6000111F000F111FCB18D108E108F10833271F
:100A700027FD3095432F532FC701B6010E947916E9
:100A8000F801E458FD4F2081318142815381260FC6
:100A9000371F481F591F09511D4FF801208331830B
:100AA000428353838CE792E06A2DAE010E947A0A5A
:100AB0008A2D6B2D0E947D038CE792E06A2D41E028
:100AC0000E94470ADF91CF911F910F91FF90EF9005
:100AD000DF90CF90BF90AF9008951F93182FE7E15C
:100AE000F2E0E80FF11D808160E00E940A0F8CE7C0
:100AF00092E0612F40E00E944D0A1F9108952F92CD
:100B00003F924F925F926F927F928F929F92AF929D
:100B1000BF92CF92DF92EF92FF920F931F93DF93DA
:100B2000CF93CDB7DEB727970FB6F894DEBF0FBED1
:100B3000CDBF282F30E03F832E83F901EE0FFF1F3A
:100B4000EE0FFF1FE055FD4F608071808280938023
:100B5000F901E159FC4F8081F901E75FFD4F8823DE
:100B600011F480E201C084E0808360E072E18AE7F2
:100B700090E0A40193010E94AC1659016A0115018D
:100B8000260160E072E18AE790E0A40193010E94EF
:100B9000AC160E941E157B018C01C401B3010E949A
:100BA0001E159B01AC01C801B7010E9485147B0191
:100BB0008C01EE81FF81E75FFD4F30813D83632F24
:100BC00070E080E090E00E941E1569837A838B8339
:100BD0009C83C801B70129813A814B815C810E94C5
:100BE00016167B018C0120E030E040E050E00E94CE
:100BF000121688234CF0C801B70120E030E040E035
:100C00005FE30E940E1408C0C801B70120E030E085
:100C100040E05FE30E940D140E94ED143B014C0183
:100C200080E0A81680E0B80681E0C80680E0D8061B
:100C300038F0EFEF2E2EEFEF3E2E412C512C0BC053
:100C400090E8A916B104C104D10428F470E8272E55
:100C5000312C412C512CEE81FF8166E0EE0FFF1FFD
:100C60006A95E1F7E151FD4F80E003C02192319296
:100C70008F5FAD818A17D0F3AA24BB2465014E8013
:100C80005F8055E0440C551C5A95E1F72BC0C60116
:100C9000B5010E941E1529813A814B815C810E9419
:100CA00016167B018C01C401B3010E941E159B0125
:100CB000AC01C801B7010E9485140E9472140E9401
:100CC000F214F201E60FF11DEE0FFF1FE151FD4F8F
:100CD000808191810196918380830894A11CB11C2D
:100CE000C11CD11CA614B704C804D90480F2EE813B
:100CF000FF81E75FFD4FFF83EE83FD81F150AE8101
:100D0000BF81FC9327960FB6F894DEBF0FBECDBF10
:100D1000CF91DF911F910F91FF90EF90DF90CF90D7
:100D2000BF90AF909F908F907F906F905F904F900B
:100D30003F902F9008951F93182FE7E1F2E0E80FFE
:100D4000F11D808160E00E940A0F8CE792E0612F24
:100D500041E00E944D0A812F0E947F051F91089556
:100D6000CF92DF92EF92FF920F931F93DF93CF9377
:100D7000CDB7DEB72B970FB6F894DEBF0FBECDBF51
:100D8000D82E7B018CE792E062E00E94130CC82E03
:100D90008CE4D81609F4A9C08D15DCF0E7E4DE1662
:100DA00009F4ABC0ED154CF0F5E4DF1609F4D7C03B
:100DB00086E4D81609F0E6C0E2C0E9E4DE1609F4DC
:100DC000C0C0DE160CF4B0C0FBE4DF1609F0DAC0D8
:100DD00087C086E6D81609F46AC08D155CF0E2E695
:100DE000DE1659F1F5E6DF1691F081E6D81609F026
:100DF000C9C016C0EAE6DE1609F462C0F3E7DF16E2
:100E000009F44CC087E6D81609F0BCC03FC0EC2DF1
:100E1000F0E0EE0FFF1FEE0FFF1FE056FD4F08C082
:100E2000EC2DF0E0EE0FFF1FEE0FFF1FE855FD4F1A
:100E30000081118122813381A9C0EC2DF0E0EE0FF9
:100E4000FF1FDF01AC53BD4FED90FC90EE0CFF1C7B
:100E50000894E11CF11CB70180E090E00894E108DF
:100E6000F108EE0FFF1FE055FD4F208131814281D7
:100E700053810E94791600E010E0A80197010E94BA
:100E8000AC16C901DA018C019D0180C0EC2DF0E0A7
:100E9000E458FD4F84AD082F10E00FC0EC2DF0E0BA
:100EA000EE0FFF1FEE0FFF1FE654FD4FC1CF8CE783
:100EB00092E06C2D0E94530A8C0120E030E066C065
:100EC0008FB7F894EC2DF0E0EE0FFF1FEE0FFF1F31
:100ED000E458FD4F00811181228133818FBF56C0BC
:100EE0008C2D60E00E941D034DC08C2D61E00E949E
:100EF0001D038C2D0E946D0545C0F7018081803354
:100F000011F482E38083F701408140538CE792E043
:100F10006C2D0E94910AF701418140538CE792E0C9
:100F20006C2D0E942D0A2EC08CE792E0B7010E9422
:100F3000A60B9B01AC018CE792E06C2D0E94840A09
:100F400021C08CE792E0B7010E94A60B9B01AC0187
:100F50008CE792E06C2DA9010E947A0A13C01FB79A
:100F6000F8948CE792E0B7010E94A60B9B01AC01BC
:100F70008CE792E06C2D0E946D0A1FBF03C08C2D80
:100F80000E949B0600E010E020E030E08CE792E059
:100F90007E010894E11CF11CB7014D2D0E945C0CF0
:100FA0008AEA95E0B7010E940A14FAE4DF1671F4A8
:100FB000EC2DF0E0E458FD4F808980FF04C08C2DBB
:100FC0000E94CA0403C08C2D0E94CE042B960FB63B
:100FD000F894DEBF0FBECDBFCF91DF911F910F916F
:100FE000FF90EF90DF90CF9008950F931F93DF93C2
:100FF000CF93CDB7DEB72B970FB6F894DEBF0FBEF9
:10100000CDBF809173038823A1F483E793E00E940E
:10101000BE13892B71F00E948E0D60937C03709338
:101020007D0380937E0390937F0383E793E00E9488
:10103000C8138AEA95E00E94EC11892B79F18DE0C2
:1010400061E00E940A0F8AEA95E00E941D12482F73
:101050008CE792E08E010F5F1F4FB8010E94C30C16
:10106000813041F48CE792E00E940E0CB8010E949E
:10107000B00607C08F3F29F48AEA95E0B8010E94C4
:101080000A140E948E0D60937C0370937D038093FD
:101090007E0390937F0381E080937B0380917B03A9
:1010A0008823C9F00E948E0D20917C0330917D032E
:1010B00040917E0350917F032C5E3F4F4F4F5F4F17
:1010C000261737074807590730F410927B038DE045
:1010D00060E00E940A0F2B960FB6F894DEBF0FBE99
:1010E000CDBFCF91DF911F910F9108950F931F9363
:1010F000DF93CF93CDB7DEB729970FB6F894DEBF55
:101100000FBECDBF8E010F5F1F4F89E0F801119216
:101110008A95E9F780E893E0B80148E020E00E9472
:10112000940BC80160E072E048E050E00E94380192
:101130009C0180E0232B09F481E029960FB6F894F6
:10114000DEBF0FBECDBFCF91DF911F910F910895EC
:1011500080E893E069E00E94520B8093710380E87D
:1011600093E06AE00E94520B8093720380E893E060
:101170006BE00E94520B90E0882309F491E0909379
:101180000B0210920D02992319F481E080930D0255
:1011900080E893E06CE00E94520B90E09093DC02B8
:1011A0008093DB022091C20230E0AC01429FC0017B
:1011B000439F900D529F900D112401969093D80259
:1011C0008093D70280E893E06DE00E94520B90E09C
:1011D0009093DE028093DD024091C30250E09C01B7
:1011E000249FC001259F900D349F900D11240196DE
:1011F0009093DA028093D9028091C20290E0880F26
:10120000991F880F991F2091C4023091C502820F47
:10121000931F9093E0028093DF02440F551F440F09
:10122000551F8091C6029091C702480F591F5093D5
:10123000E2024093E10280E893E068E00E94520BF2
:1012400090E0882309F491E090936F0390937003EA
:10125000992311F480E201C084E08093090299236C
:1012600011F480E201C084E080930A020E947608B3
:10127000882309F4FFCF0895AF92BF92CF92DF92F7
:10128000EF92FF921F93CF93DF930E94A8088DE007
:1012900061E00E94570EA9E1AA2EA2E0BA2EF1E168
:1012A000CF2EF2E0DF2EEE24FF24F701E95EFD4FA2
:1012B0001081812F61E00E94570E812F61E00E9412
:1012C0000A0FF701E15FFD4F1081812F61E00E945D
:1012D000570E812F60E00E940A0FF701EB5EFD4F71
:1012E0001081812F61E00E94570E812F60E00E94E3
:1012F0000A0FF701E159FC4F6081C62FD0E0F501DC
:101300001081812F61E00E94570ECC0FDD1FFE017E
:10131000E55FFD4F812F60810E940A0FF501118169
:10132000812F61E00E94570EC45FDD4F812F6881DD
:101330000E940A0FF701E35EFD4F1081812F61E0EB
:101340000E94570E812F60E00E940A0F61E070E05A
:1013500080E090E00E949C0D812F61E00E940A0FC6
:10136000F601808162E00E94570EF601818162E001
:101370000E94570E0894E11CF11C82E090E0A80E38
:10138000B91EC80ED91E92E0E916F10409F08DCFFE
:101390008AEA95E040E855E260E070E00E9466115C
:1013A00004C08AEA95E00E941D128AEA95E00E9434
:1013B000EC11892BB1F71092710010926F0010920E
:1013C000800088E1809381001092900080939100CA
:1013D0008FE080936B00809168008B7F8093680022
:1013E000809168008D7F80936800809168008160A3
:1013F00080936800DF91CF911F91FF90EF90DF9075
:10140000CF90BF90AF900895EFE1F2E020E030E0A0
:101410008081861789F4F901EE0FFF1F442331F014
:10142000E20FF31FE15EFD4F81810895E20FF31F8C
:10143000E15EFD4F828108952F5F3F4F3396243147
:10144000310531F78FEF0895FC01E60FF11D828D14
:1014500018160CF04195428F0895DC01E62FF0E05C
:10146000942F917040FF04C0EA0FFB1F8FEF03C061
:10147000EA0FFB1F81E0828FA60FB11D5C969C9343
:101480000895FC01E60FF11D417042A30895FC018F
:10149000E60FF11D417040A30895FC01E60FF11D18
:1014A0004170468F0895FC01E60FF11D848D382FA1
:1014B000330F20E092A180E0282B392B868D90E01D
:1014C000282B392B80A190E044E0880F991F4A9582
:1014D000E1F7282B392BC9010895E62FF0E0EE0F34
:1014E000FF1FEE0FFF1FE80FF91F20833183428398
:1014F00053830895E62FF0E03496EE0FFF1FE80FB8
:10150000F91F518340830895E62FF0E0EE0FFF1F8F
:10151000EE0FFF1FE80FF91F228B338B448B558B87
:101520000895FC01E60FF11D408B08955F926F92C4
:101530007F928F929F92AF92BF92CF92DF92EF9263
:10154000FF920F931F938C013A014B01522E30E80A
:10155000E32E33E0F32EC7016EE00E946E0BF8011C
:1015600064A775A786A797A7C70162E10E946E0BC3
:10157000F80160AB71AB82AB93ABC70166E10E942F
:101580006E0BF80164AB75AB86AB97ABC7016AE134
:101590000E946E0BF80160AF71AF82AF93AFC701CD
:1015A0006EE10E946E0B025C1F4FF8016193719314
:1015B000819391938F01C70162E20E946E0BF80143
:1015C000608371838283938302541040C70166E273
:1015D0000E945B0B28E4A22EB12CA00EB11EF501D7
:1015E00091838083C70168E20E945B0B9C01065BCC
:1015F0001F4FF801918380830A541040F801148E24
:1016000041E042A310A2168EC12CD12CB0E8EB2EE3
:10161000F12CC082D182E282F38211861086108A78
:10162000128A138A148A158A64A275A286A297A2C6
:1016300054AE0A5B1F4FF501808191816BE470E02D
:101640000E949816F801608306541040F801158E28
:1016500043A311A2178EC482D582E682F782138635
:101660001286118A168A178A108E118E60A671A6AC
:1016700082A693A655AE095B1F4FC9016BE470E0CB
:101680000E949816F80160831F910F91FF90EF90D0
:10169000DF90CF90BF90AF909F908F907F906F9092
:1016A0005F900895F999FECF862F90E092BD81BD9D
:1016B000F89A80B50895F999FECF862F90E092BDF3
:1016C00081BDF89A20B5F999FECF6F5F862F90E023
:1016D00092BD81BDF89A90B5822F0895F999FECFF9
:1016E000862F90E092BD81BDF89A20B5F999FECF82
:1016F0006F5F862F90E092BD81BDF89A70B56F5FE5
:10170000F999FECF862F90E092BD81BDF89A30B551
:10171000F999FECF6F5F862F90E092BD81BDF89A58
:1017200090B5622F832F0895522FFB0120E009C04E
:10173000F999FECF90E092BD81BDF89A80B5819372
:101740002F5F822F850F241798F30895FB01858161
:101750008A330CF08750B481BA330CF0B7506381F0
:101760006A330CF06750A281AA330CF0A750918124
:101770009A330CF0975070817A330CF0775020E058
:1017800030E040E050E08F70482FB295B07F4B2B97
:101790006F70832F807F862BA295A07F8F70382F4C
:1017A0003A2B9F70622F607F692B7295707F6F70EC
:1017B000672B732FCA010895842F8F70ABE5B2E0B9
:1017C000FD01E80FF11D8081FB01858342954F707B
:1017D000FD01E40FF11D8081FB018483832F8F7055
:1017E000FD01E80FF11D8081FB01838332953F707D
:1017F000FD01E30FF11D8081FB018283822F8F7039
:10180000FD01E80FF11D8081FB01818322952F707E
:10181000A20FB11D8C91808316820895FC01E65AB7
:10182000FF4F80810895FC01623028F4E75AFF4F92
:101830006083E955F040E75AFF4F80810895FF9299
:101840000F931F93CF93DF93EC01F62E8C01035B74
:101850001F4FF8016081C65ADF4F68832C9788813B
:1018600081532B968883C955D0408230F0F4CE0145
:1018700041E00E94040A6F2D6350282F332727FD73
:101880003095862F90E02817390779F4F80190E019
:1018900003C0828181939F5F9617D8F3C20FD31F35
:1018A000C35BDF4F188281E001C080E0DF91CF9100
:1018B0001F910F91FF9008959F92AF92BF92CF9288
:1018C000DF92EF92FF920F931F93CF93DF936C0100
:1018D0007B01B12EA22E932E642F40E00E94040AB9
:1018E000182F8F3F11F481E201C08DE3F70180834F
:1018F000E7012196133099F0163059F1123089F52D
:101900001A82E02FEF70F0E0E55AFD4F8081898365
:1019100002950F70E02FF0E0E55AFD4F16C0A02FA2
:101920008B2D1B82E02FEF70F0E0E55AFD4F2081F8
:101930002A83A295AF70B0E0A55ABD4F2C912983A0
:101940008F7090E0855A9D4FFC018081F701818363
:1019500008C0C601BE01202F3B2D4A2D592D0E94E3
:10196000DC0BFE01E10FF11D8DE080831182DF9120
:10197000CF911F910F91FF90EF90DF90CF90BF908C
:10198000AF909F900895EF92FF920F931F93CF9384
:10199000DF93EC018B018CE4E82EF12CEC0EFD1EA4
:1019A000F7018081882319F14A3391F1FE01E85A49
:1019B000FF4F8081DE01A80FB11DA35BBF4F4C9389
:1019C000682F6F5F60834D3079F4CE010E941F0C49
:1019D0008823F1F0C35BDF4FC801BE010E943101D3
:1019E000F701108281E020C06B30E9F411C04A3366
:1019F000D1F4C85ADF4F188281E0F7018083CE010D
:101A00000B9768E072E04BE050E00E9446010BC08B
:101A100081E2F80180838DE081831282C45BDF4F15
:101A200018828FEF01C080E0DF91CF911F910F915D
:101A3000FF90EF900895CF92DF92EF92FF920F9375
:101A40001F938C016A017B01045B1F4FF801108218
:101A5000035F1F4FF801108212928F01085510404A
:101A6000C801835B9F4F68E072E04BE050E00E944A
:101A70004601C801B701A60128E00E94960A1F91FD
:101A80000F91FF90EF90DF90CF9008951F920F92EB
:101A90000FB60F9211242F933F938F939F93AF9381
:101AA000BF938091850390918603A0918703B091A5
:101AB0008803309189030196A11DB11D232F2D5F4D
:101AC0002D3720F02D570196A11DB11D20938903BC
:101AD0008093850390938603A0938703B093880334
:101AE0008091810390918203A0918303B09184033C
:101AF0000196A11DB11D8093810390938203A09351
:101B00008303B0938403BF91AF919F918F913F91D5
:101B10002F910F900FBE0F901F9018958FB7F894CC
:101B2000209185033091860340918703509188036B
:101B30008FBFB901CA0108959B01AC017FB7F8942A
:101B40008091810390918203A0918303B0918403DB
:101B500066B5A89B05C06F3F19F00196A11DB11D88
:101B60007FBFBA2FA92F982F8827860F911DA11DFF
:101B7000B11D62E0880F991FAA1FBB1F6A95D1F79C
:101B8000BC012DC0FFB7F89480918103909182032E
:101B9000A0918303B0918403E6B5A89B05C0EF3FF5
:101BA00019F00196A11DB11DFFBFBA2FA92F982FC3
:101BB00088278E0F911DA11DB11DE2E0880F991F8E
:101BC000AA1FBB1FEA95D1F7861B970B885E93402F
:101BD000C8F2215030404040504068517C4F2115A0
:101BE00031054105510571F60895789484B58260F8
:101BF00084BD84B5816084BD85B5826085BD85B5B1
:101C0000816085BDEEE6F0E0808181608083E1E85F
:101C1000F0E0108280818260808380818160808397
:101C2000E0E8F0E0808181608083E1EBF0E080819A
:101C300084608083E0EBF0E0808181608083E1E973
:101C4000F0E0808182608083808181608083E0E930
:101C5000F0E0808181608083E1EAF0E08081826051
:101C60008083808181608083E0EAF0E08081816010
:101C70008083E1E2F1E08081826080838081816005
:101C80008083E0E2F1E0808181608083EAE7F0E038
:101C90008081846080838081826080838081816094
:101CA00080838081806880831092C1000895CF93E3
:101CB000DF93482F50E0CA0188589E4FFC013491B1
:101CC0004E5C5E4FFA018491882369F190E0880FA1
:101CD000991FFC01EC51FF4FA591B491FC01E2501A
:101CE000FF4FC591D491662351F42FB7F8948C918E
:101CF000932F909589238C93888189230BC0623020
:101D000061F42FB7F8948C91932F909589238C933D
:101D10008881832B88832FBF06C09FB7F8948C914E
:101D2000832B8C939FBFDF91CF910895893009F465
:101D300049C08A30A0F4843051F1853040F48230BB
:101D400079F1833000F5813009F063C026C0873017
:101D500079F1883098F5863009F05BC025C08D3068
:101D600009F442C08E3028F48B30B1F18C30C0F5CC
:101D70002DC0803109F442C0813109F445C08F3053
:101D800009F047C037C0809180008F7703C08091F1
:101D900080008F7D80938000089584B58F7702C086
:101DA00084B58F7D84BD08958091B0008F7703C086
:101DB0008091B0008F7D8093B00008958091900055
:101DC0008F7707C0809190008F7D03C08091900035
:101DD000877F8093900008958091A0008F7707C03F
:101DE0008091A0008F7D03C08091A000877F8093A9
:101DF000A0000895809120018F7703C08091200179
:101E00008F7D80932001089580912001877F8093AA
:101E100020010895FF920F931F93F62E482F50E054
:101E2000CA0182549E4FFC012491CA0188589E4FDA
:101E3000FC0114914E5C5E4FFA0104910023C9F03D
:101E4000222319F0822F0E94960EE02FF0E0EE0F71
:101E5000FF1FE250FF4FA591B4919FB7F894FF2068
:101E600021F48C911095812302C08C91812B8C934D
:101E70009FBF1F910F91FF90089508951F920F9299
:101E80000FB60F920BB60F9211242F933F934F93DF
:101E90008F939F93EF93FF934091C6002091CA03C5
:101EA0003091CB032F5F3F4F2F7330708091CC0365
:101EB0009091CD032817390759F0E091CA03F091AA
:101EC000CB03E657FC4F40833093CB032093CA03E8
:101ED000FF91EF919F918F914F913F912F910F9093
:101EE0000BBE0F900FBE0F901F90189508951F9274
:101EF0000F920FB60F920BB60F9211242F933F93B0
:101F00004F938F939F93EF93FF934091CE00209137
:101F10005204309153042F5F3F4F2F7330708091E4
:101F20005404909155042817390759F0E091520450
:101F3000F0915304EE5EFB4F4083309353042093A3
:101F40005204FF91EF919F918F914F913F912F916B
:101F50000F900BBE0F900FBE0F901F901895089515
:101F60001F920F920FB60F920BB60F9211242F9360
:101F70003F934F938F939F93EF93FF934091D6009E
:101F80002091DA043091DB042F5F3F4F2F733070C4
:101F90008091DC049091DD042817390759F0E09115
:101FA000DA04F091DB04E656FB4F40833093DB0408
:101FB0002093DA04FF91EF919F918F914F913F9180
:101FC0002F910F900BBE0F900FBE0F901F90189582
:101FD00008951F920F920FB60F920BB60F92112415
:101FE0002F933F934F938F939F93EF93FF93409142
:101FF000360120916205309163052F5F3F4F2F73AB
:10200000307080916405909165052817390759F063
:10201000E0916205F0916305EE5DFA4F40833093E5
:10202000630520936205FF91EF919F918F914F91EE
:102030003F912F910F900BBE0F900FBE0F901F90EE
:102040001895E091B605F091B705E05CFF4F8191DE
:10205000919120813181821B930B8F739070892B1A
:1020600011F00E943D0FE091D505F091D605E05C9E
:10207000FF4F8191919120813181821B930B8F734E
:102080009070892B11F00E94760FE091F405F09189
:10209000F505E05CFF4F8191919120813181821B98
:1020A000930B8F739070892B11F00E94AF0FE0910A
:1020B0001306F0911406E05CFF4F8191919120810D
:1020C0003181821B930B8F739070892B11F00E94CA
:1020D000E80F08951F920F920FB60F920BB60F9252
:1020E00011242F933F938F939F93EF93FF9320910E
:1020F0000E0430910F048091100490911104281760
:10210000390731F48091C1008F7D8093C10014C0E4
:10211000E0911004F0911104E253FC4F2081809172
:1021200010049091110401968F7390709093110494
:10213000809310042093C600FF91EF919F918F919F
:102140003F912F910F900BBE0F900FBE0F901F90DD
:1021500018951F920F920FB60F920BB60F92112483
:102160002F933F938F939F93EF93FF932091960428
:102170003091970480919804909199042817390719
:1021800031F48091C9008F7D8093C90014C0E09123
:102190009804F0919904EA5AFB4F208180919804A9
:1021A0009091990401968F73907090939904809305
:1021B00098042093CE00FF91EF919F918F913F91D2
:1021C0002F910F900BBE0F900FBE0F901F90189580
:1021D0001F920F920FB60F920BB60F9211242F93EE
:1021E0003F938F939F93EF93FF9320911E05309120
:1021F0001F0580912005909121052817390731F49A
:102200008091D1008F7D8093D10014C0E091200592
:10221000F0912105E252FB4F2081809120059091A1
:10222000210501968F73907090932105809320056E
:102230002093D600FF91EF919F918F913F912F9125
:102240000F900BBE0F900FBE0F901F9018951F920E
:102250000F920FB60F920BB60F9211242F933F934C
:102260008F939F93EF93FF932091A6053091A7053D
:102270008091A8059091A9052817390731F480911C
:1022800031018F7D8093310114C0E091A805F09158
:10229000A905EA59FA4F20818091A8059091A905D6
:1022A00001968F7390709093A9058093A805209351
:1022B0003601FF91EF919F918F913F912F910F9058
:1022C0000BBE0F900FBE0F901F901895AF92BF924C
:1022D000DF92EF92FF920F931F93CF93DF93EC0166
:1022E0007A018B01DD24403081EE580780E06807D9
:1022F00080E0780711F0DD24D39491E0A92EB12C71
:10230000EC89FD89DD2069F0C5010E8C02C0880FC3
:10231000991F0A94E2F7808360E079E08DE390E012
:1023200005C0108260E874E88EE190E0A801970192
:102330000E94AC1621503040404050405695479581
:102340003795279580E12030380720F0DD2011F007
:10235000DD24D6CFE889F9893083EA89FB89208397
:10236000EE89FF89408121E030E0C9010A8C02C07A
:10237000880F991F0A94E2F7482B4083EE89FF8962
:102380004081C9010B8C02C0880F991F0A94E2F7A3
:10239000482B4083EE89FF894081C9010C8C02C023
:1023A000880F991F0A94E2F7482B4083EE89FF8932
:1023B00080810D8C02C0220F331F0A94E2F7209512
:1023C00028232083DF91CF911F910F91FF90EF90F1
:1023D000DF90BF90AF900895DC011C96ED91FC91C9
:1023E0001D97E05CFF4F2191319180819181281BE5
:1023F000390B2F733070C9010895DC011C96ED91E3
:10240000FC911D97E05CFF4F20813181E054F0404A
:10241000DF01AE5BBF4F8D919C9111972817390753
:1024200019F42FEF3FEF07C08D919C91E80FF91F32
:102430008081282F30E0C9010895DC011C96ED91C0
:10244000FC911D97E05CFF4F20813181E054F0400A
:10245000DF01AE5BBF4F8D919C9111972817390713
:1024600019F42FEF3FEF10C08D919C911197E80F59
:10247000F91F20818D919C91119701968F73907017
:1024800011969C938E9330E0C9010895FC018685D6
:102490009785DC01A05CBF4FFC01EE5BFF4F2D91E7
:1024A0003C9111978081918128173907C1F70895D0
:1024B000CF93DF93EC01EE85FF85E05CFF4F208139
:1024C0003181E054F0402F5F3F4F2F733070DF01B8
:1024D000AE5BBF4F8D919C91119728173907D1F3AF
:1024E000E05CFF4F80819181E054F040E80FF91FDC
:1024F0006083EE85FF85E05CFF4F31832083EE89AA
:10250000FF89208181E090E00D8C02C0880F991F27
:102510000A94E2F7282B208381E090E0DF91CF91AD
:1025200008951F931092AD051092AC0528EE33E08C
:1025300040E050E02093AE053093AF054093B005E6
:102540005093B1056FE672E07093AB056093AA05F6
:102550008AE893E09093B7058093B6058EEC93E0FC
:102560009093B9058093B80585EC90E09093BB05F6
:102570008093BA0584EC90E09093BD058093BC05F0
:1025800080EC90E09093BF058093BE0581EC90E0D5
:102590009093C1058093C00586EC90E09093C305AD
:1025A0008093C20514E01093C405B3E0B093C50551
:1025B000A7E0A093C605F5E0F093C705E1E0E0933E
:1025C000C8051092CC051092CB052093CD05309311
:1025D000CE054093CF055093D0057093CA05609304
:1025E000C90582E194E09093D6058093D50586E5F0
:1025F00094E09093D8058093D7058DEC90E090936C
:10260000DA058093D9058CEC90E09093DC058093FB
:10261000DB0588EC90E09093DE058093DD0589EC86
:1026200090E09093E0058093DF058EEC90E090932E
:10263000E2058093E1051093E305B093E405A093D0
:10264000E505F093E605E093E7051092EB0510929F
:10265000EA052093EC053093ED054093EE05509389
:10266000EF057093E9056093E8058AE994E090939B
:10267000F5058093F4058EED94E09093F705809333
:10268000F60585ED90E09093F9058093F80584EDCB
:1026900090E09093FB058093FA0580ED90E0909395
:1026A000FD058093FC0581ED90E09093FF058093FC
:1026B000FE0586ED90E0909301068093000610934E
:1026C0000206B0930306A0930406F0930506E09378
:1026D000060610920A061092090620930B06309304
:1026E0000C0640930D0650930E06709308066093F7
:1026F000070682E295E0909314068093130686E61F
:1027000095E0909316068093150685E391E09093EB
:1027100018068093170684E391E090931A0680933D
:10272000190680E391E090931C0680931B0681E3D9
:1027300091E090931E0680931D0686E391E09093AE
:10274000200680931F0610932106B0932206A093C3
:102750002306F0932406E09325061F910895CF9356
:10276000DF930E94F50D0E943C09C1E2D0E10E9476
:10277000F5072097E1F30E942110F9CFFC0120E03A
:1027800030E08081882311F421E030E0C901089510
:10279000FC0181E080830895CF92DF92EF92FF9257
:1027A0000F931F93CF93DF937C016B018A01C0E0ED
:1027B000D0E00FC0D6016D916D01D701ED91FC9174
:1027C0000190F081E02DC7010995C80FD91F015074
:1027D00010400115110571F7CE01DF91CF911F91C6
:1027E0000F91FF90EF90DF90CF900895CF93DF93FC
:1027F000DB010D900020E9F71197A61BB70BEC0148
:10280000E881F9810280F381E02DAD010995DF9126
:10281000CF9108950E94F61308955058BB27AA2718
:102820000ED0AFC1A0D130F0A5D120F031F49F3F40
:1028300011F41EF495C10EF4E095E7FB60C1E92F99
:10284000B1D180F3BA17620773078407950718F0B0
:1028500071F49EF5E0C10EF4E0950B2EBA2FA02D79
:102860000B01B90190010C01CA01A0011124FF273D
:10287000591B99F0593F50F4503E68F11A16F04038
:10288000A22F232F342F4427585FF3CF4695379537
:102890002795A795F0405395C9F77EF41F16BA0BFC
:1028A000620B730B840BBAF09150A1F0FF0FBB1FAA
:1028B000661F771F881FC2F70EC0BA0F621F731FF3
:1028C000841F48F4879577956795B795F7959E3F50
:1028D00008F0B3CF9395880F08F09927EE0F9795DE
:1028E0008795089581D180F09F3740F491110EF4BF
:1028F00093C160E070E080E89FE3089526F01B1626
:10290000611D711D811D01C11BC10CD03AC132D1A5
:1029100040F029D130F021F45F3F19F0F0C051119F
:102920007BC11EC13FD198F39923C9F35523B1F35D
:10293000951B550BBB27AA2762177307840738F02E
:102940009F5F5F4F220F331F441FAA1FA9F333D08D
:102950000E2E3AF0E0E830D091505040E695001C41
:10296000CAF729D0FE2F27D0660F771F881FBB1FFD
:10297000261737074807AB07B0E809F0BB0B802DD7
:10298000BF01FF2793585F4F2AF09E3F510568F023
:10299000B6C042C15F3FECF3983EDCF38695779575
:1029A0006795B795F7959F5FC9F7880F911D969525
:1029B000879597F90895E1E0660F771F881FBB1F81
:1029C000621773078407BA0720F0621B730B840B2E
:1029D000BA0BEE1F88F7E095089504D06894B11102
:1029E0001BC10895E7D088F09F5790F0B92F992721
:1029F000B751A0F0D1F0660F771F881F991F1AF00A
:102A0000BA95C9F712C0B13081F005D1B1E008958F
:102A100002C1672F782F8827B85F39F0B93FCCF310
:102A2000869577956795B395D9F73EF490958095FF
:102A3000709561957F4F8F4F9F4F0895E89409C01F
:102A400097FB3EF490958095709561957F4F8F4FE1
:102A50009F4F9923A9F0F92F96E9BB279395F695F7
:102A6000879577956795B795F111F8CFFAF4BB0F75
:102A700011F460FF1BC06F5F7F4F8F4F9F4F16C0D9
:102A8000882311F096E911C0772321F09EE8872F63
:102A9000762F05C0662371F096E8862F70E060E01F
:102AA0002AF09A95660F771F881FDAF7880F969598
:102AB000879597F90895990F0008550FAA0BE0E83C
:102AC000FEEF16161706E807F907C0F012161306F0
:102AD000E407F50798F0621B730B840B950B39F430
:102AE0000A2661F0232B242B252B21F408950A2696
:102AF00009F4A140A6958FEF811D811D089597F9D6
:102B00009F6780E870E060E00895882371F4772380
:102B100021F09850872B762F07C0662311F4992750
:102B20000DC09051862B70E060E02AF09A95660FF8
:102B3000771F881FDAF7880F9695879597F908957C
:102B40009F3F49F0915028F4869577956795B79502
:102B50009F5F80389F4F880F9695879597F90895C6
:102B60009FEF80EC089500240A94161617061806A5
:102B70000906089500240A94121613061406050681
:102B80000895092E0394000C11F4882352F0BB0F12
:102B900040F4BF2B11F460FF04C06F5F7F4F8F4F75
:102BA0009F4F089557FD9058440F551F59F05F3FB0
:102BB00071F04795880F97FB991F61F09F3F79F05F
:102BC00087950895121613061406551FF2CF4695E1
:102BD000F1DF08C0161617061806991FF1CF869563
:102BE0007105610508940895E5DFA0F0BEE7B91707
:102BF00088F4BB279F3860F41616B11D672F782F15
:102C00008827985FF7CF869577956795B11D93953F
:102C10009639C8F30895E894BB2766277727CB0138
:102C200097F9089548DF08F48FEF08950BD0A9CFE6
:102C30009ADF28F09FDF18F0952309F060CF90CF3E
:102C40001124EACFAFDFA0F3959FD1F3950F50E0A9
:102C5000551F629FF001729FBB27F00DB11D639F4E
:102C6000AA27F00DB11DAA1F649F6627B00DA11DF4
:102C7000661F829F2227B00DA11D621F739FB00D9A
:102C8000A11D621F839FA00D611D221F749F33270A
:102C9000A00D611D231F849F600D211D822F762FA3
:102CA0006A2F11249F5750408AF0E1F088234AF0A0
:102CB000EE0FFF1FBB1F661F771F881F91505040EC
:102CC000A9F79E3F510570F01ACFA6CF5F3FECF3F6
:102CD000983EDCF3869577956795B795F795E795D8
:102CE0009F5FC1F7FE2B880F911D9695879597F9E9
:102CF0000895629FD001739FF001829FE00DF11D46
:102D0000649FE00DF11D929FF00D839FF00D749F65
:102D1000F00D659FF00D9927729FB00DE11DF91F11
:102D2000639FB00DE11DF91FBD01CF01112408956E
:102D3000AA1BBB1B51E107C0AA1FBB1FA617B707E1
:102D400010F0A61BB70B881F991F5A95A9F78095FD
:102D50009095BC01CD010895A1E21A2EAA1BBB1BC0
:102D6000FD010DC0AA1FBB1FEE1FFF1FA217B30757
:102D7000E407F50720F0A21BB30BE40BF50B661F6D
:102D8000771F881F991F1A9469F760957095809531
:102D900090959B01AC01BD01CF010895EE0FFF1F7F
:0C2DA0000590F491E02D0994F894FFCF09
:102DAC00417374726F455100002020010100000531
:102DBC000C323533340307040810111312373665FF
:102DCC0000066100066200066700027300064B00F5
:102DDC00004506006A00066600034702004806002C
:102DEC004D06004906004A00005001004600004C08
:102DFC0000004106004206005306003031323334E5
:102E0C0035363738394142434445460000000058B6
:0C2E1C0012CC13EC111D12FD1146120027
:00000001FF
